:020000041000EA
:10000000002008205D0100101301001015010010F0
:100010001101001011010010110100101101001058
:100020001101001011010010110100101701001042
:100030001101001011010010190100101B01001026
:100040001D0100101D0100101D0100101D010010F8
:100050001D0100101D0100101D0100101D010010E8
:100060001D0100101D0100101D0100101D010010D8
:100070001D0100101D0100101D0100101D010010C8
:100080001D0100101D0100101D0100101D010010B8
:100090001D0100101D0100101D0100101D010010A8
:1000A0001D0100101D0100101D0100101D01001098
:1000B0001D0100101D0100101D0100101D01001088
:1000C0001D0100101D0100101D0100101D01001078
:1000D0001D0100101D0100101D0100101D01001068
:1000E0001D0100101D0100101D0100101D01001058
:1000F0001D0100101D0100101D0100101D01001048
:100100001D0100101D0100101D0100101D01001037
:1001100000BE00BE00BE00BE00BE00BEEFF3058004
:10012000103800BEF2EB8871441E0710641E0710E1
:10013000A801001090A31AE7D3DEFFFF42012110AF
:10014000FF01000020520700793512AB4FF000008C
:100150002049086006C881F3088810474FF05040D6
:10016000006810B14FF00000F2E70FA40ECC002998
:1001700002D000F015F8F9E71749184A002000E00E
:1001800001C19142FCD1002080F30A8814498847BC
:10019000144988471449884700BEFDE701C901C2D8
:1001A0009A42FBD3704700BF641E07101001002065
:1001B00004360020585307100000082000000820D3
:1001C00058530710001008200010082000000000FD
:1001D0007047000008ED00E0043600206C65002048
:1001E00061520010B902001025520010F8B500BF8E
:1001F000064B0749C91A891048BF0131491003D07D
:10020000044B0BB101481847704700BF043600206B
:10021000043600200000000008B5054B1BB105495D
:100220000548AFF30080BDE80840FFF7E1BF00BF1D
:100230000000000010640020380A051008B51920DD
:1002400001F0C0FF19234FF0010242EC44304FF09F
:10025000000242EC403008BD38B505F04BF94FF4D0
:10026000FA6002F0ADFE104C104920462AF0CCFB9B
:100270002AF048FAFFF7E2FF19254FF0010343EC9B
:10028000405000F005F90A4920462AF0BDFB2AF04B
:1002900039FA4FF0000343EC4050064920462AF05B
:1002A000B3FB2AF02FFA38BDEC510020380A0510B4
:1002B000580A0510900A05102DE9F041FFF7CCFF10
:1002C00000F0A8FB02F0B2FF074688461FE0C4B268
:1002D00021461D482AF07EFB0D2C08D00A2C06D0A2
:1002E00019482AF011F9204601F088F815E016485F
:1002F0002AF008FAF4E72746A846003E18BF012670
:10030000192346EC40306420002102F047FE002013
:1003100005F0F4F810F1020FD9D102F087FF04467E
:100320000D4600F0C9F906460028E4D0E11B65EB54
:10033000080344F62062914273F10003DDD300F01C
:10034000D5F82746A846D8E7EC5100200000000069
:10035000002810DD08B503F065FB02460B4603F0EC
:100360006BFA02460B4606A1D1E9000103F0B2FA8E
:1003700003F016FD08BD4FF0FF300146704700BF87
:100380000000000080842E41054B1A7882F00102A3
:100390001A701A78002342EC40300120704700BFE9
:1003A0006165002008B5084B1B782BB90023074A6C
:1003B000137043EC403008BD054802F0D1FE024BFB
:1003C00000221A70F2E700BF5F650020616500201F
:1003D00008360020F0B585B005460C4616461F4687
:1003E00002F094FC0A9B0293019700962A4623464A
:1003F00002F080FE05B0F0BD10B582B004461C4B83
:100400001B786BB92046FFF7A3FF012871F10003A9
:100410000DDA0023174A137043EC403002B010BDD0
:10042000154802F09DFE124B00221A70EAE7124BAB
:1004300000930023114AFFF7CDFF18B10C4B0122A6
:100440001A70EBE70E490F482AF0DEFA2AF05AF943
:1004500000230D490B700D490B6002214FF0010084
:1004600040EC401003490B7043EC4030D6E700BF2E
:100470005F650020616500200836002089030010B8
:10048000B80A0510EC510020606500206C3E002089
:1004900010B5002001F096FE012001F093FE02202D
:1004A00001F090FE0024012242EC444042EC442042
:1004B000022142EC441042EC402042EC401044EC5B
:1004C00040400A2002F07CFD044B1C70044B1C6071
:1004D000044B1C70044B1C7010BD00BF60650020F5
:1004E0006C3E00205F6500206165002010B5504B18
:1004F0001B78DBB2012B05D0032B37D0002B00F08B
:10050000838010BD4B4B1B68B3F5966F1ADA494BCD
:100510001A6814321A601B68B3F5966F03DD454BF9
:100520004FF496621A60424B1B78DBB2012B04D069
:100530003F4B1B78DBB2032BE3D13E4B1868FFF730
:100540005BFFDEE73B4C4FF496632360384B02229F
:100550001A70394939482AF057FA21682AF014FBF1
:1005600037492AF051FA2AF0CDF8DCE7314B1B6805
:10057000002B23DD2F4B1A68323A1A601B68002BC0
:1005800018DD2C4B1B68002BCDD1294B1B78002B81
:10059000C9D0274B00221A70FFF704FF02234FF047
:1005A000010242EC4030274924482AF02DFA2AF073
:1005B000A9F8A6E71F4B00221A60E2E71C4B1B7844
:1005C00073B9214B1B78E3B94FF050435B6813F0CC
:1005D000040F96D102234FF0010242EC403090E725
:1005E000134B00221A70FFF7DDFE02234FF00102C9
:1005F00042EC4030154911482AF006FA2AF082F8F8
:10060000DFE7FFF7CFFEDFE74FF050435B6813F003
:10061000040F04D00C4B1B78002B3FF472AF022365
:100620004FF0010242EC4030FFF7BCFE69E700BF2B
:10063000606500206C3E0020E00A0510EC510020AF
:10064000F40A0510FC0A05105F6500200C0B05106C
:1006500010B5134B1B78DBB9124C134920462AF016
:10066000D3F92AF04FF80E4B01221A700F4B642277
:100670001A6002224FF0000141EC40201868FFF799
:10068000BBFE0B4920462AF0BFF92AF03BF810BD0B
:10069000084904482AF0B8F92AF034F8F7E700BF0F
:1006A00060650020EC510020300B05106C3E0020EE
:1006B000480B05105C0B0510014B1878704700BF04
:1006C0006065002007EE900AB6EE007A77EE877A32
:1006D000FBFE677AFDEEE77A17EE903A002B23DBFC
:1006E0002E4A12689A4221D00122002B03DD2C49A8
:1006F000097801B9012213B92949097809B9002AF1
:100700004BD010B5254A13601368002B30DD244B05
:100710001B786BB1224B1B78DBB2042B1ED11F4B15
:100720001868FFF769FE10BD0023D9E70022DCE757
:100730001C4C1D4920462AF067F929F0E3FF0223EB
:100740004FF0000242EC4030154B04221A7017495A
:1007500020462AF059F929F0D5FFE0E7104B042292
:100760001A7013490F482AF04FF929F0CBFFD6E74A
:100770000B4B1B78002BD6D0FFF714FE02234FF053
:10078000010242EC4030064B00221A70094905482C
:100790002AF03AF929F0B6FFC5E770476C3E002011
:1007A00060650020EC5100208C0B0510A80B051093
:1007B000BC0B0510DC0B051008B51C4B1B78DBB21D
:1007C000022B13D0194B1B78DBB2012B0ED0174B29
:1007D0001B78DBB2042B09D0144B1B78FBB11449F6
:1007E00014482AF011F929F08DFF13E0124911483D
:1007F0002AF00AF929F086FF0C4B1B78DBB2042B98
:1008000009D00A4B03221A700C490A482AF0FCF856
:1008100029F078FF08BD0020FFF754FFFAE70849E8
:1008200004482AF0F1F829F06DFFF3E76065002035
:10083000500C0510EC5100200C0C0510200C05107C
:10084000340C051070B584B0044600258DF80050B6
:10085000304E304629F056FF21462AF0D5F8304672
:1008600029F052FE20E02B4829F04CFF002D4DD0FE
:10087000684648F087FD04460146274804F0B6FE66
:10088000204604B070BD002D20DD013D05F11003B0
:100890006B44002203F8102C1E4C204920462AF0FD
:1008A000B3F8204629F030FE0E2DDFD804F04EFEBE
:1008B00010F1020FF8D00028F6D0C4B20D2CD2D01F
:1008C0000A2CD0D0082CDED07F2CDCD0C0B2A0F116
:1008D0003003092BE8D840F027FC0028E4D06E1C38
:1008E00005F110030DEB030505F8104C06F110039C
:1008F0006B44002203F8102C064D214628462AF0AE
:1009000069F8284629F000FE3546CDE74FF0FF3460
:10091000B6E700BFEC510020700C05106C0C051000
:1009200070B588B0044600268DF80060364D284624
:1009300029F0E8FE21462AF067F8284629F0E4FD70
:100940002DE0314829F0DEFE684648F0F3FC03F064
:100950005BF804464FF0ECFF02460B462B4804F0D0
:1009600045FE204608B070BD002E2ADD013E06F18E
:1009700020036B44002203F8202C234C24492046FA
:100980002AF042F8204629F0BFFD08E02E216846F3
:1009900048F008FDE0B9204640F0C6FBE8B91E2E3D
:1009A000D2D804F0D3FD10F1020FF8D00028F6D011
:1009B000C5B20D2DC5D00A2DC3D0082DD4D07F2DA2
:1009C000D2D0C4B2A4F13003092BE4D92E2DDDD04E
:1009D0002D2DE4D1002EE2D1DDE7741C06F12003B9
:1009E0000DEB030606F8205C04F120036B440022A3
:1009F00003F8202C044E2946304629F0EBFF304600
:100A000029F082FD2646CAE7EC510020880C05102B
:100A10006C0C051010B5224C2249204629F0F4FF39
:100A200029F070FE2049204629F0EEFF29F06AFEE9
:100A30001E49204629F0E8FF29F064FE1C492046A3
:100A400029F0E2FF29F05EFE1A49204629F0DCFF7A
:100A500029F058FE1849204629F0D6FF29F052FE09
:100A60001649204629F0D0FF29F04CFE14492046B3
:100A700029F0CAFF29F046FE1249204629F0C4FF9A
:100A800029F040FE1049204629F0BEFF29F03AFE29
:100A90000E49204629F0B8FF204629F035FD10BD4B
:100AA000EC510020A40C0510C40C0510EC0C051032
:100AB0000C0D0510300D0510500D0510680D0510BA
:100AC000800D0510A40D0510C80D0510DC0D0510D6
:100AD00008B50C490C4829F097FF29F013FE00F0E7
:100AE00005FD40B10949084829F08EFF29F00AFEAA
:100AF000FFF790FF08BD0649034829F085FF29F05C
:100B000001FEF5E7EC0D0510EC510020140E051068
:100B1000380E051008B50C490C4829F075FF29F06E
:100B2000F1FD00F051FD40B10949084829F06CFF82
:100B300029F0E8FDFFF76EFF08BD0649034829F0DC
:100B400063FF29F0DFFDF5E7580E0510EC5100209A
:100B5000700E05108C0E051030B5C1B050495148CB
:100B600029F052FF29F0CEFD00F02EFD28B34FF4FE
:100B700080720021684645F02BFA4B4800F0CEFD0C
:100B80000446B0F1FF3F21D078B3FF283CD8FF22C4
:100B90006946454800F074FD041E49DC002C71D103
:100BA0004249404829F030FF3F4929F02DFF404994
:100BB00029F02AFF29F0A6FD60E03E49394829F0D6
:100BC00023FF29F09FFDFFF725FF59E03A493548FB
:100BD00029F01AFF344929F017FF384929F014FF8A
:100BE00029F090FDFFF716FF4AE035492D4829F01E
:100BF0000BFF2D4929F008FF324929F005FF29F0A4
:100C000081FDFFF707FF3BE02F49264829F0FCFE56
:100C1000214629F013FF2D4929F0F6FE4FF480718B
:100C200029F0B6FF2A4929F0EFFE29F06BFDAEE767
:100C30001C4D2849284629F0E7FE214629F0A4FF4B
:100C4000254929F0E1FE184929F0DEFE234929F063
:100C5000DBFE29F057FD224C2146284629F0D4FE20
:100C600029F050FD6946284629F0CEFE29F04AFDBC
:100C70002146284629F0C8FE29F044FDFFF7CAFEA8
:100C800041B030BD1749074829F0BEFE064929F09A
:100C9000BBFE074929F0B8FE29F034FDEEE700BF9E
:100CA000B80E0510EC510020140F0510F00F0510C0
:100CB000540F0510DC0E0510240F0510440F05100D
:100CC000580F0510600F05106C0F0510840F0510EC
:100CD000980F0510B40F0510C80F051088300510C7
:100CE000D80F0510041005102DE9F04F2DED048BE1
:100CF0008BB04E4804F04CFC4D4804F049FC00F029
:100D0000DDFF039028B102F091FA049005910025CF
:100D10003AE0484804F03CFCFFF77CFE1FE01C1959
:100D200048EB0208B8F1000F1EDB02F07FFA201A30
:100D300068EB0101012871F100011ADB642004F065
:100D4000DDFB732801D05328EFD13B4804F020FC91
:100D5000FFF732FD0123002B60D0FFF75BFE0BB0E5
:100D6000BDEC048BBDE8F08F4FF0FF346FF000480E
:100D7000DBE78DED008B32463B46304804F036FC15
:100D80005846FFF79FFC0135039B9D4244D22946FC
:100D900007A800F0A1FF9DED079A19EE100A4FF089
:100DA000C7FD06460F46DDF824B058464FF0C0FD9B
:100DB00041EC180BCDE9000132463B46294620485C
:100DC00004F014FC02F032FA04468846049BB0EBAF
:100DD0000309059B61EB030ADFED1A7A69EE277AB6
:100DE00017EE900A03F02CF8B0EB090361EB0A024E
:100DF00040F2E9318B4272F1000190DA12498B42E4
:100E00004FF0FF3372EB0303B3DA32463B46294619
:100E10000E4804F0EBFBACE700239CE70C4804F021
:100E2000B7FB0020FFF74EFC97E700BF1C10051032
:100E3000381005104C100510C01005100C110510CD
:100E40009010051000247449F0D8FFFFD41005104D
:100E50003811051000B5034601FB01FC0CFB01FE37
:100E60000EFB01F2012099420AD8634507D373456E
:100E700008D3934208D3B3FBF2F30430F3E7013015
:100E80005DF804FB0230FBE70330F9E770B5B4B05E
:100E900005460E461446C922194901A849F082F8B0
:100EA000711E15E0174AA2FB04325309642000FBAF
:100EB00013435B00540903F1D1026A4412F8CC2CAD
:100EC0006A544A1ED0336B4413F8CC3CAB540239FD
:100ED000632CE7D8092C0FD9640004F1D1036B44CB
:100EE00013F8CC3C6B7004F1D0030DEB030414F841
:100EF000CC3C2B7034B070BD30342C70FAE700BF9E
:100F0000501105101F85EB5138B504460D460A21D6
:100F10002846FFF79FFF014604F1080323600022E3
:100F200020462AF039FA2A4661682068FFF7AEFFAA
:100F3000204638BD03684068984214BF0020012055
:100F40007047000000B593B02E492F4829F05CFD92
:100F500029F0D8FB00F038FB00283AD002F066F9FF
:100F600000293FD04FF47A7200234FF0F1FC014684
:100F70000CA8FFF7C9FF254A00210CA82AF06AFC3B
:100F8000014606A82AF0E2FA214906A82AF0A8FCA0
:100F9000014668462AF0DAFA06A82AF0F5F90CA804
:100FA0002AF0F2F9019A00991A4800F013FBF0B107
:100FB0001949154829F028FD164929F025FD29F081
:100FC000A1FBFFF727FD68462AF0DEF913B05DF8B4
:100FD00004FB12490C4829F017FD29F093FBFFF799
:100FE00019FDF3E70E4BA3FB00308109C0E70D4963
:100FF000054829F009FD074929F006FD29F082FB83
:10100000DFE700BF1C120510EC5100204012051054
:10101000B4180510140F051070120510DC0E051021
:10102000D34D62109412051038B504460D4603E006
:1010300020462AF0A9F91834AC42F9D138BD08B5D8
:10104000FFF7F2FF08BD08B5084602EB4202D100E7
:1010500002F074FF08BD000010B504460168826804
:10106000521AD210034B03FB02F209B1FFF7EBFF58
:10107000204610BDABAAAAAA10B504464168006874
:10108000FFF7DDFF2046FFF7E7FF204610BD000019
:1010900070B52DED028B8AB0B349B44829F0B4FC89
:1010A00029F030FB00F090FA80B1B14AB14907A8AD
:1010B00000F088FC07A8FFF73DFF80B9AE49AB48B8
:1010C00029F0A2FC29F01EFB00221BE0AB49A74837
:1010D00029F09AFC29F016FBFFF79CFCAFE0A84929
:1010E000A24829F091FC29F00DFBFFF793FCA3E047
:1010F000541C02EB420251F832202146A14804F070
:1011000075FA22460799089B5B1ADB109E4800FB84
:1011100003F39A42ECD303AB0193002302938DF8BF
:101120000C3011E09949914829F06EFC0899079B11
:10113000C91AC910944B03FB01F129F029FD944908
:1011400029F062FC29F0DEFA9248FFF77BFB0028C9
:10115000E8DD0799089B5B1ADB108B4A02FB03F35F
:101160009842DFD8013800EB400001EBC00101A834
:101170002AF044F90199884804F038FA87497B48F5
:1011800029F042FC029A019929F0E0FA844929F0F9
:101190003BFC29F0B7FA019800F096FC002839D002
:1011A0008049724829F030FC029A019929F0CEFA60
:1011B0007D4929F029FC29F0A5FA00F06BFD0546D0
:1011C000002840D07949694829F01EFC294629F0B9
:1011D000DFFC774929F018FC29F094FA284602F040
:1011E00085FE064690B3294600F018FD0446714975
:1011F0005E4829F009FC214629F0C6FC29F082FA54
:10120000002C01DDAC4224D0304602F083FEFFF713
:1012100001FC0EE06849554829F0F6FB029A019955
:1012200029F094FA654929F0EFFB29F06BFAFFF7F2
:10123000F1FB01A82AF0A8F807A8FFF71DFF0AB0E4
:10124000BDEC028B70BDFFF7E5FBF2E7FFF7E2FBB9
:10125000EFE7464D5A49284629F0D6FB29F052FAC5
:101260002146304600F0CAFE04465649284629F079
:10127000CBFB6CB3544929F0C7FB29F043FA00F0CB
:101280001DFD05465149394829F0BEFB294629F084
:101290007FFC29F037FA304602F03CFED4B1CDB1E4
:1012A0009FED4B8AB5EEC08AF1EE10FA15D8494889
:1012B000FFF736FB08EE100AB5EEC08AF1EE10FA21
:1012C0000BD84549294829F09FFB29F01BFAE9E78B
:1012D0004249D0E7FFF79EFBABE7DFED417AC8EE6E
:1012E000277A17EE904A20464FF022FB02460B4623
:1012F0003C4804F07BF91D4D3B49284629F084FB0E
:1013000029F000FA204600F013FD0446374928462C
:1013100029F07AFB0CB32C4929F076FB29F0F2F97D
:10132000ECB100F0CBFC04463149104829F06CFBCD
:10133000029A019929F00AFA2E4929F065FB214603
:1013400029F026FC29F0DEF9FFF764FB01A82AF05A
:101350001BF807A8FFF790FE71E72049DCE7264855
:1013600004F016F9DDE700BFC4120510EC510020AF
:10137000E4120510F417051020130510DC0E0510FB
:10138000EC12051038130510ABAAAAAAB013051069
:10139000540F0510441305106C130510801305102D
:1013A0009813051018140510301405103C1405107E
:1013B000641405106C140510E8130510FC130510D7
:1013C00094140510B0140510B4120510CC140510B7
:1013D00000000000F414051018150510BC120510CB
:1013E0000000C8423C1505105C150510801505105D
:1013F000D4150510F0150510A415051010B5A0F1B1
:101400000A036D2B5CD8DFE803F0395B5B395B5B6B
:101410005B5B5B5B5B5B5B5B5B5B5B5B5B5B5B5B1C
:101420005B5B5B5B5B5B5B5B5B5B5B5B5B5B5B5B0C
:101430005B5B5B5B5B5B5B5B5B5B5B5B5B5B5B58FF
:101440005B5B5B5B555B5B5B5B4C5B4F46585B5B25
:101450005B5B493D375B5B525B5B5B5B5B5B5B5B39
:101460005B5B5B5B555B5B5B5B4C5B4F46585B5B05
:101470005B5B493D375B5B52FFF7EAF8184829F0A0
:1014800043F810BDFFF798F9FFF716F90028F5D1DA
:10149000FFF7C0FAF2E7FFF7FBFDEFE7FFF724FCE9
:1014A000ECE7FFF715FBE9E7FFF734FBE6E7FFF7AB
:1014B00049FDE3E7FFF750FBE0E7FFF7ABFADDE7B5
:1014C00004460849064829F09FFA214629F082FA85
:1014D000054929F099FA29F015F9FFF79BFACDE7AC
:1014E000EC510020101605102C14051010B588B012
:1014F000284804F04DF8284B00221A70EC46274C7F
:101500000FCCACE80F0094E80F008CE80F006846A1
:101510000AF09EFB01222249224809F003FA58B939
:10152000214804F035F81F4B1B78013B032B2DD8C5
:10153000DFE803F00820242801461C4804F056F890
:10154000002015E01A4804F023F8164B5989DA6A8E
:10155000A1FB0220A1FB022301FB0033120D42EA92
:1015600003321B0D134804F041F801200A4B187098
:1015700008B010BD104804F00BF8E6E70F4804F07F
:1015800007F8E2E70E4804F003F8DEE70D4803F041
:10159000FFFFDAE7241605105E650020A043051062
:1015A000F41705107C3E0020641605103C1605104B
:1015B00084160510D416051094160510A4160510EF
:1015C000B4160510C4160510014B1878704700BFFB
:1015D0005E650020F0B5ADF5177D224B1E78FEB19B
:1015E00004460D4617460A22014602A809F0C6F92C
:1015F0000246E0B901AB3A46294602A809F008FCC8
:101600000246D0B90199B94220D302A809F0BCFD25
:10161000024608BB22460199134803F0E7FF02E0A7
:10162000124803F0B5FF30460DF5177DF0BD214699
:101630000F4803F0DBFF0026F5E721460D4803F0D5
:10164000D5FF02A809F0A0FD0026ECE723463A46A4
:10165000094803F0CBFFD8E72146084803F0C6FF4E
:101660000026E0E75E650020D0170510EC16051097
:10167000081705103C170510681705109817051076
:1016800070B5ADF5167D1F4B1B78FBB104460D46BA
:1016900016460122014602A809F070F90246D8B99F
:1016A00001AB3246294602A809F0C6FA0246D0B973
:1016B00002A809F069FD0246F8B9224601991248CC
:1016C00003F094FF01980DF5167D70BD0F4803F0EF
:1016D0005FFF4FF0FF30F6E721460D4803F086FF2D
:1016E0004FF0FF30EFE721460A4803F07FFF02A8E2
:1016F00009F04AFD4FF0FF30E5E72146064803F0C8
:1017000075FFDAE75E65002090180510EC160510ED
:10171000F81705102C1805105818051010B5C8B08A
:101720000C4B1B7843B10446694609F0B9FD0246EB
:1017300040B9009848B010BD074803F029FF4FF0AA
:10174000FF30F7E72146054803F050FF4FF0FF3028
:10175000F0E700BF5E650020EC160510B818051014
:1017600000680B68984214BF0020012070472DE9E3
:10177000F84304460F46164605E02368013B236004
:101780003368013B336039462046FFF7E9FF804666
:1017900068B92368326812F8019C13F8010C3FF015
:1017A00089FF054648463FF085FFA842E5D0404600
:1017B000BDE8F88342684B689A4201D20020704726
:1017C00030B585B005460C4601A829F0DBFE214660
:1017D00002A829F0DDFE294603A829F0D3FE4FF028
:1017E000000303AA02A901A8FFF7C1FF05B030BD9D
:1017F00070B582B004460E46551A01950F2D0DD8CE
:1018000000942A463146206829F0ECFD002200921F
:10181000019B63602168CA5402B070BD002201A917
:1018200029F08AFD2060019BA360E9E738B500F14B
:101830000803036069B104460D46084648F028FCD9
:101840004FF000032A1829462046FFF7D1FF204613
:1018500038BD01481EF092FDFC18051030B585B06A
:101860008446019144680368E31ADB10114803FBC6
:1018700000F0114D2D1A8D4213D30390814213D8DD
:1018800003AA12681044DCF80030E41AE410094B93
:1018900003FB04F4A04209D3074B984208D805B0D3
:1018A00030BD10461EF082FD01AAEAE70248F6E7C5
:1018B0000148F4E7ABAAAAAA5555550508B5084B47
:1018C000994205D801EB4101C80002F027FB08BD91
:1018D000044B994201D91EF031FD1EF01FFD00BFDF
:1018E00055555505AAAAAA0A10B50C4629F02EFE90
:1018F000204629F049FD10BD2DE9F84F07460C465A
:101900001646254A0121FFF7A9FFD7F800B0D7F8FE
:1019100004802546A4EB0B04824668B100220146F0
:101920003846FFF7CBFF8146314609EB04002AF029
:10193000D7F84C465E4609E04FF00009F4E73A4616
:1019400031462046FFF7D0FF18361834B542F6D19D
:10195000183406E03A4629462046FFF7C5FF1835F9
:101960001834A845F6D1BB68A3EB0B03DB100B4A78
:1019700003FB02F2BBF1000F03D059463846FFF7D4
:1019800062FBC7F800907C600AEB4A0A09EBCA03C5
:10199000BB60BDE8F88F00BF30190510ABAAAAAA3A
:1019A00010B504464068A368984205D02AF098F81C
:1019B00063681833636010BD0A4601462046FFF78E
:1019C0009BFFF8E770B5EAB004460E4615460023C3
:1019D000036043608360FFF7F7FD28B92F4803F0E9
:1019E000D7FD20466AB070BD314654A809F0DCFB33
:1019F000024620B131462A4803F0F8FDF1E72A46B5
:101A00003146284803F0F2FD1DE009B1042910D148
:101A100054A809F014FC014600283AD161682368F3
:101A2000C91AC910204B03FB01F1204803F0DEFD69
:101A3000D7E71F4803F0DAFDEAE706A829F0A4FC7F
:101A4000684629F0A1FC0CA954A809F002FC014643
:101A50000028DAD19DF84A30002BD6D09DF83C30D2
:101A600013F0120FEFD168AA0DF14A016846FFF793
:101A7000DDFE69AA294606A8FFF7D8FE06A9684632
:101A8000FFF798FE0028D8D069462046FFF788FF68
:101A9000D3E7084803F0AAFDC0E700BF4C190510C2
:101AA00078190510B4190510ABAAAAAA541A051082
:101AB000E0190510181A0510024B00221A605A602E
:101AC0009A607047703E00202DE9F04104460146BF
:101AD000444803F08BFDFFF777FD064650B32046E0
:101AE000FFF71CFE051E2BDB85B305F10803B3F5DC
:101AF000803F31D805F2071727F0FF07384602F07C
:101B0000F5F9804688B33A46FF2144F061FA2A4647
:101B100008F108012046FFF7B3FD021E01DB9542E4
:101B200029D02146304803F061FD404602F0F2F929
:101B3000002602E02D4803F02BFD3046BDE8F08181
:101B400021462B4803F052FD0026F6E7214629489E
:101B500003F04CFD0026F0E74FF4803308222946BD
:101B6000254803F043FD0026E7E73946234803F004
:101B70003DFD0026E1E7224BC8F80030C8F80450CC
:101B80004FF47C1239461F4803F030FDEFF3108408
:101B900072B639461C4803F029FD39464FF47C10D3
:101BA0004EF0EAFE3946194803F020FD3A46414618
:101BB0004FF47C104EF094FE84F3108808221449F0
:101BC000404644F0F7F80446404602F0A3F91CB939
:101BD000104803F0DDFCB0E70F4803F0D9FC002605
:101BE000ABE700BF801A0510881B05109C1A051072
:101BF000B81A0510DC1A0510F81A0510541B051048
:101C0000EFBEEDFDC01B0510001C0510181C0510D3
:101C100000003F10341C05105C1C051010B5164B5D
:101C20001A68164B9A4212D1134B5C68621E4FF62B
:101C3000F7739A4211D88C4216D82246104948F0C0
:101C4000B1F921460F4803F0D1FC204610BD0E48E3
:101C500003F09EFC4FF0FF30F8E721460B4803F0FD
:101C6000C5FC4FF0FF30F1E72246094803F0BEFC07
:101C70004FF0FF30EAE700BF00003F10EFBEEDFD80
:101C800008003F103C1D0510841C0510B01C0510F9
:101C9000F01C0510074B1A68074B9A4201D0002030
:101CA0007047044B58684FF6F7739842F8D90020F4
:101CB000704700BF00003F10EFBEEDFD044A5368BF
:101CC00012689B1A9B10034803FB00F0704700BF8B
:101CD000703E0020ABAAAAAA10B504460D4B5A6864
:101CE0001B68D21A92100C4800FB02F2914209D2F2
:101CF00001EB410103EB810393E8070084E807004F
:101D0000204610BD054803F071FC0023236063608A
:101D1000A360F5E7703E0020ABAAAAAA581D0510E3
:101D200003684068984214BF0020012070470000FB
:101D300038B52DED028B08EE100AB5EEC08AF1EE33
:101D400010FA18D94448FFF7EBFFE8B9424D6C6828
:101D50002B68E41AA410414B03FB04F418EE100A9C
:101D60004EF0E6FD02460B4621463D4803F03EFCA0
:101D70002B686D6840E04EF0DBFD02460B463948AB
:101D800003F034FC002060E0374803F001FC002041
:101D90005BE017EE100A4EF0CBFD01F0E9FD01F01B
:101DA00033FE07EE900A01E0DFED307AF5EEC07AFF
:101DB000F1EE10FA3FDD9FED2E7A67EE877A17EE8F
:101DC000900A4EF0B5FD22A3D3E9002301F082FD75
:101DD00001F01AFE07EE100AB5EEC07AF1EE10FA25
:101DE0002CDDDFED246AC7EE267A01E0DFED1F7AF5
:101DF000C4ED027A04F10C031C469D4221D0D3EDC0
:101E0000017AF0EEE77A9FED1C7A67EE877AB5EEFD
:101E1000C08AF1EE10FAC7DDF5EEC07AF1EE10FAE5
:101E2000E4DD87EE887AB5EEC07AF1EE10FAB0DC28
:101E3000DFED0E7ADCE7DFED0D7AD9E7DFED0B7A27
:101E4000D6E70E4803F0A4FB0120BDEC028B38BDA1
:101E5000182D4454FB211940703E0020ABAAAAAAB9
:101E6000081E05109C1D0510D41D05100000000063
:101E7000000070429A99993E0AE81C41581E0510CC
:101E800040680C38704708B5084602EB42029100E2
:101E900002F054F808BD03684268934200D04360E2
:101EA0007047000030B585B08446019144680368EE
:101EB000E31A9B10114803FB00F0114D2D1A8D42BF
:101EC00013D30390814213D803AA12681044DCF89C
:101ED0000030E41AA410094B03FB04F4A04209D318
:101EE000074B984208D805B030BD10461EF05EFA88
:101EF00001AAEAE70248F6E70148F4E7ABAAAAAA72
:101F0000AAAAAA0A08B5084B994205D801EB4101D3
:101F1000880002F003F808BD044B994201D91EF075
:101F20000DFA1EF0FBF900BFAAAAAA0A55555515CD
:101F30002DE9F84F05468A469346234A0121FFF7CB
:101F4000B1FFD5F80090D5F80480AAEB0904074644
:101F500058B3002201462846FFF7D4FF064633193E
:101F60009BE8070083E80700002C20DC0C34344495
:101F7000A8EB0A08B8F1000F1FDC4444AA68A2EBE2
:101F800009029210114B03FB02F2B9F1000F03D0CA
:101F900049462846FFF777FF2E606C6007EB47073E
:101FA00006EB8706AE60BDE8F88F0026D7E722462D
:101FB0004946304643F08CFFD8E74246514620461A
:101FC00043F086FFD9E700BF30190510ABAAAAAAD3
:101FD00010B5044643688268934209D007C983E874
:101FE000070063680C3363602046FFF749FF10BDAC
:101FF0000A461946FFF79CFFF6E7000070B586B069
:1020000005460C46434803F0F1FA4348FFF743FF07
:10201000601C01F06BFF68B106462246294647F076
:10202000C1FF0025355502AA3C4930463FF07EFBF2
:1020300004462AE03A4803F0ABFA00254AE002AA37
:10204000364900203FF072FB04461EE03549204629
:102050003FF01EFD68BB344920463FF019FD844225
:102060003BD000230093019301AB6A462F492046E1
:102070003FF0D2F902283BD02378002B45D102AAA9
:10208000264900203FF052FB0446ACB1002DDDD1C3
:10209000274920463FF0FCFC0028D0D0254803F01B
:1020A00077FA02AA1D4900203FF040FB04460125B3
:1020B000EBE7214803F06CFA304601F02BFF164A9B
:1020C000536812689B1A9B101C4903FB01F11C48C2
:1020D00003F08CFA284606B070BD2146194803F07B
:1020E00085FA02AA0D4900203FF020FB0446CCE708
:1020F0000023039304930593009B0393019B049394
:1021000003A90548FFF764FFB9E721460E4803F02D
:102110006DFAB4E7741E0510703E0020C81E05104D
:10212000981E0510F81E05102C1F0510501F0510D5
:10213000CC1E0510E01E0510081F0510ABAAAAAAA8
:10214000801F0510341F0510581F051008B5FFF734
:10215000B3FC08BD0C4B03EB800253F8203083F036
:10216000400303F0C00302F5805CCCF80030C000EF
:1021700000F1804000F52030416002F540524FF4FC
:1021800080731360704700BF0480034010B40C4C90
:1021900004EB800C79B108237AB10422134354F87C
:1021A0002020534003F00C030CF5805CCCF8003089
:1021B0005DF8044B70470023EEE70022EEE700BF16
:1021C0000480034008B54FF0000242EC440042ECAA
:1021D00040000521FFF7BEFF08BD00000FB400B5A9
:1021E00083B0049C074803F0D3F93CB105A90191E1
:1021F000204603F0DDF9044803F0CAF9012002F09B
:10220000C1FF00BFAC1F0510B4180510EFF310801C
:1022100072B6064BD3E8CF1F01220029FAD1C3E8DA
:10222000412F0029F6D1BFF35F8F7047A3590020DB
:102230000023034AC2E88F3F80F31088704700BF35
:10224000A359002070B505460C461646FFF7DEFF81
:10225000E208A95C04F0070C012303FA0CF319420D
:1022600005D1DBB20B43AB54FFF7E2FF70BD214653
:102270003046FFF7B3FFF8B506460D4614461F4635
:10228000FFF7C4FF00E00134BC420ED84FEAD40C83
:1022900016F80C1004F0070301229A401142F2D103
:1022A000D2B20A4306F80C2001E04FF0FF34FFF7EA
:1022B000BFFF002C01DB2046F8BD002DFBD00698A7
:1022C000FFF78CFF054A1078431CDBB21370172B05
:1022D00002D9134610221A70704700BFDC24002078
:1022E00000B583B00146054B00931F231822044814
:1022F000FFF7C1FF03B05DF804FB00BFBC1F051072
:10230000B85E00204FF0E022936843F000539360E2
:1023100070470000002305E0044A1A440021C2E887
:102320008F1F01331F2BF7D9704700BF985900202A
:10233000064B9B68103043F82010BFF35F8F0023DB
:102340000349C1E88F3F82F31088704700ED00E039
:10235000A15900200048704700E400E008B5FFF7ED
:10236000F9FF002304E04FF0803240F8042B0133E2
:102370000C2BF8D908BD000008B50388DA0A1C2A1E
:1023800006D15B050BD45B15023300EB430008BD9F
:10239000064B074A40F21511064802F047FF03F5C5
:1023A000FF1303F5FF531F33EDE700BFD81F0510E0
:1023B000E8430510F01F051008B5091A01F2FC7278
:1023C00040F6FE739A4208D8081F11F0010F04D19D
:1023D000C0F34A0040F4604008BD034B034A40F29A
:1023E0000711034802F022FF34200510DC430510DA
:1023F000F01F05104209064B53F8222000F01F0081
:10240000012383401A4214BF01200020704700BFFF
:1024100000E100E03AB1064B00F1600243F82210FF
:1024200043F8201070472030014B43F820107047CC
:1024300000E100E008B50A4600F01F0301219940C1
:102440004009FFF7E7FF08BD00F01F024009012324
:1024500093404030014A42F82030704700E100E0EC
:10246000024B9B68103053F82000704700ED00E0ED
:1024700008B5FFF7F5FF034BC01A2F288CBF0020CB
:10248000012008BDE024002070B505460C46EFF39E
:10249000108672B60F4BD3E8CF1F01220029FAD164
:1024A000C3E8412F0029F6D1BFF35F8FFFF7D8FFB4
:1024B000094B984201D0A04205D132462146284618
:1024C000FFF736FF70BD054B054AE721054802F0CE
:1024D000ADFE00BFA15900201D01001064200510B1
:1024E00010440510F01F05102DE9F04F87B0009142
:1024F0001546EFF3108A72B67C4BD3E8CF1F01224A
:102500000029FAD1C3E8412F0029F6D1BFF35F8F2C
:10251000774B93F90040002C44DB804604EB4407E2
:10252000744B03EB870797F90610714A1170724AD2
:10253000926800F1100152F82190A9EB03022F2AB2
:102540003ED96E4B994534D14FF42143ADF80C3050
:102550004FEA440904EB4400664E06EB80006849EC
:102560000230FFF729FFADF80E004BF60153ADF82E
:102570001030FF238DF812308DF81350009B059317
:10258000A14406EB890306AA12E9070083E80700C5
:1025900047F00109524649464046FFF7C9FE07B0D9
:1025A000BDE8F08F574B584A40F27311574802F07C
:1025B0003DFE574B544A4FF4BD71544802F036FE6D
:1025C00029F0010BABEB0303524AA2FB0312D20822
:1025D00002EB4202B3EB820F0FD15B460026DA79A1
:1025E000AA4212D993F90620002A0DDB02EB42021F
:1025F0001E46404B03EB8203F1E7474B424A40F251
:102600008B11424802F012FE1E46A6B344F60103A7
:10261000ADF80C304FF48F43ADF80E3096F906B09C
:10262000BBF1000F1ADA4BF60150ADF810008DF82F
:1026300012B08DF81350009B05933946301DFFF7FB
:10264000BBFEB080B47104EB44042A4B03EB84035B
:1026500006AA12E9070083E807009BE7301DFFF791
:102660008BFE014604EB4402224B03EB8203181D50
:10267000FFF7A2FED9E74FF42143ADF80C30630019
:10268000019304EB4406DFF86C9009EB86061C49C5
:10269000B01CFFF791FEADF80E005946301DFFF754
:1026A0008BFEADF810004AF6AA235A464946521A44
:1026B000524153431B0D8DF812308DF81350009A80
:1026C0000592019B234409EB830906AB13E907003C
:1026D00089E8070044F60103ABF800304FF48F435C
:1026E000ABF8023047F0010954E700BFA1590020C0
:1026F00067650020E024002000ED00E01D010010CF
:10270000102500209C200510F8430510F01F05102F
:10271000C4200510ABAAAAAAEC20051038B540F0D9
:102720000104324BE31A2F2B31D8EFF30581C9B2E4
:10273000002933D0EFF3108E72B62D4BD3E8CF5F64
:102740000122002DFAD1C3E8452F002DF6D1BFF3A9
:102750005F8F4AF6AA230246244D521B524153432F
:102760001B0D4FFA83FC234B9B6853F82130A34287
:102770001BD00023032B32D803EB43011B4A02EB8F
:10278000810292F90620624520D00133F2E71A4B0C
:102790001A4A4FF41D711A4802F048FD194B174AA6
:1027A00040F27721164802F041FD124B9B68164A11
:1027B00043F82120154B1A78827183F800C000235A
:1027C0000B4AC2E88F3F8EF3108838BD074A02EBF0
:1027D0008101FF248C714BF601538B80EAE70C4B8F
:1027E000064A4FF42271064802F020FDE024002042
:1027F000A159002000ED00E070210510C043051034
:10280000F01F0510982105101D01001067650020BC
:10281000A421051000B583B00146074B00930523A2
:1028200000220648FFF727FD002801DBC0F1330036
:1028300003B05DF804FB00BFAC2105106B65002000
:10284000014B0B44036070479859002010B50446B3
:10285000FFF738FD01462046FFF7F2FFFF23237103
:10286000BFF35F8F10BD10B50446FFF72BFD014687
:102870002046FFF7E5FFFF23237100236371BFF3B9
:102880005F8F10BD10B50D4C09E00D4B0D4A1A219C
:102890000D4802F0CBFC2046FFF7D8FF08340B4B65
:1028A0009C4209D22368002BF5D0012BEDD12046A4
:1028B000FFF7D9FF0834F2E710BD00BFFC35002058
:1028C000C821051050440510E821051004360020E9
:1028D000024B0B440360BFF35F8F70479859002091
:1028E00010B504460120FFF7FBFC01462046FFF728
:1028F000EFFF10BD0246EFF30583DBB2103B9908F2
:1029000004D0034803F00303136070470148F9E75C
:1029100000800B4000000B4010B4846AA2EB040C52
:102920000B1D50F823301B1B9C4504D3046A012364
:102930008B401C4202D1043140F821205DF8044B49
:10294000704741EA004070470D4B1A68EFF3108161
:1029500072B6D2E8CFCF0120BCF1000FF9D1C2E8A6
:102960004C0FBCF1000FF4D1BFF35F8F1A68002346
:10297000C2E88F3F81F3108840BF002000217047DC
:102980003C6500202DE9F04F85B003A8FFF7B2FFAA
:10299000A94B984214BF00230123039901EB830341
:1029A000A64A52F823402378994206D105460122CF
:1029B0008A4000F541535A6014E1A14BA14A92218B
:1029C000A14802F033FCD4F8149006EB46074FEA16
:1029D000C70A09EBC707D7F808B0D7F80C80284614
:1029E00000F0FAFBB0EB0B0061EB0803002BC0F228
:1029F0000281B8F1000F60DB3B691A460093934BEC
:102A00009A4230D0798889B2B4F90800FFF799FF6B
:102A10007969009B9847009001910099019A51EAC9
:102A200002034AD01346002A29DABBEB010268EB05
:102A30000308BA60C7F80C8039F90A30002BC0F2DD
:102A4000DA80D4F814E003EB43010EEBC10188688F
:102A5000C968101A68EB01010029C0F2CC80A446B5
:102A60002CF8083F15E07A691369009210469847E0
:102A700018B3009A1368009353680193CDE7284672
:102A800000F0AAFB009B1A18019B43EB0108D0E75A
:102A90009C46BCF90070002F0ADB07EB47030EEBE6
:102AA000C3039868D968101A68EB01010029EFDAAE
:102AB00029F80A70ACF800609DE039F90A302381EA
:102AC0002369EFF3108272B6D3E8CF0F01210028FB
:102AD000FAD1C3E8401F0028F6D1BFF35F8FB4F9E5
:102AE000023029F80A30668021690023C1E88F3F4F
:102AF00082F310887FE02369EFF3108272B6D3E887
:102B0000CF0F01210028FAD1C3E8401F0028F6D1D9
:102B1000BFF35F8FB4F804800FFA88F84FF6FF73A5
:102B2000A38021690023C1E88F3F82F3108815E05C
:102B30001E46B6F90020002A0ADB02EB42030CEB2A
:102B4000C3039868D968381A6EEB01010029EFDADF
:102B5000A6F800803CF909802CF80920B8F1000F94
:102B60004EDBD4F814C008EB48034FEAC3090CEB62
:102B7000C3039F68D3F80CE004F10806D9E70023EB
:102B8000A37104F1080CB4F9083010E04FF0FF38DD
:102B90004FF0FF39C0E90289B4F90800984205D026
:102BA000ACF80020B4F90800C85323811346B3F1F0
:102BB000FF3F28D0616903EB4302D70001EBC2005D
:102BC00031F93220468816F4004FDFD18446EDE714
:102BD000284600F001FB3F1A66EB0106012F76F153
:102BE000000635DA039A01239340EB63B4F90860D9
:102BF000002EBFF6E8AEA38813F4004F3FF47BAF7E
:102C0000A379002BBBD1B4F90830002B20DB62691B
:102C100003EB430302EBC3039F68DE68B6F1FF3F9B
:102C200008BFB7F1FF3FD3D03A4633460399284651
:102C3000FFF772FECCE700BF00800B40306400203D
:102C40007C2205107C440510A8220510852900105F
:102C500040BF05B0BDE8F08FF8B504460D461146FB
:102C60000A4B984210D000262E44012707FA05F59A
:102C700025623046FFF708FC39463046FFF7DAFB9D
:102C800004F501542560F8BD0426EDE700800B40F3
:102C9000F8B504460E4617461D46C160FFF712FB05
:102CA000164B034423612770ABB263814FF050424F
:102CB000127862704FF6FF722281A280013B63801E
:102CC0004FF0000C08E00CF1FF300CEB4C0E636988
:102CD00023F83E000CF1010CAC45F4D3084B9E42A6
:102CE00014BF0023012307EB8303064A42F8234065
:102CF000054A39463046FFF7AFFFF8BD9859002026
:102D000000800B40306400208529001008B5054B79
:102D10001B690BB1034808BD034B044A65210448F5
:102D200002F084FA28250020E422051064440510EE
:102D3000A8220510F8B504469E460069EFF31081FD
:102D400072B6D0E8CF6F0125002EFAD1C0E8465FF9
:102D5000002EF6D1BFF35F8FB4F90250666905EB20
:102D60004500C70006EBC000002D03DB36F907C0A5
:102D7000A4F802C04FF0000C2369C3E88FCF81F3A1
:102D80001088654533DB06990161079941618260CE
:102D9000C0F80CE0418889B20131C1F30E0101B9DC
:102DA000012141802846FFF7CCFD2369EFF3108213
:102DB00072B6D3E8CFCF0121BCF1000FF9D1C3E83F
:102DC0004C1FBCF1000FF4D1BFF35F8FA388F35306
:102DD000A58021690023C1E88F3F82F31088E36852
:102DE000217801228A4003F501535A60F8BD4FF063
:102DF000FF30FBE770B582B0064615461C469DF8CD
:102E0000203033B900F012FA854264EB0101002949
:102E10000ADB079B0193069B00932A462346304614
:102E2000FFF788FF02B070BD0020FBE7F0B585B06A
:102E300005460C4616461F46FFF768FF9DF82830EA
:102E40000293019700962A462346FFF7D3FF05B069
:102E5000F0BD03464089B0EB214F31DD10B50A14B7
:102E6000586902EB420200EBC2001A69EFF3108CC2
:102E700072B6D2E8CF4F5FF0010E002CF9D1C2E854
:102E800044EF002CF5D1BFF35F8F428892B289B234
:102E90008A420FD0002019690022C1E88F2F8CF3DD
:102EA000108830B1DA681B780121994002F501538E
:102EB000596010BD42F40042428001209871EAE757
:102EC0000020704710B50446FFF720FF2146FFF7AA
:102ED000C0FF10BD40787047F0B583B0EFF30583B5
:102EE000DBB2CBB905460F46861F41F1FF34B04235
:102EF00071EB040301D20026344600F097F9301A32
:102F000064EB0103012873F1000308DA284639460F
:102F100000F09EF903B0F0BD1C48FFF75FF90023F5
:102F200000931B4A30462146FFF780FF00281EDA37
:102F3000ECE7002300E00023002BE7D1154B1A68D3
:102F4000EFF3108172B6D2E8CFCF0120BCF1000FB1
:102F5000F9D1C2E84C0FBCF1000FF4D1BFF35F8F81
:102F60001A680023C2E88F3F81F3108820BF0A4B04
:102F70005B6A9C42DFD80849896AB14203D29C420D
:102F8000D7D00123D8E70123D6E700BF08230510D7
:102F9000492900103C65002000000B4038B504466C
:102FA0000D4600F043F9201845EB0101002902DB32
:102FB000FFF792FF38BD4FF0FF306FF00041F7E7A9
:102FC00008B5C30E4101091A63F100039B0043EAEF
:102FD00091738900091843F10003DB00C80043EA3C
:102FE0005171FFF7DBFF08BDF0B583B005460C4615
:102FF000EFF30583DBB293B13C4B5B6A8B4209D3A1
:103000003A4A926A824208D28B4201D0012002E001
:10301000002000E0002003B0F0BD0120FBE7FFF737
:1030200075FEC7680678384600F0D6F82A1A64EBB1
:103030000101043657F826301B1A9A4271F100013B
:1030400012DB20BF294B5B6A9C4209D8274A926A4F
:10305000AA4207D29C4201D00120DCE70020DAE737
:103060000020D8E70120D6E700230093204A284615
:103070002146FFF7DBFE00280BDD1C4B5B6A9C4200
:103080001BD81A4A926AAA4228D29C4213D0012322
:1030900014E0164B5B6A9C4209D8144A926AAA4211
:1030A00007D29C4201D00120B5E70020B3E7002001
:1030B000B1E70120AFE7002300E0002303B920BF00
:1030C000FFF700FF094B5B6A9C420BD8074A926AE4
:1030D000AA4209D29C4203D001209CE70123EDE7DC
:1030E000002098E7002096E7012094E700000B40BD
:1030F00049290010F0B585B0064614460C9D54EAE7
:10310000030201D101240023AE600A9A2A612C60D7
:103110006B600B9A6A611F46002B15DB00F086F886
:10312000221847EB0103002B12DB012102910195CC
:103130000A4900913046FFF75DFEE8600028D4BFE1
:103140000020012005B0F0BD644263EB4307E5E7D2
:103150004FF0FF326FF00043E7E700BF8529001012
:10316000C16809B90020704710B504468068FFF7B0
:1031700070FE0023E36010BD0048704700000B4064
:1031800010B50A4B1B6923B10A210948FFF758FB08
:1031900010BDFFF7F1FF0446032100F00BF81023E8
:1031A000032221460148FFF773FDEDE728250020A3
:1031B0003C65002010B5054A054C064BA04214BFE3
:1031C0001846581CFFF73EF810BD00BF58230510E5
:1031D00000800B40BC5E00200246436A906A19469C
:1031E000536A9942FAD17047416A00E0416A9942B4
:1031F000FCD300E0416A994202D1816A9142F9D33D
:10320000704770B5064614461D46FFF7E5FF0219E4
:1032100041EB0503824273EB010102D24FF0FF3212
:1032200013463046FFF7E0FF70BD000008B50248C6
:10323000FFF7D2FF08BD00BF00000B4008B50246F3
:103240000B460248FFF7DDFF08BD00BF00000B4042
:1032500008B502460B460248FFF7C6FF08BD00BF8F
:1032600000000B4070B51646049D00EB400C4FEA81
:103270008C0C0CF1804C0CF5803CDCF80420AA424C
:1032800001D2CCF80450A0F1040E5FFA8EFEBEF11C
:10329000010F28D90CF540524FF4006414601E4A07
:1032A00052F8202042B11C4C6469B4FBF2F40134A2
:1032B00004EB4404033CFDD2DCF8002082EA461211
:1032C00002F0E0020CF580542260BEF1010F16D925
:1032D0000CF500524FF400611160CCF804500E4A16
:1032E00042F8203070BD0129D4D10CF5405203249E
:1032F0001460DCF8082012F0010FFAD0DCE7DCF8EB
:1033000000204A4002F003022260DCF8084001225B
:103310008A401442F9D0DBE7C05E002010B582B0CD
:103320004FF480340094FFF79DFF02B010BD000001
:10333000014B53F820007047C05E002070B5049C1C
:10334000344DB5FBF1FC344D1544344EB54237D8FD
:10335000B2FBFCF5A5F1100EBEF5987F36D803F14F
:10336000FF3EBEF1060F37D804F1FF3EBEF1060F57
:1033700032D8BCEB121F35D8240344EA0344036857
:10338000002B35DB264B984242D00E2301229A4077
:10339000244B1A6003F580531A60234B9B6832EA72
:1033A0000303FAD10160856000F540520432212305
:1033B00013600368002BFCDAC4600823136070BD3F
:1033C0001A4B1B4A11211B4801F030FF1A4B184AB7
:1033D0001921184801F02AFF184B154A1C211548DD
:1033E00001F024FF164B124A2321124801F01EFF60
:1033F000036803F03F038B42C4D18368C3F30B031C
:10340000AB42BFD1C36803F4EE23A342BAD1D6E7DF
:103410000F23BBE7001BB70080E84BD380F8A9322D
:103420000080054000200240000002407C2305107F
:10343000A0440510CC230510102405102C240510E1
:1034400078240510024B1A68024B5A60704700BF7F
:103450002863002000800D4008B5164B4FF08042D5
:103460001A60A3F54123144A9A6051B103F5402331
:103470004FF0E0621A6048B9104B4FF000421A60FA
:1034800008BD0C4B4FF0E0621A60F4E74FF47A731A
:1034900003FB00F00A4B1860B0F1807F02D36FF09D
:1034A0007F421A60FFF7CEFF044B4FF080421A6054
:1034B000E6E700BF00B00D40F3FFFF0100A00D40A4
:1034C0002863002010B50C4B4FF080441C6070B195
:1034D00040F0010309480A4CC4610A4C5C40046294
:1034E0004162836200211046FFF7B6FF10BD034B17
:1034F0000021D961F6E700BF00B00D4000800D400B
:10350000D3C007B02D3FF84F054A00EB400302EB54
:103510008303596000EB4000800001231350704783
:10352000008010402DE9F04105460E4617469846AA
:103530000023DB8A002242E800F212F4800F0BD154
:10354000102144F252209847044643463A463146F9
:103550002846A047BDE8F081042144F25220984754
:103560000446F2E708B50023DB8A002242E800F2B5
:1035700012F4800F02D11021984708BD042198470A
:10358000FBE708B5031E06DB41F0200012B141F055
:10359000300100E001460A460A214FF48170FFF72E
:1035A000C1FF0000034BD3F82838002BFAD0BFF33B
:1035B0005F8F704700000E40002207E0054B134468
:1035C0009B00BFF35F8F002119600132072AF5D9F4
:1035D000704700BF0382031008B5FFF7EDFF08BD79
:1035E000074B4FF42A621A604FF48D72DA6003F5CC
:1035F0000053044A1A60024B5B68002BFBDA7047E9
:103600000080044000B0FA0010B5044602E054F80F
:10361000043B9847014B9C42F9D310BD080A0510A2
:103620007047000008B50248FFF7EEFF08BD00BF75
:10363000C8090510064B074A1A6003F58053064A6D
:103640001A60064B9A68044B9343FAD1704700BF47
:10365000002002407F3BEFEFF6FFF3030000024043
:10366000054BDB6CB3F5004F00D07047034B4FF4B4
:103670008022DA64F9E700BF0000115000201150E9
:103680004FF0E022D2F8881D034B0B43C2F8883D6F
:1036900010EE3004704700BF03033000054B6FF09D
:1036A00060421A60044B9B68DB4333F06043F9D1FE
:1036B000704700BF003002400000024008B545F2EC
:1036C0005320FFF74FFF03460420984708BD08B575
:1036D00045F25320FFF746FF03460120984708BDF7
:1036E00008B5FEF717FE08BD38B5054CA168054DB5
:1036F0004FF48872284646F055FCA56038BD00BFDF
:1037000000ED00E00000002038B50420FFF710FEB7
:10371000064BA3FB0035AD0C002404E02946E0B2C3
:10372000FFF7F2FE0134052CF8DD38BD83DE1B43C4
:1037300030B583B0264B0022C3F88420FFF750FF3A
:10374000244B0122DA63224B5B6C012BFBD1214B12
:1037500003221A631E4B9B6B012BFBD102240094A6
:1037600005231D4A01211D48FFF7E8FD05250095A9
:103770002B461B4A01211B48FFF7E0FD1A4B002294
:1037800021460420FFF7CAFD184C234600220121E0
:103790002846FFF7C3FD164D2B4600221146082090
:1037A000FFF7BCFD2B46002211460920FFF7B6FDAE
:1037B0002346002211460620FFF7B0FD23460022D3
:1037C00011460720FFF7AAFDFFF79EFF03B030BDAB
:1037D0000000014000300140002F68590000054002
:1037E000008C864700800540001BB70080D1F008A0
:1037F000006CDC0286B003B451FC0804CDE9020180
:1038000051FC0904CDE9040151EC0A04CDE906019B
:1038100003BCF047BDE800504EEC00C4BDE80050CA
:103820004EEC01C4BDE800504EEC02C400BD0000E7
:1038300000B5FFF7DFFF02E010FE30F4F8D441ECF2
:10384000100443EC112400EE010410EE010480EE9C
:10385000200451EC1004704700B5FFF7CBFF02E0E5
:1038600010FE30F4F8D441EC100443EC112400EEC7
:10387000010410EE210480EE200451EC3004704766
:1038800000B5FFF7B7FF02E010FE30F4F8D410B532
:1038900041EC100443EC112451EC040453EC0524D6
:1038A000A0FB024C5FF0000EE0FB03CEE1FB02CE7A
:1038B0004CEC20440024E1FB03E444EC30E480EED3
:1038C000200451EC5004BDE81040704700B5FFF7EC
:1038D00091FF02E010FE30F4F8D441EC100443EC08
:1038E000112451EC2104A0FB01126FEA820252FB69
:1038F000100052FB12F252FB1000A0EBD07C53ECF4
:1039000004245CFB13F153EC1524A1FB022001FB02
:10391000030053EC4424A2EB000050FB1CF24FEADE
:10392000111312EB017043EBE27140EA515020EAAF
:10393000915020F0070053EC7524A0FB023C53EC9F
:10394000752400FB03CC01FB02CC53EC0424ACEB4C
:10395000824C40EA5C70A0F1010041EC400480EE32
:10396000200451EC7004704700B5FFF743FF02E0FC
:1039700010FE30F4F8D441EC100420EE010453ECB6
:103980004124A2FB0201A1FB03014FEAC101A1F105
:10399000004162FB1122A2FB0201A1FB0301000F07
:1039A00040EB011151FB12F0A2EB6002A2FB0301FC
:1039B0004FEA5101A1FB01305CEC6404A0EB03036E
:1039C00053FB12F301EB23714FEA031323F0FF03C0
:1039D00043F08003A3FB03C201FB01FCE1FB032CCA
:1039E000E1FB032CACEB000C43EA1C63A3F10B03DB
:1039F00041EC503480EE200451EC9004704700BF3D
:103A000000B5FFF7F7FE02E010FE30F4F8D441EC09
:103A1000100480EE220410EEB204704700B5FFF7E8
:103A2000E9FE02E010FE30F4F8D440EC700400EE41
:103A3000010410EE210480EE200451EC30047047A4
:103A400000B5FFF7D7FE02E010FE30F4F8D440ECEA
:103A5000600400EE010410EE210480EE200451EC1D
:103A60003004704700B5FFF7C5FE02E010FE30F4E9
:103A7000F8D441EC800400EE010410EE010480EE65
:103A8000400410EE1304704700B5FFF7B3FE02E0E8
:103A900010FE30F4F8D441EC800400EE010410EE86
:103AA000010480EE400410EE3304704700B5FFF7C8
:103AB000A1FE02E010FE30F4F8D441EC100443EC17
:103AC000112400EE010410EE3004C0F300707047C2
:103AD00000B5FFF78FFE02E010FE30F4F8D441ECA1
:103AE000100443EC112400EE010410EE3004C0F386
:103AF0008070704700B5FFF77DFE02E010FE30F4E5
:103B0000F8D443EC102441EC110400EE010410EE53
:103B100030F48CBF01200020704700BF00B5FFF7D4
:103B200069FE02E010FE30F4F8D443EC102441ECBE
:103B3000110400EE010410EE30F42CBF012000202F
:103B4000704700BF00B5FFF755FE02E010FE30F4ED
:103B5000F8D441EC100443EC112400EE010410EE03
:103B600030F42CBF01200020704700BF00B5FFF7E4
:103B700041FE02E010FE30F4F8D441EC100443ECB6
:103B8000112400EE010410EE30F48CBF012000205F
:103B9000704700BF0022002950DA404261EB41012A
:103BA000C9B1B1FA81F30B3B17D4D3F1200C30FA31
:103BB0000CFC9840994051EA0C011A44524202F21E
:103BC000324201EB025141F0004140F2FE739A4251
:103BD00038BF704721E011467EE003F1210310FA5F
:103BE00003FCA3F1010301FA03FCC3F1200320FA53
:103BF00003F021FA03F140EA0C00A3EB020202F207
:103C0000324214D050F1000041EB025141F000412A
:103C100040F2FE739A4238BF70474FF00001A8BFD0
:103C2000C7F6F0714FF00000704700217047EBD3EA
:103C300050F1000020F00100E6E70022B9B1B1FA2E
:103C400081F30B3B16D4D3F1200C30FA0CFC9840D6
:103C5000994051EA0C011A44524202F2324201EBFD
:103C6000025140F2FE739A4238BF704720E011467D
:103C700000F066B803F1210310FA03FCA3F101037D
:103C800001FA03FCC3F1200320FA03F021FA03F147
:103C900040EA0C00A3EB020202F2324212D050F1D1
:103CA000000041EB025140F2FE739A4238BF704768
:103CB0004FF00001A8BFC7F6F0714FF00000704749
:103CC00000217047EDD350F1000020F00100E8E73B
:103CD000002880F235804042B0FA80F30B3B11D4CB
:103CE000984001EB0302524202F2124200EB0251F1
:103CF00041F000414FF0000040F2FE739A4238BF9D
:103D0000704713E0C3F1000330FA03FCC3F1200253
:103D10009040A3EB010202F212420CEB025141F07F
:103D2000004140F2FE739A4238BF70474FF00041A5
:103D3000A8BFCFF6F0714FF0000070470021704728
:103D400060B3B0FA80F30B3B0FD4984001EB030251
:103D5000524202F2124200EB02514FF0000040F2D8
:103D6000FE739A4238BF704710E05B4230FA03FCA2
:103D7000C3F120029040A3EB010202F212420CEBCD
:103D8000025140F2FE739A4238BF70474FF0000173
:103D9000A8BFC7F6F0714FF00000704700217047D0
:103DA0000022A2F232425FEA215CACF10103A1EBF6
:103DB00003515B0513F5800F32D212EB535210D42E
:103DC0000B2A36DA9140D2F1200330FA03F319437B
:103DD0009040BCF1000FA8BF7047404261EB410129
:103DE000704720320EDD01FA02F3D2F12002D140F9
:103DF000D0401843BCF1000FA8BF7047404261EBB0
:103E000041017047524282F3050231FA02F000216B
:103E1000BCF1000FA8BF7047404261EB4101704701
:103E200002D000200021704750EA013118BF4FF046
:103E3000000C6FF0004101EBDC716FEAEC70704731
:103E400000219539C215A2F10103A0EBC350DBB2EA
:103E5000FE2B22D2C9182ED4B1F1200314DAB1F10D
:103E600008030CDD0002D3F1200130FA01F1984083
:103E7000002AA8BF7047404271EB4101704788405B
:103E8000D1174840401A7047082B0ADA984080EA58
:103E9000E27101EBD2710020704709D8410218BFCE
:103EA00000226FF0004101EBD2716FEAE2707047BF
:103EB000002000217047494281F30501C84090EA83
:103EC000E27010EBD270C1177047000008B528B13E
:103ED00003460B44034A934200D808BD0248FEF74C
:103EE0007DF900BF000008209424051038B5054670
:103EF00041F09EFC04462946FFF7E8FF204638BD06
:103F000038B50D4645F0F0FA04462946FFF7DEFFC6
:103F1000204638BD08B541F093FC08BD08B5FFF751
:103F2000E5FF08BD08B5FFF7E1FF08BD08B5FFF7DD
:103F3000F1FF08BD08B5FFF7EDFF08BD08B5FFF7B5
:103F4000E9FF08BD9A4200D288547047704720B1FB
:103F500008B50A684968904708BD704701460020C7
:103F600008E000EB8000531C0B60137803EB400368
:103F7000A3F130000A681378303BDBB2092BF0D98B
:103F800070472DE9F04F83B005460E4693461F4615
:103F9000DDF830A00D9CDDF838900F9B13F0030F77
:103FA00019D1A0460192C84509D202F1010B3B4646
:103FB00031462020A84708F101085A46F3E7DDF80A
:103FC00004B008E0013C02F101083B4631461AF812
:103FD0000400A8474246002CF4D10F9B13F0020FB7
:103FE00003D1104603B0BDE8F08FA2EB0B034B45A5
:103FF000F7D2541C3B4631462020A8472246F4E71E
:104000002DE9F04385B099460C9D0D9C9DF83880B4
:10401000DDF840E0119F129E16F0020F21D17FB112
:1040200016F0010F0CD0B8F1000F02D116F00C0FF2
:1040300006D0013F04E04FF0300C05F804C0013415
:10404000744501D21F2CF6D916F0010F09D0BC42DD
:1040500007D21F2C05D84FF0300C05F804C00134EE
:10406000F2E716F0100F14D016F4806F04D11CB1D3
:10407000744522D0BC4220D00F9B102B36D00F9B12
:10408000022B3ED01F2C0ED84FF0300C05F804C088
:1040900001341F2C07D8B8F1000F3AD04FF02D0C87
:1040A00005F804C0013403960297019400954B462D
:1040B000FFF767FF05B0BDE8F083B4F1010C13D042
:1040C0000F9B102B0ED064460F9B102BD7D116F0F0
:1040D000200FD4D01F2CD2D84FF0580C05F804C0B4
:1040E0000134CFE7023CC7E76446C5E716F0200F6E
:1040F000EAD11F2CE8D84FF0780C05F804C0013441
:10410000C0E71F2CCFD84FF0620C05F804C0013473
:10411000B8E716F0040F05D04FF02B0C05F804C0DB
:104120000134C0E716F0080FBDD04FF0200C05F8A1
:1041300004C00134B7E7F0B591B0169C189D1B9EE2
:104140000CB926F0100616F4806E16D064B34FF04A
:10415000000E12E00CF1300C5FFA8CFC0EF101073E
:104160000EF1400EEE440EF820CCB4FBF5FCAC4250
:104170001BD31F2F19D8BE466446B4FBF5FC05FBC4
:104180001C4C5FFA8CFCBCF1090FE3D916F0200F30
:1041900008D04127BC445FFA8CFCACF10A0C5FFAF2
:1041A0008CFCDBE76127F5E7274606961A9C059409
:1041B000199C049403959DF85C400294019708AC07
:1041C0000094FFF71DFF11B0F0BD2DE9F04F95B041
:1041D00009900A910B929846DDF878B0DDF87C9052
:1041E000229D239F269E5BEA090201D126F010063C
:1041F00016F480641ED05BEA09022FD0002419E077
:104200003032D3B204F1010A04F150020DEB020482
:1042100004F8203C2A463B46584649464CF098FB59
:10422000AB4579EB07091BD3BAF11F0F18D85446D9
:10423000834689462A463B46584649464CF088FB09
:10424000D2B2092ADCD916F0200F05D0412313443D
:10425000DBB20A3BDBB2D5E76123F8E74FF0000A97
:104260000696259B0593249B049303959DF8803027
:104270000293CDF804A00CAB009343460B9A0A9925
:104280000998FFF7BDFE15B0BDE8F08F00000000F3
:104290002DE9F04F91B004460D4617461E46DDE964
:1042A0001A2310461946FFF705FC002840F0ED8060
:1042B0004FF0FF32AE4BDDE91A01FFF75BFC00283F
:1042C00040F0E3804FF0FF326FF48013DDE91A0114
:1042D000FFF714FC002840F0D88000220023DDE91D
:1042E0001A01FFF70BFC002840F0E2809DED1A7BDD
:1042F0008DED067B1E9B13F480630D9301D1062385
:104300001C93DDE9062310461946CDE9080152EA5F
:10431000030100F0D880C3F30A50C3F3130390469F
:1043200043F07F5949F44019A0F2FF30FFF77AFBC0
:104330007DA3D3E90023FFF7A7FA7DA3D3E90023E8
:10434000FFF77AFA82468B4600228A4B404649465E
:10435000FFF786FA78A3D3E90023FFF795FA024620
:104360000B4650465946FFF767FAFFF77FFB824638
:10437000FFF758FB8046894671A3D3E90023FFF776
:1043800083FA00227C4BFFF757FAFFF76FFB834657
:104390006DA3D3E9002340464946FFF775FA8046EE
:1043A00089465846FFF73EFB69A3D3E90023FFF790
:1043B0006BFA02460B4640464946FFF751FA8046E3
:1043C000894602460B46FFF75FFACDE90A010BF278
:1043D000FF3B00210022CDE908124FEA0B5309935D
:1043E0000023089342464B4640464946FFF724FACD
:1043F000CDE90E0142464B4600204FF08041FFF7C9
:104400002FFA8046894600225C4BDDE90A01FFF75E
:1044100061FA00225A4BFFF70FFA02460B46DDE91C
:104420000A01FFF757FA0022564BFFF705FA02463A
:104430000B46DDE90A01FFF74DFA02460B464046FE
:104440004946FFF7F9F902460B46DDE90E01FFF791
:1044500041FA00224C4BFFF7EFF9DDE90823FFF7A3
:1044600013FA80468946CDE90889DDE90623FFF77E
:1044700081FB50B30AF1FF3A0022414B40464946C6
:10448000FFF728FACDE908011FE01E9B04931D9B4E
:1044900003931C9B02939DED1A7B8DED007B3346AD
:1044A0003A462946204600F003F911B0BDE8F08FE6
:1044B0009FED297B8DED067B1A9B06931B9B03F1D9
:1044C0000043079316E74FF0000A0AF16303C62B77
:1044D00027D84FF004081E9B13F4006F5FD0DDE96E
:1044E000081213460B4313D01DA3D3E90023DDE9C3
:1044F0000601FFF72BFB002800F0B4801AA3D3E9D4
:104500000023DDE90601FFF7F9FA002800F0AA8090
:104510001C9B53453ADDA3EB0A0A0AF1FF331C93B7
:1045200036E04FF00508D6E7FB799F501344D33FA0
:10453000B3C8608B288AC63F61436F63A787D23FA9
:1045400071A379094F930A401655B5BBB16B024070
:10455000EF39FAFE422EE63F0000000000000000A6
:104560002D431CEBE2361A3F0000000080842E41F0
:10457000FFFFEF7F0000F83F0000E03F00002C400D
:1045800000002440000018400000F03F00231C936E
:104590001E9B43F480631E934FF00008C2461D9B90
:1045A000984569D2A3EB08091E9B13F0020B04D0B7
:1045B000B8F1000F01D04FF00009BAF1000F07D099
:1045C000DDE90823DDE90601FFF784F9CDE90601FD
:1045D00000220023DDE91A01FFF790FA00284ED1EE
:1045E0001E9B23F400630493CDF80C901C9B029354
:1045F0009DED067B8DED007B33463A4629462046ED
:1046000000F056F8B8F1000F3FF44FAF1E9B13F0C7
:10461000200F3CD04FF0450C00F101093346024613
:1046200029466046A0478AEAEA72A2EBEA720523AD
:10463000059308F1FF330493002303930A230293A5
:104640004FEADA730193009233464A4629462046E0
:10465000FFF771FDBBF1000F3FF427AF0246DDF815
:1046600074901EE01C9B002B99D00D9B002B96D0C4
:104670001C9B013B1C9392E74FF0000994E7DDE996
:104680000601024601F10043CDE90623A8E74FF0F9
:10469000650CC1E702F10108334629462020A047F6
:1046A0004246D31B4B45F5D31046FEE60000000002
:1046B0002DE9F04F2DED028B95B007900A919246AF
:1046C0009B46DDE92089229D42464B4640464946AD
:1046D000FFF7F0F9002835D14FF0FF326FF4801367
:1046E00040464946FFF70AFA00283AD14FF0FF3218
:1046F0009F4B40464946FFF73DFA002840D198A31A
:10470000D3E9002340464946FFF734FA00284FD149
:1047100095A3D3E9002340464946FFF7EFF9002867
:1047200046D10022002340464946FFF7E7F900281A
:104730004CD100230B93249B13F4806F00F0B780BF
:10474000002456E0249B0393239B029303230193AD
:10475000884B00935B4652460A990798FFF711FC75
:1047600037E1249B0393239B029304230193824B01
:1047700000935B4652460A990798FFF702FC28E12E
:10478000249B13F004030FD07C4A7BB104232499AB
:10479000039123990291019300925B4652460A9934
:1047A0000798FFF7EEFB14E1754AEEE70323EEE707
:1047B000249B0493239B03930295CDE900895B46D8
:1047C00052460A990798FFF763FD02E142464B46BD
:1047D00000200021FFF744F88046894601230B930F
:1047E000A9E704F150036B44302203F8202C013D6B
:1047F00001341F2C01D8092DF3D840464946FFF754
:1048000035F90646FFF70EF902460B464046494683
:10481000FFF726F85B4B03EBC50393ED008B53ECDE
:10482000182BFFF731F802460B46CDE90823FFF7B6
:104830002FF90746FFF708F902460B46DDE90801A4
:10484000FFF70EF802460B46CDE9082300224E4B37
:10485000FFF790F968B301373846FFF7F5F80246DD
:104860000B4651EC180BFFF75DF908B10136002734
:104870006DBB3046FFF7D6F802460B464046494628
:10488000FEF7EEFF0746884600223F4BFFF736F95A
:1048900000284CD100223C4B38464146FFF76AF9CC
:1048A000002844D116F0010F41D001363FE0062523
:1048B00046E70022344BDDE90801FFF71FF9002825
:1048C000D6D117B117F0010FD2D00137D0E71F2C86
:1048D00017D8013D2D4BA3FB0723DB08194603EB3B
:1048E0008303A7EB4303621C303304F150000DEB4C
:1048F000000404F8203C092F02D90F461446E6E7CD
:1049000014461F2C0AD86B1E45B104F150026A44AC
:10491000302102F8201C1D460134F2E71F2C06D876
:1049200004F150036B442E2203F8202C01341F2C79
:1049300031D8174A82FB0632F317C3EBA2031A469B
:1049400003EB8303A6EB4303611C303304F15000F7
:104950000DEB000404F8203C1646DAB10C46E6E7FD
:104960000000000065CDCD410000000065CDCDC147
:10497000FFFFEF7FF0240510F4240510E424051058
:10498000EC240510004505100000E03FCDCCCCCC58
:10499000676666660C46249B03F00303012B1DD05B
:1049A0001F2C09D80B9B002B35D004F150036B440E
:1049B0002D2203F8202C0134249B0393239B029384
:1049C00001940CAB00935B4652460A990798FFF797
:1049D000D8FA15B0BDEC028BBDE8F08F239BB3B1C4
:1049E0000B9B1BB9249B13F00C0F12D0239B013B94
:1049F0002393194606E004F150036B44302203F878
:104A0000202C01348C42CBD21F2CF4D9C8E7239937
:104A1000F8E72399F6E7249B13F0040F07D004F17D
:104A200050036B442B2203F8202C0134C4E7249B51
:104A300013F0080FC0D004F150036B44202203F898
:104A4000202C0134B8E700BF2DE9F04F91B080462B
:104A500017460F938946002900F04B8300260F9BD1
:104A60001878002800F04883252809D0741C3B469C
:104A700032464946C0470F9B01330F932646EEE767
:104A800001330F9300251FE045F0010501320F921D
:104A9000012318E045F0020501320F92012312E0D4
:104AA00045F0040501320F9201230CE045F00805A2
:104AB00001320F92012306E045F0100501320F92FA
:104AC000012300E000234BB30F9A1378203B102BF7
:104AD000F8D801A151F823F0AD4A0010C54A0010E2
:104AE000C54A0010B94A0010C54A0010C54A001056
:104AF000C54A0010C54A0010C54A0010C54A00103A
:104B0000C54A0010A14A0010C54A0010954A00107D
:104B1000C54A0010C54A0010894A00100B930F9B2C
:104B20001A78A2F13003DBB2092B18D92A2A1BD03C
:104B3000DDF82CB00F9B1A782E2A25D00F9A137807
:104B4000683B122B5CD8DFE803F0495BAC5B3B5B56
:104B50005B5B5B5B5B5B575B5B5B5B5BB1000FA8AD
:104B6000FFF7FCF98346E5E71A9B1A1D1A921B68AA
:104B7000002B04DB9B460F9B01330F93DAE745F0D4
:104B80000205C3F1000BF6E745F480655A1C0F924D
:104B90005A78A2F13003DBB2092B0CD92A2ACDD1E5
:104BA0001A9B1A1D1A921C6824EAE4730B930F9B3C
:104BB00001330F93C2E70FA8FFF7D0F90B90BDE7C1
:104BC00045F48071531C0F9353786C2B01D00D4624
:104BD00016E045F4407502320F9211E045F0800175
:104BE000531C0F935378682B01D00D4608E045F015
:104BF000C00502320F9203E045F4807501320F9236
:104C00000F9B1878672856D82528C0F06882A0F135
:104C10002503422B00F26382DFE813F056026102A3
:104C2000610261026102610261026102610261026C
:104C3000610261026102610261026102610261025C
:104C4000610261026102610261026102610261024C
:104C50006102610261026102610261028801680110
:104C60008801610261026102610261026102610206
:104C7000610261026102610261026102610261021C
:104C800061027100610261026102610261026102FE
:104C90006102610261027100AF0171008801680167
:104CA000880145F4007501320F92A9E745F480753B
:104CB00001320F92A4E7782800F211826928C0F02F
:104CC0000E82A0F16902D2B20123934049F241025F
:104CD000134214D113F0800F40F0DB8113F4806F86
:104CE00000F0FD811A9B1A1D1A92D3F800A00B9BAD
:104CF000002B40F090814FF0FF32534671E16F2856
:104D00000CD005D858283CD0622803D1022306E0F5
:104D1000782838D025F010050A2300E00823582809
:104D200033D0692803D0642801D025F00C0515F490
:104D3000806F01D025F00105692829D0642827D08B
:104D400015F4007F40F0948015F4807F40F0AC8033
:104D500015F0400F00F0BD801A9A111D1A911278BB
:104D60000595CDF810B00B990391029300230193A0
:104D700000923B46324649464046FFF7DCF906467C
:104D800027E01023CBE71023C9E745F02005C8E74B
:104D900015F4007F21D115F4807F42D115F0400F2A
:104DA00058D01A9A111D1A91127882EAE271A1EB79
:104DB000E2710595CDF810B00B9803900293D20FD5
:104DC000019200913B46324649464046FFF7B3F90F
:104DD00006460F9B01330F9341E61A9A073222F0E1
:104DE000070202F108011A91516812680846002969
:104DF00013DB0895CDF81CB00B9C0694049300239C
:104E00000593C90F0291009201903B4632464946F4
:104E10004046FFF7DAF90646DBE7524261EB410014
:104E2000E7E71A9A111D1A91126882EAE271A1EB62
:104E3000E2710595CDF810B00B9803900293D20F54
:104E4000019200913B46324649464046FFF773F9CE
:104E50000646BEE715F0800F05D01A9A111D1A916B
:104E6000B2F90020A1E71A9A111D1A9112689CE765
:104E70001A9A073222F0070202F108011A910895E6
:104E8000CDF81CB00B990691002104930591029175
:104E9000D2E90023CDE900233B463246494640464D
:104EA000FFF793F9064694E71A9A111D1A91059592
:104EB000CDF810B00B99039102930023019313686E
:104EC00000933B46324649464046FFF734F90646D2
:104ED0007FE715F0800F04D01A9A111D1A911288DD
:104EE0003EE71A9A111D1A91126839E746281AD01E
:104EF0001A9B073323F0070303F108021A92049563
:104F0000CDF80CB00B9A0292D3E90023CDE900232F
:104F10003B46324649464046FFF7CAFB06460F9BD2
:104F200001330F939BE545F02005E1E7672801D0A9
:104F3000472801D145F40065452801D0472801D113
:104F400045F020051A9B073323F0070303F10802FD
:104F50001A920495CDF80CB00B9A0292D3E9002373
:104F6000CDE900233B46324649464046FFF790F9DB
:104F700006460F9B01330F9371E515F002051DD016
:104F800001241A98031D1A9306F1010A3B46324682
:104F900049460078C047A5B90F9B01330F93564689
:104FA0005DE502F1010A3B4649462020C047234601
:104FB00052465C1C9B45F4D81646E2E70123324674
:104FC000F7E7524606E0561C3B4649462020C047BC
:104FD0002C463246651CA345F5D89246DCE70133E2
:104FE0000A46197811B1511E002AF8D1A3EB0A0321
:104FF00015F480620C9203D00B9A934228BF13469B
:1050000015F0020409D00D94CDF838B00B9D32464E
:105010000C9E9B461FE00B9A6FE63246264606E042
:10502000541C3B4649462020C0472B4622465D1C67
:105030009B45F5D834462B460D94CDF838B00B9DE2
:105040000C9E9B4607E01D460AF1010A541C3B4694
:105050004946C04722469AF8000020B1002EF3D0FE
:105060006B1E002DEFD10D9C16465B46DDF838B067
:1050700054B90F9B01330F93F1E4551C3B4649464D
:105080002020C04723462A465C1C9B45F5D816467F
:10509000EFE745F021051A9B1A1D1A921B6805952A
:1050A000082204920B9A039210220292002201928B
:1050B00000933B46324649464046FFF73CF80646D9
:1050C0000F9B01330F93CAE4741C3B46324649469A
:1050D0002520C0470F9B01330F932646BFE4741C65
:1050E0003B4632464946C0470F9B01330F93264645
:1050F000B5E4DFF82080B1E4BE4208D37A1E3B4617
:1051000049460020C047304611B0BDE8F08F324616
:10511000F5E700BF4D3F00100EB400B584B0014666
:1051200005AA52F8043B039200924FF0FF32044864
:10513000FFF78AFC04B05DF804EB03B0704700BFD2
:10514000453F001000B583B0009313460A46014660
:105150000248FFF779FC03B05DF804FB453F0010FF
:1051600000B585B002900391009313464FF0FF32D3
:1051700002A90348FFF768FC05B05DF804FB00BF17
:105180004F3F001000BEFDE70346094A126842B1D6
:10519000074A10680344074A934206D8044A13603A
:1051A0007047034A04491160F2E74FF0FF3070473F
:1051B000205F0020000008206C6500200020704760
:1051C0004FF0FF307047000008B538B90846114667
:1051D000044BD3E9002300F035F908BD4FF0FF3050
:1051E000FBE700BF98440510431E012B09D810B5FA
:1051F0000846144601230022214600F0DDF820462F
:1052000010BD4FF0FF3070474FF0FF3070474FF048
:10521000FF3070474FF0FF30704702288CBF0020EE
:105220000120704708B5FFF7ADFF000000B583B05F
:105230008C4619465AB11446064B019400936346B6
:105240000246054800F0D2F90120FFF79BFF034B0F
:105250001C46F2E7FC2405100C250510F417051078
:1052600010B5EFF30583DBB203B100BEFEF7DAF948
:10527000044C02E054F8043B9847034B9C42F9D39A
:1052800010BD00BF080A0510380A051008B503460E
:1052900008461B681146984708BD0000F8B5074648
:1052A0000D461646437D13B1002420460CE00368EA
:1052B0001146284698472EE03B7D10E03B680221CE
:1052C00015489847601C0134B44214DA002CF3DD11
:1052D0002B1913F8013C0D2B14BF002301232A5D69
:1052E0000A2AF0D1002BEED1A042E7DA3B68211A5E
:1052F00028449847E2E7B04203DA3B68311A284471
:105300009847002E07DD354415F8013C0D2B14BFDE
:10531000002301233B75F8BD7C45051038B50368B3
:10532000BBB105460B4B1C6806E0294651F8042B1F
:105330002046FFF7B3FF24694CB12368002BFAD055
:10534000054B1B68002BF0D0A342F4D1EDE70023FE
:105350002B6038BD105F00201C5F002038B505466B
:105360000C460B68802B05D023685A1C22601C4415
:10537000257138BD0846FFF7D1FFF5E708B5FDF701
:1053800055FF074A821841F10003002B03DB054853
:105390004BF0FAFA08BD4FF0FF326FF00043F6E72A
:1053A00040420F00FC35002008B502484BF0D4FA0B
:1053B00008BD00BFFC3500202DE9F04383B0064650
:1053C0000D4690461C46FFF7D9FF8146B5F1FF3FD9
:1053D00004D044B1174F184B1C6807E0304644F026
:1053E00057FE0546F5E7154FF5E72469BCB123687C
:1053F000002BFAD0124B1B680BB1A342F5D12A4601
:1054000031462046B847B8F1000FEED00A238DF898
:10541000073001220DF107012046B847E5E7B9F151
:10542000000F03D1284603B0BDE8F083FFF7BCFFAF
:10543000F8E700BF9D520010105F00208D52001051
:105440001C5F00202DE9F84307460E46914698461A
:10545000144B1C6807E0A36823B1314638469847CF
:1054600000281CDC246934B10F4D2D68002DF2D0CA
:10547000A542F7D1EFE70D4B5B6A984508D80B4A78
:10548000926A4A4509D2984502D06FF0010006E0C1
:1054900001200021FDF7D2FEDAE76FF00100BDE840
:1054A000F88300BF105F00201C5F002000000B404D
:1054B000084A01E003F1100213683BB18342F9D1BD
:1054C00031B90369136000230361704701B11060B3
:1054D000704700BF105F002010B5054B1C6801E04D
:1054E000984724691CB16368002BF9D1F9E710BD16
:1054F000105F002008B500F0F3F908BD10B582B0C8
:105500000446FDF793FE221841F10003002B0ADB4D
:10551000012101A8FFF796FF002802DB40B19DF8AA
:10552000040002B010BD4FF0FF326FF00043EFE710
:10553000034B044A40F203110348FFF777FE00BF14
:105540003C250510604505104025051000B583B0C9
:105550000B4BD3E90023012101A8FFF773FF0028BB
:1055600003DB012804D19DF8040003B05DF804FBBF
:10557000044B054A4FF495710448FFF757FE00BFEE
:105580009844051084250510504505104025051048
:1055900038B5054644F07CFD044601231A46014611
:1055A0002846FFF709FFFFF797FF204638BD0000A8
:1055B00070B5A2B004460E46FFF7E0FE0546002394
:1055C00001933346224601A90748FFF7C9FD044667
:1055D00001A8FFF7A3FEFFF77FFF15B9204622B011
:1055E00070BDFFF7E1FEF9E75D5300100FB400B5A1
:1055F00083B004A951F8040B0191FFF7D9FF03B060
:105600005DF804EB04B0704770470000014B0022C6
:105610001A707047686500204B79FF2B0BD18B798E
:105620005BB9CB79012B0AD1082A0AD98A78064BB3
:105630001A70092070470020704700207047002032
:1056400070470020704700BF686500200120704748
:10565000012923D108B59188114B1B78994201D0BB
:10566000002008BD5378012B03D0022B0FD000205F
:10567000F7E7518811F4807F06D0480AC1F3402231
:1056800001F07F01FDF77DFF4FF0FF30F6E7642268
:1056900000210846FDF716FF0120E2E701207047D0
:1056A00068650020004870474846051001290FD161
:1056B00008B594465378012B0CD19388072B01D061
:1056C000002008E0A623044A614601F0FBFB02E04B
:1056D00001207047002008BDA0450510012303707C
:1056E000004870478045051008B50B68B3F5966F04
:1056F00000D008BD002211464FF0FF30FDF741FFFA
:105700000368EFF3108272B6D3E8CFCF0121BCF16A
:10571000000FF9D1C3E84C1FBCF1000FF4D1BFF367
:105720005F8F426070470000024B1860024B1960A7
:10573000704700BFB05E0020B45E002008B5FDF7E2
:1057400075FD0E4A821841F10003002B11DB0C4855
:105750004BF01AF960B100214FF0FF3001F046FA2A
:10576000002001F037FD0028F5D105484BF0F4F892
:1057700008BD4FF0FF326FF00043E8E740420F00F2
:105780004065002038B5124B1B68C3B1104C204651
:10579000FFF7B6FF00230F4A137021686268C1E863
:1057A0008F3F82F31088002400250B4B1878FCF7FC
:1057B00021FE40B9002400252046294638BD4FF47B
:1057C0007A740025F1E7044B1878FCF73DFEF3E707
:1057D000286400206A6500206965002008B5024B36
:1057E0001878FCF731FE08BD6965002070B584B0FB
:1057F000064614461D46FDF719FD221845EB010328
:10580000002B0BDB9DF82810029109990191089952
:1058100000913046FDF7EEFA04B070BD4FF0FF3254
:105820006FF00043EEE7F0B585B005460C4616462E
:105830001F46FDF76BFA9DF82830029301970096FA
:105840002A462346FFF7D2FF05B0F0BD10B582B05F
:1058500000211D484BF0B0F8B0B91C4B1B688BB150
:105860001A4C2046FFF74CFF194A137883F00103C6
:1058700001211170206862680021C0E88F1F82F347
:105880001088BBB902B010BD00214FF0FF3001F00D
:10589000ADF9002001F078FC04460B484BF05CF8B1
:1058A000002CEFD00B4B1B68002BEBD00A4A106882
:1058B0009847E7E7012300930B46084A4FF47A70B4
:1058C0000021FFF7B0FFDDE74065002028640020DD
:1058D0006A650020B05E0020B45E0020855700108D
:1058E00010B582B04FF050431C68FDF70FFAFDF77A
:1058F000F1FAA0422DD1244B1B780021084602F07A
:1059000013F9224B1B6853B30120FCF783FFC0B28D
:105910001F4C20701F49FCF7B7FD01212078FCF7D0
:1059200089FD0E20FCF7A4FD0446E0B10120FCF740
:10593000D7FC01461848FCF7CBFF002217490E2080
:10594000FCF7D2FD01211648FFF7B2FD204602B058
:1059500010BD144B144AC1211448FFF767FC0B48D3
:10596000FCF774FFD0E70C4A002313605360012258
:1059700000920F4A4FF47A700021FFF754FFC4439E
:10598000E40F002CE2D0DDE7601E07104065002028
:10599000696500204D58001028640020DD57001074
:1059A00040250020BC1205107846051090250510F2
:1059B0008557001008B5002001F0CCFB08BD0000A1
:1059C00038B504460D46FFF7F5FF90B3002001F00F
:1059D000DBFB88B3FDF72AFC1A4A821841F1000369
:1059E000002B16DB18484AF0CFFF40B3FFF7E2FF69
:1059F00018B1002001F0C8FB80B900214FF0FF3042
:105A000001F0F4F86FF002040F484AF0A5FF2046B9
:105A100038BD4FF0FF326FF00043E3E72A462146DE
:105A2000002001F0BDFB04460028EDD16FF0020418
:105A3000EAE76FF00204EAE76FF00204E7E76FF0CD
:105A40000204E4E740420F0040650020F8B5074635
:105A50000D46FDF7EBFB2E4A821841F10003002BA7
:105A600004DB2C484AF090FF28B9F8BD4FF0FF3214
:105A70006FF00043F5E7FFF79DFF002845D1264B67
:105A800000200021C3E9000122484AF065FFECE74D
:105A900000214FF0FF3001F0A9F8002001F09AFB3F
:105AA000FFF788FF0028EFD0002001F017FCF8B1C5
:105AB000AC42E9DA2E1B002001F010FC864200DC2B
:105AC00030460028E4D002463919002001F0E4FBFA
:105AD000064600214FF0FF3001F088F8002001F069
