:020000041000EA
:1000000000B5324B212058609868022188439860DF
:10001000D860186158612E4B002199600221596106
:100020000121F02299502B49196001219960352056
:1000300000F044F80222904214D00621196600F024
:1000400034F8196E01211966002018661A6600F04E
:100050002CF8196E196E196E052000F02FF8012189
:100060000842F9D1002199601B49196000215960AB
:100070001A491B48016001219960EB211966A021F2
:10008000196600F012F800219960164914480160C1
:100090000121996001BC002800D000471248134993
:1000A000086003C880F30888084703B5996A0420EC
:1000B0000142FBD001200142F8D103BD02B5186610
:1000C0001866FFF7F2FF186E186E02BD00000240BE
:1000D000000000180000070000035F00212200005C
:1000E000F4000018222000A00001001008ED00E03C
:1000F00000000000000000000000000074B24E7A12
:1001000000200420F7010010C3010010C5010010F9
:10011000C1010010C1010010C1010010C101001097
:10012000C1010010C1010010C1010010C701001081
:10013000C1010010C1010010C9010010CB01001065
:10014000CD010010CD010010CD010010CD01001037
:10015000CD010010CD010010CD010010CD01001027
:10016000CD010010CD010010CD010010CD01001017
:10017000CD010010CD010010CD010010CD01001007
:10018000CD010010CD010010CD010010CD010010F7
:10019000CD010010CD010010CD010010CD010010E7
:1001A000CD010010CD010010CD010010CD010010D7
:1001B000CD010010CD010010CD010010CD010010C7
:1001C00000BE00BE00BE00BE00BE00BEEFF3058054
:1001D000103800BEF2EB8871B4920610D49206106B
:1001E0003802001090A31AE71E481F49086006C88D
:1001F00081F3088810471D480068002801D019487D
:10020000F3E70DA40ECC002902D000F012F8F9E7B4
:100210001749184A002000E001C19142FCD116495B
:100220008847164988471649884700BEFDE701C937
:1002300001C29A42FBD37047D4920610C00000203E
:10024000F02C002004BF0610000004200000042051
:1002500004BF06100010042000100420000000005D
:10026000704700000000000008ED00E0000000D032
:10027000F02C00204C5700208D3F00101904001076
:100280004D3F0010F8B5C04606480749091A8B10C3
:10029000C90FC91810B5491003D0044B002B00D06A
:1002A000984710BDF02C0020F02C0020000000002A
:1002B000054B10B5002B03D00449054800E000BFF2
:1002C000FFF7E2FF10BDC046000000000054002010
:1002D000F0510510F0B585B005000C0016001F00A8
:1002E00000F0DCFE0A9B0293019700962A0023008F
:1002F00001F0BAF805B0F0BD0A4A137801214B406D
:10030000DBB21370084B1978127801238B40002A56
:1003100003D0D022120653617047D0221206936197
:10032000FAE7C046475700204257002010B5FFF7B4
:10033000E3FF012010BD000070B5192000F01AF98C
:100340000E4E307800F016F90D4D287800F012F9B5
:100350000C4C207800F00EF9D022120680239B046A
:1003600053623178012318008840506229781800C0
:100370008840506221788B40536270BD4257002004
:10038000AD1B0020AC1B002070B50C4B1B7801246A
:1003900022009A40D0252D06AA61FA20400000F0E4
:1003A000CBFF074B1B7822009A406A61642000F063
:1003B000C3FF044B1B789C40AC6170BDAC1B00209C
:1003C000AD1B00204257002084B010B5029003916D
:1003D00004920593064B1A7801239340D02212060B
:1003E000936102A801F076F810BC08BC04B018476D
:1003F0004257002010B503F023FF04F015F9FFF772
:100400009BFFFFF7C1FF02E0642000F095FF04F0BE
:100410007BF90028F8D010BD70B588B0FFF7EAFF6F
:10042000002436E0FA21890001F0CAFB050007E04C
:10043000FA21890001F0C4FB401B384B984209D8CF
:1004400001F0B2F80029F3D0FA229200002301F063
:10045000F5FBF1E7082206A9684602F0E7FB0298DF
:100460000399049A059BFFF7AFFF2D492D4821F012
:100470005DF920F0D9FF04F047F90028FBD00020F7
:1004800003F0E2FEC0B26E2802D07228F3D1013C24
:100490000134254B1B68A3422BDD244BA200D55809
:1004A0002349204821F042F9290021F00FFA20F0D9
:1004B000BBFF280001F066FE02000B0001F0C4FD46
:1004C00002000B0000201B4901F0C7FD01F0AEFE49
:1004D000194A02AB00930023FFF7FCFE01F064F819
:1004E00000299FD0FA229200002301F0A7FB05000B
:1004F000A6E712490B4821F019F920F095FFD02505
:100500002D068026B6046E61FA246400200000F0F7
:1005100013FFAE61200000F00FFFF0E70F2700008F
:1005200000520510FC410020581B00205C1B0020DD
:10053000F051051080842E412D0300104452051007
:1005400010B58300084A9A1814684022544080323B
:100550002240064CA44663441A60C000044B9C46EB
:100560006044416010BDC04604C0014004D0014059
:100570000040014010B501238340D022120693624F
:1005800093610521FFF7DCFF10BD000010B580234B
:10059000DB05186803051B0D0B4A934207D10B4B73
:1005A000034080229201934207D1000F10BD084BF7
:1005B000084A0948222103F0CDFC084B054A0648A9
:1005C000232103F0C7FCC0462709000000F0FF0FFD
:1005D0005C5205106877051080520510B85205105E
:1005E0000FB400B583B0084803F058FE049B002BFD
:1005F00007D005A90191180003F060FE034803F03D
:100600004DFE012003F04CFCCC5205103861051062
:10061000EFF3108072B6034B1B68002BFBD0BFF3C7
:100620005F8F70472C0100D0BFF35F8F024B002219
:100630001A6080F3108870472C0100D0F8B50600CE
:100640000C001500FFF7E4FFE308F718F15C072240
:100650002240012393400B4205D1DBB20B433B7098
:10066000FFF7E2FFF8BD21002800FFF7B9FFF0B562
:1006700083B00600019114001F00FFF7C9FF00E0DE
:100680000134BC420CD8E308F518F35C0721214083
:1006900001228A401A42F3D1D2B21A432A7001E0F1
:1006A00001246442FFF7C0FF002C02DB200003B0EE
:1006B000F0BD019B002BF9D00898FFF791FF0000D7
:1006C000054A1078431CDBB21370172B02D91300B4
:1006D00010221A707047C046AE1B002010B582B0C1
:1006E0000100054C054B00931F2318222000FFF743
:1006F000BEFF02B010BDC046A84E0020DC5205105F
:10070000002307E0054A9A189200BFF35F8F00218B
:10071000116001331F2BF5D97047C04640000034EB
:10072000074B9B68103080001950BFF35F8FBFF3F9
:100730005F8F044B0021196082F310887047C04618
:1007400000ED00E0240100D00048704700E400E024
:1007500010B5FFF7F9FF002302E0034A04C001339C
:10076000072BFAD910BDC0468080808010B5038861
:10077000DA0A1C2A05D15B055B1502335B00C01841
:1007800010BD034B034A16210348FF3103F0E2FB7F
:10079000F8520510A47705101053051010B5091A6A
:1007A0000B1F0A4A88180A4A904208D8C90706D47B
:1007B0005B105B055B0D0748184380B210BD064B0C
:1007C000064A08210648FF3103F0C4FBFC0700007D
:1007D000FE0F000000E0FFFF44530510987705105E
:1007E0001053051001238340034A10681840431E2C
:1007F0009841C0B27047C04600E100E0002A05D031
:10080000044BC0225200995019607047014A80235E
:10081000D150FAE700E100E010B50A001F230340C1
:10082000012199404009FFF7E9FF10BD01238340F2
:10083000014A13607047C04600E200E0024B9B682B
:1008400010308000C058704700ED00E010B5FFF791
:10085000F5FF044BC31A00202F229A424041C0B238
:1008600010BDC046B01B002070B504000D00EFF3B2
:10087000108672B60C4B1B68002BFBD0BFF35F8F4A
:100880002000FFF7DBFF094B984201D0A84205D1B9
:10089000320029002000FFF743FF70BD044B054ADA
:1008A0000548E72103F056FB240100D0CD010010DC
:1008B00074530510CC77051010530510F0B5DE46C3
:1008C00057464E464546E0B589B081460191150030
:1008D000EFF3108B72B66F4B1B68002BFBD0BFF38E
:1008E0005F8F6D4B00269E57002E40DB7400A419CD
:1008F000A4006A4824180622A256674B1A70684B57
:100900009A684B4610339B00D35898461B1A2F2BDE
:100910003BD9644B984531D105AF634B3B8063496C
:1009200073009A46981980005C4B98464044023008
:10093000FFF734FF78805E4BBB80FF23BB71FD71F6
:10094000019B0793330053449B00434407CF07C3E5
:1009500001231C43A0465A4641464846FFF7E0FEA5
:1009600009B0F0BCBB46B246A946A046F0BD514B0B
:10097000514A74215148FF3103F0ECFA504B4E4A72
:10098000BD214E48490003F0E5FA012342469A434F
:100990009246101A0C2101F013F900290FD1534689
:1009A0000027DA79AA4212D90621595600290DDB0F
:1009B0004A005218920039491F008B18F1E7414B49
:1009C0003D4A8C213D48FF3103F0C4FA1F00002F3F
:1009D0002ED005AB3C4A1A80813A5A800623FB563A
:1009E0000293002B17DA394805AB9A469880029A91
:1009F0009A71DD71019A0792381D2100FFF7CEFE32
:100A0000B880BE71254B7200921992009B18524615
:100A100013CA13C39FE7381DFFF7A8FE010070003B
:100A2000801980001D4BC0180430FFF7B7FEDBE7CC
:100A300005AF1D4B3B801D49730002939B199B0022
:100A4000164A90461A0042440392901CFFF7A6FEF5
:100A50007880039A101D5146FFF7A0FEB8801C4B0A
:100A600052464146521A524153431B0DBB71FD7110
:100A7000019A0792029B9B199B00434407CF07C32F
:100A8000114B52461380813B538001231C43A046E7
:100A900061E7C046240100D043570020B01B00206E
:100AA00000ED00E0CD01001000A1FFFFE01B0020E1
:100AB00001BDFFFFAC530510B477051010530510AE
:100AC000D4530510FC5305100148000001BD00007F
:100AD000AAAA0000F8B5012202432D4BD31A2F2BEE
:100AE00028D8EFF30583002B2BD0EFF3108472B6D8
:100AF000284909680029FBD0BFF35F8F244D2649A0
:100B00000600761B76417143090D4DB22349896871
:100B10009B00C95891421AD00021032931D81C4B9F
:100B20004A00521892009B189B795BB2AB421ED0D0
:100B30000131F2E71A4B1B4A9D211B48890003F043
:100B400009FA1A4B174A1848194903F003FA134ACD
:100B500092681849D150184B1A7882711D70BFF3F2
:100B60005F8F0C4B00221A6084F31088F8BD084B8D
:100B70004A005618B6009E19FF27B7710F4AB28077
:100B8000E9E70F4B074AA2210748890003F0E2F981
:100B9000B01B0020240100D0AAAA000000ED00E054
:100BA000805405107C77051010530510A8540510CB
:100BB00077020000CD0100104357002001BDFFFF68
:100BC000B454051010B582B00100074C074B0093D8
:100BD000052300222000FFF74AFD002801DB1F2328
:100BE000181A02B010BDC04648570020BC5405106A
:100BF000024B9C466144890001607047400000340C
:100C000010B50400FFF75CFD01002000FFF7F0FFC6
:100C1000FF232371BFF35F8F10BD10B50400FFF7F2
:100C20004FFD01002000FFF7E3FFFF2323710023A6
:100C30006371BFF35F8F10BD10B50D4C09E00D4B14
:100C40000D4A0E481A2103F085F92000FFF7D8FF5E
:100C500008340B4B9C4209D22368002BF5D0012BA2
:100C6000EDD12000FFF7D9FF0834F2E710BDC046F0
:100C7000E82C0020D85405100C780510F854051005
:100C8000F02C0020034B9C46614489000160BFF3B7
:100C90005F8F70474000003410B504000120FFF75B
:100CA0001DFD01002000FFF7EDFF10BD30B5846A87
:100CB000151B0B1D9B001B581B1B9D4204D3046A74
:100CC00001238B40234202D1043189000A5030BDF8
:100CD00000040843704700000A4B1968EFF31083C3
:100CE00072B60A68002AFCD0BFF35F8F054A12680B
:100CF000BFF35F8F0021116083F3108840BF002095
:100D00000021704720570020F0B5DE4657464E467A
:100D10004546E0B587B0EFF3058303221A409246BB
:100D2000AE4B9200D7583B78534507D1012352462A
:100D300093409946AA4B4A461A6025E1A94BAA4A14
:100D4000AA48922103F006F97A6973009B19DB0027
:100D50009046984443469C68DD68A54800F0F2FB45
:100D6000001BA941002900DA16E1002D74DB43467F
:100D70001B699B469F4B9B454FD00823F85E43461B
:100D8000598889B2FFF7A4FF43465969D8470290B2
:100D900003910299039A0B00100013435CD01300D7
:100DA0000A00002847DAA41A9D41009401954346A1
:100DB000009C019D9C60DD600021595E002900DAE5
:100DC000EAE078694B005B18DB00C3189A68DB68BF
:100DD000A41A9D41002D00DADEE039813D0008357E
:100DE000844604912A000597B346009E019F049B08
:100DF000002B2ADB0023D45E63001B19DB00634455
:100E00009C68DD6830003900001BA94100291CDB0B
:100E10001A000021595E0491E9E743465B699B464D
:100E20001B6958469847002816D05B461A685B68CD
:100E300002920393ADE76E4800F084FB029B039C93
:100E40001B184C4100930194B1E70499059F5E463D
:100E50004346198016809FE0434600229B5E3B81FB
:100E60003A69EFF3108372B611680029FCD0BFF322
:100E70005F8F02217A5E41460A807E803A69BFF325
:100E80005F8F0021116083F3108885E03969EFF3EB
:100E9000108372B60A68002AFCD0BFF35F8FB8884F
:100EA00000B201225242BA803A69BFF35F8F00213B
:100EB000116083F310880500BC461CE004930022F7
:100EC0009A5E002A0EDB049B0021595E4B005B18E2
:100ED000DB0063449868D96834003D00241A8D41D2
:100EE000002DEBDA04995D46009B9C4644460D803C
:100EF0000023E55E2280002D12DB634658696C00FA
:100F00006419E4000419A668E768614608310822FC
:100F10009A5EAB46049163460093A0468446D0E7B0
:100F200067463EE00023BB71390008310823F85EB4
:100F30000EE001246442E5179460D56008243B5F0D
:100F4000834204D00E8008243B5F13803881300038
:100F5000431C29D07C6943001B18DB00E218E65EC5
:100F600053881BB2002BE4DB1100F0E722002B00BA
:100F700051461F48FFF79AFE1D4800F0E3FA241A75
:100F80008D41002D22DC1FD0194B4A465A6308239D
:100F9000FE5E002E00DBD7E6BB881BB2002B00DB19
:100FA00074E7BB79002BBDD10823FA5E002A0DDB64
:100FB000796953009B18DB00CB189C68DD68631CC3
:100FC000D4D16B1CD8D0D1E7002CDDD040BF07B006
:100FD000F0BCBB46B246A946A046F0BD2054002056
:100FE0003C7005407C55051038780510A855051053
:100FF00000400540090D001070B504000D001100FF
:101000000126AE4006622800FFF72EFC01212800D1
:10101000FFF702FC024B9C466444266070BDC0464C
:1010200038200000F8B5CE46474680B50600894610
:1010300090461F00C160FFF743FB154B9C46604480
:101040008000306143463370BBB27381D0221206F8
:1010500012787270012252423281B2809B187380E2
:10106000002406E0621E736965002D19ED005A53D5
:101070000134BC42F6D3074B42469200D650064A92
:1010800041464846FFF7B8FFC0BCB946B046F8BD78
:101090004000003420540020090D001010B5064B0C
:1010A0001B69002B01D0044810BD044B044A0548BD
:1010B000652102F04FFFC046F81B0020D8550510EF
:1010C00020780510A8550510F8B504000569EFF360
:1010D000108072B629680029FCD0BFF35F8F02210F
:1010E000665E656971008919C9006D18002E02DB02
:1010F0000027E95F61802169BFF35F8F00270F60E0
:1011000080F31088002E2CDB06992961079969610C
:10111000AA60EB606B8801335B04590C002B00D193
:10112000012169803000FFF7D3FD2169EFF31083BF
:1011300072B60A68002AFCD0BFF35F8FA2882A80AB
:10114000A6802269BFF35F8F0021116083F31088AE
:10115000E368217801228A4003498C4663441A607F
:10116000F8BD01204042FBE73C20000070B582B092
:10117000060014001D0008AB1B78002B07D100F0FF
:1011800013FA22002B00121A8B41002B0ADB079B5B
:101190000193069B009322002B003000FFF794FF81
:1011A00002B070BD0020FBE7F0B5C64600B584B0C4
:1011B0000500884616001F000AAB1C78FFF76EFF7B
:1011C0000294019700962A004346FFF7CFFF04B030
:1011D00080BCB846F0BD000030B504000A14438955
:1011E0009A422EDA406953009B18DB00C318256928
:1011F000EFF3108272B628680028FCD0BFF35F8F2F
:10120000588885B20904090C884212D0002023694D
:10121000BFF35F8F0021196082F31088002811D07E
:10122000E368217801228A4007498C4663441A60AA
:1012300008E00649294389B259800123A37101209E
:10124000E5E7002030BDC0463C2000000080FFFFE5
:1012500010B50400FFF722FF2100FFF7BDFF10BD0E
:1012600040787047F0B583B006000F00EFF30583B8
:10127000002B1AD106246442E517A4197D418D4242
:1012800002D803D1844201D90024002500F08CF952
:1012900022002B00121A8B41002B0BDC08D03000EF
:1012A000390000F093F903B0F0BD1648FFF798F944
:1012B000002AF4D0144A0023009320002900FFF7ED
:1012C00073FF002813DAEAE7104B1968EFF3108375
:1012D00072B60A68002AFCD0BFF35F8F0B4A12680F
:1012E000BFF35F8F0021116083F3108820BF084B8C
:1012F0005B6A9D42E8D80649896AA142CFD29D42E5
:10130000CDD1E1E7FC550510D90C00102057002085
:101310000040054070B504000D0000F045F90019CB
:101320006941002902DBFFF79DFF70BD01204042AB
:101330000049F8E7FFFFFF7F10B5FA229200002373
:10134000002101F047FBFFF7E5FF10BDF0B5CE46E9
:10135000474680B583B005000C00EFF30583002BF2
:1013600015D03F4B5B6A8B4209D33D4A926A824259
:101370000BD28B4201D0012002E0002000E00020CF
:1013800003B0C0BCB946B046F0BD0120F8E7FFF796
:1013900085FEC3689946037898462E002700484684
:1013A00000F0D0F802000B00B61A9F414346043308
:1013B0009B004A469B581B1A0022BA420FDC0CD0F5
:1013C00020BF274B5B6A9C422DD8254A926AAA42CD
:1013D0002BD29C4225D00120D2E7B342F0D9214A3A
:1013E0000023009328002100FFF7DEFE00281EDD09
:1013F0001B4B5B6A9C4205D8194A926AAA4202D2E8
:101400009C4200D120BFFFF723FF154B5B6A9C4233
:1014100021D8134A926AAA421FD29C4219D00120B5
:10142000AEE70020ACE70020AAE70120A8E70C4BBC
:101430005B6A9C4209D80A4A926AAA4207D29C4235
:1014400001D001209CE700209AE7002098E70120C6
:1014500096E7002094E7002092E7012090E7C0463D
:1014600000400540D90C0010F0B585B005000C9C7B
:101470001100194301D101220023A5600A992161BD
:10148000226063600B996161D81701004240160029
:1014900043401F00361A8F4100F086F832003B00AF
:1014A00012184B41002B0DDB0121029101940749D9
:1014B00000912800FFF75AFEE060C317181AC00F0A
:1014C00005B0F0BD01225242014BEDE7090D0010BD
:1014D000FFFFFF7F10B50400C168002901D1002083
:1014E00010BD8068FFF778FE0023E360F8E7000096
:1014F000004870470040054010B50B4B1B69002B9E
:1015000004D00A480A21FFF773FB10BDFFF7F0FF74
:101510000400032100F00CF80348102303222100EB
:10152000FFF780FDEDE7C046F81B002020570020A4
:1015300010B5024A0248FFF781F810BD4C5605105D
:10154000AC4E00200200436A906A1900536A994227
:10155000FAD17047416A00E0416A9942FCD300E049
:10156000416A994202D1816A9142F9D37047F0B53C
:10157000C64600B5804614001D00FFF7E3FF0600D5
:101580000F0022002B0092197B41994202D804D10E
:10159000904202D901225242D3174046FFF7DAFFA8
:1015A00080BCB846F0BD000010B50248FFF7CAFF86
:1015B00010BDC0460040054010B502000B000248B7
:1015C000FFF7D5FF10BDC0460040054010B5020032
:1015D0000B000248FFF7BEFF10BDC04600400540AB
:1015E000F8B5D646474680B506000D001700984668
:1015F00044002418A400294B9C4664446368089A5C
:10160000934200D26260331FDBB29A46012B2ED97F
:1016100080221201C0239B01E3181A60204BB20004
:10162000D158002907D0586900F0CAFA01304300A8
:101630001B18033BFDD27F0123685F40E0233B4042
:1016400080225201A21813605346012B1AD980231D
:101650009B01E318802212011A60089B6360104B03
:10166000B6004246F250C0BCBA46B046F8BD012DA5
:10167000CED10322C0239B01E3181A60A368DB07C5
:10168000FCD5D8E72168694003230B401360A368A9
:101690000122AA401A42FAD0D9E7C0460080004091
:1016A000B04E0020F0B583B005000E001700180002
:1016B000089900F085FA0300089A140200943A0091
:1016C00031002800FFF78CFF03B0F0BD10B582B0E9
:1016D000802464000094FFF783FF02B010BD000077
:1016E000014B8000C0587047B04E0020F0B5C64690
:1016F00000B504000E0017001D00374800F060FA26
:101700008046364BFA18364B9A4239D801003800D9
:1017100000F056FA0200103A98235B009A4235D83E
:101720006B1E062B38D8069B013B062B34D83F098D
:10173000474537D32D04069B1B031D432368002B0D
:1017400036DB284B9C4244D00C2201239340264A8E
:101750001360264A1360264A1268190091430A1E34
:10176000F9D12660A060234BE31821321A60226869
:10177000002AFCDAE56008221A6080BCB846F0BD99
:101780001D4B1E4A1E48112102F0E4FB1D4B1B4A53
:101790001B48192102F0DEFB1B4B184A18481C217C
:1017A00002F0D8FB194B154A1548232102F0D2FB51
:1017B00022683F231340B342C3D1A3681B051B0D0E
:1017C0008342BED1E368EE22D2021340AB42B8D1CD
:1017D000D3E70D22B9E7C046001BB70080E84BD322
:1017E00080F8A93200C0024000E0004000F0004054
:1017F00008C00040043000007056051058780510ED
:10180000C0560510F4560510105705105C5705100A
:10181000024B1A68024B5A607047C04618530020AA
:101820000080054010B5184B8022D2051A60174B76
:10183000174A1A6000290AD0164BE022D2041A6017
:10184000002809D1134B802212061A6010BD0E4BDE
:10185000E022D2041A60F3E743011B1A9B001A1816
:10186000D2000D490A6018180001086080235B044B
:10187000984201D3094A0A60FFF7CAFF054B80224C
:10188000D2051A60E2E7C04600B0054008200140DA
:10189000FCFF010000A0054018530020FFFFFF00DF
:1018A00010B5030010000C4A8024E4051460002BDE
:1018B0000DD001221343094A094CD461094C5C4004
:1018C0001462516293620021FFF7ACFF10BD034B1D
:1018D0000022DA61F7E7C04600B00540008005400D
:1018E000D3C007B02D3FF84F80239B000B43014A24
:1018F000D36270470080054010B5010018231B8893
:1019000014221088984710BD10B5010018231B88B9
:1019100016221088984710BDF0B5C64600B50700DE
:101920000E0000250123984600E00135B5420AD299
:10193000AC003C192068FFF7DFFF20600028F4D1DD
:1019400000239846F1E7404680BCB846F0BD000051
:1019500070B504000D000648FFF7CEFF0300002C11
:1019600003DB0120A040290098470020FBE7C04688
:1019700055420000074BAA2212011A608D22520024
:10198000DA60054B054A1A60024B5B68002BFBDAF4
:101990007047C046004002400060024000B0FA00BC
:1019A00010B5040001E008CC9847024B9C42FAD3E2
:1019B00010BDC046C45105107047000010B5024864
:1019C000FFF7EEFF10BDC04688510510054B064AD3
:1019D0001A60064B064A1A60064B1A68044B93437A
:1019E000FAD1704700E00040BFCDFBFE00F00040A0
:1019F000FE7F3C0008C00040044BDB6C002B03D191
:101A0000034B8022D2021A607047C046000011507A
:101A10004C201150044B054A1A60054B1B68DB43F0
:101A2000DB01FAD17047C04600F00040FFFFFF0124
:101A300008C00040034B40229A675A671A67DA666B
:101A40007047C04600F0014010B5FEF759FE10BDCA
:101A500070B5044DA968044CC022200001F0E6F8DE
:101A6000AC6070BD00ED00E00000002070B5042007
:101A7000FFF736FE064900F0A3F805000024002C0D
:101A800000DD70BDE0B22900FFF72EFF0134F6E75C
:101A900040420F0030B583B0274B00229A67FFF712
:101AA00069FF264B01221A60234B5B6C012BFBD193
:101AB000234B03221A60204B9B6B012BFBD101337C
:101AC000009304331F4A01211F48FFF70FFE05232F
:101AD00000931E4A01211E48FFF708FE1D4B0022FD
:101AE00002210420FFF7F2FD1B4D2B0000220121F3
:101AF0000520FFF7EBFD194C2300002200210720F1
:101B0000FFF7E4FD2300002200210820FFF7DEFD9F
:101B10008023DB0000932300002200210920FFF72F
:101B2000C1FD2B00002200210620FFF7CFFDFFF7AB
:101B30009DFF03B030BDC046008000403CB0004077
:101B400030B00040002F685900800240008C86476A
:101B500000C00240001BB70040597307006CDC0254
:101B600001480421014B1847101C002019190010CE
:101B7000124A936F9B0815D29066D166002905D052
:101B8000FFE7FFE7FFE7516F106F704704B5802153
:101B90000906C2175140002800D0C84353F06CFA20
:101BA000002104BDF0B5146E556E576F166FFFF728
:101BB000E3FF1466556657671667F0BD000000D056
:101BC000114A936F9B0813D210665166002905D005
:101BD000FFE7FFE7FFE7516F106F704704B500287C
:101BE00001D00020C04353F047FA002104BDC04695
:101BF000F0B5146E556E576F166FFFF7E5FF14665C
:101C0000556657671667F0BD000000D094464A4AF3
:101C1000926F9208624601D228E0C046F0B5464E67
:101C2000346E756E776F366F00F020F89446424A36
:101C300014665566576716676246F0BD94463E4A7D
:101C4000926F9208624601D254E0C046F0B53A4E17
:101C5000346E756E776F366F00F04CF89446364AE6
:101C600014665566576716676246F0BD002B24DB85
:101C700011D000293EDA00B5C943404200D10131FC
:101C800000F038F8C943404200D10131DB435242F1
:101C900000D1013300BD002AEBD1002801D1002979
:101CA00005D00020C90FC90701D1C043410800B5C4
:101CB00053F0BAF90022002300BD00B500290ADB69
:101CC000DB43524200D1013300F014F8C9434042D3
:101CD00000D1013100BDC943404200D10131DB4395
:101CE000524200D1013300F005F8DB43524200D1EB
:101CF000013300BD002923D1002B18D1002A0CD0BC
:101D0000BC460D4F38667A6600210023FFE7FFE7E7
:101D1000FFE77A6F386F67467047002801D00748A1
:101D2000010000B553F080F90022002300BD02003D
:101D30000B00002000217047000000D0FFFFFFFFD4
:101D4000002B00D0BFE0130C28D1002AE7D080B4CC
:101D5000114F39667A66FFE7FFE730B4040C7B6FFA
:101D6000396F1B0423433B667A66FFE7FFE7FFE713
:101D7000C04684B27B6F3D6F1B0423433B667A668B
:101D8000FFE7FFE7C04600232C042D0C7A6F386F65
:101D900000196941B0BC7047000000D0F0B594460E
:101DA0000025140E01D112020835140F01D11201C1
:101DB0000435940F01D192000235D40F01D15200A5
:101DC0000135D40B0134254F7C66254C3C660E0C46
:101DD00093B2FFE7FFE7FFE73C6F6643360C7703FC
:101DE000BE467343DF0B5B04C01AB941130C734347
:101DF000DB18C91ACE086643360CB64493B2734357
:101E00001F0F1B01C01AB941130C73431F0B1B0595
:101E1000C01AB941860D8F023E436643360C092D28
:101E200024DB520A7243801A7703460A6643360C53
:101E300016235B1BDE40DF40BF1964466643821BEE
:101E40007046043506330100D940A840C01900D3BC
:101E50000131A24206D20023F0BD0000000000D0F4
:101E6000FFFFFFFF121B0130F3D3F1E709277F1BB0
:101E7000FE406446A2B27243801A00D20139220C9D
:101E80007243130C1204821A99410B0070460435F8
:101E900013370100F940A840801900D30131002B0D
:101EA00002D1A2420AD2F0BD013000D30131121B8F
:101EB000FAD2013BF8D1A24200D2F0BD013000D3EA
:101EC0000131121BF7E7F0B51C0C00D080E00CB418
:101ED00000251C0A04D11B02160E334312020835DA
:101EE0001C0B04D11B01160F3343120104359C0B4C
:101EF00004D19B00960F334392000235DC0B02D1D4
:101F000092185B4101351C00971864410134464F1B
:101F10007C66464C3C660E0CFFE7FFE7FFE7C046D9
:101F20003C6F6643360C7703BE4697B27743C01BBF
:101F300000D20139C01B00D201399FB27743C91BBF
:101F4000C91B170C77437E04FF0B801BB941CE08D9
:101F50006643360C0C2D33DBB644120B1F053A4397
:101F60001B0B97B27743C01B00D201399FB2774356
:101F7000C91B170C77433E043F0C801BB941860DEB
:101F80008F023E43664329277F1BFE400C3D774668
:101F9000AF40BF1930BCA2B2ABB272437343801AD8
:101FA0009941220C7243130C1204801A99410200C9
:101FB0000B000137001BA941F9D2781E0021F0BDAA
:101FC0000C277F1BFE4077467F0BAF40FF19E0E7F1
:101FD00000245D1C07D0144F7D663966FFE7FFE7DC
:101FE000FFE7FFE73C6F95B29EB265436643401B37
:101FF000B141150C1E0C6543664336042F0C3E435D
:102000002D04401BB141994204D202000B00200074
:102010000021F0BD01D19042F7D3801A99410134DB
:102020009942F2D3F6E70000000000D0FFFFFFFF67
:1020300048404140484018B41B4B5B68FC46019344
:1020400008BD04DFA323001018B4174B1B68FC461F
:10205000019308BD00DFAD2300109446134A926F30
:10206000920809D2624618B40F4BDB68FC46019314
:1020700008BD0CDF652600100C4AF0B5146E556ED5
:10208000576F166F6246FFF7EEFF084A14665566F3
:1020900057671667F0BD18B4034B9B68FC46019365
:1020A00008BD08DF092500101C550020000000D0E5
:1020B000FFB550404240504059404B40594000E02D
:1020C000FFB5154F4C00640D03D0BC4204D10C0386
:1020D00014D80020090D09055C00640D03D0BC4232
:1020E00004D11C030AD800221B0D1B0501264B40FE
:1020F00009D44B4003D58B4200D18242FFBD9942A7
:10210000FCD19042FFBD0B43DB1803431343F5D0D2
:10211000C9434918FFBD0000FF07000000B5FFF7E5
:10212000CFFF01D0002000BD012000BD00B5FFF7AA
:10213000C7FF804100BDC04600B5FFF7C1FF01D910
:10214000002000BD012000BD00B5FFF7B1FF01D99F
:10215000002000BD012000BD00B5FFF7A9FF8041B0
:1021600000BD012040054A00121804D85A00121878
:1021700001D800207047012070470000002100288E
:1021800005D17047C1174840401AFAD0C90713B5A6
:10219000064B1B6898470CBC441CA2401005120B50
:1021A0000349091B09051943114310BD1C560020A2
:1021B0001F04000010B54C00620D8023D218DB0014
:1021C000D21A5B057E2A10DD9E3A13DACC1709037A
:1021D000490819435242D140640001341532202A83
:1021E00005DAD0400843604310BD002010BD08460A
:1021F000604310BDC80FC018013810BD18B4044B9F
:102200005B6AFC46019308BD24DF1528001000001E
:102210001C55002018B4044BDB6DFC46019308BD2F
:102220005CDF2129001000001C550020C94211D399
:1022300000B549004908002200F018F8002904D42C
:10224000002240428A41114600BD8021090600203B
:1022500000BD000018B4044BDB6EFC46019308BDC2
:102260006CDF2328001000001C55002018B4044B1C
:102270009B6FFC46019308BD78DF3F2800100000EB
:102280001C55002018B4044BDB6FFC46019308BDBD
:102290007CDFAD28001000001C55002070B5132312
:1022A0001C78012C12D0012C12DC214B214A9364A2
:1022B0002148FFF721FB214B186070BD1C491D4AC6
:1022C0009800815001331F2BF8D9ECE70023FAE77F
:1022D0001B48FFF719FB05001A48FFF715FB0238EA
:1022E00003789B007F2B09DD12488022290000F033
:1022F0009DFC022C08D0022CDADCD6E7124B134AE4
:102300001348332101F026FE124B1A88B5231B0215
:102310009A4209D1104B1A88104B9A4204D1104BA3
:102320001A88104B9A42E6D00020FEF759F9C046B1
:10233000692300101C5500204C3300001C5600205F
:102340005344000053460000785705106478051088
:10235000BC57051054380000D8380000494600002A
:102360009C3800005946000007B56046002800D19F
:1023700000BE01880A0A0230DF2AFAD1C9B28208F7
:1023800004D3028840880004104300E00068024A39
:102390005050039007BD00001C5500200FB403BC33
:1023A0000CBCF0B50124E407634000E0F0B50C0D6F
:1023B000CF0F661E3605891B640503D3C94340420F
:1023C00000D30131640D03D0661CF60A07D0E41B6C
:1023D00000207F00791C89078912803C24031D0D91
:1023E000DF0F6E1E36059B1B6D0503D3DB43524288
:1023F00000D301336D0D03D06E1CF60A07D0ED1B20
:1024000000227F007B1C9B079B12803D2D032F1B0E
:10241000661B58D4A446202E46DA20371400BC4050
:102420001D00BD40F24033412A4380185941CB0F73
:1024300005D0C943C0430022644250415141624625
:102440004D0D28D10D0D07D100281FD02419404172
:102450004941013A0D0DF9D0640006D3013000D393
:102460000131002C01D140084000013A0BD4941CEA
:10247000E40A04D112051144DB071944F0BDD90761
:10248000204B194300E0D9070020F0BD0029DDD121
:10249000002CDBD1F0BD0132C6074008CD07284330
:1024A0004908002EE1D0D9E73C2E29DA203E4037FA
:1024B0001400BC4000D00124F24014431A00BB4079
:1024C0001C43D317ACE7AC46202F08DA20360400B3
:1024D000B4400D00B540F84039412843A5E73C2FF2
:1024E0000CDA203F40360400B44000D00124F8400C
:1024F00004430800B1400C43C117EAE7100019007B
:10250000002494E70000F07FF0B50C0D661E360540
:10251000891BE60A6405640D02D0651CED0A04D02F
:10252000002001210905803C2403A4461C0D671EE0
:102530003F05DB1BE70A6405640D02D0651CED0A4C
:1025400004D0002201231B05803C2403774064440F
:1025500097B484B296B27443070C7E43150C6F4354
:1025600080B26843361802D3012000043F183004BB
:10257000350C00197D41844688B29AB250430C0C48
:1025800062431F0C7C438EB27E43921902D3012614
:102590003604A4191604170C3618674101BC81B221
:1025A0009AB25143040C62431B0C5C4380B2584303
:1025B000121802D30120000424181004130C401830
:1025C00063412D185E410020474106BC88B293B29A
:1025D00058430C0C6343120C544389B251435B18AB
:1025E00002D301210904641819041A0C0918624164
:1025F0006D1856410020474118BCF902720D114375
:10260000F0026A0D1043ED020A0D03D16D1940412D
:102610004941013B124E9B1B7600B3420ED26D0026
:1026200007D30130002671416646354301D1400889
:1026300040001B05C918E4072144F0BD0BDA013343
:1026400006D1013004D101314F0D01D04908F2E724
:10265000E1070020F0BD013631050020EBE7000066
:10266000FF030000F0B51C0D671E3F05DB1BE70AEA
:102670006405640D02D0661CF60A04D00022012312
:102680001B05803C2403D0252D060026F6432E662C
:102690001E096E66CE0FF619B44649004F0D02D0E2
:1026A0007E1CF60A03D000200021403F3F033E1B62
:1026B000B600B444013F7F05C91B49082E6F01369F
:1026C00076089C02950D25437543ED137543AD13B4
:1026D00001356D10F603761B0CB4CC02450D2C436E
:1026E000A2B2B3B25A43270C7B43350C6F43A4B25A
:1026F0006C431B1902D3012424043F191C041D0C34
:10270000A4187D4124196D41009A91B2ACB2614385
:10271000170C7C432B0C5F4392B25A43A41802D38C
:1027200001221204BF182204230C52187B41019C81
:102730006C431B19520ED9010A434401A01A81B2FD
:10274000B2B2514303145A43360C734387B27743F2
:10275000D617D21900277E4136049B191704160C90
:102760007F185E417316ED18F30100268033754122
:10277000A90F06D16400690AE8055B0A184309D26B
:102780002FE00422944480337541A90AA8059B0ACE
:10279000184326D3404149412404009A019B0D006F
:1027A0005543641B4343E41A95B286B27543170C34
:1027B0007E43030C5F4392B25A43B61802D3012200
:1027C0001204BF183204330C52197B4152429C410F
:1027D000002C02D40022013051414008CA071043A6
:1027E000490802B06246D7079210084BD218084B2E
:1027F0009A4203D212058918C919F0BD0020002A97
:1028000001DC3900F0BD01331905F5E7FD030000D7
:10281000FE070000002200B5203200F010F808008A
:1028200000BD002200B500F00CF8CA179A4200D192
:1028300000BDD8430121C907414000BD00220B154E
:102840000AD410B5944600F0A7F81414013400DA45
:102850000021CB17144C2047002000217047624410
:10286000343A0CD40C2A07DA0400914090405242CA
:102870002032D440214310BDD843D94310BD20326B
:1028800007D40C469440524220321141D04020439C
:1028900010BD0800C917203203D452422032104123
:1028A00010BD1800190010BD5F2800104A00520D1D
:1028B000144BD21A13DDFF2A1EDAD205CB0FDB0729
:1028C0001A43C300400F0903490A084310435B0041
:1028D00001D301D0013070474308FBD2704702D0CA
:1028E000C80FC00770470A0312130132F8D1420F14
:1028F000072AF5D1012200E0FF22C80F000280184C
:10290000C00570478003000000210A00002104E098
:1029100000210A00C11704E00022002306E0C0469F
:102920000022CB1758405940C01A994130B5184C75
:10293000A21A002903D1010010D00020203A4C1522
:1029400012D104D2013A001849414C0DFAD3114C6E
:10295000A24204D212058918DB07C91830BDD24340
:10296000520D00200021F5E703D4013A0018494137
:10297000FBD50B324405C00A4D052843C90A640043
:1029800003D0002460416141E1E7E0D34408F8E767
:1029900032040000FE0700000A0DCC0F531E1B0579
:1029A000C91A520503D3C943404200D30131520D25
:1029B00003D0531CDB0A07D0121B00206400611CEB
:1029C00089078912803A1203014BD21A704700001E
:1029D000FF03000051434343C9188C46110C83B2D6
:1029E0004B4310B4040C614392B280B25043624333
:1029F0001C041B0C001910BC59411304120CC01804
:102A0000514161447047000007B54840414048408B
:102A100001E0C04607B54200120E03D0FF2A03D1E1
:102A2000420218D8C00DC0054A00120E03D0FF2A7A
:102A300003D14A020FD8C90DC9050122414005D46E
:102A4000414001D5814207BD884207BD0143491875
:102A500001D0C043001807BD00B5FFF7DBFF01D070
:102A6000002000BD012000BD00B5FFF7D3FF01D954
:102A7000002000BD012000BD01231B064200D2182A
:102A800004D84A00D21801D80020704701207047AE
:102A900070B513231E782A48FEF736FF0500012E75
:102AA00011D0012E09DDAB1E1B789B007F2B40DD72
:102AB00024488022290000F0B9F82348FEF71CFFC3
:102AC000224B186070BD1F485422290000F0AEF858
:102AD0001F4B1A881F4B9A421CD1A7239B011A88AF
:102AE0001D4B9A4216D11D4B1A881D4B9A4211D18B
:102AF0001C4B1A8894239B019A420BD11A4B1A88BB
:102B00001A4B9A4206D11A4B1A681A4B9A4201D1B3
:102B1000152307E01848FDF763FD184C094A990092
:102B20008C5001331F2BF8D9144B064A1362D36122
:102B3000B7E7134B134A1448422101F00BFAC04681
:102B400053460000205600204C3300001C56002045
:102B5000EE290000C40F0000C20D0000962B0000FB
:102B6000C0B50000182B0000CC2A000010B50000F2
:102B7000FC2C000051ED8764B45F05108D2B001014
:102B800004580510787805103858051007B56046C8
:102B9000002800D100BE01880A0A0230DF2AFAD1DB
:102BA000C9B2820804D3028840880004104300E0C0
:102BB0000068024A5050039007BD000020560020D4
:102BC00010B5002804D04018034B984200D810BD1F
:102BD0000248FDF705FDC046000004207C580510A2
:102BE00070B5050040F000FC04002900FFF7E8FF85
:102BF000200070BD70B50D0040F000FF04002900FA
:102C0000FFF7DEFF200070BD10B540F0F7FB10BDF0
:102C100001480421014B1847201C002019190010FD
:102C2000014B1B6818470000201C0020014B5B680B
:102C300018470000201C002010B5FFF7D1FF10BD81
:102C400010B5FFF7CDFF10BD10B5FFF7DDFF10BDCC
:102C500010B5FFF7D9FF10BD10B5FFF7D5FF10BDB8
:102C60009A4200D288547047704710B5002802D0AD
:102C70000B684968984710BD0100002007E08300F9
:102C80001B185B00501C08601078C01830380A68A8
:102C90001378303BDBB2092BF1D97047F0B5DE4633
:102CA00057464E464546E0B583B093461F000C9B01
:102CB0009A460D9C0E9B99460F9B9B0717D0B846D2
:102CC0000F00060022E0551C4B4641462020B84725
:102CD00001342A00B442F6D33D004F465C46019BC6
:102CE0009B46B1464646B84637002E000EE001929C
:102CF000A34688464E46B9460700EBE7013C551C03
:102D00005346185D43463900B0472A00002CF5D1E0
:102D100035003E0047460F9B9B0711D4100003B0BF
:102D2000F0BCBB46B246A946A046F0BD541C4B467B
:102D300041462020B8472200531BB342F6D3EDE7AB
:102D4000B0464E46B9462F005D46F5E7F0B5CE4693
:102D5000474680B585B0944698460C9D0D9C0EABB9
:102D60001B789946109A119B129EB7071CD4002B12
:102D70000CD0F7070AD54F46002F02D10C37374247
:102D800004D0013B02E030272F550134944201D298
:102D90001F2CF8D9F70707D59C4205D21F2C03D862
:102DA00030272F550134F5E7F70612D5770505D4FE
:102DB000002C03D0944221D09C421FD00F9A102A9D
:102DC0002FD00F9A022A36D01F2C0AD830222A552B
:102DD00001341F2C05D84A46002A32D02D222A550C
:102DE0000134039602930194009543466246FFF72F
:102DF00055FF05B0C0BCB946B046F0BD621E012CFF
:102E000017D00F9F102F0BD014000F9A102AD8D173
:102E1000B206D6D51F2CD4D858222A550134D3E770
:102E2000023CB206F1D41F2CEFD878222A55013487
:102E3000CAE71400C2E71F2CD3D860322A550134E8
:102E4000C2E7720703D52B222A550134C9E732079E
:102E5000C7D520222A550134C3E7F0B5DE465746D0
:102E60004E464546E0B593B081468A46089209939E
:102E70001CAB10CB1B789B461E9D219B9846002CBB
:102E800003D1102342469A4390468023DB004646F6
:102E90001E4042461A4218D0002C22D0002614E0D0
:102EA000424692061BD54121C918C9B20A39C9B296
:102EB000771C0AAB995529002000FEF781FEAC4231
:102EC00010D31F2F0ED83E00040029002000FEF76B
:102ED00077FECBB2092BE3D83033D9B2E8E76121D2
:102EE000E2E7270043460693209B05931F9B04932C
:102EF00003955B46029301970AAB0093099B089ADE
:102F000051464846FFF722FF13B0F0BCBB46B2461D
:102F1000A946A046F0BDF0B5DE4657464E464546AA
:102F2000E0B597B00A900B910C929A46209B994677
:102F3000219F22AA13789B46249B0993259C289BBA
:102F400098464A463A4302D110329343984680222B
:102F5000D20045461540434613420AD04A463A43FA
:102F600041D000252E0053460D934D46099B9A46AD
:102F700021E02E0053460D934D46099B9A461AE0D8
:102F80004246920623D54122D218D2B20A3AD2B290
:102F9000731C99460EAB9A555246230028003900FF
:102FA000FEF74CFEBC4220D813D04B461F2B16D840
:102FB0004E4605000F005246230028003900FEF758
:102FC0003DFED3B2092BDBD83033DAB2E0E7612221
:102FD000DAE7AA45E9D94E460D9B9A4608E04E46E7
:102FE0000D9B9A4604E0002602E04E460D9B9A4651
:102FF00043460693279B0593269B0493099B0393C3
:103000005B46029301960EAB009353460C9A0B99C4
:103010000A98FFF79BFE17B0F0BCBB46B246A94624
:10302000A046F0BDF0B5DE4657464E464546E0B5F3
:1030300091B0804689460C929A461A9C1B9D2200AC
:103040002B0020002900FFF78CF8002800D0F2E0C8
:1030500001225242D54B20002900FFF77DF80028BD
:1030600000D0E8E001225242D14B20002900FFF7B6
:103070005DF8002800D0DEE00022002320002900B7
:10308000FFF754F8002800D0EAE006940795802363
:10309000DB001E9A1A400D921E9A1A4201D1062395
:1030A0001C930698079902000B00089209930300ED
:1030B0000A00024300D1DFE0080D4005400DBD4E7F
:1030C000B4466044079E3203120B1E00BA4B1343F2
:1030D0001F00FFF757F8B94AB94BFEF7DCFFB94AB2
:1030E000B94BFEF7B1FF089009910022B74B3000B1
:1030F0003900FEF7A0FFB64AB64BFEF7CCFF020040
:103100000B0008980999FEF79FFFFFF753F88346D5
:10311000FFF738F806000F00AF4AB04BFEF7BBFFD1
:103120000022AF4BFEF790FFFFF744F80890AD4A3E
:10313000AD4B30003900FEF7AEFF06000F000898D7
:10314000FFF720F8A94AAA4BFEF7A5FF02000B00E3
:1031500030003900FEF76FFF06000F0002000B0081
:10316000FEF799FF0A900B91089BA24A944663448C
:1031700000210022089109921B050993002308935E
:1031800032003B0030003900FEF75EFF0E900F91D9
:1031900032003B0000208021C905FEF74CFF0600ED
:1031A0000F000022944B0A980B99FEF756FF00225D
:1031B000924BFEF749FF02000B000A980B99FEF7AD
:1031C0004CFF00228E4BFEF73FFF02000B000A98D7
:1031D0000B99FEF742FF02000B0030003900FEF7AA
:1031E00033FF02000B000E980F99FEF736FF002206
:1031F000714BFEF729FF089A099BFEF74CFF06006A
:103200000F0008960997069A079BFEF7A5FF00286E
:103210000BD001235B429C46E3440022774B3000F5
:103220003900FEF71AFF089009915B466333C62BFD
:1032300045D8042623E01E9B04931D9B03931C9BEF
:1032400002930094019553460C9A4946404600F07B
:10325000FBF811B0F0BCBB46B246A946A046F0BD93
:103260000021002206910792069480231B069C46AB
:10327000AC44634607930AE700239B4604261E9B43
:103280001B0528D5089A099B190011430FD05D4AE8
:103290005D4B06980799FEF757FF00287AD0002269
:1032A0005A4B06980799FEF741FF002872D01C9BE5
:1032B0005B4506DD5A469B1A013B1C9303E005263D
:1032C000DDE700231C938023DB001E9A1A431E9225
:1032D000002600239B461D9B9E4265D29F1B022316
:1032E0001E9A1A400A921E9A134202D0002E00D053
:1032F00000275B46002B07D0089A099B0698079980
:10330000FEF7ABFE06900791002200232000290063
:10331000FEF70CFF002800D07CE03D4B1E9A1340C6
:10332000049303971C9B0293069B079C00930194B4
:1033300053460C9A4946404600F086F8002E00D1CC
:1033400087E71E9B9B0671D54525441C534602000A
:1033500049462800C0475A46D317D2185A40052379
:103360000593013E0496002303930A3302935B46C0
:10337000DB0F019300925346220049464046FFF777
:103380006CFD0A9B002B00D163E7020047460C9EB0
:103390001D9D53E01C9B002B9DD00D9B002B9AD0B4
:1033A0001C9B013B1C9396E7002798E7FFFFEF7FEC
:1033B000FFFFEFFF01FCFFFF0000F03FFB799F5094
:1033C0001344D33FB3C8608B288AC63F0000F83F40
:1033D00061436F63A787D23F71A379094F930A4076
:1033E0000000E03F1655B5BBB16B0240EF39FAFE65
:1033F000422EE63FFF03000000002C400000244066
:10340000000018402D431CEBE2361A3F80842E4109
:10341000FFF7FFFF069C079D220029008020000681
:10342000844661440B000692079376E765258CE796
:10343000541C534649462020B8472200931BAB42F8
:10344000F6D3100005E7C046F0B5DE4657464E46B7
:103450004546E0B595B00690079193469946209F62
:103460001E9A1F9B10001900FEF77BFE002831D129
:1034700001225242BC4B1E981F99FEF757FE0028AE
:1034800037D101225242B94B1E981F99FEF764FEB4
:1034900000283DD10022B64B1E981F99FEF75CFE16
:1034A00000284AD10022B34B1E981F99FEF73EFE1A
:1034B000002842D1002200231E981F99FEF736FEF5
:1034C00000284AD100239846229B5B0500D4B0E037
:1034D000002452E0229B0393219B02930323019338
:1034E000A54B00934B465A4607990698FFF7D6FB23
:1034F00008E1229B0393219B0293042301939F4B9A
:1035000000934B465A4607990698FFF7C7FBF9E028
:10351000229B5B070ED59A4B042222990391219995
:103520000291019200934B465A4607990698FFF77D
:10353000B5FBE7E0934B0322EFE7229B0493219B2B
:10354000039302971E9B1F9C009301944B465A467F
:1035500007990698FFF766FDD4E01E9A1F9B00208E
:103560000021FEF768FD1E901F9101239846ABE7EE
:103570000CAB30221A55013F01341F2C01D8092F02
:10358000F6D81E981F99FEF715FE0500FEF7FAFD06
:1035900002000B001E981F99FEF74DFD7A4BFA00B2
:1035A0009B181A685B680A920B93FEF774FD0890EB
:1035B0000991FEF723FE0600FEF7E0FD02000B0076
:1035C00008980999FEF737FD0890099100226F4B82
:1035D000FEF7C2FD00282ED001363000FEF7CEFDEA
:1035E00002000B000A980B99FEF7A6FD002801D0F7
:1035F00001350026002F2CD12800FEF7C3FD020064
:103600000B001E981F99FEF716FD06000F00002202
:103610005E4BFEF78BFD002846D100225B4B30004D
:103620003900FEF799FD00283ED1EB073CD5013566
:103630003AE006274CE70022544B08980999FEF718
:1036400075FD0028D6D1002E01D0F307D2D5013662
:10365000D0E7AA461F2C11D8013F0A213000FEF7FF
:10366000AFFA651C30310CAB19550A213000FEF75A
:10367000A7FA092E0ED906002C00EBE755461F2CA1
:103680000CD87B1E002F09D00CAA302111551F0029
:103690000134F4E72B0055461C00F0E71F2C03D83B
:1036A0000CAB2E221A5501341F2C10D80A212800E9
:1036B000FEF75EFA661C30310CAB19550A21280062
:1036C000FEF756FA051E01D03400EDE7340003235F
:1036D000229A1340012B1CD01F2C06D84346002BE6
:1036E00032D00CAB2D221A550134229B0393219B1F
:1036F000029301940CAB00934B465A4607990698E7
:10370000FFF7CCFA15B0F0BCBB46B246A946A046BE
:10371000F0BD219B002B13D04346002B02D10C336C
:1037200013420FD0219B013B2193190003E00CAB06
:1037300030221A5501348C42CED21F2CF7D9CBE758
:103740002199F8E72199F6E7229B5B0704D50CAB9A
:103750002B221A550134C8E7229B1B07C5D50CAB99
:1037600020221A550134C0E7FFFFEFFFFFFFEF7F74
:1037700065CDCD4165CDCDC1D8580510DC580510BB
:10378000CC580510D4580510807A05100000E03F91
:10379000F0B5DE4657464E464546E0B593B00700C5
:1037A0008A4693461193002900D12CE3002508E0B6
:1037B0006C1C5B462A005146B847119B013311939C
:1037C0002500119B1878002800D11EE32528EFD191
:1037D000013311930023180020E001231843013224
:1037E0001192012418E0022318430132119201249E
:1037F00012E0042318430132119201240CE0082343
:10380000184301321192012406E0102318430132BB
:103810001192012400E00024002C09D0119A1378A1
:10382000203BD9B21029F6D88B00C449CB589F460B
:103830008146119B1A781300303BDBB2092B10D95B
:103840002A2A13D00B94119B1A782E2A20D0119A71
:103850001378683BD9B2122965D88B00B849CB5888
:103860009F4611A8FFF708FA0B90ECE71C9B1A1D66
:103870001C921B68002B04DB0B93119B01331193EB
:10388000E1E702220100114389465B420B93F4E712
:103890008022D2004946114389465A1C11925A7817
:1038A0001300303BDBB2092B0BD92A2ACFD11C9B4A
:1038B0001A1D1C921C68002C08DB119B013311930C
:1038C000C5E711A8FFF7D8F90400C0E70024F4E722
:1038D00080235B0049460B43511C119151786C29A0
:1038E00001D099461FE0C0239B00494619438946F1
:1038F0000232119217E0802349460B43511C11916B
:103900005178682901D099460DE0C02349461943F2
:1039100089460232119206E080235B004946194332
:10392000894601321192119B187867281CD82528E6
:1039300000D25EE20300253BDAB2422A00D958E207
:103940009300804AD3589F4680239B0049461943E1
:10395000894601321192E6E780235B00494619430C
:10396000894601321192DEE7782800D941E26928C0
:1039700000D23EE20200693AD2B201239340724A79
:10398000134210D11A0600D50CE25B0500D430E2D8
:103990001C9B1A1D1C921E68002C00D0BAE101224B
:1039A0005242330096E16F2842D005D8582841D0C2
:1039B000622803D1022606E078283DD010234A462B
:1039C0009A4391460A26582838D0692805D0642899
:1039D00003D00C224B46934399464B465A0502D5D9
:1039E00001229343994669282DD064282BD04B4659
:1039F0009A0500D5AAE0DA0500D5C2E05A0600D43F
:103A0000D3E01C9A111D1C911168FF220A404B46FD
:103A100005930B9B04930394029600230193009259
:103A20005B462A0051463800FFF717FA05002AE0E6
:103A30000826C8E71026C6E71026C4E720224B4612
:103A400013439946C1E74B469A0520D4DA0551D471
:103A50005A0666D51C9A111D1C911168FF220A4056
:103A6000D017111841404B4605930B9B04930394C8
:103A70000296D20F019200915B462A00514638000F
:103A8000FFF7EBF90500119B0133119399E61C9A9E
:103A9000073207218A43110008311C9111685368CD
:103AA0009C46DB170C930D930C9A0D9B100048401D
:103AB0000E900D9B61464B400F930E980F990C9AF8
:103AC0000D9B801A99410E900F914B4608930B9BCA
:103AD000079306940496002305936346DA0F029237
:103AE000009001915B462A0051463800FFF713FA17
:103AF0000500C8E71C9A111D1C911268D0171118F7
:103B0000414005930B9B049303940296D20F0192BC
:103B100000915B462A0051463800FFF79EF90500E8
:103B2000B1E71A0605D51C9A111D1C910023D25E1F
:103B300096E71C9A111D1C91126891E7E078051018
:103B40002479051070790510419000001C9A073205
:103B500007218A43110008311C9108930B9B07939E
:103B6000069404960023059302935368126800920A
:103B700001935B462A0051463800FFF7CCF9050057
:103B800081E71C9A111D1C9105930B9B04930394D0
:103B9000029600230193136800935B462A00514666
:103BA0003800FFF75AF905006DE71A0606D51C9A8A
:103BB000111D1C9112681204120C28E71C9A111D89
:103BC0001C91126823E746281AD01C9B0733072252
:103BD00093431A0008321C924A4604920B9A0392AD
:103BE00002941A685B68009201935B462A00514672
:103BF0003800FFF729FC0500119B01331193E0E524
:103C000020234A461A439146DFE7672801D0472818
:103C100004D180231B014A461A439146452801D00E
:103C2000472803D120234A461A4391461C9B073359
:103C3000072293431A0008321C924A4604920B9AB8
:103C4000039202941A685B68009201935B462A0013
:103C500051463800FFF7E6F90500119B0133119337
:103C6000AFE502234E461E404A4613421ED00124B1
:103C70001C9B1A1D1C926A1C904618785B462A00F1
:103C80005146B847002E14D1119B0133119345467C
:103C900097E5551C5B4651462020B84723002A0073
:103CA0005C1C0B999942F4D81500E1E701232A0026
:103CB000F6E7424606E0561C5B4651462020B847D0
:103CC0002C003200651C0B9BA342F4D89046DBE726
:103CD00001330A001978002902D0511E002AF7D1B9
:103CE0009B1B8022D200494611408846494611421A
:103CF00002D0A34200D9230002224946114010916C
:103D000049460A4208D02A00250099463B0047460A
:103D1000984626E0220044E6A1462A005146B246D3
:103D20000E0006E0551C5B4631002020B8472300FA
:103D30002A005C1C0B999942F4D8150022004C46CD
:103D4000330056469A4691462A0025003B004746D6
:103D5000984606E01D000136541C5B465146C0479C
:103D600022003078002804D0002FF4D06B1E002DE4
:103D7000F0D115004B464746109A002A03D1119BFB
:103D8000013311931DE50B9E2A0006E0551C5B468E
:103D900051462020B84723002A005C1C9E42F5D8DB
:103DA0001500ECE721234A461A4313001C9A111D03
:103DB0001C9112680593082304930394083302931B
:103DC0000023019300925B462A0051463800FFF71A
:103DD00044F80500119B01331193F2E46C1C5B461F
:103DE0002A0051462520B847119B01331193250025
:103DF000E7E46C1C5B462A005146B847119B01332F
:103E000011932500DDE40A4FD0E45D450DD35B46F8
:103E10005A1E5B4651460020B847280013B0F0BC3C
:103E2000BB46B246A946A046F0BD2A00F1E7C0460F
:103E3000692C00100EB430B584B0010007AC08CC7A
:103E400003940122054D009452422800FFF7A0FC84
:103E500004B030BC08BC03B01847C046612C001049
:103E600010B582B0044C009313000A00010020003A
:103E7000FFF78EFC02B010BD612C001010B584B0AD
:103E80000C0002A902904C60012404480093130026
:103E90006242FFF77DFC04B010BDC0466B2C0010E1
:103EA00000BEFDE703000A4A1268002A08D0084A4B
:103EB0001068C318074A9A4206D3054A1360704730
:103EC000034A05491160F2E701204042F7E7C04686
:103ED000104F0020000004204C57002000207047A5
:103EE000012040427047000010B503000800110097
:103EF000002B05D1044B1A685B6800F03FF910BD38
:103F000001204042FBE7C0465078051010B5030081
:103F100008001400013B012B06D8012300222100D8
:103F200000F0E2F8200010BD01204042FBE7012034
:103F30004042704701204042704701204042704794
:103F40000300002002229A424041704710B5FFF75B
:103F5000A7FF000030B583B00D001900002A0BD078
:103F6000074B084C019200932B000200200000F048
:103F7000C5F90120FFF794FF034B1A00F1E7C04693
:103F8000E4580510F4580510B45F051010B5EFF3B0
:103F90000583002B00D000BEFDF710FD034C01E0AF
:103FA00008CC9847024B9C42FAD310BDC45105106F
:103FB000F051051010B50300080011001B68984768
:103FC00010BD0000F8B507000D001600437D002B62
:103FD00002D0002400200CE003681100280098475C
:103FE0002DE03B7D10E03B68154802219847601C9E
:103FF0000134B44214DA002CF3DD2B19013B1B7899
:104000000D3B5A425341DBB22A5D0A2AF0D1002B04
:10401000EED1A042E7DA3B68211A28189847E2E778
:10402000B04203DA3B68311A28189847002E06DDA3
:10403000AD19013D2B780D3B5A4253413B75F8BDFC
:10404000EC7A051070B505000368002B16D00C4BF8
:104050001C6805E0290004C92000FFF7B3FF2469AC
:10406000002C09D02368002BF9D0064B1B68002BCD
:10407000F0D0A342F3D1EDE700232B6070BDC04622
:10408000004F00200C4F002070B505000C000B689D
:10409000802B05D023685A1C2260E418257170BD5E
:1040A0000800FFF7CFFFF5E710B5FDF77DFA074AE7
:1040B000002312184B41002B03DB054851F00CF88C
:1040C00010BD01225242034BF7E7C04640420F00A9
:1040D000E82C0020FFFFFF7F10B5024850F09CFF46
:1040E00010BDC046E82C0020F0B5CE46474680B54E
:1040F00083B006000D0090461C00FFF7D5FF8146F7
:104100006B1C05D0002C08D0184F194B1C6807E019
:10411000300045F06FFF0500F4E7164FF5E724691E
:10412000002C17D02368002BF9D0134B1B68002BF1
:1041300001D0A342F3D12A0031002000B847434602
:10414000002BECD06B46D91D0A230B7001222000F6
:10415000B847E4E74B46002B05D1280003B0C0BCAC
:10416000B946B046F0BDFFF7B7FFF6E7C53F001010
:10417000004F0020B53F00100C4F0020F0B583B079
:1041800006000F0001920093164B1C6808E0A3681C
:10419000002B04D0390030009847002820DC246927
:1041A000002C06D0104B1D68002DF0D0A542F6D192
:1041B000EDE700990A000D4B5B6A994209D80B495B
:1041C000896A0198814209D29A4202D00220404273
:1041D00006E001200021FDF7EFF9D5E7022040427B
:1041E00003B0F0BD004F00200C4F00200040054000
:1041F0000A4A136802E01A0010321B69002B09D02A
:1042000013688342F7D1002907D1036913600023A3
:10421000036102E0002900D010607047004F0020C9
:1042200010B5064B1C6800E02469002C04D06368BC
:10423000002BF9D09847F7E710BDC046004F00208B
:1042400010B500F0F1F910BD30B583B004000025C1
:10425000FDF7AAF922002B0012184B41002B0ADBB4
:10426000012101A8FFF78AFF002802DB07D001AB7C
:10427000187803B030BD01225242044BF0E7044BE2
:10428000044A04210448FF31FFF764FEFFFFFF7F6B
:1042900024590510D07A05102859051070B505006D
:1042A00045F0A8FE04000123012201002800FFF7C9
:1042B0001BFFFFF7B5FF200070BD0000F0B5A3B0F5
:1042C00004000E00FFF7F0FE050001AF002301938C
:1042D0000948330022003900FFF7D0FD0400380000
:1042E000FFF7B0FEFFF79CFF002D02D1200023B0A6
:1042F000F0BDFFF7F1FEF9E7894000100FB400B5FB
:1043000083B004A901C90191FFF7D8FF03B008BC2D
:1043100004B0184770470000014B00221A70704724
:10432000445700204B79FF2B0CD18B79002B0BD1FC
:10433000CB79012B0AD1082A0AD98A78054B1A7041
:10434000092000E0002070470020FCE70020FAE789
:104350000020F8E7445700200120704710B50129DC
:1043600027D1117953791B020B43134909788B42EA
:1043700001D000201EE05378012B03D0022B11D076
:10438000002017E09178D3781B021943DB0506D58E
:10439000480A8A05D20F7F231940FDF7D9FA012078
:1043A0004042F6E7642200210020FDF779FA01205F
:1043B00000E0012010BDC04644570020004870476F
:1043C000B87B051010B51400012910D15378012BCA
:1043D0000FD1127963791B021343072B01D0002000
:1043E00006E0054A9F33210001F058FB00E0012060
:1043F00010BD0020FCE7C046107B051001230370B0
:1044000000487047F07A051010B50A784B781B0207
:1044100013438A7812041A43CB781B06134396225F
:10442000D200934200D010BD012000221100404272
:10443000FDF78EFA024B1860024B19607047C046B8
:10444000A04E0020A44E002010B5FDF7ADF80E4A96
:10445000002312184B41002B12DB0C4850F03CFE9D
:1044600000280CD001200021404201F0E3F9002097
:1044700001F07CFC0028F5D1044850F0CDFD10BDC2
:1044800001225242024BE8E740420F00245700202D
:10449000FFFFFF7F10B5024B1878FCF7C7F910BD7E
:1044A000455700200268EFF3108172B61368002BA5
:1044B000FCD0BFF35F8F41607047000070B5144BB4
:1044C0001B68002B1AD0124C2000FFF7EBFF114B9A
:1044D00000221A7021686368BFF35F8F0A6083F35C
:1044E0001088002400250C4B1878FCF77BF9002875
:1044F00008D1002400252000290070BDFA24A40062
:104500000025F0E7044B1878FCF790F9F3E7C04674
:10451000185400204657002045570020F0B585B0BC
:10452000060014001D000CAB1F78FDF73DF82200BB
:104530002B0012184B41002B09DB02970B990191BC
:104540000A9900913000FCF711FE05B0F0BD012280
:104550005242014BF1E7C046FFFFFF7FF0B5C64670
:1045600000B584B00500884616001F000AAB1C7811
:10457000FCF794FD0294019700962A004346FFF74A
:10458000CDFF04B080BCB846F0BD000010B582B0CD
:104590001F48002150F080FD002818D11D4B1B68DA
:1045A000002B12D01B4C2000FFF77CFF1A4A137817
:1045B000DBB20121117021686268BFF35F8F0020B8
:1045C000086082F31088002B17D002B010BD0120C4
:1045D0000021404201F02EF9002001F09FFB040071
:1045E0000B4850F019FD002CEFD00C4B1B68002B32
:1045F000EBD00B4A10689847E7E70A4A013300936B
:104600000023FA2080000021FFF7A8FFDDE7C04665
:10461000245700201854002046570020A04E0020A8
:10462000A44E0020BD44001010B582B0D0231B065C
:104630001C68FCF733FDFCF713FEA04230D1274B7A
:104640001B780021002002F053F8254B1B68002B3B
:104650002CD00120FCF7B6FA224C20702249FF230F
:104660001840FCF701F920780121FCF7D5F8052066
:10467000FCF7ECF8041E1DD00120FCF72FF8010018
:104680001A4B1800FCF7FEFA194900220520FCF726
:1046900015F918480121FFF7ABFD200002B010BD4D
:1046A000154B164A1648C121FFF754FC0C48FCF77D
:1046B000A7FACEE70D4808220021FEF7B1FA114A09
:1046C000012300930023FA2080000021FFF746FF1A
:1046D000C043C40F0028E0DADBE7C046D0920610E2
:1046E00024570020455700208D4500101854002005
:1046F00095440010301C00205C590510E87B051023
:1047000064590510BD44001010B5002001F0EAFA0C
:1047100010BD000070B505000C00FFF7F5FF002884
:1047200034D0002001F0FAFA002832D0FCF73CFF28
:104730001B4A002312184B41002B19DB194850F07B
:10474000CBFC002828D0FFF7DFFF002804D0002092
:1047500001F0E4FA00280FD101200021404201F0CD
:1047600069F8032464420F4850F056FC200070BDE5
:10477000012252420C4BE1E722002900002001F007
:10478000D9FA041EEFD103246442ECE70324644207
:10479000ECE703246442E9E703246442E6E7C04609
:1047A00040420F0024570020FFFFFF7FF0B5C646B0
:1047B00000B580460C00FCF7F7FE314A00231218C2
:1047C0004B41002B07DB2F4850F086FC002806D118
:1047D00080BCB846F0BD012252422B4BF3E7FFF7F5
:1047E00093FF002849D1294B00200021186059600F
:1047F000244850F011FCEBE701200021404201F079
:1048000019F8002001F0B2FAFFF77EFF0028EFD080
:10481000002001F027FB002820D0A542E8DA661B23
:10482000002001F01FFB0200864200DC3200002A5B
:10483000E2D043465919002001F0F0FA06000120A9
:104840000021404200F0F6FF002001F08FFAAD1980
:10485000FCF7AAFE0D4B18605960DEE7FCF7A4FEDA
:104860000A4B1E685F680A4A002392197B419942ED
:10487000BED8D2D19042D0D9BAE70025CDE7C04604
:1048800040420F0024570020FFFFFF7F2831002007
:1048900020A1070000487047647C0510004870475D
:1048A000107C051010B50400154B1B78002B0ED0A2
:1048B000002C11D1134B144A5A80012301335B00A1
:1048C0009BB21048C02292001343038010BD0C48D5
:1048D000112100F025F8EBE7052C0ED80B4BA400B6
:1048E000E4580023122BE9D8E15C0029E6D001331B
:1048F000044A58008152DBB2F4E70020E6E7C046E4
:104900002C570020D84E002009040000F87B051029
:1049100010B5024800F030F810BDC04634540020F5
:1049200010B5002901D0002308E00F4B0F4A1048B2
:104930003531FFF70FFB3732C25401334A1E9A421A
:104940000ED90F2B0CD85A080A4CA45C01229A43AA
:10495000920014410F222240092AECDC3032EBE7AE
:10496000C0180023037010BDE0590510787C0510B5
:10497000E85905103454002070B588B0040004AD27
:104980000D2200212800FEF74BF90D220021684678
:10499000FEF746F94B232B700D226946280050F094
:1049A00033FB002304E05A1D69468A5CE25401335C
:1049B000072BF8DD08B070BD70B582B07F230340CF
:1049C000C509274C5E0076197601A419A0706842CB
:1049D000684160700020E0702183E276012D1ED0D6
:1049E000D800204A944660441D4A5900491949019B
:1049F000521890601A4A5900491949015218926890
:104A000000211160002B10D1154A5B005B195B017E
:104A1000D31800225A60144ADA6002B070BDD80080
:104A2000124A94466044A060E4E7012D0BD0591E61
:104A3000C9000F4A94466144094A5B005B195B0157
:104A4000D2185160E9E7591EC9000A4A94466144E8
:104A5000034A5B005B195B01D2185160DDE7C04679
:104A6000144F00208400105000011050800010509E
:104A70000C0010500800105010B5038B3F333F223C
:104A80009343C27E022A08D008490A68C260D3183C
:104A90000B60074A934202D810BD5B00F4E7054B58
:104AA000054A06485221FFF755FAC046FC5300203C
:104AB000FF0F1050AC5B0510D87C0510F05B0510A3
:104AC000F8B57F250540C6096B009B195B010E4CAC
:104AD0001C19FFF771FF002D00D1F8BD0A4B6D00C6
:104AE000AD196D015D19298B2000FFF7C5FFEB7E25
:104AF0009B06E968054A4A40134380221206134385
:104B00006A681360E9E7C046144F002000001050A7
:104B100010B504007F202040E40940000019400146
:104B2000024BC01800F026F910BDC046144F0020FB
:104B300010B5002804D101210520FBF76DFE10BD42
:104B4000034B044A98210448FF31FFF703FAC0469B
:104B5000505C0510C87C0510F05B051010B50028EE
:104B600005D1002200218020FFF7D2FF10BD034BAA
:104B7000034AA2210348FF31FFF7ECF9505C05100E
:104B8000B87C0510F05B0510024B80225202DA64FB
:104B90007047C0460020115070B5041E27D100F0A8
:104BA000C7F8164D0C23AB671549FF220520FBF70C
:104BB00085FE144840220021FEF732F800224021F1
:104BC0000020FFF77DFF002240218020FFF778FFC3
:104BD00050F0BAFA01232B6480239B05EB649023E9
:104BE000094AEA502000FFF7CFFF012070BD074BB4
:104BF000074A64210748FF31FFF7ACF90000115064
:104C00006D040020144F002010D00100505C0510EE
:104C1000EC7C0510F05B0510044B1970002904D0E2
:104C2000034A902380218902D15070473F570020CA
:104C3000002011500B785B0602D14B78052B00D079
:104C400070478A78014B1A60FAE7C046000011509D
:104C500010B5CA789207920F012A0AD088780B798A
:104C60004979090219434905490DFFF729FF012038
:104C700010BD0020FCE710B550F066FA10BD000032
:104C800010B50400080011001A00002C03D1FFF732
:104C90003FFF012010BD034B034A812103488900D7
:104CA000FFF758F9505C0510A87C0510F05B051063
:104CB00010B57F23180008400B4205D1CB09012B0A
:104CC0000ED00222074B9A66C909400040184001E5
:104CD000054BC01880221201002150F045FA10BD8A
:104CE0000122EFE700201150144F002010B57F2261
:104CF000100008400A4200D110BDC9094000401808
:104D00004001044BC0180023C3700022024950F038
:104D10002BFAF1E7144F0020FFF7FFFF04E00A78B9
:104D20000270013101301A00531E002AF7D170477A
:104D300010B580235B040A4A13600A4A13600A4BC9
:104D40001A6880235B049343F9D180225201002129
:104D50000648FDF765FF064B09225A6710BDC0469D
:104D600000E0004000F0004008C00040000010508B
:104D70000000115070B504000D001600837E002B5A
:104D800017D1A6820023E3820133A3762561200098
:104D900050F0D2F9002804D00C4A902380218902D7
:104DA000D150200050F0C0F900280AD00123237709
:104DB00070BD81780648FFF7A1FA200050F0ACF9E9
:104DC000DFE7200050F090F9F2E7C04600201150D4
:104DD000305D051070B50500002408E09B1A5B01EA
:104DE000164A9B18DB68280098470134E4B2144B3C
:104DF0001A782300511CA1420DDBA242EED9114BBF
:104E00001B6862019B18002BECD10F490F48104A18
:104E1000FFF774FA10E00F4C542200212000FDF738
:104E2000FFFE201D1022FF21FDF7FAFE20001430A6
:104E30002022FF21FDF7F4FE70BDC046687E0510FC
:104E40003E57002000480020347E0510685D0510A4
:104E500025020000B84900200268EFF3108172B605
:104E60001368002BFCD0BFF35F8F4160704710B513
:104E7000FFF7B0FF00F05EFE10BD70B505000C003E
:104E80001600486900F060FE6369320001212800C5
:104E9000984770BDF0B5DE4657464E464546E0B5EC
:104EA00083B082460139C8B2FFF7F8FC002803D06E
:104EB00043789946022B0CD056495748574AFFF77A
:104EC0001DFA002003B0F0BCBB46B246A946A0467E
:104ED000F0BDC5796C110122514B144024011978A1
:104EE0001026B14321431970AD112A405201C9B2B5
:104EF0002024A1430A431A70060009368278C37839
:104F00001B02134383469B444B460193370066E0E4
:104F1000FB7899463A78BF1868E03E493E48414AD6
:104F2000FFF7ECF90020CDE7009AD31A5B013E4E63
:104F30009E1933692200390050469847082801D944
:104F4000844216D20135EDB2384B1B7800955A1CBD
:104F5000AA423EDBAB42E7D9354B1B686E019E1976
:104F6000002EE6D12B492C48324AFFF7C7F9002022
:104F7000A8E73400009E00904B46012B11D0002082
:104F8000494681421BD9BB781B18DBB2244AD21890
:104F90001279FF2A0CD1224AD3181D710130C0B2F8
:104FA000EFE72169244A9142E9D1019B9946E6E75E
:104FB00018491948214AFFF7A1F9002082E7204843
:104FC0002B00009C2200390001F068FCA4466744D5
:104FD00000E02E00154B1B7801339E420FDC5F452D
:104FE00015D27B780B2B93D0012399467A78042A2B
:104FF00093D15B46DA1B93B200251C00A4E78522FF
:1050000004490548D200FFF779F900205AE701204A
:1050100058E7C046087E0510685D0510D6030000FD
:10502000B8490020F1030000687E05103E570020BB
:1050300000480020FA030000E15F0010190400009E
:10504000CC4900207047704700207047002070470F
:1050500070B505000C00CB7888780F2B53D89A00D8
:105060002E498A589746FFF715FC021E05D01223D9
:105070002100280000F012FD46E0294929482A4A6B
:10508000FFF73CF900203FE0FFF798F9021E3CD003
:105090008178C3781B020B432100280000F0FEFC3E
:1050A00032E0022B0CD0FFF7D1FF021E2FD09178F7
:1050B000D3781B020B432100280000F0EFFC23E013
:1050C000FFF7ECFB021EF2D115491648174AFFF70D
:1050D00015F9002018E02379617909021943FFF7D7
:1050E000E1FB021E15D003782100280000F0D6FC59
:1050F0000AE0FFF7A9FF021E0DD003782100280067
:1051000000F0CCFC00E0002070BD0020FCE7002097
:10511000FAE70020F8E70020F6E7C046087D051012
:10512000F07D0510685D05103A0400006104000080
:105130007047704770477047024B5878431E98413C
:10514000C0B27047B8490020024B18784007C00F22
:105150007047C046B8490020034B1878FF38431EFB
:105160009841C0B27047C046641C0020F8B50500E5
:105170000F00FFF7F1FF061E48D1002F21D02E4867
:1051800054220021FDF74CFD2C4B00221A702C4CB0
:105190002000FBF735FD2B4B1C602B4C2000FBF750
:1051A0007BFD143C200001F013FF284B1C60284BB2
:1051B000002B04D02748FFF721F9274B1860002463
:1051C00010E0E922254926485200FFF797F81DE034
:1051D0009B1A5B01234A9B185B68002B10D09847F1
:1051E0000134E4B21B4B1A782300511CA1420FDB9F
:1051F000A242EDD9184B1B6862019B18002BEBD122
:10520000F822164916485200FFF778F83000F8BD2A
:10521000154B1D7039002800FFF7BEFC061E03D099
:105220002800FFF785FCF1E7FC220C490C485200EE
:10523000FFF764F8EAE7C046B8490020405700206D
:10524000B04900200C4A00205C1C0020104A0020BD
:10525000FD4300103E57002000480020587E0510F6
:10526000685D0510687E0510641C002070B50D0097
:10527000104B1E788B7870221A420DD10E4B997804
:10528000280001F0B5FA041E0DD029003000FFF708
:10529000DFFC0400200070BD08490948094AFFF7F7
:1052A0002DF80024F6E705490548074AFFF726F8D8
:1052B000F0E7C046641C0020B8490020C07D0510FE
:1052C000685D05100B0500000C050000F0B5D64622
:1052D0004F464646C0B581460C0017009846089BCD
:1052E0009A46002517E018491848194AFFF706F8AA
:1052F00000263000E0BCBA46B146A846F0BD9D226B
:1053000011491248D200FEF7F9FFF2E7099A13702B
:105310002378E4180135AF4214DD6378052BE2D120
:10532000E1788907890F4145DDD121004846FFF723
:105330009DFF061EE3D0A378DA09012AE6D0524683
:105340001370E5E70126D4E7D07D0510685D0510F0
:10535000E704000010B57F200840C909400040184C
:105360003030044BC0180430034B196801F0FCF9CD
:1053700010BDC046B84900200C4A002010B57F205F
:105380000840C909400040183030044BC0180430B0
:10539000034B196801F010FA10BDC046B84900204F
:1053A0000C4A0020F0B5C64600B582B001931A48F9
:1053B00000787F250D40CE09184C6F00E419A41920
:1053C00030342479E4071DD4144C6F00E419A41977
:1053D000303423790127BC4667463B432371019B48
:1053E000FFF74EFC002813D10C4B6D005B199B1985
:1053F00030331A7901218A431A711A7903318A43A9
:105400001A7105E006490748074AFEF777FF0020B2
:1054100002B080BCB846F0BD641C0020B849002032
:10542000B07D0510685D05103905000070B50A4BA8
:1054300018787F240C40CD09FFF73AFC074A640036
:1054400013195B1930331A7902210A431A711A7938
:1054500001210A431A7170BD641C0020B849002064
:1054600070B50A4B18787F240C40CD09FFF73EFC3D
:10547000074A640013195B1930331A7902218A43F1
:105480001A711A7901398A431A7170BD641C00209F
:10549000B84900207F220A40C909044B52009B18DA
:1054A0005B18303318798007C00F7047B849002067
:1054B000F0B585B005000C00002000F045FB237816
:1054C00060221A40602A1AD0402A20D02378DB06B6
:1054D000DB0E012B00D1D6E0022B00D116E1002B10
:1054E00000D07CE1202A1CD0002A00D07FE1637824
:1054F000092B00D97DE19B00C54AD3589F46553200
:10550000C449C5489200FEF7F9FE002668E1C34889
:1055100000F01AFB220001212800FEF753FF0600CD
:105520005EE123790F2B00D95DE1BD4AD3181B79C9
:10553000BC4A1278934207D2BB4A11685B01C91872
:10554000002909D100264BE1511C994200DA4CE1B7
:105550009B1A5B01B549591822002800FFF78DFC02
:1055600006003DE1200000F0F5FAA1782800FFF7E1
:10557000F5FAAB4A137802210B43137001262FE191
:10558000A74B5B7802AA0632137001232100280082
:1055900000F084FA012623E1A678A14B5B78B342A0
:1055A0002CD09F4B5B78002B0CD19D4B5E70002E56
:1055B00022D031002800FFF76DFC061E12D0FFF745
:1055C000B7FD1BE000212800FFF726FB2800FFF7AE
:1055D00052FB934FBB7801932800FFF7FBFB019B25
:1055E000BB70E2E7C9228B498B489200FEF786FE2A
:1055F0008B4B00225A70F3E0FFF79BFD210028003F
:1056000000F038FA0126EBE021002800FFF720FD2A
:105610000600E5E0A278E3781B021343012B01D0DA
:105620000026DDE07E4A137808210B431370210029
:10563000280000F01FFA0126D2E0A278E3781B02CE
:105640001343012B01D00026CAE0754A13780821C4
:105650008B4313702100280000F00CFA0126BFE0F4
:105660006F4B1A78510992080223134001220A4015
:10567000134302AA0632138002232100280000F0FF
:105680000DFA0126ACE023790F2B00D9B3E0644A70
:10569000D3181B79634A1278934223D2624A116865
:1056A0005B01C918002900D1A7E022002800FFF7FC
:1056B000E4FB061E00D093E0237860221A4200D05B
:1056C0008EE063780A3B012B00D989E0002000F0CE
:1056D0003BFA63780A2B0ED02100280000F0CAF9AB
:1056E00001267DE0511C994200DA88E09B1A5B019B
:1056F0004E495918D9E702AB9A1D002313700133A4
:105700002100280000F0CAF9013669E021797F20E4
:105710000840CE0970230B4217D1414B40001B18A3
:105720009B191B7D3F480078834215D23E4806688E
:105730005B01F618002A19D0002E62D02200310039
:105740002800FFF79AFB06004AE032493248384AFF
:10575000FEF7D4FD002643E0461C9E4204DB1B1AE4
:105760005B01324E9E19E5E70026E3E76378012BE3
:1057700010D0032B0ED0002B45D12800FFF78AFE56
:1057800002AB9A1D108002232100280000F086F948
:10579000012625E0A078E2781202024304D1012B11
:1057A00019D02800FFF742FE002E2ED02200310033
:1057B0002800FFF762FB002000F0C6F9184B3522E5
:1057C0009B5CDB07DE0F002B0AD12100280000F0D4
:1057D00051F9012604E02800FFF742FEE4E7002625
:1057E000300005B0F0BD0026FAE70026F8E70026F5
:1057F000F6E70026F4E70026F2E70026F0E70026A9
:10580000EEE70026ECE70026EAE70126E8E7C046D7
:10581000647D05101C7E0510685D0510C5430010F1
:10582000B84900203E57002000480020687E05103F
:105830009503000030B585B0FFF78EFC002808D135
:1058400005B030BD01AC2078FFF711FB2279604B29
:105850009A70604B1C6820001430FFF7FDFA01A914
:10586000200001F058FB6269A369BFF35F8F00213C
:10587000116083F310880028E2D001AB5B78082B1D
:10588000E7D89B00544AD3589F4601AB1878FFF7DE
:10589000EEFAFFF74EFCDCE7504B1B78002B2DD0C7
:1058A0004E4A1378013BDBB213701378002BD0D132
:1058B000474B1A78012401210A431A703422995C5B
:1058C000A1439954995C0420814399540132995C15
:1058D000A1439954995C8143995401AB187802A96A
:1058E000FFF7E6FD0028B4D101AC20780021FFF7D6
:1058F000DFF920788021FFF7DBF9AAE7384939483A
:10590000394AFEF7FBFC9BE701AB19797F220A407D
:10591000CC092F4B50001B181B1930331879012567
:10592000A843187118790335A8431871002A15D0B7
:10593000274B52009B181B191B7D2C4A127893424F
:1059400013D22B4A12685B01D318002B15D09C6927
:1059500001A84279039B0078A0477AE701A8427921
:10596000039B007800F004F973E7501C984204DBB5
:105970009B1A5B011F4A9B18E9E7A42218491948A2
:105980009200FEF7BBFC5BE7114B1B78DB0700D4F2
:105990005FE70F4B18780007C00FFFF7CBFB58E706
:1059A0000B4B1B78DB0700D453E7FFF7C4FB50E732
:1059B000029B002B00D14CE70398984749E7044B22
:1059C000DB78DB0700D444E70298FFF73CFB40E7B5
:1059D000B8490020104A00208C7D05104057002057
:1059E000487E0510685D0510650200003E570020E6
:1059F00000480020687E051010B50023CB56002B10
:105A000005DB802100230022FFF7CCFC10BD002124
:105A1000F8E70000F8B50500144B9F89DE89BB1B31
:105A20009BB21C1C402B00D94024A4B20F4B1B7806
:105A30005BB2002B08DB0021B74213D00C4A2300D5
:105A40002800FFF7AFFCF8BDB74209D0074B9968B3
:105A5000402C09D806482200FDF7E8F88021EBE742
:105A60008021E9E70022EAE70020ECE790490020E6
:105A70005049002070B506000D00074C0822200098
:105A8000FDF7D4F80023A360E381A381290030004F
:105A9000FFF7B2FF70BDC04690490020F0B5C64682
:105AA00000B580460C0016001D001F4B08221F0089
:105AB0001800FDF7BBF8BE600023FB81A379E179F4
:105AC000090219430B1CA94200D92B1C99B2164A92
:105AD0009381A279E3791B02134319D0002901D0E5
