:020000041000EA
:10000000002008205D0100101301001015010010F0
:100010001101001011010010110100101101001058
:100020001101001011010010110100101701001042
:100030001101001011010010190100101B01001026
:100040001D0100101D0100101D0100101D010010F8
:100050001D0100101D0100101D0100101D010010E8
:100060001D0100101D0100101D0100101D010010D8
:100070001D0100101D0100101D0100101D010010C8
:100080001D0100101D0100101D0100101D010010B8
:100090001D0100101D0100101D0100101D010010A8
:1000A0001D0100101D0100101D0100101D01001098
:1000B0001D0100101D0100101D0100101D01001088
:1000C0001D0100101D0100101D0100101D01001078
:1000D0001D0100101D0100101D0100101D01001068
:1000E0001D0100101D0100101D0100101D01001058
:1000F0001D0100101D0100101D0100101D01001048
:100100001D0100101D0100101D0100101D01001037
:1001100000BE00BE00BE00BE00BE00BEEFF3058004
:10012000103800BEF2EB88712C1F07104C1F07100F
:10013000A801001090A31AE7D3DEFFFF42012110AF
:10014000FF01000010530700793512AB4FF000009B
:100150002049086006C881F3088810474FF05040D6
:10016000006810B14FF00000F2E70FA40ECC002998
:1001700002D000F015F8F9E71749184A002000E00E
:1001800001C19142FCD1002080F30A8814498847BC
:10019000144988471449884700BEFDE701C901C2D8
:1001A0009A42FBD3704700BF4C1F0710100100207C
:1001B0000C360020485407100000082000000820DA
:1001C000485407100010082000100820000000000C
:1001D0007047000008ED00E00C3600208C65002020
:1001E000A9540010BD0200106D540010F8B500BFF6
:1001F000064B0749C91A891048BF0131491003D07D
:10020000044B0BB101481847704700BF0C36002063
:100210000C3600200000000008B5054B1BB1054955
:100220000548AFF30080BDE80840FFF7E1BF00BF1D
:10023000000000002C640020E009051008B519201A
:1002400002F0E6F819234FF0010242EC44304FF07F
:10025000000242EC403008BD38B505F06FFA4FF4AB
:10026000FA6002F0D3FF114C114920462AF0D8FB66
:100270002AF054FAFFF7E2FF19254FF0010343EC8F
:10028000405000F005F901F021FF0A4920462AF00C
:10029000C7FB2AF043FA4FF0000343EC40500649F5
:1002A00020462AF0BDFB2AF039FA38BD085200205A
:1002B000E0090510000A0510380A05102DE9F04183
:1002C000FFF7CAFF00F0ACFB03F0D6F807468846FC
:1002D0001FE0C4B221461D482AF088FB0D2C08D02F
:1002E0000A2C06D019482AF01BF9204600F06AFFB4
:1002F00015E016482AF012FAF4E72746A846003E11
:1003000018BF0126192346EC40306420002102F07A
:100310006BFF002005F016FA10F1020FD9D103F09F
:10032000ABF804460D4600F0C7F906460028E4D0B5
:10033000E11B65EB080344F62062914273F1000370
:10034000DDD300F0D3F82746A846D8E708520020AE
:10035000002810DD08B503F08BFC02460B4603F0C5
:1003600091FB02460B4606A1D1E9000103F0D8FB40
:1003700003F03CFE08BD4FF0FF300146704700BF60
:100380000000000080842E41054B1A7882F00102A3
:100390001A701A78002342EC40300120704700BFE9
:1003A0007D65002008B5084B1B782BB90023074A50
:1003B000137043EC403008BD054802F0F7FF024BD4
:1003C00000221A70F2E700BF7B6500207D650020E7
:1003D00010360020F0B585B005460C4616461F467F
:1003E00002F0BAFD0A9B0293019700962A46234623
:1003F00002F0A6FF05B0F0BD10B582B004461C4B5C
:100400001B786BB92046FFF7A3FF012871F10003A9
:100410000DDA0023174A137043EC403002B010BDD0
:10042000154802F0C3FF124B00221A70EAE7124B84
:1004300000930023114AFFF7CDFF18B10C4B0122A6
:100440001A70EBE70E490F482AF0EAFA2AF066F92B
:1004500000230D490B700D490B6002214FF0010084
:1004600040EC401003490B7043EC4030D6E700BF2E
:100470007B6500207D650020103600208903001078
:10048000600A0510085200207C650020743E0020A0
:1004900010B5002001F0BCFF012001F0B9FF0220DF
:1004A00001F0B6FF0024012242EC444042EC44201B
:1004B000022142EC441042EC402042EC401044EC5B
:1004C00040400A2002F0A2FE044B1C70044B1C604A
:1004D000044B1C70044B1C7010BD00BF7C650020D9
:1004E000743E00207B6500207D65002010B5504BD8
:1004F0001B78DBB2012B05D0032B37D0002B00F08B
:10050000838010BD4B4B1B68B3F5966F1ADA494BCD
:100510001A6814321A601B68B3F5966F03DD454BF9
:100520004FF496621A60424B1B78DBB2012B04D069
:100530003F4B1B78DBB2032BE3D13E4B1868FFF730
:100540005BFFDEE73B4C4FF496632360384B02229F
:100550001A70394939482AF063FA21682AF020FBD9
:1005600037492AF05DFA2AF0D9F8DCE7314B1B68ED
:10057000002B23DD2F4B1A68323A1A601B68002BC0
:1005800018DD2C4B1B68002BCDD1294B1B78002B81
:10059000C9D0274B00221A70FFF704FF02234FF047
:1005A000010242EC4030274924482AF039FA2AF067
:1005B000B5F8A6E71F4B00221A60E2E71C4B1B7838
:1005C00073B9214B1B78E3B94FF050435B6813F0CC
:1005D000040F96D102234FF0010242EC403090E725
:1005E000134B00221A70FFF7DDFE02234FF00102C9
:1005F00042EC4030154911482AF012FA2AF08EF8E0
:10060000DFE7FFF7CFFEDFE74FF050435B6813F003
:10061000040F04D00C4B1B78002B3FF472AF022365
:100620004FF0010242EC4030FFF7BCFE69E700BF2B
:100630007C650020743E0020880A051008520020C6
:100640009C0A0510A40A05107B650020B40A051059
:1006500010B5134B1B78DBB9124C134920462AF016
:10066000DFF92AF05BF80E4B01221A700F4B64225F
:100670001A6002224FF0000141EC40201868FFF799
:10068000BBFE0B4920462AF0CBF92AF047F810BDF3
:10069000084904482AF0C4F92AF040F8F7E700BFF7
:1006A0007C65002008520020D80A0510743E002006
:1006B000F00A0510040B0510014B1878704700BFB5
:1006C0007C65002007EE900AB6EE007A77EE877A16
:1006D000FBFE677AFDEEE77A17EE903A002B23DBFC
:1006E0002E4A12689A4221D00122002B03DD2C49A8
:1006F000097801B9012213B92949097809B9002AF1
:100700004BD010B5254A13601368002B30DD244B05
:100710001B786BB1224B1B78DBB2042B1ED11F4B15
:100720001868FFF769FE10BD0023D9E70022DCE757
:100730001C4C1D4920462AF073F929F0EFFF0223D3
:100740004FF0000242EC4030154B04221A7017495A
:1007500020462AF065F929F0E1FFE0E7104B04227A
:100760001A7013490F482AF05BF929F0D7FFD6E732
:100770000B4B1B78002BD6D0FFF714FE02234FF053
:10078000010242EC4030064B00221A70094905482C
:100790002AF046F929F0C2FFC5E77047743E0020F1
:1007A0007C65002008520020340B0510500B05100A
:1007B000640B0510840B051008B51C4B1B78DBB2CD
:1007C000022B13D0194B1B78DBB2012B0ED0174B29
:1007D0001B78DBB2042B09D0144B1B78FBB11449F6
:1007E00014482AF01DF929F099FF13E01249114825
:1007F0002AF016F929F092FF0C4B1B78DBB2042B80
:1008000009D00A4B03221A700C490A482AF008F949
:1008100029F084FF08BD0020FFF754FFFAE70849DC
:1008200004482AF0FDF829F079FFF3E77C65002001
:10083000F80B051008520020B40B0510C80B05106A
:10084000DC0B051070B584B0044600258DF800500F
:10085000304E304629F062FF21462AF0E1F830465A
:1008600029F05EFE20E02B4829F058FF002D4DD0E6
:10087000684648F05BFD04460146274804F0DAFF6D
:10088000204604B070BD002D20DD013D05F11003B0
:100890006B44002203F8102C1E4C204920462AF0FD
:1008A000BFF8204629F03CFE0E2DDFD804F072FF81
:1008B00010F1020FF8D00028F6D0C4B20D2CD2D01F
:1008C0000A2CD0D0082CDED07F2CDCD0C0B2A0F116
:1008D0003003092BE8D840F0FBFB0028E4D06E1C65
:1008E00005F110030DEB030505F8104C06F110039C
:1008F0006B44002203F8102C064D214628462AF0AE
:1009000075F8284629F00CFE3546CDE74FF0FF3448
:10091000B6E700BF08520020180C0510140C051093
:1009200070B588B0044600268DF80060364D284624
:1009300029F0F4FE21462AF073F8284629F0F0FD4C
:100940002DE0314829F0EAFE684648F0C7FC03F084
:1009500081F904464FF0BCFF02460B462B4804F0D9
:1009600069FF204608B070BD002E2ADD013E06F169
:1009700020036B44002203F8202C234C24492046FA
:100980002AF04EF8204629F0CBFD08E02E216846DB
:1009900048F0DCFCE0B9204640F09AFBE8B91E2E96
:1009A000D2D804F0F7FE10F1020FF8D00028F6D0EC
:1009B000C5B20D2DC5D00A2DC3D0082DD4D07F2DA2
:1009C000D2D0C4B2A4F13003092BE4D92E2DDDD04E
:1009D0002D2DE4D1002EE2D1DDE7741C06F12003B9
:1009E0000DEB030606F8205C04F120036B440022A3
:1009F00003F8202C044E2946304629F0F7FF3046F4
:100A000029F08EFD2646CAE708520020300C05105A
:100A1000140C0510014B1868704700BFDC2400203F
:100A200010B5224C2249204629F0FAFF29F076FE23
:100A30002049204629F0F4FF29F070FE1E49204687
:100A400029F0EEFF29F06AFE1C49204629F0E8FF54
:100A500029F064FE1A49204629F0E2FF29F05EFEE3
:100A60001849204629F0DCFF29F058FE1649204697
:100A700029F0D6FF29F052FE1449204629F0D0FF74
:100A800029F04CFE1249204629F0CAFF29F046FE03
:100A90001049204629F0C4FF29F040FE0E492046A7
:100AA00029F0BEFF204629F03BFD10BD0852002072
:100AB0004C0C05106C0C0510800C0510940C0510E6
:100AC000B40C0510CC0C0510E80C0510000D051039
:100AD000180D0510300D0510440D051010B50C4C07
:100AE0000C49204629F09CFF29F018FE0A4B186893
:100AF0004FF0EEFE02460B46084804F09BFE084904
:100B0000204629F08DFF204629F00AFD10BD00BFC8
:100B100008520020540D0510DC240020780D05102B
:100B2000900D051010B52DED028B31284BD00446E9
:100B300012D80A2841D00D283FD02449244829F052
:100B40006FFF214629F052FF224929F069FF29F061
:100B5000E5FDFFF7C3FF30E0622804D009D8422842
:100B600001D05128E9D11C4B00221A70FFF758FF21
:100B700023E07128F7D0E0E71849154829F050FF25
:100B8000B5EEC08AF1EE10FA09D81548FFF7C8FE95
:100B900008EE100AB5EEC08AF1EE10FAECD9114B4E
:100BA00083ED008A18EE100A4FF092FE02460B46C3
:100BB0000D4804F03FFEFFF791FF054829F0B0FC17
:100BC000BDEC028B10BDBFEE008AD9E7080E051000
:100BD00008520020C41105107E650020DC0D0510B0
:100BE000BC0D0510DC240020F00D051008B50C49E3
:100BF0000C4829F015FF29F091FD00F061FB40B190
:100C00000949084829F00CFF29F088FDFFF708FF83
:100C100008BD0649034829F003FF29F07FFDF5E7E9
:100C2000240E0510085200204C0E0510700E051001
:100C300008B50C490C4829F0F3FE29F06FFD00F0CF
:100C4000ADFB40B10949084829F0EAFE29F066FDEC
:100C5000FFF7E6FE08BD0649034829F0E1FE29F04A
:100C60005DFDF5E7900E051008520020A80E051056
:100C7000C40E051008B501F009FBFFF7D1FE08BD51
:100C80002DE9F04F2DED028B93B08A4804F0A4FDBE
:100C900000F0A8FEF0B1824600210CA800F0B0FEE2
:100CA000DDED0D8AF5EEC08AF1EE10FA18DB0123B6
:100CB0000793814804F090FD02F0DEFB8046069128
:100CC0007E4804F089FD0025A946DFED7D7ACDED53
:100CD000057A4FE07B4804F07FFDFFF7A1FECEE0F0
:100CE0004FF0FF330793E4E70124B9F1000F5DDD16
:100CF00009F1FF3904B1079402F0BEFB04460E4629
:100D0000B0EB0807069B61EB030B9DED098ADFED55
:100D10006E7A68EE277A17EE900A03F0B7F9C01BD7
:100D200061EB0B0140F2E933984271F1000379DA8B
:100D3000664B98424FF0FF3371EB0303C0F2A9807A
:100D40000B9C18EE100A4FF0C3FD06460F4605989F
:100D50004FF0BEFDCDE9020120464FF0B9FDCDE9CF
:100D6000000132463B465A4804F064FD2046FFF736
:100D7000A9FC0135554580F09780294609A800F067
:100D80003FFE9DED0A8ADFED537AB4EEE78AF1EE7D
:100D900010FAA9DCDFED507AB4EEE78AF1EE10FA32
:100DA00002D54FF0FF34A0E700249EE7002CA1D02D
:100DB000079B002B9ED0A3429CD009984FF088FD42
:100DC00006460F4615BB18EE909A18EE100A4FF023
:100DD0007FFDCDE9020148464FF07AFDCDE90001E3
:100DE00032463B463D4804F025FDDDED057AF5EE43
:100DF000407AF1EE10FA10D1F7EE007ACDED057AD7
:100E0000059801F007F94FF0030973E7691E0FA871
:100E100000F0F6FDDDF84090D7E7DFED297ACDED63
:100E2000057AEDE7041946EB0106002E2CDB02F0F3
:100E300023FB201A66EB0101012871F10001FFF686
:100E40007FAF642004F07EFC732801D05328EED1DC
:100E5000234804F0C1FCFFF7AFFC012333B30024A7
:100E60002046FFF72FFC1F4804F0B6FC204601F097
:100E7000D1F84FF47A7002F0C9F9FFF7D1FD13B041
:100E8000BDEC028BBDE8F08F4FF0FF346FF00046F1
:100E9000CDE718EE100A4FF01BFD02460B4629461F
:100EA000114804F0C7FC4BE70023D7E70F4804F0D4
:100EB00093FCD4E7F00E05105C0F0510BC0F051075
:100EC00000000000180F05100024744968C5FFFFDA
:100ED000941005106F12833A6F1283BAF00F051049
:100EE00038100510C810051054100510A810051072
:100EF00003684068984214BF00200120704738B54D
:100F000004460D4603E020462AF04AFA1834AC4263
:100F1000F9D138BD08B5FFF7F2FF08BD08B508469E
:100F200002EB4202D10003F02FF908BD10B50446D0
:100F300001688268521AD210034B03FB02F209B116
:100F4000FFF7ECFF204610BDABAAAAAA10B50446D5
:100F500041680068FFF7DEFF2046FFF7E7FF204605
:100F600010BD000070B58CB07D497E4829F058FD59
:100F700029F0D4FB00F012FA80B17B4A7B4909A822
:100F800000F0B4FB09A8FFF7B3FF70B978497548C2
:100F900029F046FD29F0C2FB002217E0754971488F
:100FA00029F03EFDFFF73CFD7AE073496D4829F0DA
:100FB00037FDFFF735FD70E0541C02EB420251F89B
:100FC000322021466D4804F035FC224609990A9BDF
:100FD0005B1ADB106A4800FB03F39A42ECD305ABC3
:100FE0000393002304938DF8143003E065495D48B2
:100FF00029F016FD6448FFF725FC0028F6DD099965
:101000000A9B5B1ADB105E4A02FB03F39842EDD8A1
:10101000013800EB400001EBC00103A82AF0FAF907
:1010200003995A4804F006FC59494E4829F0F8FC47
:10103000049A039929F096FB564929F0F1FC29F00E
:101040006DFB039800F0D4FBF0B15349454829F0FB
:10105000E7FC29F063FB00F0B1FC044610B303F099
:101060006BF8054628B3214600F06CFC011E01DD3B
:10107000A14225D049493B4829F0D2FC284603F03B
:101080006FF8FFF7CDFC05E04549364829F0C8FC6C
:10109000FFF7C6FC03A82AF083F909A8FFF756FF5B
:1010A0000CB070BD3F492F4829F0BAFCFFF7B8FCDF
:1010B000F0E73D492B4829F0B3FCFFF7B1FCE9E725
:1010C000284600F02FFE044600F08CFC0646284619
:1010D00003F046F804B136B93449224829F0A0FC9F
:1010E000FFF79EFCD6E7FFF795FC07EE100ADFED51
:1010F000307AC7EE277A17EE906A4FF0E9FB044684
:101100000D4630464FF0E4FBCDE9000122462B4668
:10111000284804F08FFB304600F09EFCD8B100F068
:1011200061FC044624490F4829F07AFC049A03998B
:1011300029F018FB214929F073FC214629F034FDE0
:1011400029F0ECFAFFF76CFC03A82AF029F909A8AA
:10115000FFF7FCFEA4E71A4804F03EFBDFE700BF00
:10116000F410051008520020341105103015051038
:101170005C110510141105103C11051074110510B7
:10118000ABAAAAAAD811051080110510A811051044
:10119000BC110510C81105100C12051070120510B5
:1011A000EC1105102C1205104812051094120510B0
:1011B0000000C842C8120510241305104013051082
:1011C000F412051010B50446394B1B78012B3CD0A6
:1011D000A0F10A036C2B5CD8DFE803F03C5B5B3CBE
:1011E0005B5B5B5B5B5B5B5B5B5B5B5B5B5B5B5B4F
:1011F0005B5B5B5B5B5B5B5B5B5B5B5B5B5B5B5B3F
:101200005B5B5B5B5B5B5B5B5B5B5B5B5B5B5B5B2E
:101210005B585B5B5B4F5B5B5B5B5B495B4C435869
:101220005B5B5B5B46403A5B555B5B5B5B5B5B5B65
:101230005B5B5B5B5B4F5B5B5B5B5B495B4C435846
:101240005B5B5B5B46403A5B5500FFF76BFC04E081
:10125000FFF7FEF9174829F063F910BDFFF7ACFA64
:10126000F8E7FFF77FFEF5E7FFF70AFDF2E7FFF784
:10127000BDFCEFE7FFF7DCFCECE70D4B01221A7039
:10128000FFF72CFCE6E7FFF7F5FCE3E7FFF7C8FB09
:10129000E0E70949074829F0C3FB214629F0A6FBEE
:1012A000064929F0BDFB29F039FAFFF7B9FBD1E770
:1012B0007E650020085200204C130510C411051053
:1012C00010B588B0284804F087FA284B00221A701D
:1012D000EC46274C0FCCACE80F0094E80F008CE8EC
:1012E0000F0068460AF0C0FC01222249224809F09A
:1012F0003DFC58B9214804F06FFA1F4B1B78013BA5
:10130000032B2DD8DFE803F00820242801461C48D1
:1013100004F090FA002015E01A4804F05DFA164B2C
:101320005989DA6AA1FB0220A1FB022301FB0033E9
:10133000120D42EA03321B0D134804F07BFA012020
:101340000A4B187008B010BD104804F045FAE6E7E3
:101350000F4804F041FAE2E70E4804F03DFADEE7F8
:101360000D4804F039FADAE7601305107A650020B9
:101370009444051030150510983E0020A013051068
:1013800078130510C013051010140510D0130510A4
:10139000E0130510F013051000140510014B187828
:1013A000704700BF7A65002070B5ADF5167D1F4B04
:1013B0001B78FBB104460D4616460122014602A8E1
:1013C00009F000FC0246D8B901AB3246294602A812
:1013D00009F056FD0246D0B902A809F0E1FE024626
:1013E000F8B922460199124804F024FA01980DF543
:1013F000167D70BD0F4804F0EFF94FF0FF30F6E7AF
:1014000021460D4804F016FA4FF0FF30EFE7214671
:101410000A4804F00FFA02A809F0C2FE4FF0FF30AC
:10142000E5E72146064804F005FADAE77A65002088
:10143000CC15051028140510341505106815051075
:101440009415051010B5C8B00C4B1B7843B1044679
:10145000694609F031FF024640B9009848B010BD16
:10146000074804F0B9F94FF0FF30F7E72146054887
:1014700004F0E0F94FF0FF30F0E700BF7A6500209C
:1014800028140510F415051000680B68984214BF65
:101490000020012070472DE9F84304460F46164608
:1014A00005E02368013B23603368013B3360394624
:1014B0002046FFF7E9FF804668B92368326812F8D2
:1014C000019C13F8010C40F0C9F80546484640F06D
:1014D000C5F8A842E5D04046BDE8F88342684B68AD
:1014E0009A4201D20020704730B585B005460C46BF
:1014F00001A82AF053F8214602A82AF055F82946F7
:1015000003A82AF04BF84FF0000303AA02A901A890
:10151000FFF7C1FF05B030BD70B582B004460E467E
:10152000551A01950F2D0DD800942A463146206892
:1015300029F064FF00220092019B63602168CA5475
:1015400002B070BD002201A929F002FF2060019BBA
:10155000A360E9E738B500F10803036069B1044608
:101560000D46084648F068FD4FF000032A1829464A
:101570002046FFF7D1FF204638BD01481EF00AFF84
:101580003816051030B585B084460191446803686B
:10159000E31ADB10114803FB00F0114D2D1A8D42A8
:1015A00013D30390814213D803AA12681044DCF8C5
:1015B0000030E41AE410094B03FB04F4A04209D301
:1015C000074B984208D805B030BD10461EF0FAFE11
:1015D00001AAEAE70248F6E70148F4E7ABAAAAAA9B
:1015E0005555550508B5084B994205D801EB410101
:1015F000C80002F0B9FD08BD044B994201D91EF0A4
:10160000A9FE1EF097FE00BF55555505AAAAAA0AC5
:1016100010B50C4629F0A6FF204629F0C1FE10BDEA
:101620002DE9F84F07460C461646254A0121FFF7DB
:10163000A9FFD7F800B0D7F804802546A4EB0B0427
:10164000824668B1002201463846FFF7CBFF81464B
:10165000314609EB04002AF019FA4C465E4609E0CF
:101660004FF00009F4E73A4631462046FFF7D0FF35
:1016700018361834B542F6D1183406E03A462946F1
:101680002046FFF7C5FF18351834A845F6D1BB68CA
:10169000A3EB0B03DB100B4A03FB02F2BBF1000FC1
:1016A00003D059463846FFF739FCC7F800907C60F4
:1016B0000AEB4A0A09EBCA03BB60BDE8F88F00BF1A
:1016C0006C160510ABAAAAAA10B504464068A36818
:1016D000984205D02AF0DAF963681833636010BDC8
:1016E0000A4601462046FFF79BFFF8E770B5EAB0CF
:1016F00004460E4615460023036043608360FFF7EF
:101700004DFE28B92F4804F067F820466AB070BD36
:10171000314654A809F054FD024620B131462A480A
:1017200004F088F8F1E72A463146284804F082F8A8
:101730001DE009B1042910D154A809F08CFD01461F
:1017400000283AD161682368C91AC910204B03FBED
:1017500001F1204804F06EF8D7E71F4804F06AF85A
:10176000EAE706A829F01CFE684629F019FE0CA934
:1017700054A809F07AFD01460028DAD19DF84A30D4
:10178000002BD6D09DF83C3013F0120FEFD168AA91
:101790000DF14A016846FFF7DDFE69AA294606A851
:1017A000FFF7D8FE06A96846FFF798FE0028D8D0B4
:1017B00069462046FFF788FFD3E7084804F03AF867
:1017C000C0E700BF88160510B4160510F016051006
:1017D000ABAAAAAA901705101C17051054170510DC
:1017E000024B00221A605A609A6070478C3E0020BB
:1017F0002DE9F04104460146444804F01BF8FFF788
:10180000CDFD064650B32046FFF71CFE051E2BDB20
:1018100085B305F10803B3F5803F31D805F207170A
:1018200027F0FF07384602F087FC804688B33A4627
:10183000FF2144F0A1FB2A4608F108012046FFF7EA
:10184000B3FD021E01DB954229D02146304803F04A
:10185000F1FF404602F084FC002602E02D4803F030
:10186000BBFF3046BDE8F08121462B4803F0E2FF84
:101870000026F6E72146294803F0DCFF0026F0E7C2
:101880004FF4803308222946254803F0D3FF002671
:10189000E7E73946234803F0CDFF0026E1E7224B76
:1018A000C8F80030C8F804504FF47C1239461F487D
:1018B00003F0C0FFEFF3108472B639461C4803F002
:1018C000B9FF39464FF47C104FF026F839461948D5
:1018D00003F0B0FF3A4641464FF47C104EF0D4FF7F
:1018E00084F3108808221449404644F037FA04462D
:1018F000404602F035FC1CB9104803F06DFFB0E71C
:101900000F4803F069FF0026ABE700BFBC170510C6
:10191000C4180510D8170510F4170510181805106D
:101920003418051090180510EFBEEDFDFC180510D9
:101930003C1905105419051000003F1070190510CE
:101940009819051010B5164B1A68164B9A4212D109
:10195000134B5C68621E4FF6F7739A4211D88C42A3
:1019600016D82246104948F0F1FA21460F4803F0F4
:1019700061FF204610BD0E4803F02EFF4FF0FF30F0
:10198000F8E721460B4803F055FF4FF0FF30F1E731
:101990002246094803F04EFF4FF0FF30EAE700BF50
:1019A00000003F10EFBEEDFD08003F10781A051053
:1019B000C0190510EC1905102C1A0510074B1A68F0
:1019C000074B9A4201D000207047044B58684FF6ED
:1019D000F7739842F8D90020704700BF00003F100D
:1019E000EFBEEDFD044A536812689B1A9B10034832
:1019F00003FB00F0704700BF8C3E0020ABAAAAAAF0
:101A000010B504460D4B5A681B68D21A92100C4848
:101A100000FB02F2914209D201EB410103EB810389
:101A200093E8070084E80700204610BD054803F04E
:101A300001FF002323606360A360F5E78C3E002074
:101A4000ABAAAAAA941A051003684068984214BF6A
:101A5000002001207047000038B52DED028B08EE04
:101A6000100AB5EEC08AF1EE10FA18D94448FFF713
:101A7000EBFFE8B9424D6C682B68E41AA410414BA7
:101A800003FB04F418EE100A4EF022FF02460B4648
:101A900021463D4803F0CEFE2B686D6840E04EF0D5
:101AA00017FF02460B46394803F0C4FE002060E0F1
:101AB000374803F091FE00205BE017EE100A4EF06D
:101AC00007FF02F07BF802F0C5F807EE900A01E08C
:101AD000DFED307AF5EEC07AF1EE10FA3FDD9FEDE2
:101AE0002E7A67EE877A17EE900A4EF0F1FE22A367
:101AF000D3E9002302F014F802F0ACF807EE100A64
:101B0000B5EEC07AF1EE10FA2CDDDFED246AC7EEF7
:101B1000267A01E0DFED1F7AC4ED027A04F10C03AE
:101B20001C469D4221D0D3ED017AF0EEE77A9FED7D
:101B30001C7A67EE877AB5EEC08AF1EE10FAC7DD3F
:101B4000F5EEC07AF1EE10FAE4DD87EE887AB5EEB4
:101B5000C07AF1EE10FAB0DCDFED0E7ADCE7DFEDF3
:101B60000D7AD9E7DFED0B7AD6E70E4803F034FEA5
:101B70000120BDEC028B38BD182D4454FB211940C7
:101B80008C3E0020ABAAAAAA441B0510D81A051047
:101B9000101B051000000000000070429A99993E49
:101BA0000AE81C41941B051040680C38704708B5C2
:101BB000084602EB4202910002F0E6FA08BD036813
:101BC0004268934200D043607047000030B585B052
:101BD0008446019144680368E31A9B10114803FB93
:101BE00000F0114D2D1A8D4213D30390814213D86A
:101BF00003AA12681044DCF80030E41AA410094B60
:101C000003FB04F4A04209D3074B984208D805B05F
:101C100030BD10461EF0D6FB01AAEAE70248F6E7FF
:101C20000148F4E7ABAAAAAAAAAAAA0A08B5084BCF
:101C3000994205D801EB4101880002F095FA08BDF0
:101C4000044B994201D91EF085FB1EF073FB00BFC7
:101C5000AAAAAA0A555555152DE9F84F05468A46F0
:101C60009346234A0121FFF7B1FFD5F80090D5F83C
:101C70000480AAEB0904074658B30022014628460F
:101C8000FFF7D4FF064633199BE8070083E80700F7
:101C9000002C20DC0C343444A8EB0A08B8F1000F07
:101CA0001FDC4444AA68A2EB09029210114B03FB0B
:101CB00002F2B9F1000F03D049462846FFF777FF3B
:101CC0002E606C6007EB470706EB8706AE60BDE849
:101CD000F88F0026D7E722464946304644F0CCF834
:101CE000D8E742465146204644F0C6F8D9E700BF3F
:101CF0006C160510ABAAAAAA10B504464368826800
:101D0000934209D007C983E8070063680C33636016
:101D10002046FFF749FF10BD0A461946FFF79CFF12
:101D2000F6E7000070B586B005460C46434803F060
:101D300081FD4348FFF743FF601C02F0FDF968B1E5
:101D400006462246294648F001F90025355502AAE3
:101D50003C4930463FF0BEFC04462AE03A4803F0D6
:101D60003BFD00254AE002AA364900203FF0B2FCC4
:101D700004461EE0354920463FF05EFE68BB34490C
:101D800020463FF059FE84423BD00023009301934C
:101D900001AB6A462F4920463FF012FB02283BD098
:101DA0002378002B45D102AA264900203FF092FC5F
:101DB0000446ACB1002DDDD1274920463FF03CFE62
:101DC0000028D0D0254803F007FD02AA1D490020B5
:101DD0003FF080FC04460125EBE7214803F0FCFCC2
:101DE000304602F0BDF9164A536812689B1A9B10E0
:101DF0001C4903FB01F11C4803F01CFD284606B0FA
:101E000070BD2146194803F015FD02AA0D490020B6
:101E10003FF060FC0446CCE7002303930493059352
:101E2000009B0393019B049303A90548FFF764FFFC
:101E3000B9E721460E4803F0FDFCB4E7B01B0510DE
:101E40008C3E0020041C0510D41B0510341C05100A
:101E5000681C05108C1C0510081C05101C1C0510A6
:101E6000441C0510ABAAAAAABC1C0510701C0510C6
:101E7000941C051008B5FFF7B3FC08BD30B40B4C3B
:101E800000EB80034FEA830C04EB8303002544F846
:101E90000C509D60DD608D681D614D685D600B6854
:101EA000134344F80C3030BC704700BF00800A4038
:101EB00000EB80008000094B0344084601B110216B
:101EC0008A4038B10649186842400A4003F58053F9
:101ED0001A6070474FF6FF71F5E700BF0C800A40AB
:101EE0000000FFFF06EE900ADFED0B7A86EEA77A80
:101EF0000A4B1B685A1C07EE902AF8EE677A67EEC9
:101F0000877AF8FE677AFCEEE77A17EE902A90B2AD
:101F1000834200D298B2704700409C46883E002021
:101F200070B588B0044600268DF80060364D28460E
:101F300028F0F4FB214628F073FD284628F0F0FA3B
:101F40002DE0314828F0EAFB684647F0C7F901F078
:101F500081FE04464EF0BCFC02460B462B4803F0C3
:101F600069FC204608B070BD002E2ADD013E06F156
:101F700020036B44002203F8202C234C24492046E4
:101F800028F04EFD204628F0CBFA08E02E216846C6
:101F900047F0DCF9E0B920463FF09AF8E8B91E2E88
:101FA000D2D803F0F7FB10F1020FF8D00028F6D0DA
:101FB000C5B20D2DC5D00A2DC3D0082DD4D07F2D8C
:101FC000D2D0C4B2A4F13003092BE4D92E2DDDD038
:101FD0002D2DE4D1002EE2D1DDE7741C06F12003A3
:101FE0000DEB030606F8205C04F120036B4400228D
:101FF00003F8202C044E2946304628F0F7FC3046E2
:1020000028F08EFA2646CAE708520020E81C051080
:10201000140C0510F0B52DED048B89B008EE100AF4
:10202000B5EEC08AF1EE10FA09D4F7EE007AB4EEFC
:10203000E78AF1EE10FA04DDB7EE008A01E09FEDC9
:102040001E8A1E4B93ED009A1D4BD3ED008A79EE4C
:10205000687A67EE887A78EEA77A17EE904A20467B
:10206000FFF740FF054618EE100A4EF031FC064619
:102070000F46144B1B680793069519EE100A4EF095
:1020800027FCCDE9040118EE900A4EF021FCCDE9C1
:10209000020120464EF01CFCCDE9000132463B46D1
:1020A000094803F0C7FB2A4601210720FFF700FF7C
:1020B00009B0BDEC048BF0BD00000000E02400205E
:1020C000E4240020883E0020041D0510F0B52DED0D
:1020D000048B89B00F21484803F0ACFB04210F208A
:1020E00000F05EF9454B07221A60052001F046FA20
:1020F000054607EE900AF8EE678ADFED417A88EE32
:10210000A78AF7EE007AB4EEE78AF1EE10FA09D466
:10211000DFED3C7AB4EEE78AF1EE10FA04DB9FEDD6
:102120003A8A01E0B7EE008A9FED387A28EE077A06
:10213000C8EE877AF8FE677AFCEEE77A17EE903AF7
:10214000013B334F3B60002205920692079210221A
:1021500006924FF6FF7207922E4C08AA12E907006A
:1021600084E80700DFED2C7A78EE277AB3EE007A68
:1021700067EE877AFCEEE77AC4ED017A9BB2A36042
:102180001E4E012221463068FFF778FE3B685A1C3C
:1021900007EE902AF8EE677A67EE887A88EEA79ABB
:1021A0003468029318EE100A4EF092FBCDE900015C
:1021B0002A462146194803F03DFB19EE100A4EF05D
:1021C00087FBCDE900010022154B164803F032FBD6
:1021D000154B18684EF07CFB02460B46134803F083
:1021E00029FB0020FFF716FF114803F0F5FA09B0AC
:1021F000BDEC048BF0BD00BF601D0510843E0020C7
:10220000002474490000804300FF7F4300004842DF
:10221000883E0020783E00200000003D881D05100B
:1022200000004940CC1D0510E0240020001E0510D0
:102230004C1E0510014B1868704700BFE4240020B5
:1022400010B504464EF044FB02460B46024803F02C
:10225000F1FA024B1C6010BD841E0510E42400201E
:10226000014B1868704700BFE024002010B50446F9
:102270004EF02EFB02460B46024803F0DBFA024BFF
:102280001C6010BDAC1E0510E024002008B52DED2B
:10229000028B374803F0CEFAFFF7CCFF4EF018FB65
:1022A00002460B46334803F0C5FAFFF7D9FF4EF05C
:1022B0000FFB02460B46304803F0BCFA2F48FFF7ED
:1022C0002FFE07EE900AF5EEC07AF1EE10FA38DD37
:1022D000FFF7B6FF2A4803F0ADFA0020FFF79AFE99
:1022E0004FF47A7000F092FF264803F075FA264802
:1022F000FFF716FE08EE100AB5EEC08AF1EE10FAEE
:1023000008DDFFF797FF07EE900AF4EEC87AF1EECA
:1023100010FA1AD41D4803F05FFA1D4803F08AFA38
:102320004FF07E50FFF776FE4FF4FA7000F06EFF2C
:10233000144803F051FA174803F04EFABDEC028B33
:1023400008BD154803F048FAD1E718EE100AFFF768
:102350008DFF124803F06EFA4FF07E50FFF75AFEE1
:102360004FF47A7000F052FF064803F035FAD4E7D4
:10237000D41E0510F01E05100C1F0510281F051097
:102380004C1F0510781F0510B41F05100420051000
:102390005820051084200510801F0510D81F051037
:1023A0000C4B03EB800253F8203083F0400303F022
:1023B000C00302F5805CCCF80030C00000F1804022
:1023C00000F52030416002F540524FF480731360F5
:1023D000704700BF0480034010B40C4C04EB800C29
:1023E00079B108237AB10422134354F820205340D2
:1023F00003F00C030CF5805CCCF800305DF8044B66
:1024000070470023EEE70022EEE700BF04800340A0
:1024100008B54FF0000242EC440042EC40000521B8
:10242000FFF7BEFF08BD00000FB400B583B0049CE9
:10243000074803F0D1F93CB105A90191204603F00A
:10244000DBF9044803F0C8F9012002F0BFFF00BF28
:10245000A8200510F0150510EFF3108072B6064B9A
:10246000D3E8CF1F01220029FAD1C3E8412F002968
:10247000F6D1BFF35F8F7047BF5900200023034A96
:10248000C2E88F3F80F31088704700BFBF5900201B
:1024900070B505460C461646FFF7DEFFE208A95C5C
:1024A00004F0070C012303FA0CF3194205D1DBB247
:1024B0000B43AB54FFF7E2FF70BD21463046FFF7F8
:1024C000B3FFF8B506460D4614461F46FFF7C4FF96
:1024D00000E00134BC420ED84FEAD40C16F80C10C0
:1024E00004F0070301229A401142F2D1D2B20A430A
:1024F00006F80C2001E04FF0FF34FFF7BFFF002C7F
:1025000001DB2046F8BD002DFBD00698FFF78CFFBD
:10251000054A1078431CDBB21370172B02D91346FF
:1025200010221A70704700BFE824002000B583B065
:102530000146054B00931F2318220448FFF7C1FFF3
:1025400003B05DF804FB00BFB8200510D45E002086
:102550004FF0E022936843F000539360704700000F
:10256000002305E0044A1A440021C2E88F1F01330A
:102570001F2BF7D9704700BFB4590020064B9B684A
:10258000103043F82010BFF35F8F00230349C1E8E8
:102590008F3F82F31088704700ED00E0BD590020A6
:1025A0000048704700E400E008B5FFF7F9FF00239A
:1025B00004E04FF0803240F8042B01330C2BF8D9A3
:1025C00008BD000008B50388DA0A1C2A06D15B059D
:1025D0000BD45B15023300EB430008BD064B074AE2
:1025E00040F21511064802F045FF03F5FF1303F50D
:1025F000FF531F33EDE700BFD4200510DC44051066
:10260000EC20051008B5091A01F2FC7240F6FE73C1
:102610009A4208D8081F11F0010F04D1C0F34A00F4
:1026200040F4604008BD034B034A40F207110348E1
:1026300002F020FF30210510D0440510EC200510D9
:102640004209064B53F8222000F01F00012383406B
:102650001A4214BF01200020704700BF00E100E0D3
:102660003AB1064B00F1600243F8221043F8201003
:1026700070472030014B43F82010704700E100E024
:1026800008B50A4600F01F03012199404009FFF7F1
:10269000E7FF08BD00F01F024009012393404030CE
:1026A000014A42F82030704700E100E0024B9B688D
:1026B000103053F82000704700ED00E008B5FFF738
:1026C000F5FF034BC01A2F288CBF0020012008BD46
:1026D000EC24002070B505460C46EFF3108672B668
:1026E0000F4BD3E8CF1F01220029FAD1C3E8412FB5
:1026F0000029F6D1BFF35F8FFFF7D8FF094B98424F
:1027000001D0A04205D1324621462846FFF736FFC8
:1027100070BD054B054AE721054802F0ABFE00BF3E
:10272000BD5900201D010010602105100445051051
:10273000EC2005102DE9F04F87B000911546EFF31E
:10274000108A72B67C4BD3E8CF1F01220029FAD140
:10275000C3E8412F0029F6D1BFF35F8F774B93F980
:102760000040002C44DB804604EB4407744B03EB31
:10277000870797F90610714A1170724A926800F142
:10278000100152F82190A9EB03022F2A3ED96E4B7B
:10279000994534D14FF42143ADF80C304FEA440948
:1027A00004EB4400664E06EB800068490230FFF7F8
:1027B00029FFADF80E004BF60153ADF81030FF23A2
:1027C0008DF812308DF81350009B0593A14406EB51
:1027D000890306AA12E9070083E8070047F0010908
:1027E000524649464046FFF7C9FE07B0BDE8F08FA4
:1027F000574B584A40F27311574802F03BFE574B73
:10280000544A4FF4BD71544802F034FE29F0010BD4
:10281000ABEB0303524AA2FB0312D20802EB4202C3
:10282000B3EB820F0FD15B460026DA79AA4212D9A8
:1028300093F90620002A0DDB02EB42021E46404BB4
:1028400003EB8203F1E7474B424A40F28B114248C7
:1028500002F010FE1E46A6B344F60103ADF80C309C
:102860004FF48F43ADF80E3096F906B0BBF1000F70
:102870001ADA4BF60150ADF810008DF812B08DF851
:102880001350009B05933946301DFFF7BBFEB08007
:10289000B47104EB44042A4B03EB840306AA12E947
:1028A000070083E807009BE7301DFFF78BFE01461A
:1028B00004EB4402224B03EB8203181DFFF7A2FE38
:1028C000D9E74FF42143ADF80C306300019304EBDA
:1028D0004406DFF86C9009EB86061C49B01CFFF734
:1028E00091FEADF80E005946301DFFF78BFEADF896
:1028F00010004AF6AA235A464946521A52415343F7
:102900001B0D8DF812308DF81350009A0592019B23
:10291000234409EB830906AB13E9070089E80700A4
:1029200044F60103ABF800304FF48F43ABF80230AC
:1029300047F0010954E700BFBD590020846500201D
:10294000EC24002000ED00E01D0100101C250020FB
:1029500098210510EC440510EC200510C02105104D
:10296000ABAAAAAAE821051038B540F00104324B01
:10297000E31A2F2B31D8EFF30581C9B2002933D0E8
:10298000EFF3108E72B62D4BD3E8CF5F0122002DEE
:10299000FAD1C3E8452F002DF6D1BFF35F8F4AF679
:1029A000AA230246244D521B524153431B0D4FFA9A
:1029B00083FC234B9B6853F82130A3421BD0002398
:1029C000032B32D803EB43011B4A02EB810292F93D
:1029D0000620624520D00133F2E71A4B1A4A4FF421
:1029E0001D711A4802F046FD194B174A40F2772133
:1029F000164802F03FFD124B9B68164A43F821200F
:102A0000154B1A78827183F800C000230B4AC2E884
:102A10008F3F8EF3108838BD074A02EB8101FF24F7
:102A20008C714BF601538B80EAE70C4B064A4FF44E
:102A30002271064802F01EFDEC240020BD59002042
:102A400000ED00E06C220510B4440510EC200510E8
:102A5000942205101D01001084650020A02205109D
:102A600000B583B00146074B0093052300220648BA
:102A7000FFF727FD002801DBC0F1330003B05DF84C
:102A800004FB00BFA822051088650020014B0B4401
:102A900003607047B459002010B50446FFF738FDB5
:102AA00001462046FFF7F2FFFF232371BFF35F8F3C
:102AB00010BD10B50446FFF72BFD01462046FFF779
:102AC000E5FFFF23237100236371BFF35F8F10BD08
:102AD00010B50D4C09E00D4B0D4A1A210D4802F0BE
:102AE000C9FC2046FFF7D8FF08340B4B9C4209D2A3
:102AF0002368002BF5D0012BEDD12046FFF7D9FF3D
:102B00000834F2E710BD00BF04360020C4220510CF
:102B100044450510E42205100C360020024B0B44FE
:102B20000360BFF35F8F7047B459002010B50446AF
:102B30000120FFF7FBFC01462046FFF7EFFF10BD29
:102B40000246EFF30583DBB2103B990804D003483B
:102B500003F00303136070470148F9E700800B405E
:102B600000000B4010B4846AA2EB040C0B1D50F85B
:102B700023301B1B9C4504D3046A01238B401C4259
:102B800002D1043140F821205DF8044B704741EA3E
:102B9000004070470D4B1A68EFF3108172B6D2E80F
:102BA000CFCF0120BCF1000FF9D1C2E84C0FBCF12E
:102BB000000FF4D1BFF35F8F1A680023C2E88F3F84
:102BC00081F3108840BF0020002170475865002025
:102BD0002DE9F04F85B003A8FFF7B2FFA94B98424B
:102BE00014BF00230123039901EB8303A64A52F883
:102BF00023402378994206D1054601228A4000F5F8
:102C000041535A6014E1A14BA14A9221A14802F01C
:102C100031FCD4F8149006EB46074FEAC70A09EBDB
:102C2000C707D7F808B0D7F80C80284600F0FAFBA1
:102C3000B0EB0B0061EB0803002BC0F20281B8F18E
:102C4000000F60DB3B691A460093934B9A4230D0E9
:102C5000798889B2B4F90800FFF799FF7969009B78
:102C60009847009001910099019A51EA02034AD0D5
:102C70001346002A29DABBEB010268EB0308BA60AD
:102C8000C7F80C8039F90A30002BC0F2DA80D4F88A
:102C900014E003EB43010EEBC1018868C968101A08
:102CA00068EB01010029C0F2CC80A4462CF8083F53
:102CB00015E07A69136900921046984718B3009A94
:102CC0001368009353680193CDE7284600F0AAFBF0
:102CD000009B1A18019B43EB0108D0E79C46BCF906
:102CE0000070002F0ADB07EB47030EEBC303986865
:102CF000D968101A68EB01010029EFDA29F80A7087
:102D0000ACF800609DE039F90A3023812369EFF3C4
:102D1000108272B6D3E8CF0F01210028FAD1C3E8A0
:102D2000401F0028F6D1BFF35F8FB4F9023029F8B5
:102D30000A30668021690023C1E88F3F82F3108842
:102D40007FE02369EFF3108272B6D3E8CF0F012141
:102D50000028FAD1C3E8401F0028F6D1BFF35F8FE7
:102D6000B4F804800FFA88F84FF6FF73A380216946
:102D70000023C1E88F3F82F3108815E01E46B6F9A4
:102D80000020002A0ADB02EB42030CEBC303986825
:102D9000D968381A6EEB01010029EFDAA6F8008035
:102DA0003CF909802CF80920B8F1000F4EDBD4F86B
:102DB00014C008EB48034FEAC3090CEBC3039F6838
:102DC000D3F80CE004F10806D9E70023A37104F15D
:102DD000080CB4F9083010E04FF0FF384FF0FF391D
:102DE000C0E90289B4F90800984205D0ACF8002087
:102DF000B4F90800C85323811346B3F1FF3F28D02C
:102E0000616903EB4302D70001EBC20031F93220C4
:102E1000468816F4004FDFD18446EDE7284600F0DF
:102E200001FB3F1A66EB0106012F76F1000635DA49
:102E3000039A01239340EB63B4F90860002EBFF6B8
:102E4000E8AEA38813F4004F3FF47BAFA379002BC7
:102E5000BBD1B4F90830002B20DB626903EB4303DC
:102E600002EBC3039F68DE68B6F1FF3F08BFB7F10E
:102E7000FF3FD3D03A46334603992846FFF772FE08
:102E8000CCE700BF00800B404C6400207823051085
:102E900070450510A4230510D12B001040BF05B0CC
:102EA000BDE8F08FF8B504460D4611460A4B98422E
:102EB00010D000262E44012707FA05F5256230467A
:102EC000FFF708FC39463046FFF7DAFB04F50154FA
:102ED0002560F8BD0426EDE700800B40F8B50446F8
:102EE0000E4617461D46C160FFF712FB164B034402
:102EF00023612770ABB263814FF050421278627049
:102F00004FF6FF722281A280013B63804FF0000CDC
:102F100008E00CF1FF300CEB4C0E636923F83E0027
:102F20000CF1010CAC45F4D3084B9E4214BF0023B6
:102F3000012307EB8303064A42F82340054A39463A
:102F40003046FFF7AFFFF8BDB459002000800B40BA
:102F50004C640020D12B001008B5054B1B690BB148
:102F6000034808BD034B044A6521044802F082FA75
:102F700034250020E023051058450510A423051032
:102F8000F8B504469E460069EFF3108172B6D0E8AA
:102F9000CF6F0125002EFAD1C0E8465F002EF6D192
:102FA000BFF35F8FB4F90250666905EB4500C700B7
:102FB00006EBC000002D03DB36F907C0A4F802C001
:102FC0004FF0000C2369C3E88FCF81F3108865456B
:102FD00033DB06990161079941618260C0F80CE01A
:102FE000418889B20131C1F30E0101B9012141804B
:102FF0002846FFF7CCFD2369EFF3108272B6D3E8C1
:10300000CFCF0121BCF1000FF9D1C3E84C1FBCF1B7
:10301000000FF4D1BFF35F8FA388F353A58021691C
:103020000023C1E88F3F82F31088E36821780122F2
:103030008A4003F501535A60F8BD4FF0FF30FBE7BB
:1030400070B582B0064615461C469DF8203033B94F
:1030500000F012FA854264EB010100290ADB079BAC
:103060000193069B00932A4623463046FFF788FFCC
:1030700002B070BD0020FBE7F0B585B005460C46F8
:1030800016461F46FFF768FF9DF828300293019708
:1030900000962A462346FFF7D3FF05B0F0BD03464E
:1030A0004089B0EB214F31DD10B50A14586902EBAD
:1030B000420200EBC2001A69EFF3108C72B6D2E83C
:1030C000CF4F5FF0010E002CF9D1C2E844EF002C85
:1030D000F5D1BFF35F8F428892B289B28A420FD096
:1030E000002019690022C1E88F2F8CF3108830B1BD
:1030F000DA681B780121994002F50153596010BD2F
:1031000042F40042428001209871EAE700207047B3
:1031100010B50446FFF720FF2146FFF7C0FF10BDA2
:1031200040787047F0B583B0EFF30583DBB2CBB9DD
:1031300005460F46861F41F1FF34B04271EB040390
:1031400001D20026344600F097F9301A64EB0103EF
:10315000012873F1000308DA2846394600F09EF989
:1031600003B0F0BD1C48FFF75FF9002300931B4A32
:1031700030462146FFF780FF00281EDAECE70023E7
:1031800000E00023002BE7D1154B1A68EFF3108104
:1031900072B6D2E8CFCF0120BCF1000FF9D1C2E85E
:1031A0004C0FBCF1000FF4D1BFF35F8F1A680023FE
:1031B000C2E88F3F81F3108820BF0A4B5B6A9C42B4
:1031C000DFD80849896AB14203D29C42D7D0012393
:1031D000D8E70123D6E700BF04240510952B001083
:1031E0005865002000000B4038B504460D4600F03D
:1031F00043F9201845EB0101002902DBFFF792FF9C
:1032000038BD4FF0FF306FF00041F7E708B5C30E4F
:103210004101091A63F100039B0043EA917389009D
:10322000091843F10003DB00C80043EA5171FFF7BE
:10323000DBFF08BDF0B583B005460C46EFF3058310
:10324000DBB293B13C4B5B6A8B4209D33A4A926A38
:10325000824208D28B4201D0012002E0002000E02F
:10326000002003B0F0BD0120FBE7FFF775FEC76843
:103270000678384600F0D6F82A1A64EB01010436C5
:1032800057F826301B1A9A4271F1000112DB20BF59
:10329000294B5B6A9C4209D8274A926AAA4207D204
:1032A0009C4201D00120DCE70020DAE70020D8E7CB
:1032B0000120D6E700230093204A28462146FFF745
:1032C000DBFE00280BDD1C4B5B6A9C421BD81A4AB4
:1032D000926AAA4228D29C4213D0012314E0164BD2
:1032E0005B6A9C4209D8144A926AAA4207D29C425D
:1032F00001D00120B5E70020B3E70020B1E70120AD
:10330000AFE7002300E0002303B920BFFFF700FF71
:10331000094B5B6A9C420BD8074A926AAA4209D2BF
:103320009C4203D001209CE70123EDE7002098E7B1
:10333000002096E7012094E700000B40952B001039
:10334000F0B585B0064614460C9D54EA030201D13F
:1033500001240023AE600A9A2A612C606B600B9AEC
:103360006A611F46002B15DB00F086F8221847EB38
:103370000103002B12DB0121029101950A49009102
:103380003046FFF75DFEE8600028D4BF0020012032
:1033900005B0F0BD644263EB4307E5E74FF0FF3251
:1033A0006FF00043E7E700BFD12B0010C16809B9F7
:1033B0000020704710B504468068FFF770FE0023B8
:1033C000E36010BD0048704700000B4010B50A4B89
:1033D0001B6923B10A210948FFF758FB10BDFFF70D
:1033E000F1FF0446032100F00BF8102303222146CD
:1033F0000148FFF773FDEDE73425002058650020F4
:1034000010B5054A054C064BA04214BF1846581C7F
:10341000FFF73EF810BD00BF5424051000800B409C
:10342000D85E00200246436A906A1946536A994260
:10343000FAD17047416A00E0416A9942FCD300E04A
:10344000416A994202D1816A9142F9D3704770B5BD
:10345000064614461D46FFF7E5FF021941EB05033A
:10346000824273EB010102D24FF0FF321346304625
:10347000FFF7E0FF70BD000008B50248FFF7D2FF7C
:1034800008BD00BF00000B4008B502460B460248CD
:10349000FFF7DDFF08BD00BF00000B4008B5024686
:1034A0000B460248FFF7C6FF08BD00BF00000B40F7
:1034B00070B51646049D00EB400C4FEA8C0C0CF1E5
:1034C000804C0CF5803CDCF80420AA4201D2CCF8F8
:1034D0000450A0F1040E5FFA8EFEBEF1010F28D950
:1034E0000CF540524FF4006414601E4A52F820203C
:1034F00042B11C4C6469B4FBF2F4013404EB4404A3
:10350000033CFDD2DCF8002082EA461202F0E00221
:103510000CF580542260BEF1010F16D90CF5005253
:103520004FF400611160CCF804500E4A42F820308C
:1035300070BD0129D4D10CF5405203241460DCF88D
:10354000082012F0010FFAD0DCE7DCF800204A4036
:1035500002F003022260DCF8084001228A40144293
:10356000F9D0DBE7DC5E002010B582B04FF4803488
:103570000094FFF79DFF02B010BD0000014B53F80F
:1035800020007047DC5E002070B5049C344DB5FB14
:10359000F1FC344D1544344EB54237D8B2FBFCF53E
:1035A000A5F1100EBEF5987F36D803F1FF3EBEF1AF
:1035B000060F37D804F1FF3EBEF1060F32D8BCEB40
:1035C000121F35D8240344EA03440368002B35DB7B
:1035D000264B984242D00E2301229A40244B1A6077
:1035E00003F580531A60234B9B6832EA0303FAD138
:1035F0000160856000F540520432212313600368A6
:10360000002BFCDAC4600823136070BD1A4B1B4A00
:1036100011211B4801F02EFF1A4B184A1921184896
:1036200001F028FF184B154A1C21154801F022FF14
:10363000164B124A2321124801F01CFF036803F0C5
:103640003F038B42C4D18368C3F30B03AB42BFD1AA
:10365000C36803F4EE23A342BAD1D6E70F23BBE736
:10366000001BB70080E84BD380F8A93200800540EA
:10367000002002400000024078240510904505100B
:10368000C82405100C2505102825051074250510E3
:10369000024B1A68024B5A60704700BF4463002017
:1036A00000800D4008B5164B4FF080421A60A3F51C
:1036B0004123144A9A6051B103F540234FF0E06270
:1036C0001A6048B9104B4FF000421A6008BD0C4B0D
:1036D0004FF0E0621A60F4E74FF47A7303FB00F0F6
:1036E0000A4B1860B0F1807F02D36FF07F421A60FE
:1036F000FFF7CEFF044B4FF080421A60E6E700BFB1
:1037000000B00D40F3FFFF0100A00D404463002016
:1037100010B50C4B4FF080441C6070B140F00103B9
:1037200009480A4CC4610A4C5C40046241628362ED
:1037300000211046FFF7B6FF10BD034B0021D961F1
:10374000F6E700BF00B00D4000800D40D3C007B0C9
:103750002D3FF84F054A00EB400302EB830359600D
:1037600000EB4000800001231350704700801040A0
:103770002DE9F04105460E46174698460023DB8AA0
:10378000002242E800F212F4800F0BD1102144F223
:1037900052209847044643463A4631462846A047B9
:1037A000BDE8F081042144F2522098470446F2E734
:1037B00008B50023DB8A002242E800F212F4800FF1
:1037C00002D11021984708BD04219847FBE708B5AE
:1037D000031E06DB41F0200012B141F0300100E091
:1037E00001460A460A214FF48170FFF7C1FF00002D
:1037F000034BD3F82838002BFAD0BFF35F8F704704
:1038000000000E40002207E0054B13449B00BFF36D
:103810005F8F002119600132072AF5D9704700BF78
:103820000382031008B5FFF7EDFF08BD074B4FF407
:103830002A621A604FF48D72DA6003F50053044A6D
:103840001A60024B5B68002BFBDA70470080044073
:1038500000B0FA0010B5044602E054F8043B984763
:10386000014B9C42F9D310BDB00905107047000010
:1038700008B50248FFF7EEFF08BD00BF700905104C
:10388000064B074A1A6003F58053064A1A60064B36
:103890009A68044B9343FAD1704700BF002002405E
:1038A0007F3BEFEFF6FFF30300000240054BDB6CBC
:1038B000B3F5004F00D07047034B4FF48022DA6419
:1038C000F9E700BF00001150002011504FF0E02236
:1038D000D2F8881D034B0B43C2F8883D10EE30042C
:1038E000704700BF03033000054B6FF060421A6061
:1038F000044B9B68DB4333F06043F9D1704700BF52
:10390000003002400000024008B545F25320FFF7A6
:103910004FFF03460420984708BD08B545F25320E1
:10392000FFF746FF03460120984708BD08B5FEF79C
:1039300017FE08BD38B5054CA168054D4FF48872D7
:10394000284646F003FBA56038BD00BF00ED00E04F
:103950000000002038B50420FFF710FE064BA3FB43
:103960000035AD0C002404E02946E0B2FFF7F2FE7A
:103970000134052CF8DD38BD83DE1B4330B583B040
:10398000264B0022C3F88420FFF750FF244B01226E
:10399000DA63224B5B6C012BFBD1214B03221A63B0
:1039A0001E4B9B6B012BFBD10224009405231D4A67
:1039B00001211D48FFF7E8FD052500952B461B4A10
:1039C00001211B48FFF7E0FD1A4B0022214604208D
:1039D000FFF7CAFD184C2346002201212846FFF7B5
:1039E000C3FD164D2B46002211460820FFF7BCFDF3
:1039F0002B46002211460920FFF7B6FD2346002280
:103A000011460620FFF7B0FD23460022114607208D
:103A1000FFF7AAFDFFF79EFF03B030BD0000014095
:103A200000300140002F685900000540008C864797
:103A300000800540001BB70080D1F008006CDC025C
:103A400086B003B451FC0804CDE9020151FC09041D
:103A5000CDE9040151EC0A04CDE9060103BCF047AD
:103A6000BDE800504EEC00C4BDE800504EEC01C46F
:103A7000BDE800504EEC02C400BD000000B5FFF7E9
:103A8000DFFF02E010FE30F4F8D441EC100443EC08
:103A9000112400EE010410EE010480EE200451EC2C
:103AA0001004704700B5FFF7CBFF02E010FE30F4C2
:103AB000F8D441EC100443EC112400EE010410EEA4
:103AC000210480EE200451EC3004704700B5FFF76C
:103AD000B7FF02E010FE30F4F8D410B541EC10044A
:103AE00043EC112451EC040453EC0524A0FB024CDC
:103AF0005FF0000EE0FB03CEE1FB02CE4CEC204475
:103B00000024E1FB03E444EC30E480EE200451ECBB
:103B10005004BDE81040704700B5FFF791FF02E088
:103B200010FE30F4F8D441EC100443EC112451ECB5
:103B30002104A0FB01126FEA820252FB100052FB2B
:103B400012F252FB1000A0EBD07C53EC04245CFB7F
:103B500013F153EC1524A1FB022001FB030053ECED
:103B60004424A2EB000050FB1CF24FEA111312EBAD
:103B7000017043EBE27140EA515020EA915020F08D
:103B8000070053EC7524A0FB023C53EC752400FBAA
:103B900003CC01FB02CC53EC0424ACEB824C40EA96
:103BA0005C70A0F1010041EC400480EE200451EC77
:103BB0007004704700B5FFF743FF02E010FE30F4D9
:103BC000F8D441EC100420EE010453EC4124A2FB94
:103BD0000201A1FB03014FEAC101A1F1004162FB17
:103BE0001122A2FB0201A1FB0301000F40EB011116
:103BF00051FB12F0A2EB6002A2FB03014FEA51015C
:103C0000A1FB01305CEC6404A0EB030353FB12F353
:103C100001EB23714FEA031323F0FF0343F080030A
:103C2000A3FB03C201FB01FCE1FB032CE1FB032C22
:103C3000ACEB000C43EA1C63A3F10B0341EC5034E2
:103C400080EE200451EC9004704700BF00B5FFF7F0
:103C5000F7FE02E010FE30F4F8D441EC100480EEE0
:103C6000220410EEB204704700B5FFF7E9FE02E04F
:103C700010FE30F4F8D440EC700400EE010410EEB5
:103C8000210480EE200451EC3004704700B5FFF7AA
:103C9000D7FE02E010FE30F4F8D440EC600400EEF1
:103CA000010410EE210480EE200451EC3004704732
:103CB00000B5FFF7C5FE02E010FE30F4F8D441EC89
:103CC000800400EE010410EE010480EE400410EECA
:103CD0001304704700B5FFF7B3FE02E010FE30F4A6
:103CE000F8D441EC800400EE010410EE010480EEF3
:103CF000400410EE3304704700B5FFF7A1FE02E068
:103D000010FE30F4F8D441EC100443EC112400EE22
:103D1000010410EE3004C0F30070704700B5FFF7E7
:103D20008FFE02E010FE30F4F8D441EC100443ECB6
:103D3000112400EE010410EE3004C0F380707047CF
:103D400000B5FFF77DFE02E010FE30F4F8D443EC3E
:103D5000102441EC110400EE010410EE30F48CBF8D
:103D600001200020704700BF00B5FFF769FE02E0A8
:103D700010FE30F4F8D443EC102441EC110400EEB2
:103D8000010410EE30F42CBF01200020704700BF6A
:103D900000B5FFF755FE02E010FE30F4F8D441EC18
:103DA000100443EC112400EE010410EE30F42CBF9B
:103DB00001200020704700BF00B5FFF741FE02E080
:103DC00010FE30F4F8D441EC100443EC112400EE62
:103DD000010410EE30F48CBF01200020704700BFBA
:103DE0000022002950DA404261EB4101C9B1B1FA29
:103DF00081F30B3B17D4D3F1200C30FA0CFC984024
:103E0000994051EA0C011A44524202F2324201EB4B
:103E1000025141F0004140F2FE739A4238BF7047B0
:103E200021E011467EE003F1210310FA03FCA3F127
:103E3000010301FA03FCC3F1200320FA03F021FA85
:103E400003F140EA0C00A3EB020202F2324214D06A
:103E500050F1000041EB025141F0004140F2FE738D
:103E60009A4238BF70474FF00001A8BFC7F6F07103
:103E70004FF00000704700217047EBD350F1000075
:103E800020F00100E6E70022B9B1B1FA81F30B3B63
:103E900016D4D3F1200C30FA0CFC9840994051EA2A
:103EA0000C011A44524202F2324201EB025140F23A
:103EB000FE739A4238BF704720E0114600F066B8A2
:103EC00003F1210310FA03FCA3F1010301FA03FC3F
:103ED000C3F1200320FA03F021FA03F140EA0C00B9
:103EE000A3EB020202F2324212D050F1000041EB89
:103EF000025140F2FE739A4238BF70474FF0000102
:103F0000A8BFC7F6F0714FF000007047002170475E
:103F1000EDD350F1000020F00100E8E7002880F226
:103F200035804042B0FA80F30B3B11D4984001EB4E
:103F30000302524202F2124200EB025141F00041F0
:103F40004FF0000040F2FE739A4238BF704713E012
:103F5000C3F1000330FA03FCC3F120029040A3EB4D
:103F6000010202F212420CEB025141F0004140F218
:103F7000FE739A4238BF70474FF00041A8BFCFF69A
:103F8000F0714FF0000070470021704760B3B0FA45
:103F900080F30B3B0FD4984001EB0302524202F234
:103FA000124200EB02514FF0000040F2FE739A42C1
:103FB00038BF704710E05B4230FA03FCC3F12002C7
:103FC0009040A3EB010202F212420CEB025140F2CC
:103FD000FE739A4238BF70474FF00001A8BFC7F682
:103FE000F0714FF000007047002170470022A2F2EC
:103FF00032425FEA215CACF10103A1EB03515B05A6
:1040000013F5800F32D212EB535210D40B2A36DA4A
:104010009140D2F1200330FA03F319439040BCF1F0
:10402000000FA8BF7047404261EB4101704720324A
:104030000EDD01FA02F3D2F12002D140D040184344
:10404000BCF1000FA8BF7047404261EB41017047CF
:10405000524282F3050231FA02F00021BCF1000F56
:10406000A8BF7047404261EB4101704702D0002079
:104070000021704750EA013118BF4FF0000C6FF07B
:10408000004101EBDC716FEAEC707047002195395B
:10409000C215A2F10103A0EBC350DBB2FE2B22D26A
:1040A000C9182ED4B1F1200314DAB1F108030CDDE4
:1040B0000002D3F1200130FA01F19840002AA8BF94
:1040C0007047404271EB410170478840D11748402A
:1040D000401A7047082B0ADA984080EAE27101EB37
:1040E000D2710020704709D8410218BF00226FF03A
:1040F000004101EBD2716FEAE270704700200021AD
:104100007047494281F30501C84090EAE27010EB24
:10411000D270C1177047000008B528B103460B44A0
:10412000034A934200D808BD0248FEF77DF900BF5C
:10413000000008209025051038B5054641F04CFBDD
:1041400004462946FFF7E8FF204638BD38B50D463E
:1041500045F09EF904462946FFF7DEFF204638BDAC
:1041600008B541F041FB08BD08B5FFF7E5FF08BD04
:1041700008B5FFF7E1FF08BD08B5FFF7F1FF08BD7F
:1041800008B5FFF7EDFF08BD08B5FFF7E9FF08BD6B
:104190009A4200D288547047704720B108B50A6827
:1041A0004968904708BD70470146002008E000EBD1
:1041B0008000531C0B60137803EB4003A3F1300025
:1041C0000A681378303BDBB2092BF0D970472DE930
:1041D000F04F83B005460E4693461F46DDF830A0EB
:1041E0000D9CDDF838900F9B13F0030F19D1A046FA
:1041F0000192C84509D202F1010B3B46314620200D
:10420000A84708F101085A46F3E7DDF804B008E0D2
:10421000013C02F101083B4631461AF80400A84768
:104220004246002CF4D10F9B13F0020F03D110462D
:1042300003B0BDE8F08FA2EB0B034B45F7D2541C43
:104240003B4631462020A8472246F4E72DE9F043BB
:1042500085B099460C9D0D9C9DF83880DDF840E0B6
:10426000119F129E16F0020F21D17FB116F0010F9F
:104270000CD0B8F1000F02D116F00C0F06D0013FA0
:1042800004E04FF0300C05F804C00134744501D24D
:104290001F2CF6D916F0010F09D0BC4207D21F2CF3
:1042A00005D84FF0300C05F804C00134F2E716F0E1
:1042B000100F14D016F4806F04D11CB1744522D0B5
:1042C000BC4220D00F9B102B36D00F9B022B3ED030
:1042D0001F2C0ED84FF0300C05F804C001341F2CF1
:1042E00007D8B8F1000F3AD04FF02D0C05F804C0F4
:1042F000013403960297019400954B46FFF767FF40
:1043000005B0BDE8F083B4F1010C13D00F9B102B66
:104310000ED064460F9B102BD7D116F0200FD4D0AF
:104320001F2CD2D84FF0580C05F804C00134CFE749
:10433000023CC7E76446C5E716F0200FEAD11F2C00
:10434000E8D84FF0780C05F804C00134C0E71F2C02
:10435000CFD84FF0620C05F804C00134B8E716F06E
:10436000040F05D04FF02B0C05F804C00134C0E752
:1043700016F0080FBDD04FF0200C05F804C0013432
:10438000B7E7F0B591B0169C189D1B9E0CB926F0AE
:10439000100616F4806E16D064B34FF0000E12E0D3
:1043A0000CF1300C5FFA8CFC0EF101070EF1400E9F
:1043B000EE440EF820CCB4FBF5FCAC421BD31F2F0F
:1043C00019D8BE466446B4FBF5FC05FB1C4C5FFAED
:1043D0008CFCBCF1090FE3D916F0200F08D041275F
:1043E000BC445FFA8CFCACF10A0C5FFA8CFCDBE796
:1043F0006127F5E7274606961A9C0594199C0494B4
:1044000003959DF85C400294019708AC0094FFF777
:104410001DFF11B0F0BD2DE9F04F95B009900A9144
:104420000B929846DDF878B0DDF87C90229D239FB2
:10443000269E5BEA090201D126F0100616F480647C
:104440001ED05BEA09022FD0002419E03032D3B22B
:1044500004F1010A04F150020DEB020404F8203CBF
:104460002A463B46584649464CF042FAAB4579EB62
:1044700007091BD3BAF11F0F18D854468346894643
:104480002A463B46584649464CF032FAD2B2092AEF
:10449000DCD916F0200F05D041231344DBB20A3BD0
:1044A000DBB2D5E76123F8E74FF0000A0696259BBB
:1044B0000593249B049303959DF880300293CDF8D7
:1044C00004A00CAB009343460B9A0A990998FFF796
:1044D000BDFE15B0BDE8F08F2DE9F04F91B0044658
:1044E0000D4617461E46DDE91A2310461946FFF70A
:1044F00007FC002840F0ED804FF0FF32AE4BDDE9C5
:104500001A01FFF75DFC002840F0E3804FF0FF3216
:104510006FF48013DDE91A01FFF716FC002840F064
:10452000D88000220023DDE91A01FFF70DFC0028E6
:1045300040F0E2809DED1A7B8DED067B1E9B13F40F
:1045400080630D9301D106231C93DDE906231046F9
:104550001946CDE9080152EA030100F0D880C3F3FF
:104560000A50C3F31303904643F07F5949F44019AE
:10457000A0F2FF30FFF77CFB7DA3D3E90023FFF718
:10458000A9FA7DA3D3E90023FFF77CFA82468B4684
:1045900000228A4B40464946FFF788FA78A3D3E9C0
:1045A0000023FFF797FA02460B4650465946FFF79D
:1045B00069FAFFF781FB8246FFF75AFB804689467E
:1045C00071A3D3E90023FFF785FA00227C4BFFF7A4
:1045D00059FAFFF771FB83466DA3D3E900234046E8
:1045E0004946FFF777FA804689465846FFF740FB71
:1045F00069A3D3E90023FFF76DFA02460B46404654
:104600004946FFF753FA8046894602460B46FFF7B4
:1046100061FACDE90A010BF2FF3B00210022CDE94E
:1046200008124FEA0B5309930023089342464B4666
:1046300040464946FFF726FACDE90E0142464B4671
:1046400000204FF08041FFF731FA80468946002272
:104650005C4BDDE90A01FFF763FA00225A4BFFF7D2
:1046600011FA02460B46DDE90A01FFF759FA00226A
:10467000564BFFF707FA02460B46DDE90A01FFF742
:104680004FFA02460B4640464946FFF7FBF9024601
:104690000B46DDE90E01FFF743FA00224C4BFFF712
:1046A000F1F9DDE90823FFF715FA80468946CDE9DF
:1046B0000889DDE90623FFF783FB50B30AF1FF3ACF
:1046C0000022414B40464946FFF72AFACDE908014E
:1046D0001FE01E9B04931D9B03931C9B02939DED67
:1046E0001A7B8DED007B33463A462946204600F082
:1046F00003F911B0BDE8F08F9FED297B8DED067BAE
:104700001A9B06931B9B03F10043079316E74FF098
:10471000000A0AF16303C62B27D84FF004081E9B3A
:1047200013F4006F5FD0DDE9081213460B4313D07A
:104730001DA3D3E90023DDE90601FFF72DFB0028C7
:1047400000F0B4801AA3D3E90023DDE90601FFF7E6
:10475000FBFA002800F0AA801C9B53453ADDA3EB2E
:104760000A0A0AF1FF331C9336E04FF00508D6E73A
:10477000FB799F501344D33FB3C8608B288AC63F50
:1047800061436F63A787D23F71A379094F930A40B2
:104790001655B5BBB16B0240EF39FAFE422EE63F2B
:1047A00000000000000000002D431CEBE2361A3F21
:1047B0000000000080842E41FFFFEF7F0000F83FE3
:1047C0000000E03F00002C400000244000001840A2
:1047D0000000F03F00231C931E9B43F480631E9354
:1047E0004FF00008C2461D9B984569D2A3EB08090B
:1047F0001E9B13F0020B04D0B8F1000F01D04FF054
:104800000009BAF1000F07D0DDE90823DDE9060150
:10481000FFF786F9CDE9060100220023DDE91A0140
:10482000FFF792FA00284ED11E9B23F400630493F5
:10483000CDF80C901C9B02939DED067B8DED007BCB
:1048400033463A462946204600F056F8B8F1000FA4
:104850003FF44FAF1E9B13F0200F3CD04FF0450CA0
:1048600000F101093346024629466046A0478AEA1C
:10487000EA72A2EBEA720523059308F1FF33049371
:10488000002303930A2302934FEADA730193009201
:1048900033464A4629462046FFF773FDBBF1000F19
:1048A0003FF427AF0246DDF874901EE01C9B002BFE
:1048B00099D00D9B002B96D01C9B013B1C9392E73B
:1048C0004FF0000994E7DDE90601024601F10043DB
:1048D000CDE90623A8E74FF0650CC1E702F1010816
:1048E000334629462020A0474246D31B4B45F5D3EB
:1048F0001046FEE6000000002DE9F04F2DED028B82
:1049000095B007900A9192469B46DDE92089229D49
:1049100042464B4640464946FFF7F2F9002835D15A
:104920004FF0FF326FF4801340464946FFF70CFA10
:1049300000283AD14FF0FF329F4B40464946FFF7DF
:104940003FFA002840D198A3D3E9002340464946C6
:10495000FFF736FA00284FD195A3D3E9002340464C
:104960004946FFF7F1F9002846D1002200234046CE
:104970004946FFF7E9F900284CD100230B93249B0B
:1049800013F4806F00F0B780002456E0249B03935B
:10499000239B029303230193884B00935B4652466B
:1049A0000A990798FFF713FC37E1249B0393239B95
:1049B000029304230193824B00935B4652460A996B
:1049C0000798FFF704FC28E1249B13F004030FD0A1
:1049D0007C4A7BB10423249903912399029101938A
:1049E00000925B4652460A990798FFF7F0FB14E1E4
:1049F000754AEEE70323EEE7249B0493239B03937E
:104A00000295CDE900895B4652460A990798FFF75F
:104A100063FD02E142464B4600200021FFF746F8C5
:104A20008046894601230B93A9E704F150036B44A8
:104A3000302203F8202C013D01341F2C01D8092D10
:104A4000F3D840464946FFF737F90646FFF710F915
:104A500002460B4640464946FFF728F85B4B03EBFE
:104A6000C50393ED008B53EC182BFFF733F8024688
:104A70000B46CDE90823FFF731F90746FFF70AF99E
:104A800002460B46DDE90801FFF710F802460B4627
:104A9000CDE9082300224E4BFFF792F968B30137A6
:104AA0003846FFF7F7F802460B4651EC180BFFF7B4
:104AB0005FF908B1013600276DBB3046FFF7D8F823
:104AC00002460B4640464946FEF7F0FF0746884639
:104AD00000223F4BFFF738F900284CD100223C4B15
:104AE00038464146FFF76CF9002844D116F0010F13
:104AF00041D001363FE0062546E70022344BDDE990
:104B00000801FFF721F90028D6D117B117F0010FDE
:104B1000D2D00137D0E71F2C17D8013D2D4BA3FB76
:104B20000723DB08194603EB8303A7EB4303621C4F
:104B3000303304F150000DEB000404F8203C092F41
:104B400002D90F461446E6E714461F2C0AD86B1EFE
:104B500045B104F150026A44302102F8201C1D4680
:104B60000134F2E71F2C06D804F150036B442E22C7
:104B700003F8202C01341F2C31D8174A82FB06324F
:104B8000F317C3EBA2031A4603EB8303A6EB43031D
:104B9000611C303304F150000DEB000404F8203C9C
:104BA0001646DAB10C46E6E70000000065CDCD41BF
:104BB0000000000065CDCDC1FFFFEF7FEC250510A3
:104BC000F0250510E0250510E8250510F045051035
:104BD0000000E03FCDCCCCCC676666660C46249BDB
:104BE00003F00303012B1DD01F2C09D80B9B002BB6
:104BF00035D004F150036B442D2203F8202C0134EE
:104C0000249B0393239B029301940CAB00935B467C
:104C100052460A990798FFF7DAFA15B0BDEC028BF5
:104C2000BDE8F08F239BB3B10B9B1BB9249B13F002
:104C30000C0F12D0239B013B2393194606E004F18D
:104C400050036B44302203F8202C01348C42CBD229
:104C50001F2CF4D9C8E72399F8E72399F6E7249B9A
:104C600013F0040F07D004F150036B442B2203F818
:104C7000202C0134C4E7249B13F0080FC0D004F1AA
:104C800050036B44202203F8202C0134B8E700BF06
:104C90002DE9F04F91B0804617460F9389460029C1
:104CA00000F04B8300260F9B1878002800F0488303
:104CB000252809D0741C3B4632464946C0470F9B05
:104CC00001330F932646EEE701330F9300251FE0D3
:104CD00045F0010501320F92012318E045F002056D
:104CE00001320F92012312E045F0040501320F92C8
:104CF00001230CE045F0080501320F92012306E084
:104D000045F0100501320F92012300E000234BB360
:104D10000F9A1378203B102BF8D801A151F823F0FB
:104D2000F54C00100D4D00100D4D0010014D001000
:104D30000D4D00100D4D00100D4D00100D4D0010CB
:104D40000D4D00100D4D00100D4D0010E94C0010E0
:104D50000D4D0010DD4C00100D4D00100D4D0010DC
:104D6000D14C00100B930F9B1A78A2F13003DBB2E9
:104D7000092B18D92A2A1BD0DDF82CB00F9B1A78E2
:104D80002E2A25D00F9A1378683B122B5CD8DFE8C7
:104D900003F0495BAC5B3B5B5B5B5B5B5B5B575B0B
:104DA0005B5B5B5BB1000FA8FFF7FEF98346E5E7AD
:104DB0001A9B1A1D1A921B68002B04DB9B460F9B43
:104DC00001330F93DAE745F00205C3F1000BF6E774
:104DD00045F480655A1C0F925A78A2F13003DBB279
:104DE000092B0CD92A2ACDD11A9B1A1D1A921C689C
:104DF00024EAE4730B930F9B01330F93C2E70FA8D0
:104E0000FFF7D2F90B90BDE745F48071531C0F9367
:104E100053786C2B01D00D4616E045F440750232F4
:104E20000F9211E045F08001531C0F935378682BCB
:104E300001D00D4608E045F0C00502320F9203E0B4
:104E400045F4807501320F920F9B1878672856D869
:104E50002528C0F06882A0F12503422B00F263826E
:104E6000DFE813F056026102610261026102610231
:104E7000610261026102610261026102610261021A
:104E8000610261026102610261026102610261020A
:104E900061026102610261026102610261026102FA
:104EA0006102610288016801880161026102610298
:104EB00061026102610261026102610261026102DA
:104EC00061026102610261026102710061026102BC
:104ED00061026102610261026102610261027100AC
:104EE000AF01710088016801880145F40075013245
:104EF0000F92A9E745F4807501320F92A4E7782854
:104F000000F211826928C0F00E82A0F16902D2B2CB
:104F10000123934049F24102134214D113F0800F50
:104F200040F0DB8113F4806F00F0FD811A9B1A1DA5
:104F30001A92D3F800A00B9B002B40F090814FF009
:104F4000FF32534671E16F280CD005D858283CD069
:104F5000622803D1022306E0782838D025F0100516
:104F60000A2300E00823582833D0692803D0642896
:104F700001D025F00C0515F4806F01D025F0010556
:104F8000692829D0642827D015F4007F40F0948048
:104F900015F4807F40F0AC8015F0400F00F0BD802C
:104FA0001A9A111D1A9112780595CDF810B00B9927
:104FB000039102930023019300923B4632464946F7
:104FC0004046FFF7DEF9064627E01023CBE7102323
:104FD000C9E745F02005C8E715F4007F21D115F495
:104FE000807F42D115F0400F58D01A9A111D1A91A6
:104FF000127882EAE271A1EBE2710595CDF810B06A
:105000000B9803900293D20F019200913B463246D7
:1050100049464046FFF7B5F906460F9B01330F930B
:1050200041E61A9A073222F0070202F108011A91AA
:10503000516812680846002913DB0895CDF81CB0AA
:105040000B9C0694049300230593C90F02910092D0
:1050500001903B46324649464046FFF7DCF906469A
:10506000DBE7524261EB4100E7E71A9A111D1A9102
:10507000126882EAE271A1EBE2710595CDF810B0F9
:105080000B9803900293D20F019200913B46324657
:1050900049464046FFF775F90646BEE715F0800F12
:1050A00005D01A9A111D1A91B2F90020A1E71A9A97
:1050B000111D1A9112689CE71A9A073222F0070212
:1050C00002F108011A910895CDF81CB00B990691D0
:1050D0000021049305910291D2E90023CDE9002338
:1050E0003B46324649464046FFF795F9064694E767
:1050F0001A9A111D1A910595CDF810B00B990391CC
:10510000029300230193136800933B4632464946BD
:105110004046FFF736F906467FE715F0800F04D0CA
:105120001A9A111D1A9112883EE71A9A111D1A91A6
:10513000126839E746281AD01A9B073323F0070371
:1051400003F108021A920495CDF80CB00B9A029262
:10515000D3E90023CDE900233B4632464946404689
:10516000FFF7CAFB06460F9B01330F939BE545F003
:105170002005E1E7672801D0472801D145F4006503
:10518000452801D0472801D145F020051A9B073357
:1051900023F0070303F108021A920495CDF80CB02E
:1051A0000B9A0292D3E90023CDE900233B46324615
:1051B00049464046FFF790F906460F9B01330F938F
:1051C00071E515F002051DD001241A98031D1A93EC
:1051D00006F1010A3B46324649460078C047A5B968
:1051E0000F9B01330F9356465DE502F1010A3B46E2
:1051F00049462020C047234652465C1C9B45F4D8B4
:105200001646E2E701233246F7E7524606E0561C0F
:105210003B4649462020C0472C463246651CA345E4
:10522000F5D89246DCE701330A46197811B1511ED0
:10523000002AF8D1A3EB0A0315F480620C9203D084
:105240000B9A934228BF134615F0020409D00D941F
:10525000CDF838B00B9D32460C9E9B461FE00B9A52
:105260006FE63246264606E0541C3B46494620205F
:10527000C0472B4622465D1C9B45F5D834462B463D
:105280000D94CDF838B00B9D0C9E9B4607E01D4653
:105290000AF1010A541C3B464946C04722469AF887
:1052A000000020B1002EF3D06B1E002DEFD10D9C1D
:1052B00016465B46DDF838B054B90F9B01330F93A7
:1052C000F1E4551C3B4649462020C04723462A4668
:1052D0005C1C9B45F5D81646EFE745F021051A9B67
:1052E0001A1D1A921B680595082204920B9A0392C4
:1052F000102202920022019200933B463246494618
:105300004046FFF73EF806460F9B01330F93CAE471
:10531000741C3B46324649462520C0470F9B01334B
:105320000F932646BFE4741C3B4632464946C047AD
:105330000F9B01330F932646B5E4DFF82080B1E4DC
:10534000BE4208D37A1E3B4649460020C04730463D
:1053500011B0BDE8F08F3246F5E700BF994100106B
:105360000EB400B584B0014605AA52F8043B03927E
:1053700000924FF0FF320448FFF78AFC04B05DF85A
:1053800004EB03B0704700BF9141001000B583B03B
:10539000009313460A4601460248FFF779FC03B022
:1053A0005DF804FB9141001000B585B002900391B7
:1053B000009313464FF0FF3202A90348FFF768FC41
:1053C00005B05DF804FB00BF9B41001000BEFDE787
:1053D0000346094A126842B1074A10680344074A63
:1053E000934206D8044A13607047034A0449116087
:1053F000F2E74FF0FF3070473C5F002000000820CC
:105400008C650020002070474FF0FF30704700008F
:1054100008B538B908461146044BD3E9002300F01B
:1054200035F908BD4FF0FF30FBE700BF8845051098
:10543000431E012B09D810B508461446012300224B
:10544000214600F0DDF8204610BD4FF0FF307047D8
:105450004FF0FF3070474FF0FF3070474FF0FF3094
:10546000704702288CBF00200120704708B5FFF765
:10547000ADFF000000B583B08C4619465AB1144602
:10548000064B0194009363460246054800F0D2F9AA
:105490000120FFF79BFF034B1C46F2E7F8250510A0
:1054A000082605103015051010B5EFF30583DBB2A3
:1054B00003B100BEFEF7DCF9044C02E054F8043BF3
:1054C0009847034B9C42F9D310BD00BFB0090510AB
:1054D000E009051008B5034608461B6811469847C1
:1054E00008BD0000F8B507460D461646437D13B1CA
:1054F000002420460CE003681146284698472EE019
:105500003B7D10E03B68022115489847601C013440
:10551000B44214DA002CF3DD2B1913F8013C0D2BE7
:1055200014BF002301232A5D0A2AF0D1002BEED1FB
:10553000A042E7DA3B68211A28449847E2E7B042E4
:1055400003DA3B68311A28449847002E07DD3544BA
:1055500015F8013C0D2B14BF002301233B75F8BD4A
:105560006C46051038B50368BBB105460B4B1C688B
:1055700006E0294651F8042B2046FFF7B3FF2469C3
:105580004CB12368002BFAD0054B1B68002BF0D0E0
:10559000A342F4D1EDE700232B6038BD2C5F00203F
:1055A000385F002038B505460C460B68802B05D0C7
:1055B00023685A1C22601C44257138BD0846FFF739
:1055C000D1FFF5E708B5FDF757FF074A821841F10B
:1055D0000003002B03DB05484BF0A6F908BD4FF094
:1055E000FF326FF00043F6E740420F000436002020
:1055F00008B502484BF080F908BD00BF0436002012
:105600002DE9F04383B006460D4690461C46FFF751
:10561000D9FF8146B5F1FF3F04D044B1174F184B75
:105620001C6807E0304644F007FD0546F5E7154FD6
:10563000F5E72469BCB12368002BFAD0124B1B6834
:105640000BB1A342F5D12A4631462046B847B8F1FE
:10565000000FEED00A238DF8073001220DF107016B
:105660002046B847E5E7B9F1000F03D1284603B05B
:10567000BDE8F083FFF7BCFFF8E700BFE55400107A
:105680002C5F0020D5540010385F00202DE9F8432E
:1056900007460E4691469846144B1C6807E0A368DF
:1056A00023B131463846984700281CDC246934B1C0
:1056B0000F4D2D68002DF2D0A542F7D1EFE70D4B2D
:1056C0005B6A984508D80B4A926A4A4509D29845C0
:1056D00002D06FF0010006E001200021FDF7D4FEAA
:1056E000DAE76FF00100BDE8F88300BF2C5F00200F
:1056F000385F002000000B40084A01E003F110026F
:1057000013683BB18342F9D131B9036913600023B7
:105710000361704701B11060704700BF2C5F00202B
:1057200010B5054B1C6801E0984724691CB16368FB
:10573000002BF9D1F9E710BD2C5F002008B500F06F
:10574000F3F908BD10B582B00446FDF795FE2218A6
:1057500041F10003002B0ADB012101A8FFF796FFAE
:10576000002802DB40B19DF8040002B010BD4FF0EC
:10577000FF326FF00043EFE7034B044A40F203119E
:105780000348FFF777FE00BF382605105046051086
:105790003C26051000B583B00B4BD3E90023012153
:1057A00001A8FFF773FF002803DB012804D19DF84F
:1057B000040003B05DF804FB044B054A4FF49571F7
:1057C0000448FFF757FE00BF8845051080260510E6
:1057D000404605103C26051038B5054644F02CFC23
:1057E000044601231A4601462846FFF709FFFFF742
:1057F00097FF204638BD000070B5A2B004460E46A3
:10580000FFF7E0FE0546002301933346224601A937
:105810000748FFF7C9FD044601A8FFF7A3FEFFF7FD
:105820007FFF15B9204622B070BDFFF7E1FEF9E712
:10583000A55500100FB400B583B004A951F8040BAE
:105840000191FFF7D9FF03B05DF804EB04B0704796
:1058500070470000014B00221A70704785650020D8
:105860004B79FF2B0BD18B795BB9CB79012B0AD10B
:10587000082A0AD98A78064B1A7009207047002036
:10588000704700207047002070470020704700BF1D
:105890008565002001207047012923D108B5918832
:1058A000114B1B78994201D0002008BD5378012B81
:1058B00003D0022B0FD00020F7E7518811F4807F2E
:1058C00006D0480AC1F3402201F07F01FDF77FFFB7
:1058D0004FF0FF30F6E7642200210846FDF718FF7D
:1058E0000120E2E7012070478565002000487047ED
:1058F0003847051001290FD108B594465378012B7C
:105900000CD19388072B01D0002008E0A623044A7D
:10591000614601F0FBFB02E001207047002008BD5A
:10592000904605100123037000487047704605102B
:1059300008B50B68B3F5966F00D008BD002211467C
:105940004FF0FF30FDF743FF0368EFF3108272B6AC
:10595000D3E8CFCF0121BCF1000FF9D1C3E84C1F30
:10596000BCF1000FF4D1BFF35F8F426070470000BD
:10597000024B1860024B1960704700BFCC5E0020DC
:10598000D05E002008B5FDF777FD0E4A821841F180
:105990000003002B11DB0C484AF0C6FF60B1002168
:1059A0004FF0FF3001F046FA002001F037FD0028EB
:1059B000F5D105484AF0A0FF08BD4FF0FF326FF067
:1059C0000043E8E740420F005C65002038B5124B09
:1059D0001B68C3B1104C2046FFF7B6FF00230F4AE7
:1059E000137021686268C1E88F3F82F31088002439
:1059F00000250B4B1878FCF723FE40B90024002546
:105A00002046294638BD4FF47A740025F1E7044B4F
:105A10001878FCF73FFEF3E7446400208765002018
:105A20008665002008B5024B1878FCF733FE08BDE8
:105A30008665002070B584B0064614461D46FDF705
:105A40001BFD221845EB0103002B0BDB9DF82810F2
:105A5000029109990191089900913046FDF7F0FAF9
:105A600004B070BD4FF0FF326FF00043EEE7F0B5C9
:105A700085B005460C4616461F46FDF76DFA9DF8A3
:105A800028300293019700962A462346FFF7D2FF5B
:105A900005B0F0BD10B582B000211D484AF05CFF92
:105AA000B0B91C4B1B688BB11A4C2046FFF74CFF5A
:105AB000194A137883F0010301211170206862688C
:105AC0000021C0E88F1F82F31088BBB902B010BD5F
:105AD00000214FF0FF3001F0ADF9002001F078FC1B
