:020000041000EA
:10000000002008205D0100101301001015010010F0
:100010001101001011010010110100101101001058
:100020001101001011010010110100101701001042
:100030001101001011010010190100101B01001026
:100040001D0100101D0100101D0100101D010010F8
:100050001D0100101D0100101D0100101D010010E8
:100060001D0100101D0100101D0100101D010010D8
:100070001D0100101D0100101D0100101D010010C8
:100080001D0100101D0100101D0100101D010010B8
:100090001D0100101D0100101D0100101D010010A8
:1000A0001D0100101D0100101D0100101D01001098
:1000B0001D0100101D0100101D0100101D01001088
:1000C0001D0100101D0100101D0100101D01001078
:1000D0001D0100101D0100101D0100101D01001068
:1000E0001D0100101D0100101D0100101D01001058
:1000F0001D0100101D0100101D0100101D01001048
:100100001D0100101D0100101D0100101D01001037
:1001100000BE00BE00BE00BE00BE00BEEFF3058004
:10012000103800BEF2EB88719C130710BC13071047
:10013000A801001090A31AE7D3DEFFFF42012110AF
:10014000FF01000078470700793512AB4FF000003F
:100150002049086006C881F3088810474FF05040D6
:10016000006810B14FF00000F2E70FA40ECC002998
:1001700002D000F015F8F9E71749184A002000E00E
:1001800001C19142FCD1002080F30A8814498847BC
:10019000144988471449884700BEFDE701C901C2D8
:1001A0009A42FBD3704700BFBC1307101001002018
:1001B00004360020B0480710000008200000082086
:1001C000B0480710001008200010082000000000B0
:1001D0007047000008ED00E0043600206C65002048
:1001E000614C0010B9020010254C0010F8B500BF9A
:1001F000064B0749C91A891048BF0131491003D07D
:10020000044B0BB101481847704700BF043600206B
:10021000043600200000000008B5054B1BB105495D
:100220000548AFF30080BDE80840FFF7E1BF00BF1D
:1002300000000000106400202002051008B51920FD
:1002400001F0C0FC19234FF0010242EC44304FF0A2
:10025000000242EC403008BD38B504F04BFE4FF4CC
:10026000FA6002F0ADFB104C104920462AF050F81D
:1002700029F0CCFEFFF7E2FF19254FF0010343EC14
:10028000405000F005F90A4920462AF041F829F0CB
:10029000BDFE4FF0000343EC4050064920462AF0D3
:1002A00037F829F0B3FE38BDEC51002020020510CC
:1002B00040020510780205102DE9F041FFF7CCFF50
:1002C00000F03AFB02F0B2FC074688461FE0C4B2D9
:1002D00021461D482AF002F80D2C08D00A2C06D021
:1002E000194829F095FD204600F032FF15E0164828
:1002F00029F08CFEF4E72746A846003E18BF0126E9
:10030000192346EC40306420002102F047FB002016
:1003100004F0F4FD10F1020FD9D102F087FC04467D
:100320000D4600F0C9F906460028E4D0E11B65EB54
:10033000080344F62062914273F10003DDD300F01C
:10034000D5F82746A846D8E7EC5100200000000069
:10035000002810DD08B503F065F802460B4602F0F0
:100360006BFF02460B4606A1D1E9000102F0B2FF85
:1003700003F016FA08BD4FF0FF300146704700BF8A
:100380000000000080842E41054B1A7882F00102A3
:100390001A701A78002342EC40300120704700BFE9
:1003A0006165002008B5084B1B782BB90023074A6C
:1003B000137043EC403008BD054802F0D1FB024BFE
:1003C00000221A70F2E700BF5F650020616500201F
:1003D00008360020F0B585B005460C4616461F4687
:1003E00002F094F90A9B0293019700962A4623464D
:1003F00002F080FB05B0F0BD10B582B004461C4B86
:100400001B786BB92046FFF7A3FF012871F10003A9
:100410000DDA0023174A137043EC403002B010BDD0
:10042000154802F09DFB124B00221A70EAE7124BAE
:1004300000930023114AFFF7CDFF18B10C4B0122A6
:100440001A70EBE70E490F4829F062FF29F0DEFD34
:1004500000230D490B700D490B6002214FF0010084
:1004600040EC401003490B7043EC4030D6E700BF2E
:100470005F650020616500200836002089030010B8
:10048000A0020510EC510020606500206C3E0020A9
:1004900010B5002001F096FB012001F093FB022033
:1004A00001F090FB0024012242EC444042EC442045
:1004B000022142EC441042EC402042EC401044EC5B
:1004C00040400A2002F07CFA044B1C70044B1C6074
:1004D000044B1C70044B1C7010BD00BF60650020F5
:1004E0006C3E00205F6500206165002010B5504B18
:1004F0001B78DBB2012B05D0032B37D0002B00F08B
:10050000838010BD4B4B1B68B3F5966F1ADA494BCD
:100510001A6814321A601B68B3F5966F03DD454BF9
:100520004FF496621A60424B1B78DBB2012B04D069
:100530003F4B1B78DBB2032BE3D13E4B1868FFF730
:100540005BFFDEE73B4C4FF496632360384B02229F
:100550001A703949394829F0DBFE216829F098FFE3
:10056000374929F0D5FE29F051FDDCE7314B1B68F6
:10057000002B23DD2F4B1A68323A1A601B68002BC0
:1005800018DD2C4B1B68002BCDD1294B1B78002B81
:10059000C9D0274B00221A70FFF704FF02234FF047
:1005A000010242EC40302749244829F0B1FE29F0ED
:1005B0002DFDA6E71F4B00221A60E2E71C4B1B78BB
:1005C00073B9214B1B78E3B94FF050435B6813F0CC
:1005D000040F96D102234FF0010242EC403090E725
:1005E000134B00221A70FFF7DDFE02234FF00102C9
:1005F00042EC40301549114829F08AFE29F006FDE9
:10060000DFE7FFF7CFFEDFE74FF050435B6813F003
:10061000040F04D00C4B1B78002B3FF472AF022365
:100620004FF0010242EC4030FFF7BCFE69E700BF2B
:10063000606500206C3E0020C8020510EC510020CF
:10064000DC020510E40205105F650020F4020510CD
:1006500010B5134B1B78DBB9124C1349204629F017
:1006600057FE29F0D3FC0E4B01221A700F4B642267
:100670001A6002224FF0000141EC40201868FFF799
:10068000BBFE0B49204629F043FE29F0BFFC10BDFC
:100690000849044829F03CFE29F0B8FCF7E700BF00
:1006A00060650020EC510020180305106C3E00200E
:1006B0003003051044030510014B1878704700BF44
:1006C0006065002007EE900AB6EE007A77EE877A32
:1006D000FBFE677AFDEEE77A17EE903A002B23DBFC
:1006E0002E4A12689A4221D00122002B03DD2C49A8
:1006F000097801B9012213B92949097809B9002AF1
:100700004BD010B5254A13601368002B30DD244B05
:100710001B786BB1224B1B78DBB2042B1ED11F4B15
:100720001868FFF769FE10BD0023D9E70022DCE757
:100730001C4C1D49204629F0EBFD29F067FC0223E3
:100740004FF0000242EC4030154B04221A7017495A
:10075000204629F0DDFD29F059FCE0E7104B04228A
:100760001A7013490F4829F0D3FD29F04FFCD6E742
:100770000B4B1B78002BD6D0FFF714FE02234FF053
:10078000010242EC4030064B00221A70094905482C
:1007900029F0BEFD29F03AFCC5E770476C3E002009
:1007A00060650020EC5100207403051090030510D3
:1007B000A4030510C403051008B51C4B1B78DBB25D
:1007C000022B13D0194B1B78DBB2012B0ED0174B29
:1007D0001B78DBB2042B09D0144B1B78FBB11449F6
:1007E000144829F095FD29F011FC13E01249114835
:1007F00029F08EFD29F00AFC0C4B1B78DBB2042B90
:1008000009D00A4B03221A700C490A4829F080FDCE
:1008100029F0FCFB08BD0020FFF754FFFAE7084968
:10082000044829F075FD29F0F1FBF3E7606500202D
:1008300038040510EC510020F403051008040510DD
:100840001C04051070B588B0044600268DF80060C1
:10085000364D284629F0DAFB214629F059FD284675
:1008600029F0D6FA2DE0314829F0D0FB684648F04F
:1008700057F902F0C9FD04464FF04AFC02460B4608
:100880002B4804F0B3FB204608B070BD002E2ADDD3
:10089000013E06F120036B44002203F8202C234C78
:1008A0002449204629F034FD204629F0B1FA08E019
:1008B0002E21684648F068F9E0B9204640F034F847
:1008C000E8B91E2ED2D804F041FB10F1020FF8D087
:1008D0000028F6D0C5B20D2DC5D00A2DC3D0082DE5
:1008E000D4D07F2DD2D0C4B2A4F13003092BE4D9E7
:1008F0002E2DDDD02D2DE4D1002EE2D1DDE7741CAC
:1009000006F120030DEB030606F8205C04F120033A
:100910006B44002203F8202C044E2946304629F06F
:10092000DDFC304629F074FA2646CAE7EC51002077
:10093000580405105404051010B5224C22492046D5
:1009400029F0E6FC29F062FB2049204629F0E0FC72
:1009500029F05CFB1E49204629F0DAFC29F056FB01
:100960001C49204629F0D4FC29F050FB1A492046A6
:1009700029F0CEFC29F04AFB1849204629F0C8FC92
:1009800029F044FB1649204629F0C2FC29F03EFB21
:100990001449204629F0BCFC29F038FB12492046B6
:1009A00029F0B6FC29F032FB1049204629F0B0FCB2
:1009B00029F02CFB0E49204629F0AAFC204629F0FC
:1009C00027FA10BDEC5100207404051094040510A2
:1009D000BC040510DC0405100005051020050510F9
:1009E000380505105005051074050510980505100B
:1009F000AC05051008B50C490C4829F089FC29F014
:100A000005FB00F01DFC40B10949084829F080FCB5
:100A100029F0FCFAFFF790FF08BD0649034829F0CA
:100A200077FC29F0F3FAF5E7BC050510EC5100203E
:100A3000E40505100806051008B50C490C4829F016
:100A400067FC29F0E3FA00F069FC40B10949084865
:100A500029F05EFC29F0DAFAFFF76EFF08BD0649BF
:100A6000034829F055FC29F0D1FAF5E728060510CE
:100A7000EC510020400605105C06051030B5C1B0F1
:100A80005049514829F044FC29F0C0FA00F046FCD6
:100A900028B34FF480720021684644F08FFE4B4823
:100AA00000F0E6FC0446B0F1FF3F21D078B3FF2808
:100AB0003CD8FF226946454800F08CFC041E49DC06
:100AC000002C71D14249404829F022FC3F4929F0CD
:100AD0001FFC404929F01CFC29F098FA60E03E49CF
:100AE000394829F015FC29F091FAFFF725FF59E064
:100AF0003A49354829F00CFC344929F009FC3849B9
:100B000029F006FC29F082FAFFF716FF4AE0354982
:100B10002D4829F0FDFB2D4929F0FAFB324929F037
:100B2000F7FB29F073FAFFF707FF3BE02F49264850
:100B300029F0EEFB214629F005FC2D4929F0E8FBC0
:100B40004FF4807129F0A8FC2A4929F0E1FB29F033
:100B50005DFAAEE71C4D2849284629F0D9FB21460D
:100B600029F096FC254929F0D3FB184929F0D0FB40
:100B7000234929F0CDFB29F049FA224C2146284689
:100B800029F0C6FB29F042FA6946284629F0C0FB45
:100B900029F03CFA2146284629F0BAFB29F036FA1A
:100BA000FFF7CAFE41B030BD1749074829F0B0FB36
:100BB000064929F0ADFB074929F0AAFB29F026FADE
:100BC000EEE700BF88060510EC510020E406051092
:100BD000C007051024070510AC060510F406051023
:100BE0001407051028070510300705103C070510ED
:100BF00054070510680705108407051098070510AD
:100C00000C260510A8070510D407051070B52DEDAA
:100C1000028B6C496C4829F07BFB6C4929F078FB0E
:100C20006B4929F075FB29F0F1F900F077FB0028FA
:100C30003CD0664800F046FC00283CD0654962483C
:100C400029F066FB614929F063FB634929F060FBE9
:100C500029F0DCF900F01CFD054678B35F495A48DD
:100C600029F056FB294629F017FC5D4929F050FB75
:100C700029F0CCF9284602F039FE064608B3294689
:100C800000F0CAFC044657494F4829F041FB214671
:100C900029F0FEFB29F0BAF9002C01DDAC4213D09B
:100CA000304602F037FEFFF747FE01E0FFF744FE53
:100CB000BDEC028B70BDFFF73FFEF9E7FFF73CFE8E
:100CC000F6E7FFF739FEF3E73F4D4749284629F09D
:100CD0001FFB29F09BF92146304600F08FFE0446A9
:100CE0004249284629F014FB6CB3414929F010FB16
:100CF00029F08CF900F0E0FC05463E49324829F025
:100D000007FB294629F0C8FB29F080F9304602F09C
:100D100001FED4B1CDB19FED388AB5EEC08AF1EEB7
:100D200010FA15D83548FFF78DFD08EE100AB5EE1C
:100D3000C08AF1EE10FA0BD83149234829F0E8FABD
:100D400029F064F9E9E72F49D0E7FFF7F5FDAFE7B0
:100D5000DFED2D7AC8EE277A17EE904A20464FF045
:100D6000D7F902460B46294804F040F9164D2849A8
:100D7000284629F0CDFA29F049F9204600F0D8FCA0
:100D800004462449284629F0C3FAA4B1184929F099
:100D9000BFFA29F03BF984B100F08EFC04461E49ED
:100DA000094829F0B5FA214629F076FB29F02EF9F9
:100DB000FFF7C2FD7CE71349E9E7184804F0E8F8BB
:100DC000EAE700BFFC070510EC51002014080510ED
:100DD000240805103C08051054080510600805108B
:100DE0008808051090080510B8080510D4080510EB
:100DF000EC070510F00805100000000018090510A8
:100E00003C090510F40705100000C84260090510F0
:100E100080090510A4090510F8090510C809051076
:100E20002DE9F04F2DED048B8BB04E4804F0B0F857
:100E30004D4804F0ADF800F03FFC039028B101F0FC
:100E4000F5FE0490059100253AE0484804F0A0F82A
:100E5000FFF772FD1FE01C1948EB0208B8F1000F04
:100E60001EDB01F0E3FE201A68EB0101012871F19D
:100E700000011ADB642004F041F8732801D05328E4
:100E8000EFD13B4804F084F8FFF796FC0123002BD8
:100E900060D0FFF751FD0BB0BDEC048BBDE8F08FC7
:100EA0004FF0FF346FF00048DBE78DED008B3246EA
:100EB0003B46304804F09AF85846FFF703FC0135EA
:100EC000039B9D4244D2294607A800F003FC9DEDF8
:100ED000079A19EE100A4FF01BF906460F46DDF887
:100EE00024B058464FF014F941EC180BCDE900013D
:100EF00032463B462946204804F078F801F096FE39
:100F000004468846049BB0EB0309059B61EB030A8A
:100F1000DFED1A7A69EE277A17EE900A02F090FC5C
:100F2000B0EB090361EB0A0240F2E9318B4272F146
:100F3000000190DA12498B424FF0FF3372EB03034A
:100F4000B3DA32463B4629460E4804F04FF8ACE788
:100F500000239CE70C4804F01BF80020FFF7B2FBCD
:100F600097E700BF2C0A0510480A05105C0A051017
:100F7000D00A05101C0B0510A00A051000247449A6
:100F8000F0D8FFFFE40A0510480B051000B5034632
:100F900001FB01FC0CFB01FE0EFB01F2012099425A
:100FA0000AD8634507D3734508D3934208D3B3FBEC
:100FB000F2F30430F3E701305DF804FB0230FBE7A5
:100FC0000330F9E770B5B4B005460E461446C922A1
:100FD000194901A848F0D8FB711E15E0174AA2FB79
:100FE00004325309642000FB13435B00540903F1EE
:100FF000D1026A4412F8CC2C6A544A1ED0336B4496
:1010000013F8CC3CAB540239632CE7D8092C0FD928
:10101000640004F1D1036B4413F8CC3C6B7004F111
:10102000D0030DEB030414F8CC3C2B7034B070BD2E
:1010300030342C70FAE700BF600B05101F85EB51B0
:1010400038B504460D460A212846FFF79FFF0146A2
:1010500004F1080323600022204629F021FE2A46DD
:1010600061682068FFF7AEFF204638BD00B593B039
:101070002E492F4829F04CF928F0C8FF00F04EF90E
:1010800000283AD001F0D2FD00293FD04FF47A7207
:1010900000234FF04DF801460CA8FFF7D1FF254A79
:1010A00000210CA82AF010F8014606A829F092FEAB
:1010B000214906A82AF04EF80146684629F08AFE22
:1010C00006A829F0E5FD0CA829F0E2FD019A009997
:1010D0001A4800F029F9F0B11949154829F018F912
:1010E000164929F015F928F091FFFFF725FC68460D
:1010F00029F0CEFD13B05DF804FB12490C4829F02D
:1011000007F928F083FFFFF717FCF3E70E4BA3FB6B
:1011100000308109C0E70D49054829F0F9F8074971
:1011200029F0F6F828F072FFDFE700BF2C0C05105D
:10113000EC510020500C0510680F0510E406051056
:10114000800C0510AC060510D34D6210A40C0510E0
:1011500010B5A0F10A036D2B5CD8DFE803F0395B12
:101160005B395B5B5B5B5B5B5B5B5B5B5B5B5B5BF1
:101170005B5B5B5B5B5B5B5B5B5B5B5B5B5B5B5BBF
:101180005B5B5B5B5B5B5B5B5B5B5B5B5B5B5B5BAF
:101190005B5B5B585B5B5B5B555B5B5B5B4C5B4FC3
:1011A00046585B5B5B5B493D375B5B525B5B5B5B04
:1011B0005B5B5B5B5B5B5B5B555B5B5B5B4C5B4FA0
:1011C00046585B5B5B5B493D375B5B52FFF740FA20
:1011D000184828F01DFE10BDFFF7EEFAFFF76CFA75
:1011E0000028F5D1FFF7A8FBF2E7FFF70FFDEFE7C7
:1011F000FFF716FEECE7FFF7FDFBE9E7FFF71CFC46
:10120000E6E7FFF733FFE3E7FFF738FCE0E7FFF738
:1012100093FBDDE704460849064829F079F82146A2
:1012200029F05CF8054929F073F828F0EFFEFFF784
:1012300083FBCDE7EC510020C40C0510100805100D
:1012400010B588B0284803F0A3FE284B00221A707E
:10125000EC46274C0FCCACE80F0094E80F008CE86C
:101260000F0068460AF078F901222249224809F065
:1012700059F858B9214803F08BFE1F4B1B78013BEE
:10128000032B2DD8DFE803F00820242801461C4852
:1012900003F0ACFE002015E01A4803F079FE164B6F
:1012A0005989DA6AA1FB0220A1FB022301FB00336A
:1012B000120D42EA03321B0D134803F097FE012082
:1012C0000A4B187008B010BD104803F061FEE6E745
:1012D0000F4803F05DFEE2E70E4803F059FEDEE73B
:1012E0000D4803F055FEDAE7D80C05105E650020C6
:1012F00024390510A80E05107C3E0020180D05109D
:10130000F00C0510380D0510880D0510480D05105E
:10131000580D0510680D0510780D0510014B187853
:10132000704700BF5E650020F0B5ADF5177D224B1C
:101330001E78FEB104460D4617460A22014602A851
:1013400009F01CF80246E0B901AB3A46294602A86A
:1013500009F05EFA0246D0B90199B94220D302A839
:1013600009F012FC024608BB22460199134803F01B
:101370003DFE02E0124803F00BFE30460DF5177DEE
:10138000F0BD21460F4803F031FE0026F5E7214667
:101390000D4803F02BFE02A809F0F6FB0026ECE74F
:1013A00023463A46094803F021FED8E7214608487B
:1013B00003F01CFE0026E0E75E650020840E0510A9
:1013C000A00D0510BC0D0510F00D05101C0E05102C
:1013D0004C0E051070B5ADF5167D1F4B1B78FBB19B
:1013E00004460D4616460122014602A808F0C6FF33
:1013F0000246D8B901AB3246294602A809F01CF9C9
:101400000246D0B902A809F0BFFB0246F8B922464D
:101410000199124803F0EAFD01980DF5167D70BDA3
:101420000F4803F0B5FD4FF0FF30F6E721460D48B9
:1014300003F0DCFD4FF0FF30EFE721460A4803F0F0
:10144000D5FD02A809F0A0FB4FF0FF30E5E72146EB
:10145000064803F0CBFDDAE75E650020440F051077
:10146000A00D0510AC0E0510E00E05100C0F0510B8
:1014700010B5C8B00C4B1B7843B10446694609F05F
:1014800093FB024640B9009848B010BD074803F0EE
:101490007FFD4FF0FF30F7E72146054803F0A6FD3A
:1014A0004FF0FF30F0E700BF5E650020A00D051093
:1014B0006C0F0510024B00221A605A609A60704748
:1014C000703E00202DE9F04104460146444803F0F7
:1014D0008DFDFFF723FF064650B32046FFF7C8FFF8
:1014E000051E2BDB85B305F10803B3F5803F31D82A
:1014F00005F2071727F0FF07384602F0F7F9804694
:1015000088B33A46FF2144F059F92A4608F1080108
:101510002046FFF75FFF021E01DB954229D02146DE
:10152000304803F063FD404602F0F4F9002602E083
:101530002D4803F02DFD3046BDE8F08121462B48B3
:1015400003F054FD0026F6E72146294803F04EFD3E
:101550000026F0E74FF4803308222946254803F09F
:1015600045FD0026E7E73946234803F03FFD002606
:10157000E1E7224BC8F80030C8F804504FF47C1261
:1015800039461F4803F032FDEFF3108472B6394636
:101590001C4803F02BFD39464FF47C104EF0E0FD63
:1015A0003946194803F022FD3A4641464FF47C1073
:1015B0004EF08AFD84F3108808221449404643F017
:1015C000EFFF0446404602F0A5F91CB9104803F0AD
:1015D000DFFCB0E70F4803F0DBFC0026ABE700BF01
:1015E000B00F0510B8100510CC0F0510E80F05104E
:1015F0000C1005102810051084100510EFBEEDFD2D
:10160000F0100510301105104811051000003F10B2
:10161000641105108C11051010B5164B1A68164B85
:101620009A4212D1134B5C68621E4FF6F7739A42CE
:1016300011D88C4216D82246104948F0A5F8214608
:101640000F4803F0D3FC204610BD0E4803F0A0FC69
:101650004FF0FF30F8E721460B4803F0C7FC4FF08E
:10166000FF30F1E72246094803F0C0FC4FF0FF309D
:10167000EAE700BF00003F10EFBEEDFD08003F109D
:101680006C120510B4110510E011051020120510A0
:10169000074B1A68074B9A4201D000207047044B51
:1016A00058684FF6F7739842F8D90020704700BF8A
:1016B00000003F10EFBEEDFD044A536812689B1A0C
:1016C0009B10034803FB00F0704700BF703E0020F2
:1016D000ABAAAAAA10B504460D4B5A681B68D21AC9
:1016E00092100C4800FB02F2914209D201EB410139
:1016F00003EB810393E8070084E80700204610BD50
:10170000054803F073FC002323606360A360F5E7E2
:10171000703E0020ABAAAAAA881205100368406890
:10172000984214BF00200120704700000000000014
:1017300038B52DED028B08EE100AB5EEC08AF1EE39
:1017400010FA18D94448FFF7E9FFE8B9424D6C6830
:101750002B68E41AA410414B03FB04F418EE100AA2
:101760004EF0D6FC02460B4621463D4803F03EFCB7
:101770002B686D6840E04EF0CBFC02460B463948C2
:1017800003F034FC002060E0374803F001FC002047
:101790005BE017EE100A4EF0BBFC01F0E9FD01F032
:1017A00033FE07EE900A01E0DFED307AF5EEC07A05
:1017B000F1EE10FA3FDD9FED2E7A67EE877A17EE95
:1017C000900A4EF0A5FC22A3D3E9002301F082FD8C
:1017D00001F01AFE07EE100AB5EEC07AF1EE10FA2B
:1017E0002CDDDFED246AC7EE267A01E0DFED1F7AFB
:1017F000C4ED027A04F10C031C469D4221D0D3EDC6
:10180000017AF0EEE77A9FED1C7A67EE877AB5EE03
:10181000C08AF1EE10FAC7DDF5EEC07AF1EE10FAEB
:10182000E4DD87EE887AB5EEC07AF1EE10FAB0DC2E
:10183000DFED0E7ADCE7DFED0D7AD9E7DFED0B7A2D
:10184000D6E70E4803F0A4FB0120BDEC028B38BDA7
:10185000182D4454FB211940703E0020ABAAAAAABF
:1018600038130510CC1205100413051000000000F9
:10187000000070429A99993E0AE81C4188130510AD
:1018800040680C38704708B5084602EB42029100E8
:1018900002F054F808BD03684268934200D04360E8
:1018A0007047000030B585B08446019144680368F4
:1018B000E31A9B10114803FB00F0114D2D1A8D42C5
:1018C00013D30390814213D803AA12681044DCF8A2
:1018D0000030E41AA410094B03FB04F4A04209D31E
:1018E000074B984208D805B030BD10461EF0E2F90B
:1018F00001AAEAE70248F6E70148F4E7ABAAAAAA78
:10190000AAAAAA0A08B5084B994205D801EB4101D9
:10191000880002F003F808BD044B994201D91EF07B
:1019200091F91EF07FF900BFAAAAAA0A55555515CC
:101930002DE9F84F05468A469346234A0121FFF7D1
:10194000B1FFD5F80090D5F80480AAEB090407464A
:1019500058B3002201462846FFF7D4FF0646331944
:101960009BE8070083E80700002C20DC0C3434449B
:10197000A8EB0A08B8F1000F1FDC4444AA68A2EBE8
:1019800009029210114B03FB02F2B9F1000F03D0D0
:1019900049462846FFF777FF2E606C6007EB470744
:1019A00006EB8706AE60BDE8F88F0026D7E7224633
:1019B0004946304643F082FED8E74246514620462B
:1019C00043F07CFED9E700BFA4130510ABAAAAAA76
:1019D00010B5044643688268934209D007C983E87A
:1019E000070063680C3363602046FFF749FF10BDB2
:1019F0000A461946FFF79CFFF6E7000070B586B06F
:101A000005460C46434803F0F1FA4348FFF743FF0D
:101A1000601C01F06BFF68B106462246294647F07C
:101A2000B3FE0025355502AA3C4930463FF074FA12
:101A300004462AE03A4803F0ABFA00254AE002AA3D
:101A4000364900203FF068FA04461EE0354920463A
:101A50003FF014FC68BB344920463FF00FFC844241
:101A60003BD000230093019301AB6A462F492046E7
:101A70003FF0D2F802283BD02378002B45D102AAB0
:101A8000264900203FF048FA0446ACB1002DDDD1D4
:101A9000274920463FF0F2FB0028D0D0254803F02C
:101AA00077FA02AA1D4900203FF036FA04460125C4
:101AB000EBE7214803F06CFA304601F02BFF164AA1
:101AC000536812689B1A9B101C4903FB01F11C48C8
:101AD00003F08CFA284606B070BD2146194803F081
:101AE00085FA02AA0D4900203FF016FA0446CCE719
:101AF0000023039304930593009B0393019B04939A
:101B000003A90548FFF764FFB9E721460E4803F033
:101B10006DFAB4E7C0130510703E002014140510D0
:101B2000E413051044140510781405109C140510D6
:101B3000181405102C14051054140510ABAAAAAAE9
:101B4000CC14051080140510A414051008B5FFF777
:101B5000B1FC08BD0C4B03EB800253F8203083F03E
:101B6000400303F0C00302F5805CCCF80030C000F5
:101B700000F1804000F52030416002F540524FF402
:101B800080731360704700BF0480034010B40C4C96
:101B900004EB800C79B108237AB10422134354F882
:101BA0002020534003F00C030CF5805CCCF800308F
:101BB0005DF8044B70470023EEE70022EEE700BF1C
:101BC0000480034008B54FF0000242EC440042ECB0
:101BD00040000521FFF7BEFF08BD00000FB400B5AF
:101BE00083B0049C074803F0D3F93CB105A90191E7
:101BF000204603F0DDF9044803F0CAF9012002F0A1
:101C0000C1FF00BFF8140510680F0510EFF3108036
:101C100072B6064BD3E8CF1F01220029FAD1C3E8E0
:101C2000412F0029F6D1BFF35F8F7047A3590020E1
:101C30000023034AC2E88F3F80F31088704700BF3B
:101C4000A359002070B505460C461646FFF7DEFF87
:101C5000E208A95C04F0070C012303FA0CF3194213
:101C600005D1DBB20B43AB54FFF7E2FF70BD214659
:101C70003046FFF7B3FFF8B506460D4614461F463B
:101C8000FFF7C4FF00E00134BC420ED84FEAD40C89
:101C900016F80C1004F0070301229A401142F2D109
:101CA000D2B20A4306F80C2001E04FF0FF34FFF7F0
:101CB000BFFF002C01DB2046F8BD002DFBD00698AD
:101CC000FFF78CFF054A1078431CDBB21370172B0B
:101CD00002D9134610221A70704700BFDC2400207E
:101CE00000B583B00146054B00931F23182204481A
:101CF000FFF7C1FF03B05DF804FB00BF0815051036
:101D0000B85E00204FF0E022936843F000539360E8
:101D100070470000002305E0044A1A440021C2E88D
:101D20008F1F01331F2BF7D9704700BF9859002030
:101D3000064B9B68103043F82010BFF35F8F0023E1
:101D40000349C1E88F3F82F31088704700ED00E03F
:101D5000A15900200048704700E400E008B5FFF7F3
:101D6000F9FF002304E04FF0803240F8042B0133E8
:101D70000C2BF8D908BD000008B50388DA0A1C2A24
:101D800006D15B050BD45B15023300EB430008BDA5
:101D9000064B074A40F21511064802F047FF03F5CB
:101DA000FF1303F5FF531F33EDE700BF24150510A4
:101DB0006C3905103C15051008B5091A01F2FC72C2
:101DC00040F6FE739A4208D8081F11F0010F04D1A3
:101DD000C0F34A0040F4604008BD034B034A40F2A0
:101DE0000711034802F022FF801505106039051025
:101DF0003C1505104209064B53F8222000F01F0045
:101E0000012383401A4214BF01200020704700BF05
:101E100000E100E03AB1064B00F1600243F8221005
:101E200043F8201070472030014B43F820107047D2
:101E300000E100E008B50A4600F01F0301219940C7
:101E40004009FFF7E7FF08BD00F01F02400901232A
:101E500093404030014A42F82030704700E100E0F2
:101E6000024B9B68103053F82000704700ED00E0F3
:101E700008B5FFF7F5FF034BC01A2F288CBF0020D1
:101E8000012008BDE024002070B505460C46EFF3A4
:101E9000108672B60F4BD3E8CF1F01220029FAD16A
:101EA000C3E8412F0029F6D1BFF35F8FFFF7D8FFBA
:101EB000094B984201D0A04205D13246214628461E
:101EC000FFF736FF70BD054B054AE721054802F0D4
:101ED000ADFE00BFA15900201D010010B015051076
:101EE000943905103C1505102DE9F04F87B000918D
:101EF0001546EFF3108A72B67C4BD3E8CF1F012250
:101F00000029FAD1C3E8412F0029F6D1BFF35F8F32
:101F1000774B93F90040002C44DB804604EB4407E8
:101F2000744B03EB870797F90610714A1170724AD8
:101F3000926800F1100152F82190A9EB03022F2AB8
:101F40003ED96E4B994534D14FF42143ADF80C3056
:101F50004FEA440904EB4400664E06EB80006849F2
:101F60000230FFF729FFADF80E004BF60153ADF834
:101F70001030FF238DF812308DF81350009B05931D
:101F8000A14406EB890306AA12E9070083E80700CB
:101F900047F00109524649464046FFF7C9FE07B0DF
:101FA000BDE8F08F574B584A40F27311574802F082
:101FB0003DFE574B544A4FF4BD71544802F036FE73
:101FC00029F0010BABEB0303524AA2FB0312D20828
:101FD00002EB4202B3EB820F0FD15B460026DA79A7
:101FE000AA4212D993F90620002A0DDB02EB420225
:101FF0001E46404B03EB8203F1E7474B424A40F257
:102000008B11424802F012FE1E46A6B344F60103AD
:10201000ADF80C304FF48F43ADF80E3096F906B0A2
:10202000BBF1000F1ADA4BF60150ADF810008DF835
:1020300012B08DF81350009B05933946301DFFF701
:10204000BBFEB080B47104EB44042A4B03EB840361
:1020500006AA12E9070083E807009BE7301DFFF797
:102060008BFE014604EB4402224B03EB8203181D56
:10207000FFF7A2FED9E74FF42143ADF80C3063001F
:10208000019304EB4406DFF86C9009EB86061C49CB
:10209000B01CFFF791FEADF80E005946301DFFF75A
:1020A0008BFEADF810004AF6AA235A464946521A4A
:1020B000524153431B0D8DF812308DF81350009A86
:1020C0000592019B234409EB830906AB13E9070042
:1020D00089E8070044F60103ABF800304FF48F4362
:1020E000ABF8023047F0010954E700BFA1590020C6
:1020F00067650020E024002000ED00E01D010010D5
:1021000010250020E81505107C3905103C15051038
:1021100010160510ABAAAAAA3816051038B540F05B
:102120000104324BE31A2F2B31D8EFF30581C9B2EA
:10213000002933D0EFF3108E72B62D4BD3E8CF5F6A
:102140000122002DFAD1C3E8452F002DF6D1BFF3AF
:102150005F8F4AF6AA230246244D521B5241534335
:102160001B0D4FFA83FC234B9B6853F82130A3428D
:102170001BD00023032B32D803EB43011B4A02EB95
:10218000810292F90620624520D00133F2E71A4B12
:102190001A4A4FF41D711A4802F048FD194B174AAC
:1021A00040F27721164802F041FD124B9B68164A17
:1021B00043F82120154B1A78827183F800C0002360
:1021C0000B4AC2E88F3F8EF3108838BD074A02EBF6
:1021D0008101FF248C714BF601538B80EAE70C4B95
:1021E000064A4FF42271064802F020FDE024002048
:1021F000A159002000ED00E0BC160510443905107F
:102200003C150510E41605101D010010676500203F
:10221000F016051000B583B00146074B0093052367
:1022200000220648FFF727FD002801DBC0F133003C
:1022300003B05DF804FB00BFF81605106B650020C5
:10224000014B0B44036070479859002010B50446B9
:10225000FFF738FD01462046FFF7F2FFFF23237109
:10226000BFF35F8F10BD10B50446FFF72BFD01468D
:102270002046FFF7E5FFFF23237100236371BFF3BF
:102280005F8F10BD10B50D4C09E00D4B0D4A1A21A2
:102290000D4802F0CBFC2046FFF7D8FF08340B4B6B
:1022A0009C4209D22368002BF5D0012BEDD12046AA
:1022B000FFF7D9FF0834F2E710BD00BFFC3500205E
:1022C00014170510D43905103417051004360020F2
:1022D000024B0B440360BFF35F8F70479859002097
:1022E00010B504460120FFF7FBFC01462046FFF72E
:1022F000EFFF10BD0246EFF30583DBB2103B9908F8
:1023000004D0034803F00303136070470148F9E762
:1023100000800B4000000B4010B4846AA2EB040C58
:102320000B1D50F823301B1B9C4504D3046A01236A
:102330008B401C4202D1043140F821205DF8044B4F
:10234000704741EA004070470D4B1A68EFF3108167
:1023500072B6D2E8CFCF0120BCF1000FF9D1C2E8AC
:102360004C0FBCF1000FF4D1BFF35F8F1A6800234C
:10237000C2E88F3F81F3108840BF002000217047E2
:102380003C6500202DE9F04F85B003A8FFF7B2FFB0
:10239000A94B984214BF00230123039901EB830347
:1023A000A64A52F823402378994206D105460122D5
:1023B0008A4000F541535A6014E1A14BA14A922191
:1023C000A14802F033FCD4F8149006EB46074FEA1C
:1023D000C70A09EBC707D7F808B0D7F80C8028461A
:1023E00000F0FAFBB0EB0B0061EB0803002BC0F22E
:1023F0000281B8F1000F60DB3B691A460093934BF2
:102400009A4230D0798889B2B4F90800FFF799FF71
:102410007969009B9847009001910099019A51EACF
:1024200002034AD01346002A29DABBEB010268EB0B
:102430000308BA60C7F80C8039F90A30002BC0F2E3
:10244000DA80D4F814E003EB43010EEBC101886895
:10245000C968101A68EB01010029C0F2CC80A446BB
:102460002CF8083F15E07A691369009210469847E6
:1024700018B3009A1368009353680193CDE7284678
:1024800000F0AAFB009B1A18019B43EB0108D0E760
:102490009C46BCF90070002F0ADB07EB47030EEBEC
:1024A000C3039868D968101A68EB01010029EFDAB4
:1024B00029F80A70ACF800609DE039F90A302381F0
:1024C0002369EFF3108272B6D3E8CF0F0121002801
:1024D000FAD1C3E8401F0028F6D1BFF35F8FB4F9EB
:1024E000023029F80A30668021690023C1E88F3F55
:1024F00082F310887FE02369EFF3108272B6D3E88D
:10250000CF0F01210028FAD1C3E8401F0028F6D1DF
:10251000BFF35F8FB4F804800FFA88F84FF6FF73AB
:10252000A38021690023C1E88F3F82F3108815E062
:102530001E46B6F90020002A0ADB02EB42030CEB30
:10254000C3039868D968381A6EEB01010029EFDAE5
:10255000A6F800803CF909802CF80920B8F1000F9A
:102560004EDBD4F814C008EB48034FEAC3090CEB68
:10257000C3039F68D3F80CE004F10806D9E70023F1
:10258000A37104F1080CB4F9083010E04FF0FF38E3
:102590004FF0FF39C0E90289B4F90800984205D02C
:1025A000ACF80020B4F90800C85323811346B3F1F6
:1025B000FF3F28D0616903EB4302D70001EBC20063
:1025C00031F93220468816F4004FDFD18446EDE71A
:1025D000284600F001FB3F1A66EB0106012F76F159
:1025E000000635DA039A01239340EB63B4F90860DF
:1025F000002EBFF6E8AEA38813F4004F3FF47BAF84
:10260000A379002BBBD1B4F90830002B20DB626921
:1026100003EB430302EBC3039F68DE68B6F1FF3FA1
:1026200008BFB7F1FF3FD3D03A4633460399284657
:10263000FFF772FECCE700BF00800B403064002043
:10264000C8170510003A0510F4170510852300106F
:1026500040BF05B0BDE8F08FF8B504460D46114601
:102660000A4B984210D000262E44012707FA05F5A0
:1026700025623046FFF708FC39463046FFF7DAFBA3
:1026800004F501542560F8BD0426EDE700800B40F9
:10269000F8B504460E4617461D46C160FFF712FB0B
:1026A000164B034423612770ABB263814FF0504255
:1026B000127862704FF6FF722281A280013B638024
:1026C0004FF0000C08E00CF1FF300CEB4C0E63698E
:1026D00023F83E000CF1010CAC45F4D3084B9E42AC
:1026E00014BF0023012307EB8303064A42F823406B
:1026F000054A39463046FFF7AFFFF8BD985900202C
:1027000000800B40306400208523001008B5054B85
:102710001B690BB1034808BD034B044A65210448FB
:1027200002F084FA2825002030180510E839051039
:10273000F4170510F8B504469E460069EFF31081C2
:1027400072B6D0E8CF6F0125002EFAD1C0E8465FFF
:10275000002EF6D1BFF35F8FB4F90250666905EB26
:102760004500C70006EBC000002D03DB36F907C0AB
:10277000A4F802C04FF0000C2369C3E88FCF81F3A7
:102780001088654533DB06990161079941618260D4
:10279000C0F80CE0418889B20131C1F30E0101B9E2
:1027A000012141802846FFF7CCFD2369EFF3108219
:1027B00072B6D3E8CFCF0121BCF1000FF9D1C3E845
:1027C0004C1FBCF1000FF4D1BFF35F8FA388F3530C
:1027D000A58021690023C1E88F3F82F31088E36858
:1027E000217801228A4003F501535A60F8BD4FF069
:1027F000FF30FBE770B582B0064615461C469DF8D3
:10280000203033B900F012FA854264EB010100294F
:102810000ADB079B0193069B00932A46234630461A
:10282000FFF788FF02B070BD0020FBE7F0B585B070
:1028300005460C4616461F46FFF768FF9DF82830F0
:102840000293019700962A462346FFF7D3FF05B06F
:10285000F0BD03464089B0EB214F31DD10B50A14BD
:10286000586902EB420200EBC2001A69EFF3108CC8
:1028700072B6D2E8CF4F5FF0010E002CF9D1C2E85A
:1028800044EF002CF5D1BFF35F8F428892B289B23A
:102890008A420FD0002019690022C1E88F2F8CF3E3
:1028A000108830B1DA681B780121994002F5015394
:1028B000596010BD42F40042428001209871EAE75D
:1028C0000020704710B50446FFF720FF2146FFF7B0
:1028D000C0FF10BD40787047F0B583B0EFF30583BB
:1028E000DBB2CBB905460F46861F41F1FF34B0423B
:1028F00071EB040301D20026344600F097F9301A38
:1029000064EB0103012873F1000308DA2846394615
:1029100000F09EF903B0F0BD1C48FFF75FF90023FB
:1029200000931B4A30462146FFF780FF00281EDA3D
:10293000ECE7002300E00023002BE7D1154B1A68D9
:10294000EFF3108172B6D2E8CFCF0120BCF1000FB7
:10295000F9D1C2E84C0FBCF1000FF4D1BFF35F8F87
:102960001A680023C2E88F3F81F3108820BF0A4B0A
:102970005B6A9C42DFD80849896AB14203D29C4213
:10298000D7D00123D8E70123D6E700BF541805109C
:10299000492300103C65002000000B4038B5044678
:1029A0000D4600F043F9201845EB0101002902DB38
:1029B000FFF792FF38BD4FF0FF306FF00041F7E7AF
:1029C00008B5C30E4101091A63F100039B0043EAF5
:1029D00091738900091843F10003DB00C80043EA42
:1029E0005171FFF7DBFF08BDF0B583B005460C461B
:1029F000EFF30583DBB293B13C4B5B6A8B4209D3A7
:102A00003A4A926A824208D28B4201D0012002E007
:102A1000002000E0002003B0F0BD0120FBE7FFF73D
:102A200075FEC7680678384600F0D6F82A1A64EBB7
:102A30000101043657F826301B1A9A4271F1000141
:102A400012DB20BF294B5B6A9C4209D8274A926A55
:102A5000AA4207D29C4201D00120DCE70020DAE73D
:102A60000020D8E70120D6E700230093204A28461B
:102A70002146FFF7DBFE00280BDD1C4B5B6A9C4206
:102A80001BD81A4A926AAA4228D29C4213D0012328
:102A900014E0164B5B6A9C4209D8144A926AAA4217
:102AA00007D29C4201D00120B5E70020B3E7002007
:102AB000B1E70120AFE7002300E0002303B920BF06
:102AC000FFF700FF094B5B6A9C420BD8074A926AEA
:102AD000AA4209D29C4203D001209CE70123EDE7E2
:102AE000002098E7002096E7012094E700000B40C3
:102AF00049230010F0B585B0064614460C9D54EAF3
:102B0000030201D101240023AE600A9A2A612C60DD
:102B10006B600B9A6A611F46002B15DB00F086F88C
:102B2000221847EB0103002B12DB012102910195D2
:102B30000A4900913046FFF75DFEE8600028D4BFE7
:102B40000020012005B0F0BD644263EB4307E5E7D8
:102B50004FF0FF326FF00043E7E700BF852300101E
:102B6000C16809B90020704710B504468068FFF7B6
:102B700070FE0023E36010BD0048704700000B406A
:102B800010B50A4B1B6923B10A210948FFF758FB0E
:102B900010BDFFF7F1FF0446032100F00BF81023EE
:102BA000032221460148FFF773FDEDE728250020A9
:102BB0003C65002010B5054A054C064BA04214BFE9
:102BC0001846581CFFF73EF810BD00BFA4180510AA
:102BD00000800B40BC5E00200246436A906A1946A2
:102BE000536A9942FAD17047416A00E0416A9942BA
:102BF000FCD300E0416A994202D1816A9142F9D343
:102C0000704770B5064614461D46FFF7E5FF0219EA
:102C100041EB0503824273EB010102D24FF0FF3218
:102C200013463046FFF7E0FF70BD000008B50248CC
:102C3000FFF7D2FF08BD00BF00000B4008B50246F9
:102C40000B460248FFF7DDFF08BD00BF00000B4048
:102C500008B502460B460248FFF7C6FF08BD00BF95
:102C600000000B4070B51646049D00EB400C4FEA87
:102C70008C0C0CF1804C0CF5803CDCF80420AA4252
:102C800001D2CCF80450A0F1040E5FFA8EFEBEF122
:102C9000010F28D90CF540524FF4006414601E4A0D
:102CA00052F8202042B11C4C6469B4FBF2F40134A8
:102CB00004EB4404033CFDD2DCF8002082EA461217
:102CC00002F0E0020CF580542260BEF1010F16D92B
:102CD0000CF500524FF400611160CCF804500E4A1C
:102CE00042F8203070BD0129D4D10CF540520324A4
:102CF0001460DCF8082012F0010FFAD0DCE7DCF8F1
:102D000000204A4002F003022260DCF80840012261
:102D10008A401442F9D0DBE7C05E002010B582B0D3
:102D20004FF480340094FFF79DFF02B010BD000007
:102D3000014B53F820007047C05E002070B5049C22
:102D4000344DB5FBF1FC344D1544344EB54237D803
:102D5000B2FBFCF5A5F1100EBEF5987F36D803F155
:102D6000FF3EBEF1060F37D804F1FF3EBEF1060F5D
:102D700032D8BCEB121F35D8240344EA034403685D
:102D8000002B35DB264B984242D00E2301229A407D
:102D9000244B1A6003F580531A60234B9B6832EA78
:102DA0000303FAD10160856000F54052043221230B
:102DB00013600368002BFCDAC4600823136070BD45
:102DC0001A4B1B4A11211B4801F030FF1A4B184ABD
:102DD0001921184801F02AFF184B154A1C211548E3
:102DE00001F024FF164B124A2321124801F01EFF66
:102DF000036803F03F038B42C4D18368C3F30B0322
:102E0000AB42BFD1C36803F4EE23A342BAD1D6E7E5
:102E10000F23BBE7001BB70080E84BD380F8A93233
:102E2000008005400020024000000240C818051044
:102E3000203A0510181905105C19051078190510AD
:102E4000C4190510024B1A68024B5A60704700BF44
:102E50002863002000800D4008B5164B4FF08042DB
:102E60001A60A3F54123144A9A6051B103F5402337
:102E70004FF0E0621A6048B9104B4FF000421A6000
:102E800008BD0C4B4FF0E0621A60F4E74FF47A7320
:102E900003FB00F00A4B1860B0F1807F02D36FF0A3
:102EA0007F421A60FFF7CEFF044B4FF080421A605A
:102EB000E6E700BF00B00D40F3FFFF0100A00D40AA
:102EC0002863002010B50C4B4FF080441C6070B19B
:102ED00040F0010309480A4CC4610A4C5C4004629A
:102EE0004162836200211046FFF7B6FF10BD034B1D
:102EF0000021D961F6E700BF00B00D4000800D4011
:102F0000D3C007B02D3FF84F054A00EB400302EB5A
:102F10008303596000EB4000800001231350704789
:102F2000008010402DE9F04105460E4617469846B0
:102F30000023DB8A002242E800F212F4800F0BD15A
:102F4000102144F252209847044643463A463146FF
:102F50002846A047BDE8F081042144F2522098475A
:102F60000446F2E708B50023DB8A002242E800F2BB
:102F700012F4800F02D11021984708BD0421984710
:102F8000FBE708B5031E06DB41F0200012B141F05B
:102F9000300100E001460A460A214FF48170FFF734
:102FA000C1FF0000034BD3F82838002BFAD0BFF341
:102FB0005F8F704700000E40002207E0054B13446E
:102FC0009B00BFF35F8F002119600132072AF5D9FA
:102FD000704700BF0382031008B5FFF7EDFF08BD7F
:102FE000074B4FF42A621A604FF48D72DA6003F5D2
:102FF0000053044A1A60024B5B68002BFBDA7047EF
:103000000080044000B0FA0010B5044602E054F815
:10301000043B9847014B9C42F9D310BDF0010510C9
:103020007047000008B50248FFF7EEFF08BD00BF7B
:10303000B0010510064B074A1A6003F58053064A93
:103040001A60064B9A68044B9343FAD1704700BF4D
:10305000002002407F3BEFEFF6FFF3030000024049
:10306000054BDB6CB3F5004F00D07047034B4FF4BA
:103070008022DA64F9E700BF0000115000201150EF
:103080004FF0E022D2F8881D034B0B43C2F8883D75
:1030900010EE3004704700BF03033000054B6FF0A3
:1030A00060421A60044B9B68DB4333F06043F9D104
:1030B000704700BF003002400000024008B545F2F2
:1030C0005320FFF74FFF03460420984708BD08B57B
:1030D00045F25320FFF746FF03460120984708BDFD
:1030E00008B5FEF717FE08BD38B5054CA168054DBB
:1030F0004FF48872284646F047FBA56038BD00BFF4
:1031000000ED00E00000002038B50420FFF710FEBD
:10311000064BA3FB0035AD0C002404E02946E0B2C9
:10312000FFF7F2FE0134052CF8DD38BD83DE1B43CA
:1031300030B583B0264B0022C3F88420FFF750FF40
:10314000244B0122DA63224B5B6C012BFBD1214B18
:1031500003221A631E4B9B6B012BFBD102240094AC
:1031600005231D4A01211D48FFF7E8FD05250095AF
:103170002B461B4A01211B48FFF7E0FD1A4B00229A
:1031800021460420FFF7CAFD184C234600220121E6
:103190002846FFF7C3FD164D2B4600221146082096
:1031A000FFF7BCFD2B46002211460920FFF7B6FDB4
:1031B0002346002211460620FFF7B0FD23460022D9
:1031C00011460720FFF7AAFDFFF79EFF03B030BDB1
:1031D0000000014000300140002F68590000054008
:1031E000008C864700800540001BB70080D1F008A6
:1031F000006CDC0286B003B451FC0804CDE9020186
:1032000051FC0904CDE9040151EC0A04CDE90601A1
:1032100003BCF047BDE800504EEC00C4BDE80050D0
:103220004EEC01C4BDE800504EEC02C400BD0000ED
:1032300000B5FFF7DFFF02E010FE30F4F8D441ECF8
:10324000100443EC112400EE010410EE010480EEA2
:10325000200451EC1004704700B5FFF7CBFF02E0EB
:1032600010FE30F4F8D441EC100443EC112400EECD
:10327000010410EE210480EE200451EC300470476C
:1032800000B5FFF7B7FF02E010FE30F4F8D410B538
:1032900041EC100443EC112451EC040453EC0524DC
:1032A000A0FB024C5FF0000EE0FB03CEE1FB02CE80
:1032B0004CEC20440024E1FB03E444EC30E480EED9
:1032C000200451EC5004BDE81040704700B5FFF7F2
:1032D00091FF02E010FE30F4F8D441EC100443EC0E
:1032E000112451EC2104A0FB01126FEA820252FB6F
:1032F000100052FB12F252FB1000A0EBD07C53ECFA
:1033000004245CFB13F153EC1524A1FB022001FB08
:10331000030053EC4424A2EB000050FB1CF24FEAE4
:10332000111312EB017043EBE27140EA515020EAB5
:10333000915020F0070053EC7524A0FB023C53ECA5
:10334000752400FB03CC01FB02CC53EC0424ACEB52
:10335000824C40EA5C70A0F1010041EC400480EE38
:10336000200451EC7004704700B5FFF743FF02E002
:1033700010FE30F4F8D441EC100420EE010453ECBC
:103380004124A2FB0201A1FB03014FEAC101A1F10B
:10339000004162FB1122A2FB0201A1FB0301000F0D
:1033A00040EB011151FB12F0A2EB6002A2FB030102
:1033B0004FEA5101A1FB01305CEC6404A0EB030374
:1033C00053FB12F301EB23714FEA031323F0FF03C6
:1033D00043F08003A3FB03C201FB01FCE1FB032CD0
:1033E000E1FB032CACEB000C43EA1C63A3F10B03E1
:1033F00041EC503480EE200451EC9004704700BF43
:1034000000B5FFF7F7FE02E010FE30F4F8D441EC0F
:10341000100480EE220410EEB204704700B5FFF7EE
:10342000E9FE02E010FE30F4F8D440EC700400EE47
:10343000010410EE210480EE200451EC30047047AA
:1034400000B5FFF7D7FE02E010FE30F4F8D440ECF0
:10345000600400EE010410EE210480EE200451EC23
:103460003004704700B5FFF7C5FE02E010FE30F4EF
:10347000F8D441EC800400EE010410EE010480EE6B
:10348000400410EE1304704700B5FFF7B3FE02E0EE
:1034900010FE30F4F8D441EC800400EE010410EE8C
:1034A000010480EE400410EE3304704700B5FFF7CE
:1034B000A1FE02E010FE30F4F8D441EC100443EC1D
:1034C000112400EE010410EE3004C0F300707047C8
:1034D00000B5FFF78FFE02E010FE30F4F8D441ECA7
:1034E000100443EC112400EE010410EE3004C0F38C
:1034F0008070704700B5FFF77DFE02E010FE30F4EB
:10350000F8D443EC102441EC110400EE010410EE59
:1035100030F48CBF01200020704700BF00B5FFF7DA
:1035200069FE02E010FE30F4F8D443EC102441ECC4
:10353000110400EE010410EE30F42CBF0120002035
:10354000704700BF00B5FFF755FE02E010FE30F4F3
:10355000F8D441EC100443EC112400EE010410EE09
:1035600030F42CBF01200020704700BF00B5FFF7EA
:1035700041FE02E010FE30F4F8D441EC100443ECBC
:10358000112400EE010410EE30F48CBF0120002065
:10359000704700BF0022002950DA404261EB410130
:1035A000C9B1B1FA81F30B3B17D4D3F1200C30FA37
:1035B0000CFC9840994051EA0C011A44524202F224
:1035C000324201EB025141F0004140F2FE739A4257
:1035D00038BF704721E011467EE003F1210310FA65
:1035E00003FCA3F1010301FA03FCC3F1200320FA59
:1035F00003F021FA03F140EA0C00A3EB020202F20D
:10360000324214D050F1000041EB025141F0004130
:1036100040F2FE739A4238BF70474FF00001A8BFD6
:10362000C7F6F0714FF00000704700217047EBD3F0
:1036300050F1000020F00100E6E70022B9B1B1FA34
:1036400081F30B3B16D4D3F1200C30FA0CFC9840DC
:10365000994051EA0C011A44524202F2324201EB03
:10366000025140F2FE739A4238BF704720E0114683
:1036700000F066B803F1210310FA03FCA3F1010383
:1036800001FA03FCC3F1200320FA03F021FA03F14D
:1036900040EA0C00A3EB020202F2324212D050F1D7
:1036A000000041EB025140F2FE739A4238BF70476E
:1036B0004FF00001A8BFC7F6F0714FF0000070474F
:1036C00000217047EDD350F1000020F00100E8E741
:1036D000002880F235804042B0FA80F30B3B11D4D1
:1036E000984001EB0302524202F2124200EB0251F7
:1036F00041F000414FF0000040F2FE739A4238BFA3
:10370000704713E0C3F1000330FA03FCC3F1200259
:103710009040A3EB010202F212420CEB025141F085
:10372000004140F2FE739A4238BF70474FF00041AB
:10373000A8BFCFF6F0714FF000007047002170472E
:1037400060B3B0FA80F30B3B0FD4984001EB030257
:10375000524202F2124200EB02514FF0000040F2DE
:10376000FE739A4238BF704710E05B4230FA03FCA8
:10377000C3F120029040A3EB010202F212420CEBD3
:10378000025140F2FE739A4238BF70474FF0000179
:10379000A8BFC7F6F0714FF00000704700217047D6
:1037A0000022A2F232425FEA215CACF10103A1EBFC
:1037B00003515B0513F5800F32D212EB535210D434
:1037C0000B2A36DA9140D2F1200330FA03F3194381
:1037D0009040BCF1000FA8BF7047404261EB41012F
:1037E000704720320EDD01FA02F3D2F12002D140FF
:1037F000D0401843BCF1000FA8BF7047404261EBB6
:1038000041017047524282F3050231FA02F0002171
:10381000BCF1000FA8BF7047404261EB4101704707
:1038200002D000200021704750EA013118BF4FF04C
:10383000000C6FF0004101EBDC716FEAEC70704737
:1038400000219539C215A2F10103A0EBC350DBB2F0
:10385000FE2B22D2C9182ED4B1F1200314DAB1F113
:1038600008030CDD0002D3F1200130FA01F1984089
:10387000002AA8BF7047404271EB41017047884061
:10388000D1174840401A7047082B0ADA984080EA5E
:10389000E27101EBD2710020704709D8410218BFD4
:1038A00000226FF0004101EBD2716FEAE2707047C5
:1038B000002000217047494281F30501C84090EA89
:1038C000E27010EBD270C1177047000008B528B144
:1038D00003460B44034A934200D808BD0248FEF752
:1038E0007DF900BF00000820E019051038B5054635
:1038F00041F094FB04462946FFF7E8FF204638BD17
:1039000038B50D4645F0E2F904462946FFF7DEFFDB
:10391000204638BD08B541F089FB08BD08B5FFF762
:10392000E5FF08BD08B5FFF7E1FF08BD08B5FFF7E3
:10393000F1FF08BD08B5FFF7EDFF08BD08B5FFF7BB
:10394000E9FF08BD9A4200D288547047704720B101
:1039500008B50A684968904708BD704701460020CD
:1039600008E000EB8000531C0B60137803EB40036E
:10397000A3F130000A681378303BDBB2092BF0D991
:1039800070472DE9F04F83B005460E4693461F461B
:10399000DDF830A00D9CDDF838900F9B13F0030F7D
:1039A00019D1A0460192C84509D202F1010B3B464C
:1039B00031462020A84708F101085A46F3E7DDF810
:1039C00004B008E0013C02F101083B4631461AF818
:1039D0000400A8474246002CF4D10F9B13F0020FBD
:1039E00003D1104603B0BDE8F08FA2EB0B034B45AB
:1039F000F7D2541C3B4631462020A8472246F4E724
:103A00002DE9F04385B099460C9D0D9C9DF83880BA
:103A1000DDF840E0119F129E16F0020F21D17FB118
:103A200016F0010F0CD0B8F1000F02D116F00C0FF8
:103A300006D0013F04E04FF0300C05F804C001341B
:103A4000744501D21F2CF6D916F0010F09D0BC42E3
:103A500007D21F2C05D84FF0300C05F804C00134F4
:103A6000F2E716F0100F14D016F4806F04D11CB1D9
:103A7000744522D0BC4220D00F9B102B36D00F9B18
:103A8000022B3ED01F2C0ED84FF0300C05F804C08E
:103A900001341F2C07D8B8F1000F3AD04FF02D0C8D
:103AA00005F804C0013403960297019400954B4633
:103AB000FFF767FF05B0BDE8F083B4F1010C13D048
:103AC0000F9B102B0ED064460F9B102BD7D116F0F6
:103AD000200FD4D01F2CD2D84FF0580C05F804C0BA
:103AE0000134CFE7023CC7E76446C5E716F0200F74
:103AF000EAD11F2CE8D84FF0780C05F804C0013447
:103B0000C0E71F2CCFD84FF0620C05F804C0013479
:103B1000B8E716F0040F05D04FF02B0C05F804C0E1
:103B20000134C0E716F0080FBDD04FF0200C05F8A7
:103B300004C00134B7E7F0B591B0169C189D1B9EE8
:103B40000CB926F0100616F4806E16D064B34FF050
:103B5000000E12E00CF1300C5FFA8CFC0EF1010744
:103B60000EF1400EEE440EF820CCB4FBF5FCAC4256
:103B70001BD31F2F19D8BE466446B4FBF5FC05FBCA
:103B80001C4C5FFA8CFCBCF1090FE3D916F0200F36
:103B900008D04127BC445FFA8CFCACF10A0C5FFAF8
:103BA0008CFCDBE76127F5E7274606961A9C05940F
:103BB000199C049403959DF85C400294019708AC0D
:103BC0000094FFF71DFF11B0F0BD2DE9F04F95B047
:103BD00009900A910B929846DDF878B0DDF87C9058
:103BE000229D239F269E5BEA090201D126F0100642
:103BF00016F480641ED05BEA09022FD0002419E07D
:103C00003032D3B204F1010A04F150020DEB020488
:103C100004F8203C2A463B46584649464CF088FA70
:103C2000AB4579EB07091BD3BAF11F0F18D85446DF
:103C3000834689462A463B46584649464CF078FA20
:103C4000D2B2092ADCD916F0200F05D04123134443
:103C5000DBB20A3BDBB2D5E76123F8E74FF0000A9D
:103C60000696259B0593249B049303959DF880302D
:103C70000293CDF804A00CAB009343460B9A0A992B
:103C80000998FFF7BDFE15B0BDE8F08F00000000F9
:103C90002DE9F04F91B004460D4617461E46DDE96A
:103CA0001A2310461946FFF705FC002840F0ED8066
:103CB0004FF0FF32AE4BDDE91A01FFF75BFC002845
:103CC00040F0E3804FF0FF326FF48013DDE91A011A
:103CD000FFF714FC002840F0D88000220023DDE923
:103CE0001A01FFF70BFC002840F0E2809DED1A7BE3
:103CF0008DED067B1E9B13F480630D9301D106238B
:103D00001C93DDE9062310461946CDE9080152EA65
:103D1000030100F0D880C3F30A50C3F313039046A5
:103D200043F07F5949F44019A0F2FF30FFF77AFBC6
:103D30007DA3D3E90023FFF7A7FA7DA3D3E90023EE
:103D4000FFF77AFA82468B4600228A4B4046494664
:103D5000FFF786FA78A3D3E90023FFF795FA024626
:103D60000B4650465946FFF767FAFFF77FFB82463E
:103D7000FFF758FB8046894671A3D3E90023FFF77C
:103D800083FA00227C4BFFF757FAFFF76FFB83465D
:103D90006DA3D3E9002340464946FFF775FA8046F4
:103DA00089465846FFF73EFB69A3D3E90023FFF796
:103DB0006BFA02460B4640464946FFF751FA8046E9
:103DC000894602460B46FFF75FFACDE90A010BF27E
:103DD000FF3B00210022CDE908124FEA0B53099363
:103DE0000023089342464B4640464946FFF724FAD3
:103DF000CDE90E0142464B4600204FF08041FFF7CF
:103E00002FFA8046894600225C4BDDE90A01FFF764
:103E100061FA00225A4BFFF70FFA02460B46DDE922
:103E20000A01FFF757FA0022564BFFF705FA024640
:103E30000B46DDE90A01FFF74DFA02460B46404604
:103E40004946FFF7F9F902460B46DDE90E01FFF797
:103E500041FA00224C4BFFF7EFF9DDE90823FFF7A9
:103E600013FA80468946CDE90889DDE90623FFF784
:103E700081FB50B30AF1FF3A0022414B40464946CC
:103E8000FFF728FACDE908011FE01E9B04931D9B54
:103E900003931C9B02939DED1A7B8DED007B3346B3
:103EA0003A462946204600F003F911B0BDE8F08FEC
:103EB0009FED297B8DED067B1A9B06931B9B03F1DF
:103EC0000043079316E74FF0000A0AF16303C62B7D
:103ED00027D84FF004081E9B13F4006F5FD0DDE974
:103EE000081213460B4313D01DA3D3E90023DDE9C9
:103EF0000601FFF72BFB002800F0B4801AA3D3E9DA
:103F00000023DDE90601FFF7F9FA002800F0AA8096
:103F10001C9B53453ADDA3EB0A0A0AF1FF331C93BD
:103F200036E04FF00508D6E7FB799F501344D33FA6
:103F3000B3C8608B288AC63F61436F63A787D23FAF
:103F400071A379094F930A401655B5BBB16B024076
:103F5000EF39FAFE422EE63F0000000000000000AC
:103F60002D431CEBE2361A3F0000000080842E41F6
:103F7000FFFFEF7F0000F83F0000E03F00002C4013
:103F800000002440000018400000F03F00231C9374
:103F90001E9B43F480631E934FF00008C2461D9B96
:103FA000984569D2A3EB08091E9B13F0020B04D0BD
:103FB000B8F1000F01D04FF00009BAF1000F07D09F
:103FC000DDE90823DDE90601FFF784F9CDE9060103
:103FD00000220023DDE91A01FFF790FA00284ED1F4
:103FE0001E9B23F400630493CDF80C901C9B02935A
:103FF0009DED067B8DED007B33463A4629462046F3
:1040000000F056F8B8F1000F3FF44FAF1E9B13F0CD
:10401000200F3CD04FF0450C00F101093346024619
:1040200029466046A0478AEAEA72A2EBEA720523B3
:10403000059308F1FF330493002303930A230293AB
:104040004FEADA730193009233464A4629462046E6
:10405000FFF771FDBBF1000F3FF427AF0246DDF81B
:1040600074901EE01C9B002B99D00D9B002B96D0CA
:104070001C9B013B1C9392E74FF0000994E7DDE99C
:104080000601024601F10043CDE90623A8E74FF0FF
:10409000650CC1E702F10108334629462020A047FC
:1040A0004246D31B4B45F5D31046FEE60000000008
:1040B0002DE9F04F2DED028B95B007900A919246B5
:1040C0009B46DDE92089229D42464B4640464946B3
:1040D000FFF7F0F9002835D14FF0FF326FF480136D
:1040E00040464946FFF70AFA00283AD14FF0FF321E
:1040F0009F4B40464946FFF73DFA002840D198A320
:10410000D3E9002340464946FFF734FA00284FD14F
:1041100095A3D3E9002340464946FFF7EFF900286D
:1041200046D10022002340464946FFF7E7F9002820
:104130004CD100230B93249B13F4806F00F0B780C5
:10414000002456E0249B0393239B029303230193B3
:10415000884B00935B4652460A990798FFF711FC7B
:1041600037E1249B0393239B029304230193824B07
:1041700000935B4652460A990798FFF702FC28E134
:10418000249B13F004030FD07C4A7BB104232499B1
:10419000039123990291019300925B4652460A993A
:1041A0000798FFF7EEFB14E1754AEEE70323EEE70D
:1041B000249B0493239B03930295CDE900895B46DE
:1041C00052460A990798FFF763FD02E142464B46C3
:1041D00000200021FFF744F88046894601230B9315
:1041E000A9E704F150036B44302203F8202C013D71
:1041F00001341F2C01D8092DF3D840464946FFF75A
:1042000035F90646FFF70EF902460B464046494689
:10421000FFF726F85B4B03EBC50393ED008B53ECE4
:10422000182BFFF731F802460B46CDE90823FFF7BC
:104230002FF90746FFF708F902460B46DDE90801AA
:10424000FFF70EF802460B46CDE9082300224E4B3D
:10425000FFF790F968B301373846FFF7F5F80246E3
:104260000B4651EC180BFFF75DF908B1013600273A
:104270006DBB3046FFF7D6F802460B46404649462E
:10428000FEF7EEFF0746884600223F4BFFF736F960
:1042900000284CD100223C4B38464146FFF76AF9D2
:1042A000002844D116F0010F41D001363FE0062529
:1042B00046E70022344BDDE90801FFF71FF900282B
:1042C000D6D117B117F0010FD2D00137D0E71F2C8C
:1042D00017D8013D2D4BA3FB0723DB08194603EB41
:1042E0008303A7EB4303621C303304F150000DEB52
:1042F000000404F8203C092F02D90F461446E6E7D3
:1043000014461F2C0AD86B1E45B104F150026A44B2
:10431000302102F8201C1D460134F2E71F2C06D87C
:1043200004F150036B442E2203F8202C01341F2C7F
:1043300031D8174A82FB0632F317C3EBA2031A46A1
:1043400003EB8303A6EB4303611C303304F15000FD
:104350000DEB000404F8203C1646DAB10C46E6E703
:104360000000000065CDCD410000000065CDCDC14D
:10437000FFFFEF7F3C1A0510401A0510301A051098
:10438000381A0510803A05100000E03FCDCCCCCCA7
:10439000676666660C46249B03F00303012B1DD061
:1043A0001F2C09D80B9B002B35D004F150036B4414
:1043B0002D2203F8202C0134249B0393239B02938A
:1043C00001940CAB00935B4652460A990798FFF79D
:1043D000D8FA15B0BDEC028BBDE8F08F239BB3B1CA
:1043E0000B9B1BB9249B13F00C0F12D0239B013B9A
:1043F0002393194606E004F150036B44302203F87E
:10440000202C01348C42CBD21F2CF4D9C8E723993D
:10441000F8E72399F6E7249B13F0040F07D004F183
:1044200050036B442B2203F8202C0134C4E7249B57
:1044300013F0080FC0D004F150036B44202203F89E
:10444000202C0134B8E700BF2DE9F04F91B0804631
:1044500017460F938946002900F04B8300260F9BD7
:104460001878002800F04883252809D0741C3B46A2
:1044700032464946C0470F9B01330F932646EEE76D
:1044800001330F9300251FE045F0010501320F9223
:10449000012318E045F0020501320F92012312E0DA
:1044A00045F0040501320F9201230CE045F00805A8
:1044B00001320F92012306E045F0100501320F9200
:1044C000012300E000234BB30F9A1378203B102BFD
:1044D000F8D801A151F823F0AD440010C5440010F4
:1044E000C5440010B9440010C5440010C544001074
:1044F000C5440010C5440010C5440010C544001058
:10450000C5440010A1440010C5440010954400109B
:10451000C5440010C5440010894400100B930F9B44
:104520001A78A2F13003DBB2092B18D92A2A1BD042
:10453000DDF82CB00F9B1A782E2A25D00F9A13780D
:10454000683B122B5CD8DFE803F0495BAC5B3B5B5C
:104550005B5B5B5B5B5B575B5B5B5B5BB1000FA8B3
:10456000FFF7FCF98346E5E71A9B1A1D1A921B68B0
:10457000002B04DB9B460F9B01330F93DAE745F0DA
:104580000205C3F1000BF6E745F480655A1C0F9253
:104590005A78A2F13003DBB2092B0CD92A2ACDD1EB
:1045A0001A9B1A1D1A921C6824EAE4730B930F9B42
:1045B00001330F93C2E70FA8FFF7D0F90B90BDE7C7
:1045C00045F48071531C0F9353786C2B01D00D462A
:1045D00016E045F4407502320F9211E045F080017B
:1045E000531C0F935378682B01D00D4608E045F01B
:1045F000C00502320F9203E045F4807501320F923C
:104600000F9B1878672856D82528C0F06882A0F13B
:104610002503422B00F26382DFE813F056026102A9
:104620006102610261026102610261026102610272
:104630006102610261026102610261026102610262
:104640006102610261026102610261026102610252
:104650006102610261026102610261028801680116
:10466000880161026102610261026102610261020C
:104670006102610261026102610261026102610222
:104680006102710061026102610261026102610204
:104690006102610261027100AF017100880168016D
:1046A000880145F4007501320F92A9E745F4807541
:1046B00001320F92A4E7782800F211826928C0F035
:1046C0000E82A0F16902D2B20123934049F2410265
:1046D000134214D113F0800F40F0DB8113F4806F8C
:1046E00000F0FD811A9B1A1D1A92D3F800A00B9BB3
:1046F000002B40F090814FF0FF32534671E16F285C
:104700000CD005D858283CD0622803D1022306E0FB
:10471000782838D025F010050A2300E0082358280F
:1047200033D0692803D0642801D025F00C0515F496
:10473000806F01D025F00105692829D0642827D091
:1047400015F4007F40F0948015F4807F40F0AC8039
:1047500015F0400F00F0BD801A9A111D1A911278C1
:104760000595CDF810B00B990391029300230193A6
:1047700000923B46324649464046FFF7DCF9064682
:1047800027E01023CBE71023C9E745F02005C8E751
:1047900015F4007F21D115F4807F42D115F0400F30
:1047A00058D01A9A111D1A91127882EAE271A1EB7F
:1047B000E2710595CDF810B00B9803900293D20FDB
:1047C000019200913B46324649464046FFF7B3F915
:1047D00006460F9B01330F9341E61A9A073222F0E7
:1047E000070202F108011A9151681268084600296F
:1047F00013DB0895CDF81CB00B9C069404930023A2
:104800000593C90F0291009201903B4632464946FA
:104810004046FFF7DAF90646DBE7524261EB41001A
:10482000E7E71A9A111D1A91126882EAE271A1EB68
:10483000E2710595CDF810B00B9803900293D20F5A
:10484000019200913B46324649464046FFF773F9D4
:104850000646BEE715F0800F05D01A9A111D1A9171
:10486000B2F90020A1E71A9A111D1A9112689CE76B
:104870001A9A073222F0070202F108011A910895EC
:10488000CDF81CB00B99069100210493059102917B
:10489000D2E90023CDE900233B4632464946404653
:1048A000FFF793F9064694E71A9A111D1A91059598
:1048B000CDF810B00B990391029300230193136874
:1048C00000933B46324649464046FFF734F90646D8
:1048D0007FE715F0800F04D01A9A111D1A911288E3
:1048E0003EE71A9A111D1A91126839E746281AD024
:1048F0001A9B073323F0070303F108021A92049569
:10490000CDF80CB00B9A0292D3E90023CDE9002335
:104910003B46324649464046FFF7CAFB06460F9BD8
:1049200001330F939BE545F02005E1E7672801D0AF
:10493000472801D145F40065452801D0472801D119
:1049400045F020051A9B073323F0070303F1080203
:104950001A920495CDF80CB00B9A0292D3E9002379
:10496000CDE900233B46324649464046FFF790F9E1
:1049700006460F9B01330F9371E515F002051DD01C
:1049800001241A98031D1A9306F1010A3B46324688
:1049900049460078C047A5B90F9B01330F9356468F
:1049A0005DE502F1010A3B4649462020C047234607
:1049B00052465C1C9B45F4D81646E2E7012332467A
:1049C000F7E7524606E0561C3B4649462020C047C2
:1049D0002C463246651CA345F5D89246DCE70133E8
:1049E0000A46197811B1511E002AF8D1A3EB0A0327
:1049F00015F480620C9203D00B9A934228BF1346A1
:104A000015F0020409D00D94CDF838B00B9D324654
:104A10000C9E9B461FE00B9A6FE63246264606E048
:104A2000541C3B4649462020C0472B4622465D1C6D
:104A30009B45F5D834462B460D94CDF838B00B9DE8
:104A40000C9E9B4607E01D460AF1010A541C3B469A
:104A50004946C04722469AF8000020B1002EF3D004
:104A60006B1E002DEFD10D9C16465B46DDF838B06D
:104A700054B90F9B01330F93F1E4551C3B46494653
:104A80002020C04723462A465C1C9B45F5D8164685
:104A9000EFE745F021051A9B1A1D1A921B68059530
:104AA000082204920B9A0392102202920022019291
:104AB00000933B46324649464046FFF73CF80646DF
:104AC0000F9B01330F93CAE4741C3B4632464946A0
:104AD0002520C0470F9B01330F932646BFE4741C6B
:104AE0003B4632464946C0470F9B01330F9326464B
:104AF000B5E4DFF82080B1E4BE4208D37A1E3B461D
:104B000049460020C047304611B0BDE8F08F32461C
:104B1000F5E700BF4D3900100EB400B584B0014672
:104B200005AA52F8043B039200924FF0FF3204486A
:104B3000FFF78AFC04B05DF804EB03B0704700BFD8
:104B40004539001000B583B0009313460A4601466C
:104B50000248FFF779FC03B05DF804FB453900100B
:104B600000B585B002900391009313464FF0FF32D9
:104B700002A90348FFF768FC05B05DF804FB00BF1D
:104B80004F39001000BEFDE70346094A126842B1E2
:104B9000074A10680344074A934206D8044A136040
:104BA0007047034A04491160F2E74FF0FF30704745
:104BB000205F0020000008206C6500200020704766
:104BC0004FF0FF307047000008B538B9084611466D
:104BD000044BD3E9002300F035F908BD4FF0FF3056
:104BE000FBE700BF183A0510431E012B09D810B58A
:104BF0000846144601230022214600F0DDF8204635
:104C000010BD4FF0FF3070474FF0FF3070474FF04E
:104C1000FF3070474FF0FF30704702288CBF0020F4
:104C20000120704708B5FFF7ADFF000000B583B065
:104C30008C4619465AB11446064B019400936346BC
:104C40000246054800F0D2F90120FFF79BFF034B15
:104C50001C46F2E7481A0510581A0510A80E051050
:104C600010B5EFF30583DBB203B100BEFEF7DAF94E
:104C7000044C02E054F8043B9847034B9C42F9D3A0
:104C800010BD00BFF00105102002051008B5034655
:104C900008461B681146984708BD0000F8B507464E
:104CA0000D461646437D13B1002420460CE00368F0
:104CB0001146284698472EE03B7D10E03B680221D4
:104CC00015489847601C0134B44214DA002CF3DD17
:104CD0002B1913F8013C0D2B14BF002301232A5D6F
:104CE0000A2AF0D1002BEED1A042E7DA3B68211A64
:104CF00028449847E2E7B04203DA3B68311A284477
:104D00009847002E07DD354415F8013C0D2B14BFE4
:104D1000002301233B75F8BDFC3A051038B5036844
:104D2000BBB105460B4B1C6806E0294651F8042B25
:104D30002046FFF7B3FF24694CB12368002BFAD05B
:104D4000054B1B68002BF0D0A342F4D1EDE7002304
:104D50002B6038BD105F00201C5F002038B5054671
:104D60000C460B68802B05D023685A1C22601C441B
:104D7000257138BD0846FFF7D1FFF5E708B5FDF707
:104D800055FF074A821841F10003002B03DB054859
:104D90004BF0EEF908BD4FF0FF326FF00043F6E73D
:104DA00040420F00FC35002008B502484BF0C4F922
:104DB00008BD00BFFC3500202DE9F04383B0064656
:104DC0000D4690461C46FFF7D9FF8146B5F1FF3FDF
:104DD00004D044B1174F184B1C6807E0304644F02C
:104DE00049FD0546F5E7154FF5E72469BCB1236891
:104DF000002BFAD0124B1B680BB1A342F5D12A4607
:104E000031462046B847B8F1000FEED00A238DF89E
:104E1000073001220DF107012046B847E5E7B9F157
:104E2000000F03D1284603B0BDE8F083FFF7BCFFB5
:104E3000F8E700BF9D4C0010105F00208D4C001063
:104E40001C5F00202DE9F84307460E469146984620
:104E5000144B1C6807E0A36823B1314638469847D5
:104E600000281CDC246934B10F4D2D68002DF2D0D0
:104E7000A542F7D1EFE70D4B5B6A984508D80B4A7E
:104E8000926A4A4509D2984502D06FF0010006E0C7
:104E900001200021FDF7D2FEDAE76FF00100BDE846
:104EA000F88300BF105F00201C5F002000000B4053
:104EB000084A01E003F1100213683BB18342F9D1C3
:104EC00031B90369136000230361704701B11060B9
:104ED000704700BF105F002010B5054B1C6801E053
:104EE000984724691CB16368002BF9D1F9E710BD1C
:104EF000105F002008B500F0F3F908BD10B582B0CE
:104F00000446FDF793FE221841F10003002B0ADB53
:104F1000012101A8FFF796FF002802DB40B19DF8B0
:104F2000040002B010BD4FF0FF326FF00043EFE716
:104F3000034B044A40F203110348FFF777FE00BF1A
:104F4000881A0510E03A05108C1A051000B583B0D8
:104F50000B4BD3E90023012101A8FFF773FF0028C1
:104F600003DB012804D19DF8040003B05DF804FBC5
:104F7000044B054A4FF495710448FFF757FE00BFF4
:104F8000183A0510D01A0510D03A05108C1A0510E1
:104F900038B5054644F06EFC044601231A46014626
:104FA0002846FFF709FFFFF797FF204638BD0000AE
:104FB00070B5A2B004460E46FFF7E0FE054600239A
:104FC00001933346224601A90748FFF7C9FD04466D
:104FD00001A8FFF7A3FEFFF77FFF15B9204622B017
:104FE00070BDFFF7E1FEF9E75D4D00100FB400B5AD
:104FF00083B004A951F8040B0191FFF7D9FF03B066
:105000005DF804EB04B0704770470000014B0022CC
:105010001A707047686500204B79FF2B0BD18B7994
:105020005BB9CB79012B0AD1082A0AD98A78064BB9
:105030001A70092070470020704700207047002038
:1050400070470020704700BF68650020012070474E
:10505000012923D108B59188114B1B78994201D0C1
:10506000002008BD5378012B03D0022B0FD0002065
:10507000F7E7518811F4807F06D0480AC1F3402237
:1050800001F07F01FDF77DFF4FF0FF30F6E764226E
:1050900000210846FDF716FF0120E2E701207047D6
:1050A0006865002000487047C83B051001290FD1F2
:1050B00008B594465378012B0CD19388072B01D067
:1050C000002008E0A623044A614601F0FBFB02E051
:1050D00001207047002008BD203B0510012303700C
:1050E00000487047003B051008B50B68B3F5966F94
:1050F00000D008BD002211464FF0FF30FDF741FF00
:105100000368EFF3108272B6D3E8CFCF0121BCF170
:10511000000FF9D1C3E84C1FBCF1000FF4D1BFF36D
:105120005F8F426070470000024B1860024B1960AD
:10513000704700BFB05E0020B45E002008B5FDF7E8
:1051400075FD0E4A821841F10003002B11DB0C485B
:105150004BF00EF860B100214FF0FF3001F046FA3D
:10516000002001F037FD0028F5D105484AF0E4FFA2
:1051700008BD4FF0FF326FF00043E8E740420F00F8
:105180004065002038B5124B1B68C3B1104C204657
:10519000FFF7B6FF00230F4A137021686268C1E869
:1051A0008F3F82F31088002400250B4B1878FCF702
:1051B00021FE40B9002400252046294638BD4FF481
:1051C0007A740025F1E7044B1878FCF73DFEF3E70D
:1051D000286400206A6500206965002008B5024B3C
:1051E0001878FCF731FE08BD6965002070B584B001
:1051F000064614461D46FDF719FD221845EB01032E
:10520000002B0BDB9DF82810029109990191089958
:1052100000913046FDF7EEFA04B070BD4FF0FF325A
:105220006FF00043EEE7F0B585B005460C46164634
:105230001F46FDF76BFA9DF8283002930197009600
:105240002A462346FFF7D2FF05B0F0BD10B582B065
:1052500000211D484AF0A4FFB0B91C4B1B688BB15C
:105260001A4C2046FFF74CFF194A137883F00103CC
:1052700001211170206862680021C0E88F1F82F34D
:105280001088BBB902B010BD00214FF0FF3001F013
:10529000ADF9002001F078FC04460B484AF04CFFC1
:1052A000002CEFD00B4B1B68002BEBD00A4A106888
:1052B0009847E7E7012300930B46084A4FF47A70BA
:1052C0000021FFF7B0FFDDE74065002028640020E3
:1052D0006A650020B05E0020B45E00208551001099
:1052E00010B582B04FF050431C68FDF70FFAFDF780
:1052F000F1FAA0422DD1244B1B780021084602F080
:1053000013F9224B1B6853B30120FCF783FFC0B293
:105310001F4C20701F49FCF7B7FD01212078FCF7D6
:1053200089FD0E20FCF7A4FD0446E0B10120FCF746
:10533000D7FC01461848FCF7CBFF002217490E2086
:10534000FCF7D2FD01211648FFF7B2FD204602B05E
:1053500010BD144B144AC1211448FFF767FC0B48D9
:10536000FCF774FFD0E70C4A00231360536001225E
:1053700000920F4A4FF47A700021FFF754FFC443A4
:10538000E40F002CE2D0DDE7B813071040650020E1
:10539000696500204D52001028640020DD51001086
:1053A00040250020F4070510F83B0510DC1A051015
:1053B0008551001008B5002001F0CCFB08BD0000AD
:1053C00038B504460D46FFF7F5FF90B3002001F015
:1053D000DBFB88B3FDF72AFC1A4A821841F100036F
:1053E000002B16DB18484AF0C3FE40B3FFF7E2FF7C
:1053F00018B1002001F0C8FB80B900214FF0FF3048
:1054000001F0F4F86FF002040F484AF095FE2046D0
:1054100038BD4FF0FF326FF00043E3E72A462146E4
:10542000002001F0BDFB04460028EDD16FF002041E
:10543000EAE76FF00204EAE76FF00204E7E76FF0D3
:105440000204E4E740420F0040650020F8B507463B
:105450000D46FDF7EBFB2E4A821841F10003002BAD
:1054600004DB2C484AF084FE28B9F8BD4FF0FF3227
:105470006FF00043F5E7FFF79DFF002845D1264B6D
:1054800000200021C3E9000122484AF055FEECE764
:1054900000214FF0FF3001F0A9F8002001F09AFB45
:1054A000FFF788FF0028EFD0002001F017FCF8B1CB
:1054B000AC42E9DA2E1B002001F010FC864200DC31
:1054C00030460028E4D002463919002001F0E4FB00
:1054D000064600214FF0FF3001F088F8002001F06F
:1054E00079FB3444FDF7A2FB0B4BC3E90001DFE776
:1054F000FDF79CFB084A13685268084E9B1942F15D
:10550000000283428A41D3D2BEE70024D0E700BF25
:1055100040420F00406500205839002020A10700BC
:1055200000487047743C051000487047203C051047
:1055300010B50446144B1B786BB18CB9134B40F279
:1055400009425A80012301335B009BB20F4843F4A8
:105550004073038010BD11210B4800F047F8ECE7C1
:10556000052C0ED80A4B53F824000023122BEAD83E
:10557000C25C002AE7D00133044921F81320DBB2D2
:10558000F4E70020E6E700BF48650020E85E002061
:10559000083C051000B58BB045F24730FDF7E2FC42
:1055A00003460122092101A89847042801D10023BC
:1055B0000EE00A4B0A4A29210A48FFF737FBC3F1DC
:1055C0000F0228326A4412F8241C074AD1540133CE
:1055D000072BF4DD0BB05DF804FB00BF681B051062
:1055E000A83C0510701B05105464002008B511B1CB
:1055F0008C4600220AE0114B114A35211148FFF771
:1056000015FB00210FE03733835401320CF1FF33D7
:1056100093420FD90F2A0DD853080B49CB5C12F0D7
:10562000010FEED104210B4103F00F03092BEADC3B
:105630003033E9E70023835408BD00BFBC1B0510CD
:10564000883C0510701B05105464002010B400F055
:105650007F044FEA440C0CEBD01C284B03EB4C139B
:105660009870C0090CBF4FF0010C4FF0000C83F88C
:1056700001C04FF0000C83F803C01983DA76E0B95B
:10568000E3001F4A1A4400EB44011C4B03EB411397
:105690009A6000EB4402194B03EB42139B68002213
:1056A0001A60A4B900EB4400144B03EB40104260B5
:1056B000144BC3605DF8044B7047134A02EBC402FD
:1056C00000EB44010D4B03EB41139A60E1E750B945
:1056D000631EDB000D4A1A4400EB4400074B03EB4A
:1056E00040135A60E6E7631E094A02EBC30200EB6F
:1056F0004400024B03EB40104260DBE7245F0020D4
:105700008400105000011050800010500C00105008
:105710000800105008B5038B3F3323F03F03C27ECF
:10572000022A08D008490A68C26013440B60074A7D
:10573000934202D808BD5B00F4E7054B054A5221AD
:105740000548FFF773FA00BF0C640020FF0F1050EC
:10575000601D0510303D0510A41D051070B500F04A
:105760007F054FEA450C0CEBD0130C4C04EB4314B3
:10577000FFF76CFF05B970BD218B2046FFF7CAFF0C
:10578000E27EE36883F0A04383F4801343EA8263FC
:1057900043F0004362681360EDE700BF245F002020
:1057A00008B500F07F035B0003EBD010024B03EB66
:1057B000401000F01BF908BD245F002008B520B997
:1057C00001210E20FCF736FB08BD034B034A40F2D3
:1057D00097110348FFF72AFA141E0510203D051003
:1057E000A41D051008B528B9002211468020FFF736
:1057F000D7FF08BD034B044A40F2A1110348FFF74D
:1058000015FA00BF141E0510103D0510A41D05104B
:10581000024B4FF48032DA64704700BF0020115011
:1058200070B548BB064600F0C1F8174C0C23A367BF
:10583000FF2216490E20FCF757FB40252A4600217F
:1058400013483FF0BBFF002229461046FFF786FFB2
:10585000002229468020FFF781FF4AF051FC0125F4
:1058600025644FF00053E3640A4BC4F8903030468F
:10587000FFF7CEFF284670BD074B084A40F2631180
:105880000748FFF7D3F900BF00001150C106002000
:10589000245F002010D00100141E0510443D0510A7
:1058A000A41D0510044B197021B1044B4FF40032B4
:1058B000C3F89020704700BF64650020002011509D
:1058C0000B7813F07F0F02D14B78052B00D0704777
:1058D0004B88DBB2014A1360F9E700BF00001150AA
:1058E000CA7802F00302012A09D008B50B4689885C
:1058F000C1F30A019878FFF731FF012008BD0020AD
:10590000704708B54AF0FCFB08BD000010B530B97F
:10591000084611461A46FFF743FF012010BD034B0E
:10592000034A4FF401710348FFF780F9141E051074
:10593000003D0510A41D051008B511F07F0304D12A
:10594000CA090ED10220084A90665B0003EBD1130E
:105950004FF400620021054800EB43104AF004FCBC
:1059600008BD0120EFE700BF00201150245F002098
:1059700008B511F07F0300D108BD5B0003EBD11324
:10598000044800EB43100022C2706FF400614AF03B
:10599000EBFBF1E7245F002004E011F8012B00F895
:1059A000012B1A46531E002AF7D1704708B54FF055
:1059B00080530A4A136002F580521360084B9B68BB
:1059C00013F0805FFAD04FF48052002105483FF079
:1059D000F5FE054B09225A6708BD00BF00200240B2
:1059E00000000240000010500000115070B5044645
:1059F0000D461646837EABB9A6820023E3820123BF
:105A0000A376256120464AF09BFB20B10B4B4FF457
:105A10000032C3F8902020464AF0BAFB50B101236F
:105A2000237770BD81780648FFF7E0FA20464AF0F8
:105A30004FFBE1E720464AF067FBF2E700201150F8
:105A4000041F05100368EFF3108272B6D3E8CFCFBE
:105A50000121BCF1000FF9D1C3E84C1FBCF1000FCC
:105A6000F4D1BFF35F8F42607047000038B5054640
:105A7000002408E0D21A1B4B03EB4213DB682846D4
:105A800098470134E4B2184B1B782246591CA142B6
:105A900015DBA342EED9154B1B6813EB4413EDD174
:105AA00040F2252212491348FFF7A0FA4FF0E023F5
:105AB000D3F8F03D13F0010F13D000BE11E00E4CEF
:105AC0005422002120463FF079FE4FF0FF336360FF
:105AD000A360E36023612022FF2104F114003FF062
