:020000041000EA
:10000000002008205D0100101301001015010010F0
:100010001101001011010010110100101101001058
:100020001101001011010010110100101701001042
:100030001101001011010010190100101B01001026
:100040001D0100101D0100101D0100101D010010F8
:100050001D0100101D0100101D0100101D010010E8
:100060001D0100101D0100101D0100101D010010D8
:100070001D0100101D0100101D0100101D010010C8
:100080001D0100101D0100101D0100101D010010B8
:100090001D0100101D0100101D0100101D010010A8
:1000A0001D0100101D0100101D0100101D01001098
:1000B0001D0100101D0100101D0100101D01001088
:1000C0001D0100101D0100101D0100101D01001078
:1000D0001D0100101D0100101D0100101D01001068
:1000E0001D0100101D0100101D0100101D01001058
:1000F0001D0100101D0100101D0100101D01001048
:100100001D0100101D0100101D0100101D01001037
:1001100000BE00BE00BE00BE00BE00BEEFF3058004
:10012000103800BEF2EB8871A8C40510C8C40510D1
:10013000A801001090A31AE7D3DEFFFF42012110AF
:10014000FF010000CCF00500793512AB4FF0000044
:100150002049086006C881F3088810474FF05040D6
:10016000006810B14FF00000F2E70FA40ECC002998
:1001700002D000F015F8F9E71749184A002000E00E
:1001800001C19142FCD1002080F30A8814498847BC
:10019000144988471449884700BEFDE701C901C2D8
:1001A0009A42FBD3704700BFC8C40510100100205D
:1001B0004C2E002004F2051000000820000008204A
:1001C00004F20510001008200010082000000000B4
:1001D0007047000008ED00E04C2E0020F455002090
:1001E000F9370010A9020010BD370010F8B500BFA4
:1001F000064B0749C91A891048BF0131491003D07D
:10020000044B0BB101481847704700BF4C2E00202B
:100210004C2E00200000000008B5054B1BB105491D
:100220000548AFF30080BDE80840FFF7E1BF00BF1D
:10023000000000009C540020C4AF041008B5192031
:1002400000F020FB19234FF0010242EC44304FF044
:10025000000242EC403008BD38B503F017FC4FF403
:10026000FA6001F00DFA0D4C0D49204625F0ACFA6C
:1002700025F028F9FFF7E2FF19254FF0010343ECC1
:10028000405000F003F94FF0000343EC40500549A3
:10029000204625F099FA25F015F938BD784300205D
:1002A000C8AF0410E8AF04102DE9F041FFF7D4FF08
:1002B00000F034FA01F01AFB074688461FE0C4B28A
:1002C00021461D4825F066FA0D2C08D00A2C06D0D0
:1002D000194824F0F9FF204600F062FA15E01648AC
:1002E00025F0F0F8F4E72746A846003E18BF01269F
:1002F000192346EC40306420002101F0AFF90020C2
:1003000003F0C8FB10F1020FD9D101F0EFFA044657
:100310000D4600F0FDF906460028E4D0E11B65EB30
:10032000080344F62062914273F10003DDD300F02C
:10033000DBF82746A846D8E77843002000000000F5
:10034000002810DD08B501F081FE02460B4601F0E1
:10035000D3FD02460B4606A1D1E9000101F01AFEC9
:1003600002F032F808BD4FF0FF300146704700BF81
:100370000000000080842E41054B1A7882F00102B3
:100380001A701A78002342EC40300120704700BFF9
:10039000E755002008B5084B1B782BB90023074A06
:1003A000137043EC403008BD054801F039FA024BA8
:1003B00000221A70F2E700BFE5550020E755002043
:1003C000502E0020F0B585B005460C4616461F4657
:1003D00000F0FCFF0A9B0293019700962A462346F1
:1003E00001F0E8F905B0F0BD10B582B004461F4B2E
:1003F0001B7883B92046FFF7A3FF012871F10003A2
:1004000010DA1A4B1B784BBB0023194A137043ECCC
:10041000403002B010BD174801F002FA134B002221
:100420001A70E7E7134B00930023134AFFF7CAFF44
:1004300018B10E4B01221A70EBE71049104825F055
:10044000C3F925F03FF800230E4A13700E4A1360DB
:1004500002234FF0010242EC4030DAE7054801F098
:10046000DFF9024B00221A70CEE700BFE5550020ED
:10047000E7550020502E00207903001010B0041022
:1004800078430020E65500205032002010B50020AF
:1004900000F0F8F9012000F0F5F9022000F0F2F97F
:1004A0000024012242EC444042EC4420022142EC70
:1004B000441042EC402042EC401044EC40400A2002
:1004C00001F0DEF8044B1C70044B1C60044B1C70E4
:1004D000044B1C7010BD00BFE655002050320020B8
:1004E000E5550020E755002010B54A4B1B78DBB2DC
:1004F000012B04D0032B28D0002B78D010BD464B05
:100500001B68B3F5966F0CDA434B1A6814321A6005
:100510001B68B3F5966F26DD3F4B4FF496621A6069
:1005200021E03D4C4FF4966323603A4B02221A704F
:100530003A493B4825F048F9216825F005FA394940
:1005400025F042F924F0BEFF0DE0334B1B68002B71
:1005500027DD314B1A68323A1A601B68002B0BDD1D
:100560002D4B1B6863B12B4B1B78002BC6D02A4B3D
:100570001868FFF739FFC1E7274B00221A60EFE741
:10058000244B00221A70FFF705FF02234FF00102EF
:1005900042EC40302449224825F016F924F092FF1D
:1005A000ACE71C4B1B7873B9204B1B78E3B94FF0B9
:1005B00050435B6813F0040FA0D102234FF00102F7
:1005C00042EC40309AE7134B00221A70FFF7E2FE2C
:1005D00002234FF0010242EC40301549104825F04B
:1005E000F3F824F06FFFDFE7FFF7D4FEDFE74FF00B
:1005F00050435B6813F0040F04D00C4B1B78002BA6
:100600003FF47CAF02234FF0010242EC4030FFF791
:10061000C1FE73E7E65500205032002038B00410C8
:10062000784300204CB0041054B00410E55500206D
:1006300064B0041010B5134B1B78DBB9124C13498E
:10064000204625F0C1F824F03DFF0E4B01221A7020
:100650000F4B64221A6002224FF0000141EC40204F
:100660001868FFF7C1FE0B49204625F0ADF824F0CD
:1006700029FF10BD0849044825F0A6F824F022FF00
:10068000F7E700BFE65500207843002088B004104B
:1006900050320020A0B00410B4B0041010B5164BB6
:1006A0001B78DBB2022B0ED0134B1B78DBB2012B75
:1006B00009D0114B1B78BBB11049114825F084F8C3
:1006C00024F000FF0FE00E4C0E49204625F07CF888
:1006D00024F0F8FE084B03221A700B49204625F03F
:1006E00073F824F0EFFE10BD0849054825F06CF8BA
:1006F00024F0E8FEF7E700BFE655002040B1041003
:1007000078430020F8B0041010B1041024B1041094
:10071000014B1878704700BFE655002010B5164C05
:100720001649204625F050F824F0CCFE1449204606
:1007300025F04AF824F0C6FE1249204625F044F878
:1007400024F0C0FE1049204625F03EF824F0BAFE01
:100750000E49204625F038F824F0B4FE0C49204616
:1007600025F032F824F0AEFE0A49204625F02CF898
:10077000204624F0A9FD10BD784300205CB1041090
:100780007CB10410B4B10410F0B1041018B204101C
:1007900038B204104CB2041008B5FFF7BFFF08BD13
:1007A00010B50446742826D83F2820D3A0F13F0373
:1007B000352B20D8DFE803F0401F1F1F1F1F1F1F0E
:1007C0001F1F1F1F1F30401F1F1F1F2E37341F1FCB
:1007D0001F1F1F1F1F1F1F1F1F1F1F1F1F1F1F1F29
:1007E0001F1F1F1F1F30401F1F1F1F2E37340A28B7
:1007F00012D00D2810D01249124824F0E5FF2146EE
:1008000024F0C8FF104924F0DFFF24F05BFEFFF75F
:1008100085FF01E0FFF7C0FF0A4824F055FD10BD39
:10082000FFF708FFF8E7FFF739FFFFF771FF002830
:10083000F2D1FFF773FFEFE7FFF770FFECE700BFC0
:100840005CB204107843002070B204100C4B03EB30
:10085000800253F8203083F0400303F0C00302F518
:10086000805CCCF80030C00000F1804000F5203002
:10087000416002F540524FF480731360704700BF2F
:100880000480034008B54FF0000242EC440042EC03
:1008900040000521FFF7DAFF08BD00000FB400B5E6
:1008A00083B0049C074803F01DF93CB105A90191F0
:1008B000204603F027F9044803F014F9012002F060
:1008C0002DFF00BF74B2041028BF0410EFF3108096
:1008D00072B6064BD3E8CF1F01220029FAD1C3E834
:1008E000412F0029F6D1BFF35F8F70472F4B0020B7
:1008F0000023034AC2E88F3F80F31088704700BF8F
:100900002F4B002070B505460C461646FFF7DEFF5C
:10091000E208A95C04F0070C012303FA0CF3194266
:1009200005D1DBB20B43AB54FFF7E2FF70BD2146AC
:100930003046FFF7B3FFF8B506460D4614461F468E
:10094000FFF7C4FF00E00134BC420ED84FEAD40CDC
:1009500016F80C1004F0070301229A401142F2D15C
:10096000D2B20A4306F80C2001E04FF0FF34FFF743
:10097000BFFF002C01DB2046F8BD002DFBD0069800
:10098000FFF78CFF054A1078431CDBB21370172B5E
:1009900002D9134610221A70704700BF4C1D002068
:1009A00000B583B00146054B00931F23182204486D
:1009B000FFF7C1FF03B05DF804FB00BF84B2041071
:1009C000444F00204FF0E022936843F000539360BF
:1009D00070470000002305E0044A1A440021C2E8E1
:1009E0008F1F01331F2BF7D9704700BF244B002006
:1009F000064B9B68103043F82010BFF35F8F002335
:100A00000349C1E88F3F82F31088704700ED00E092
:100A10002D4B00200048704700E400E008B5FFF7C8
:100A2000F9FF002304E04FF0803240F8042B01333B
:100A30000C2BF8D908BD000008B50388DA0A1C2A77
:100A400006D15B050BD45B15023300EB430008BDF8
:100A5000064B074A40F21511064802F0B3FE03F5B3
:100A6000FF1303F5FF531F33EDE700BFA0B20410DF
:100A7000F8D40410B8B2041008B5091A01F2FC72D7
:100A800040F6FE739A4208D8081F11F0010F04D1F6
:100A9000C0F34A0040F4604008BD034B034A40F2F3
:100AA0000711034802F08EFEFCB20410ECD40410CF
:100AB000B8B204104209064B53F8222000F01F0080
:100AC000012383401A4214BF01200020704700BF59
:100AD00000E100E03AB1064B00F1600243F8221059
:100AE00043F8201070472030014B43F82010704726
:100AF00000E100E008B50A4600F01F03012199401B
:100B00004009FFF7E7FF08BD00F01F02400901237D
:100B100093404030014A42F82030704700E100E045
:100B2000024B9B68103053F82000704700ED00E046
:100B300008B5FFF7F5FF034BC01A2F288CBF002024
:100B4000012008BD501D002070B505460C46EFF38E
:100B5000108672B60F4BD3E8CF1F01220029FAD1BD
:100B6000C3E8412F0029F6D1BFF35F8FFFF7D8FF0D
:100B7000094B984201D0A04205D132462146284671
:100B8000FFF736FF70BD054B054AE721054802F027
:100B900019FE00BF2D4B00201D0100102CB30410C6
:100BA00020D50410B8B204102DE9F04F87B00091A1
:100BB0001546EFF3108A72B67C4BD3E8CF1F0122A3
:100BC0000029FAD1C3E8412F0029F6D1BFF35F8F86
:100BD000774B93F90040002C44DB804604EB44073C
:100BE000744B03EB870797F90610714A1170724A2C
:100BF000926800F1100152F82190A9EB03022F2A0C
:100C00003ED96E4B994534D14FF42143ADF80C30A9
:100C10004FEA440904EB4400664E06EB8000684945
:100C20000230FFF729FFADF80E004BF60153ADF887
:100C30001030FF238DF812308DF81350009B059370
:100C4000A14406EB890306AA12E9070083E807001E
:100C500047F00109524649464046FFF7C9FE07B032
:100C6000BDE8F08F574B584A40F27311574802F0D5
:100C7000A9FD574B544A4FF4BD71544802F0A2FDF0
:100C800029F0010BABEB0303524AA2FB0312D2087B
:100C900002EB4202B3EB820F0FD15B460026DA79FA
:100CA000AA4212D993F90620002A0DDB02EB420278
:100CB0001E46404B03EB8203F1E7474B424A40F2AA
:100CC0008B11424802F07EFD1E46A6B344F6010396
:100CD000ADF80C304FF48F43ADF80E3096F906B0F6
:100CE000BBF1000F1ADA4BF60150ADF810008DF889
:100CF00012B08DF81350009B05933946301DFFF755
:100D0000BBFEB080B47104EB44042A4B03EB8403B4
:100D100006AA12E9070083E807009BE7301DFFF7EA
:100D20008BFE014604EB4402224B03EB8203181DA9
:100D3000FFF7A2FED9E74FF42143ADF80C30630072
:100D4000019304EB4406DFF86C9009EB86061C491E
:100D5000B01CFFF791FEADF80E005946301DFFF7AD
:100D60008BFEADF810004AF6AA235A464946521A9D
:100D7000524153431B0D8DF812308DF81350009AD9
:100D80000592019B234409EB830906AB13E9070095
:100D900089E8070044F60103ABF800304FF48F43B5
:100DA000ABF8023047F0010954E700BF2D4B00209B
:100DB000EC550020501D002000ED00E01D0100104A
:100DC000801D002064B3041008D50410B8B20410CC
:100DD0008CB30410ABAAAAAAB4B3041038B540F07F
:100DE0000104324BE31A2F2B31D8EFF30581C9B23E
:100DF000002933D0EFF3108E72B62D4BD3E8CF5FBE
:100E00000122002DFAD1C3E8452F002DF6D1BFF302
:100E10005F8F4AF6AA230246244D521B5241534388
:100E20001B0D4FFA83FC234B9B6853F82130A342E0
:100E30001BD00023032B32D803EB43011B4A02EBE8
:100E4000810292F90620624520D00133F2E71A4B65
:100E50001A4A4FF41D711A4802F0B4FC194B174A94
:100E600040F27721164802F0ADFC124B9B68164AFF
:100E700043F82120154B1A78827183F800C00023B3
:100E80000B4AC2E88F3F8EF3108838BD074A02EB49
:100E90008101FF248C714BF601538B80EAE70C4BE8
:100EA000064A4FF42271064802F08CFC501D0020C7
:100EB0002D4B002000ED00E038B40410D0D4041015
:100EC000B8B2041060B404101D010010EC550020ED
:100ED0006CB4041000B583B00146074B00930523A2
:100EE00000220648FFF727FD002801DBC0F1330090
:100EF00003B05DF804FB00BF74B40410F05500208B
:100F0000014B0B4403607047244B002010B504468E
:100F1000FFF738FD01462046FFF7F2FFFF2323715C
:100F2000BFF35F8F10BD10B50446FFF72BFD0146E0
:100F30002046FFF7E5FFFF23237100236371BFF312
:100F40005F8F10BD10B50D4C09E00D4B0D4A1A21F5
:100F50000D4802F037FC2046FFF7D8FF08340B4B52
:100F60009C4209D22368002BF5D0012BEDD12046FD
:100F7000FFF7D9FF0834F2E710BD00BF442E002070
:100F800090B4041060D50410B0B404104C2E0020AE
:100F9000024B0B440360BFF35F8F7047244B00206C
:100FA00010B504460120FFF7FBFC01462046FFF781
:100FB000EFFF10BD0246EFF30583DBB2103B99084B
:100FC00004D0034803F00303136070470148F9E7B6
:100FD00000800B4000000B4010B4846AA2EB040CAC
:100FE0000B1D50F823301B1B9C4504D3046A0123BE
:100FF0008B401C4202D1043140F821205DF8044BA3
:10100000704741EA004070470D4B1A68EFF31081BA
:1010100072B6D2E8CFCF0120BCF1000FF9D1C2E8FF
:101020004C0FBCF1000FF4D1BFF35F8F1A6800239F
:10103000C2E88F3F81F3108840BF00200021704735
:10104000C85500202DE9F04F85B003A8FFF7B2FF87
:10105000A94B984214BF00230123039901EB83039A
:10106000A64A52F823402378994206D10546012228
:101070008A4000F541535A6014E1A14BA14A9221E4
:10108000A14802F09FFBD4F8149006EB46074FEA04
:10109000C70A09EBC707D7F808B0D7F80C8028466D
:1010A00000F0FAFBB0EB0B0061EB0803002BC0F281
:1010B0000281B8F1000F60DB3B691A460093934B45
:1010C0009A4230D0798889B2B4F90800FFF799FFC5
:1010D0007969009B9847009001910099019A51EA23
:1010E00002034AD01346002A29DABBEB010268EB5F
:1010F0000308BA60C7F80C8039F90A30002BC0F237
:10110000DA80D4F814E003EB43010EEBC1018868E8
:10111000C968101A68EB01010029C0F2CC80A4460E
:101120002CF8083F15E07A69136900921046984739
:1011300018B3009A1368009353680193CDE72846CB
:1011400000F0AAFB009B1A18019B43EB0108D0E7B3
:101150009C46BCF90070002F0ADB07EB47030EEB3F
:10116000C3039868D968101A68EB01010029EFDA07
:1011700029F80A70ACF800609DE039F90A30238143
:101180002369EFF3108272B6D3E8CF0F0121002854
:10119000FAD1C3E8401F0028F6D1BFF35F8FB4F93E
:1011A000023029F80A30668021690023C1E88F3FA8
:1011B00082F310887FE02369EFF3108272B6D3E8E0
:1011C000CF0F01210028FAD1C3E8401F0028F6D133
:1011D000BFF35F8FB4F804800FFA88F84FF6FF73FF
:1011E000A38021690023C1E88F3F82F3108815E0B6
:1011F0001E46B6F90020002A0ADB02EB42030CEB84
:10120000C3039868D968381A6EEB01010029EFDA38
:10121000A6F800803CF909802CF80920B8F1000FED
:101220004EDBD4F814C008EB48034FEAC3090CEBBB
:10123000C3039F68D3F80CE004F10806D9E7002344
:10124000A37104F1080CB4F9083010E04FF0FF3836
:101250004FF0FF39C0E90289B4F90800984205D07F
:10126000ACF80020B4F90800C85323811346B3F149
:10127000FF3F28D0616903EB4302D70001EBC200B6
:1012800031F93220468816F4004FDFD18446EDE76D
:10129000284600F001FB3F1A66EB0106012F76F1AC
:1012A000000635DA039A01239340EB63B4F9086032
:1012B000002EBFF6E8AEA38813F4004F3FF47BAFD7
:1012C000A379002BBBD1B4F90830002B20DB626975
:1012D00003EB430302EBC3039F68DE68B6F1FF3FF5
:1012E00008BFB7F1FF3FD3D03A46334603992846AB
:1012F000FFF772FECCE700BF00800B40BC5400201B
:1013000044B504108CD5041070B5041045100010BD
:1013100040BF05B0BDE8F08FF8B504460D46114654
:101320000A4B984210D000262E44012707FA05F5F3
:1013300025623046FFF708FC39463046FFF7DAFBF6
:1013400004F501542560F8BD0426EDE700800B404C
:10135000F8B504460E4617461D46C160FFF712FB5E
:10136000164B034423612770ABB263814FF05042A8
:10137000127862704FF6FF722281A280013B638077
:101380004FF0000C08E00CF1FF300CEB4C0E6369E1
:1013900023F83E000CF1010CAC45F4D3084B9E42FF
:1013A00014BF0023012307EB8303064A42F82340BE
:1013B000054A39463046FFF7AFFFF8BD244B002001
:1013C00000800B40BC5400204510001008B5054BB0
:1013D0001B690BB1034808BD034B044A652104484F
:1013E00002F0F0F9981D0020ACB5041074D504107B
:1013F00070B50410F8B504469E460069EFF31081FD
:1014000072B6D0E8CF6F0125002EFAD1C0E8465F52
:10141000002EF6D1BFF35F8FB4F90250666905EB79
:101420004500C70006EBC000002D03DB36F907C0FE
:10143000A4F802C04FF0000C2369C3E88FCF81F3FA
:101440001088654533DB0699016107994161826027
:10145000C0F80CE0418889B20131C1F30E0101B935
:10146000012141802846FFF7CCFD2369EFF310826C
:1014700072B6D3E8CFCF0121BCF1000FF9D1C3E898
:101480004C1FBCF1000FF4D1BFF35F8FA388F3535F
:10149000A58021690023C1E88F3F82F31088E368AB
:1014A000217801228A4003F501535A60F8BD4FF0BC
:1014B000FF30FBE770B582B0064615461C469DF826
:1014C000203033B900F012FA854264EB01010029A3
:1014D0000ADB079B0193069B00932A46234630466E
:1014E000FFF788FF02B070BD0020FBE7F0B585B0C4
:1014F00005460C4616461F46FFF768FF9DF8283044
:101500000293019700962A462346FFF7D3FF05B0C2
:10151000F0BD03464089B0EB214F31DD10B50A1410
:10152000586902EB420200EBC2001A69EFF3108C1B
:1015300072B6D2E8CF4F5FF0010E002CF9D1C2E8AD
:1015400044EF002CF5D1BFF35F8F428892B289B28D
:101550008A420FD0002019690022C1E88F2F8CF336
:10156000108830B1DA681B780121994002F50153E7
:10157000596010BD42F40042428001209871EAE7B0
:101580000020704710B50446FFF720FF2146FFF703
:10159000C0FF10BD40787047F0B583B0EFF305830E
:1015A000DBB2CBB905460F46861F41F1FF34B0428E
:1015B00071EB040301D20026344600F097F9301A8B
:1015C00064EB0103012873F1000308DA2846394669
:1015D00000F09EF903B0F0BD1C48FFF75FF900234F
:1015E00000931B4A30462146FFF780FF00281EDA91
:1015F000ECE7002300E00023002BE7D1154B1A682D
:10160000EFF3108172B6D2E8CFCF0120BCF1000F0A
:10161000F9D1C2E84C0FBCF1000FF4D1BFF35F8FDA
:101620001A680023C2E88F3F81F3108820BF0A4B5D
:101630005B6A9C42DFD80849896AB14203D29C4266
:10164000D7D00123D8E70123D6E700BFD0B50410D7
:1016500009100010C855002000000B4038B50446A2
:101660000D4600F043F9201845EB0101002902DB8B
:10167000FFF792FF38BD4FF0FF306FF00041F7E702
:1016800008B5C30E4101091A63F100039B0043EA48
:1016900091738900091843F10003DB00C80043EA95
:1016A0005171FFF7DBFF08BDF0B583B005460C466E
:1016B000EFF30583DBB293B13C4B5B6A8B4209D3FA
:1016C0003A4A926A824208D28B4201D0012002E05B
:1016D000002000E0002003B0F0BD0120FBE7FFF791
:1016E00075FEC7680678384600F0D6F82A1A64EB0B
:1016F0000101043657F826301B1A9A4271F1000195
:1017000012DB20BF294B5B6A9C4209D8274A926AA8
:10171000AA4207D29C4201D00120DCE70020DAE790
:101720000020D8E70120D6E700230093204A28466E
:101730002146FFF7DBFE00280BDD1C4B5B6A9C4259
:101740001BD81A4A926AAA4228D29C4213D001237B
:1017500014E0164B5B6A9C4209D8144A926AAA426A
:1017600007D29C4201D00120B5E70020B3E700205A
:10177000B1E70120AFE7002300E0002303B920BF59
:10178000FFF700FF094B5B6A9C420BD8074A926A3D
:10179000AA4209D29C4203D001209CE70123EDE735
:1017A000002098E7002096E7012094E700000B4016
:1017B00009100010F0B585B0064614460C9D54EA99
:1017C000030201D101240023AE600A9A2A612C6031
:1017D0006B600B9A6A611F46002B15DB00F086F8E0
:1017E000221847EB0103002B12DB01210291019526
:1017F0000A4900913046FFF75DFEE8600028D4BF3B
:101800000020012005B0F0BD644263EB4307E5E72B
:101810004FF0FF326FF00043E7E700BF45100010C4
:10182000C16809B90020704710B504468068FFF709
:1018300070FE0023E36010BD0048704700000B40BD
:1018400010B50A4B1B6923B10A210948FFF758FB61
:1018500010BDFFF7F1FF0446032100F00BF8102341
:10186000032221460148FFF773FDEDE7981D002094
:10187000C855002010B5054A054C064BA04214BFC0
:101880001846581CFFF73EF810BD00BF20B60410E4
:1018900000800B40484F00200246436A906A194678
:1018A000536A9942FAD17047416A00E0416A99420D
:1018B000FCD300E0416A994202D1816A9142F9D396
:1018C000704770B5064614461D46FFF7E5FF02193E
:1018D00041EB0503824273EB010102D24FF0FF326C
:1018E00013463046FFF7E0FF70BD000008B5024820
:1018F000FFF7D2FF08BD00BF00000B4008B502464D
:101900000B460248FFF7DDFF08BD00BF00000B409B
:1019100008B502460B460248FFF7C6FF08BD00BFE8
:1019200000000B4070B51646049D00EB400C4FEADA
:101930008C0C0CF1804C0CF5803CDCF80420AA42A5
:1019400001D2CCF80450A0F1040E5FFA8EFEBEF175
:10195000010F28D90CF540524FF4006414601E4A60
:1019600052F8202042B11C4C6469B4FBF2F40134FB
:1019700004EB4404033CFDD2DCF8002082EA46126A
:1019800002F0E0020CF580542260BEF1010F16D97E
:101990000CF500524FF400611160CCF804500E4A6F
:1019A00042F8203070BD0129D4D10CF540520324F7
:1019B0001460DCF8082012F0010FFAD0DCE7DCF844
:1019C00000204A4002F003022260DCF808400122B5
:1019D0008A401442F9D0DBE74C4F002010B582B0AA
:1019E0004FF480340094FFF79DFF02B010BD00005B
:1019F000014B53F8200070474C4F002070B5049CF9
:101A0000344DB5FBF1FC344D1544344EB54237D856
:101A1000B2FBFCF5A5F1100EBEF5987F36D803F1A8
:101A2000FF3EBEF1060F37D804F1FF3EBEF1060FB0
:101A300032D8BCEB121F35D8240344EA03440368B0
:101A4000002B35DB264B984242D00E2301229A40D0
:101A5000244B1A6003F580531A60234B9B6832EACB
:101A60000303FAD10160856000F54052043221235E
:101A700013600368002BFCDAC4600823136070BD98
:101A80001A4B1B4A11211B4801F09CFE1A4B184AA5
:101A90001921184801F096FE184B154A1C211548CB
:101AA00001F090FE164B124A2321124801F08AFEE3
:101AB000036803F03F038B42C4D18368C3F30B0375
:101AC000AB42BFD1C36803F4EE23A342BAD1D6E739
:101AD0000F23BBE7001BB70080E84BD380F8A93287
:101AE00000800540002002400000024044B604107F
:101AF000B0D5041094B60410D8B60410F4B604108F
:101B000040B70410024B1A68024B5A60704700BF7E
:101B1000B453002000800D4008B5164B4FF08042B2
:101B20001A60A3F54123144A9A6051B103F540238A
:101B30004FF0E0621A6048B9104B4FF000421A6053
:101B400008BD0C4B4FF0E0621A60F4E74FF47A7373
:101B500003FB00F00A4B1860B0F1807F02D36FF0F6
:101B60007F421A60FFF7CEFF044B4FF080421A60AD
:101B7000E6E700BF00B00D40F3FFFF0100A00D40FD
:101B8000B453002010B50C4B4FF080441C6070B172
:101B900040F0010309480A4CC4610A4C5C400462ED
:101BA0004162836200211046FFF7B6FF10BD034B70
:101BB0000021D961F6E700BF00B00D4000800D4064
:101BC000D3C007B02D3FF84F054A00EB400302EBAE
:101BD0008303596000EB40008000012313507047DD
:101BE000008010402DE9F04105460E461746984604
:101BF0000023DB8A002242E800F212F4800F0BD1AE
:101C0000102144F252209847044643463A46314652
:101C10002846A047BDE8F081042144F252209847AD
:101C20000446F2E708B50023DB8A002242E800F20E
:101C300012F4800F02D11021984708BD0421984763
:101C4000FBE708B5031E06DB41F0200012B141F0AE
:101C5000300100E001460A460A214FF48170FFF787
:101C6000C1FF0000034BD3F82838002BFAD0BFF394
:101C70005F8F704700000E40002207E0054B1344C1
:101C80009B00BFF35F8F002119600132072AF5D94D
:101C9000704700BF0382031008B5FFF7EDFF08BDD2
:101CA000074B4FF42A621A604FF48D72DA6003F525
:101CB0000053044A1A60024B5B68002BFBDA704742
:101CC0000080044000B0FA0010B5044602E054F869
:101CD000043B9847014B9C42F9D310BD98AF0410C8
:101CE0007047000008B50248FFF7EEFF08BD00BFCF
:101CF00058AF0410064B074A1A6003F58053064A92
:101D00001A60064B9A68044B9343FAD1704700BFA0
:101D1000002002407F3BEFEFF6FFF303000002409C
:101D2000054BDB6CB3F5004F00D07047034B4FF40D
:101D30008022DA64F9E700BF000011500020115042
:101D40004FF0E022D2F8881D034B0B43C2F8883DC8
:101D500010EE3004704700BF03033000054B6FF0F6
:101D600060421A60044B9B68DB4333F06043F9D157
:101D7000704700BF003002400000024008B545F245
:101D80005320FFF74FFF03460420984708BD08B5CE
:101D900045F25320FFF746FF03460120984708BD50
:101DA00008B5FEF717FE08BD38B5054CA168054D0E
:101DB0004FF48872284642F0E7FBA56038BD00BFAB
:101DC00000ED00E00000002038B50420FFF710FE11
:101DD000064BA3FB0035AD0C002404E02946E0B21D
:101DE000FFF7F2FE0134052CF8DD38BD83DE1B431E
:101DF00030B583B0264B0022C3F88420FFF750FF94
:101E0000244B0122DA63224B5B6C012BFBD1214B6B
:101E100003221A631E4B9B6B012BFBD102240094FF
:101E200005231D4A01211D48FFF7E8FD0525009502
:101E30002B461B4A01211B48FFF7E0FD1A4B0022ED
:101E400021460420FFF7CAFD184C23460022012139
:101E50002846FFF7C3FD164D2B46002211460820E9
:101E6000FFF7BCFD2B46002211460920FFF7B6FD07
:101E70002346002211460620FFF7B0FD234600222C
:101E800011460720FFF7AAFDFFF79EFF03B030BD04
:101E90000000014000300140002F6859000005405B
:101EA000008C864700800540001BB70080D1F008F9
:101EB000006CDC0286B003B451FC0804CDE90201D9
:101EC00051FC0904CDE9040151EC0A04CDE90601F5
:101ED00003BCF047BDE800504EEC00C4BDE8005024
:101EE0004EEC01C4BDE800504EEC02C400BD000041
:101EF00000B5FFF7DFFF02E010FE30F4F8D441EC4C
:101F0000100443EC112400EE010410EE010480EEF5
:101F1000200451EC1004704700B5FFF7CBFF02E03E
:101F200010FE30F4F8D441EC100443EC112400EE20
:101F3000010410EE210480EE200451EC30047047BF
:101F400000B5FFF7B7FF02E010FE30F4F8D410B58B
:101F500041EC100443EC112451EC040453EC05242F
:101F6000A0FB024C5FF0000EE0FB03CEE1FB02CED3
:101F70004CEC20440024E1FB03E444EC30E480EE2C
:101F8000200451EC5004BDE81040704700B5FFF745
:101F900091FF02E010FE30F4F8D441EC100443EC61
:101FA000112451EC2104A0FB01126FEA820252FBC2
:101FB000100052FB12F252FB1000A0EBD07C53EC4D
:101FC00004245CFB13F153EC1524A1FB022001FB5C
:101FD000030053EC4424A2EB000050FB1CF24FEA38
:101FE000111312EB017043EBE27140EA515020EA09
:101FF000915020F0070053EC7524A0FB023C53ECF9
:10200000752400FB03CC01FB02CC53EC0424ACEBA5
:10201000824C40EA5C70A0F1010041EC400480EE8B
:10202000200451EC7004704700B5FFF743FF02E055
:1020300010FE30F4F8D441EC100480EE220410EECF
:10204000B204704700B5FFF735FF02E010FE30F430
:10205000F8D440EC700400EE010410EE210480EE90
:10206000200451EC3004704700B5FFF723FF02E075
:1020700010FE30F4F8D440EC600400EE010410EEE1
:10208000210480EE200451EC3004704700B5FFF7C6
:1020900011FF02E010FE30F4F8D441EC800400EEB1
:1020A000010410EE010480EE400410EE13047047AA
:1020B00000B5FFF7FFFE02E010FE30F4F8D441EC6B
:1020C000800400EE010410EE010480EE400410EEE6
:1020D0003304704700B5FFF7EDFE02E010FE30F468
:1020E000F8D441EC100443EC112400EE010410EE8E
:1020F0003004C0F30070704700B5FFF7DBFE02E06C
:1021000010FE30F4F8D441EC100443EC112400EE3E
:10211000010410EE3004C0F38070704700B5FFF783
:10212000C9FE02E010FE30F4F8D443EC102441EC78
:10213000110400EE010410EE30F48CBF01200020E9
:10214000704700BF00B5FFF7B5FE02E010FE30F4A7
:10215000F8D443EC102441EC110400EE010410EE1D
:1021600030F42CBF01200020704700BF00B5FFF7FE
:10217000A1FE02E010FE30F4F8D441EC100443EC70
:10218000112400EE010410EE30F42CBF01200020D9
:10219000704700BF00B5FFF78DFE02E010FE30F47F
:1021A000F8D441EC100443EC112400EE010410EECD
:1021B00030F48CBF01200020704700BF00220029AE
:1021C00050DA404261EB4101C9B1B1FA81F30B3BF6
:1021D00017D4D3F1200C30FA0CFC9840994051EA06
:1021E0000C011A44524202F2324201EB025141F018
:1021F000004140F2FE739A4238BF704721E0114619
:102200007EE003F1210310FA03FCA3F1010301FABC
:1022100003FCC3F1200320FA03F021FA03F140EAA2
:102220000C00A3EB020202F2324214D050F1000083
:1022300041EB025141F0004140F2FE739A4238BF37
:1022400070474FF00001A8BFC7F6F0714FF00000D3
:10225000704700217047EBD350F1000020F00100DF
:10226000E6E70022B9B1B1FA81F30B3B16D4D3F102
:10227000200C30FA0CFC9840994051EA0C011A44A9
:10228000524202F2324201EB025140F2FE739A4294
:1022900038BF704720E0114600F066B803F1210313
:1022A00010FA03FCA3F1010301FA03FCC3F12003BC
:1022B00020FA03F021FA03F140EA0C00A3EB02023A
:1022C00002F2324212D050F1000041EB025140F2D2
:1022D000FE739A4238BF70474FF00001A8BFC7F69F
:1022E000F0714FF00000704700217047EDD350F1BE
:1022F000000020F00100E8E7002880F2358040422D
:10230000B0FA80F30B3B11D4984001EB0302524228
:1023100002F2124200EB025141F000414FF0000086
:1023200040F2FE739A4238BF704713E0C3F10003D6
:1023300030FA03FCC3F120029040A3EB010202F249
:1023400012420CEB025141F0004140F2FE739A42FE
:1023500038BF70474FF00041A8BFCFF6F0714FF083
:10236000000070470021704760B3B0FA80F30B3B68
:102370000FD4984001EB0302524202F2124200EBEA
:1023800002514FF0000040F2FE739A4238BF70478E
:1023900010E05B4230FA03FCC3F120029040A3EB53
:1023A000010202F212420CEB025140F2FE739A4219
:1023B00038BF70474FF00001A8BFC7F6F0714FF06B
:1023C00000007047002170470022A2F232425FEA0B
:1023D000215CACF10103A1EB03515B0513F5800F08
:1023E00032D212EB535210D40B2A36DA9140D2F18A
:1023F000200330FA03F319439040BCF1000FA8BF4B
:102400007047404261EB4101704720320EDD01FA16
:1024100002F3D2F12002D140D0401843BCF1000FAA
:10242000A8BF7047404261EB41017047524282F3BE
:10243000050231FA02F00021BCF1000FA8BF70477D
:10244000404261EB4101704702D0002000217047FB
:1024500050EA013118BF4FF0000C6FF0004101EB62
:10246000DC716FEAEC70704708B528B103460B4485
:10247000034A934200D808BD0248FEF70FFA00BF96
:10248000000008205CB7041038B505463DF0CAFCD2
:1024900004462946FFF7E8FF204638BD38B50D460B
:1024A00041F014FB04462946FFF7DEFF204638BD05
:1024B00008B53DF0BFFC08BD08B5FFF7E5FF08BD56
:1024C00008B5FFF7E1FF08BD08B5FFF7F1FF08BD4C
:1024D00008B5FFF7EDFF08BD08B5FFF7E9FF08BD38
:1024E0009A4200D288547047704720B108B50A68F4
:1024F0004968904708BD70470146002008E000EB9E
:102500008000531C0B60137803EB4003A3F13000F1
:102510000A681378303BDBB2092BF0D970472DE9FC
:10252000F04F83B005460E4693461F46DDF830A0B7
:102530000D9CDDF838900F9B13F0030F19D1A046C6
:102540000192C84509D202F1010B3B4631462020D9
:10255000A84708F101085A46F3E7DDF804B008E09F
:10256000013C02F101083B4631461AF80400A84735
:102570004246002CF4D10F9B13F0020F03D11046FA
:1025800003B0BDE8F08FA2EB0B034B45F7D2541C10
:102590003B4631462020A8472246F4E72DE9F04388
:1025A00085B099460C9D0D9C9DF83880DDF840E083
:1025B000119F129E16F0020F21D17FB116F0010F6C
:1025C0000CD0B8F1000F02D116F00C0F06D0013F6D
:1025D00004E04FF0300C05F804C00134744501D21A
:1025E0001F2CF6D916F0010F09D0BC4207D21F2CC0
:1025F00005D84FF0300C05F804C00134F2E716F0AE
:10260000100F14D016F4806F04D11CB1744522D081
:10261000BC4220D00F9B102B36D00F9B022B3ED0FC
:102620001F2C0ED84FF0300C05F804C001341F2CBD
:1026300007D8B8F1000F3AD04FF02D0C05F804C0C0
:10264000013403960297019400954B46FFF767FF0C
:1026500005B0BDE8F083B4F1010C13D00F9B102B33
:102660000ED064460F9B102BD7D116F0200FD4D07C
:102670001F2CD2D84FF0580C05F804C00134CFE716
:10268000023CC7E76446C5E716F0200FEAD11F2CCD
:10269000E8D84FF0780C05F804C00134C0E71F2CCF
:1026A000CFD84FF0620C05F804C00134B8E716F03B
:1026B000040F05D04FF02B0C05F804C00134C0E71F
:1026C00016F0080FBDD04FF0200C05F804C00134FF
:1026D000B7E7F0B591B0169C189D1B9E0CB926F07B
:1026E000100616F4806E16D064B34FF0000E12E0A0
:1026F0000CF1300C5FFA8CFC0EF101070EF1400E6C
:10270000EE440EF820CCB4FBF5FCAC421BD31F2FDB
:1027100019D8BE466446B4FBF5FC05FB1C4C5FFAB9
:102720008CFCBCF1090FE3D916F0200F08D041272B
:10273000BC445FFA8CFCACF10A0C5FFA8CFCDBE762
:102740006127F5E7274606961A9C0594199C049480
:1027500003959DF85C400294019708AC0094FFF744
:102760001DFF11B0F0BD2DE9F04F95B009900A9111
:102770000B929846DDF878B0DDF87C90229D239F7F
:10278000269E5BEA090201D126F0100616F4806449
:102790001ED05BEA09022FD0002419E03032D3B2F8
:1027A00004F1010A04F150020DEB020404F8203C8C
:1027B0002A463B465846494648F09AFBAB4579EBDA
:1027C00007091BD3BAF11F0F18D854468346894610
:1027D0002A463B465846494648F08AFBD2B2092A67
:1027E000DCD916F0200F05D041231344DBB20A3B9D
:1027F000DBB2D5E76123F8E74FF0000A0696259B88
:102800000593249B049303959DF880300293CDF8A3
:1028100004A00CAB009343460B9A0A990998FFF762
:10282000BDFE15B0BDE8F08F2DE9F04F91B0044624
:102830000D4617461E46DDE91A2310461946FFF7D6
:102840004DFC002840F0ED804FF0FF32AE4BDDE94B
:102850001A01FFF7A3FC002840F0E3804FF0FF329D
:102860006FF48013DDE91A01FFF75CFC002840F0EB
:10287000D88000220023DDE91A01FFF753FC00286D
:1028800040F0E2809DED1A7B8DED067B1E9B13F4DC
:1028900080630D9301D106231C93DDE906231046C6
:1028A0001946CDE9080152EA030100F0D880C3F3CC
:1028B0000A50C3F31303904643F07F5949F440197B
:1028C000A0F2FF30FFF7C2FB7DA3D3E90023FFF79F
:1028D0003BFB7DA3D3E90023FFF70EFB82468B462B
:1028E00000228A4B40464946FFF71AFB78A3D3E9FA
:1028F0000023FFF729FB02460B4650465946FFF7D7
:10290000FBFAFFF7C7FB8246FFF7A0FB804689462C
:1029100071A3D3E90023FFF717FB00227C4BFFF7DD
:10292000EBFAFFF7B7FB83466DA3D3E900234046DC
:102930004946FFF709FB804689465846FFF786FB64
:1029400069A3D3E90023FFF7FFFA02460B4640468E
:102950004946FFF7E5FA8046894602460B46FFF7EF
:10296000F3FACDE90A010BF2FF3B00210022CDE989
:1029700008124FEA0B5309930023089342464B4633
:1029800040464946FFF7B8FACDE90E0142464B46AC
:1029900000204FF08041FFF7C3FA804689460022AD
:1029A0005C4BDDE90A01FFF7F5FA00225A4BFFF70D
:1029B000A3FA02460B46DDE90A01FFF7EBFA002213
:1029C000564BFFF799FA02460B46DDE90A01FFF77D
:1029D000E1FA02460B4640464946FFF78DFA0246A9
:1029E0000B46DDE90E01FFF7D5FA00224C4BFFF74D
:1029F00083FADDE90823FFF7A7FA80468946CDE987
:102A00000889DDE90623FFF7C9FB50B30AF1FF3A55
:102A10000022414B40464946FFF7BCFACDE9080188
:102A20001FE01E9B04931D9B03931C9B02939DED33
:102A30001A7B8DED007B33463A462946204600F04E
:102A400003F911B0BDE8F08F9FED297B8DED067B7A
:102A50001A9B06931B9B03F10043079316E74FF065
:102A6000000A0AF16303C62B27D84FF004081E9B07
:102A700013F4006F5FD0DDE9081213460B4313D047
:102A80001DA3D3E90023DDE90601FFF773FB00284E
:102A900000F0B4801AA3D3E90023DDE90601FFF7B3
:102AA00041FB002800F0AA801C9B53453ADDA3EBB4
:102AB0000A0A0AF1FF331C9336E04FF00508D6E707
:102AC000FB799F501344D33FB3C8608B288AC63F1D
:102AD00061436F63A787D23F71A379094F930A407F
:102AE0001655B5BBB16B0240EF39FAFE422EE63FF8
:102AF00000000000000000002D431CEBE2361A3FEE
:102B00000000000080842E41FFFFEF7F0000F83FAF
:102B10000000E03F00002C4000002440000018406E
:102B20000000F03F00231C931E9B43F480631E9320
:102B30004FF00008C2461D9B984569D2A3EB0809D7
:102B40001E9B13F0020B04D0B8F1000F01D04FF020
:102B50000009BAF1000F07D0DDE90823DDE906011D
:102B6000FFF718FACDE9060100220023DDE91A017A
:102B7000FFF7D8FA00284ED11E9B23F4006304937C
:102B8000CDF80C901C9B02939DED067B8DED007B98
:102B900033463A462946204600F056F8B8F1000F71
:102BA0003FF44FAF1E9B13F0200F3CD04FF0450C6D
:102BB00000F101093346024629466046A0478AEAE9
:102BC000EA72A2EBEA720523059308F1FF3304933E
:102BD000002303930A2302934FEADA7301930092CE
:102BE00033464A4629462046FFF773FDBBF1000FE6
:102BF0003FF427AF0246DDF874901EE01C9B002BCB
:102C000099D00D9B002B96D01C9B013B1C9392E707
:102C10004FF0000994E7DDE90601024601F10043A7
:102C2000CDE90623A8E74FF0650CC1E702F10108E2
:102C3000334629462020A0474246D31B4B45F5D3B7
:102C40001046FEE6000000002DE9F04F2DED028B4E
:102C500095B007900A9192469B46DDE92089229D16
:102C600042464B4640464946FFF738FA002835D1E0
:102C70004FF0FF326FF4801340464946FFF752FA97
:102C800000283AD14FF0FF329F4B40464946FFF7AC
:102C900085FA002840D198A3D3E90023404649464D
:102CA000FFF77CFA00284FD195A3D3E900234046D3
:102CB0004946FFF737FA002846D100220023404654
:102CC0004946FFF72FFA00284CD100230B93249B91
:102CD00013F4806F00F0B780002456E0249B039328
:102CE000239B029303230193884B00935B46524638
:102CF0000A990798FFF713FC37E1249B0393239B62
:102D0000029304230193824B00935B4652460A9937
:102D10000798FFF704FC28E1249B13F004030FD06D
:102D20007C4A7BB104232499039123990291019356
:102D300000925B4652460A990798FFF7F0FB14E1B0
:102D4000754AEEE70323EEE7249B0493239B03934A
:102D50000295CDE900895B4652460A990798FFF72C
:102D600063FD02E142464B4600200021FFF7D8F800
:102D70008046894601230B93A9E704F150036B4475
:102D8000302203F8202C013D01341F2C01D8092DDD
:102D9000F3D840464946FFF77DF90646FFF756F956
:102DA00002460B4640464946FFF7BAF85B4B03EB39
:102DB000C50393ED008B53EC182BFFF7C5F80246C3
:102DC0000B46CDE90823FFF777F90746FFF750F9DF
:102DD00002460B46DDE90801FFF7A2F802460B4662
:102DE000CDE9082300224E4BFFF7D8F968B301372D
:102DF0003846FFF73DF902460B4651EC180BFFF73A
:102E0000A5F908B1013600276DBB3046FFF71EF962
:102E100002460B4640464946FFF782F80746884679
:102E200000223F4BFFF77EF900284CD100223C4B9B
:102E300038464146FFF7B2F9002844D116F0010F99
:102E400041D001363FE0062546E70022344BDDE95C
:102E50000801FFF767F90028D6D117B117F0010F65
:102E6000D2D00137D0E71F2C17D8013D2D4BA3FB43
:102E70000723DB08194603EB8303A7EB4303621C1C
:102E8000303304F150000DEB000404F8203C092F0E
:102E900002D90F461446E6E714461F2C0AD86B1ECB
:102EA00045B104F150026A44302102F8201C1D464D
:102EB0000134F2E71F2C06D804F150036B442E2294
:102EC00003F8202C01341F2C31D8174A82FB06321C
:102ED000F317C3EBA2031A4603EB8303A6EB4303EA
:102EE000611C303304F150000DEB000404F8203C69
:102EF0001646DAB10C46E6E70000000065CDCD418C
:102F00000000000065CDCDC1FFFFEF7FB8B7041012
:102F1000BCB70410ACB70410B4B7041010D604103A
:102F20000000E03FCDCCCCCC676666660C46249BA7
:102F300003F00303012B1DD01F2C09D80B9B002B82
:102F400035D004F150036B442D2203F8202C0134BA
:102F5000249B0393239B029301940CAB00935B4649
:102F600052460A990798FFF7DAFA15B0BDEC028BC2
:102F7000BDE8F08F239BB3B10B9B1BB9249B13F0CF
:102F80000C0F12D0239B013B2393194606E004F15A
:102F900050036B44302203F8202C01348C42CBD2F6
:102FA0001F2CF4D9C8E72399F8E72399F6E7249B67
:102FB00013F0040F07D004F150036B442B2203F8E5
:102FC000202C0134C4E7249B13F0080FC0D004F177
:102FD00050036B44202203F8202C0134B8E700BFD3
:102FE0002DE9F04F91B0804617460F93894600298E
:102FF00000F04B8300260F9B1878002800F04883D0
:10300000252809D0741C3B4632464946C0470F9BD1
:1030100001330F932646EEE701330F9300251FE09F
:1030200045F0010501320F92012318E045F0020539
:1030300001320F92012312E045F0040501320F9294
:1030400001230CE045F0080501320F92012306E050
:1030500045F0100501320F92012300E000234BB32D
:103060000F9A1378203B102BF8D801A151F823F0C8
:10307000453000105D3000105D3000105130001000
:103080005D3000105D3000105D3000105D300010CC
:103090005D3000105D3000105D30001039300010E0
:1030A0005D3000102D3000105D3000105D300010DC
:1030B000213000100B930F9B1A78A2F13003DBB282
:1030C000092B18D92A2A1BD0DDF82CB00F9B1A78AF
:1030D0002E2A25D00F9A1378683B122B5CD8DFE894
:1030E00003F0495BAC5B3B5B5B5B5B5B5B5B575BD8
:1030F0005B5B5B5BB1000FA8FFF7FEF98346E5E77A
:103100001A9B1A1D1A921B68002B04DB9B460F9B0F
:1031100001330F93DAE745F00205C3F1000BF6E740
:1031200045F480655A1C0F925A78A2F13003DBB245
:10313000092B0CD92A2ACDD11A9B1A1D1A921C6868
:1031400024EAE4730B930F9B01330F93C2E70FA89C
:10315000FFF7D2F90B90BDE745F48071531C0F9334
:1031600053786C2B01D00D4616E045F440750232C1
:103170000F9211E045F08001531C0F935378682B98
:1031800001D00D4608E045F0C00502320F9203E081
:1031900045F4807501320F920F9B1878672856D836
:1031A0002528C0F06882A0F12503422B00F263823B
:1031B000DFE813F0560261026102610261026102FE
:1031C00061026102610261026102610261026102E7
:1031D00061026102610261026102610261026102D7
:1031E00061026102610261026102610261026102C7
:1031F0006102610288016801880161026102610265
:1032000061026102610261026102610261026102A6
:103210006102610261026102610271006102610288
:103220006102610261026102610261026102710078
:10323000AF01710088016801880145F40075013211
:103240000F92A9E745F4807501320F92A4E7782820
:1032500000F211826928C0F00E82A0F16902D2B298
:103260000123934049F24102134214D113F0800F1D
:1032700040F0DB8113F4806F00F0FD811A9B1A1D72
:103280001A92D3F800A00B9B002B40F090814FF0D6
:10329000FF32534671E16F280CD005D858283CD036
:1032A000622803D1022306E0782838D025F01005E3
:1032B0000A2300E00823582833D0692803D0642863
:1032C00001D025F00C0515F4806F01D025F0010523
:1032D000692829D0642827D015F4007F40F0948015
:1032E00015F4807F40F0AC8015F0400F00F0BD80F9
:1032F0001A9A111D1A9112780595CDF810B00B99F4
:10330000039102930023019300923B4632464946C3
:103310004046FFF7DEF9064627E01023CBE71023EF
:10332000C9E745F02005C8E715F4007F21D115F461
:10333000807F42D115F0400F58D01A9A111D1A9172
:10334000127882EAE271A1EBE2710595CDF810B036
:103350000B9803900293D20F019200913B463246A4
:1033600049464046FFF7B5F906460F9B01330F93D8
:1033700041E61A9A073222F0070202F108011A9177
:10338000516812680846002913DB0895CDF81CB077
:103390000B9C0694049300230593C90F029100929D
:1033A00001903B46324649464046FFF7DCF9064667
:1033B000DBE7524261EB4100E7E71A9A111D1A91CF
:1033C000126882EAE271A1EBE2710595CDF810B0C6
:1033D0000B9803900293D20F019200913B46324624
:1033E00049464046FFF775F90646BEE715F0800FDF
:1033F00005D01A9A111D1A91B2F90020A1E71A9A64
:10340000111D1A9112689CE71A9A073222F00702DE
:1034100002F108011A910895CDF81CB00B9906919C
:103420000021049305910291D2E90023CDE9002304
:103430003B46324649464046FFF795F9064694E733
:103440001A9A111D1A910595CDF810B00B99039198
:10345000029300230193136800933B46324649468A
:103460004046FFF736F906467FE715F0800F04D097
:103470001A9A111D1A9112883EE71A9A111D1A9173
:10348000126839E746281AD01A9B073323F007033E
:1034900003F108021A920495CDF80CB00B9A02922F
:1034A000D3E90023CDE900233B4632464946404656
:1034B000FFF7CAFB06460F9B01330F939BE545F0D0
:1034C0002005E1E7672801D0472801D145F40065D0
:1034D000452801D0472801D145F020051A9B073324
:1034E00023F0070303F108021A920495CDF80CB0FB
:1034F0000B9A0292D3E90023CDE900233B463246E2
:1035000049464046FFF790F906460F9B01330F935B
:1035100071E515F002051DD001241A98031D1A93B8
:1035200006F1010A3B46324649460078C047A5B934
:103530000F9B01330F9356465DE502F1010A3B46AE
:1035400049462020C047234652465C1C9B45F4D880
:103550001646E2E701233246F7E7524606E0561CDC
:103560003B4649462020C0472C463246651CA345B1
:10357000F5D89246DCE701330A46197811B1511E9D
:10358000002AF8D1A3EB0A0315F480620C9203D051
:103590000B9A934228BF134615F0020409D00D94EC
:1035A000CDF838B00B9D32460C9E9B461FE00B9A1F
:1035B0006FE63246264606E0541C3B46494620202C
:1035C000C0472B4622465D1C9B45F5D834462B460A
:1035D0000D94CDF838B00B9D0C9E9B4607E01D4620
:1035E0000AF1010A541C3B464946C04722469AF854
:1035F000000020B1002EF3D06B1E002DEFD10D9CEA
:1036000016465B46DDF838B054B90F9B01330F9373
:10361000F1E4551C3B4649462020C04723462A4634
:103620005C1C9B45F5D81646EFE745F021051A9B33
:103630001A1D1A921B680595082204920B9A039290
:10364000102202920022019200933B4632464946E4
:103650004046FFF73EF806460F9B01330F93CAE43E
:10366000741C3B46324649462520C0470F9B013318
:103670000F932646BFE4741C3B4632464946C0477A
:103680000F9B01330F932646B5E4DFF82080B1E4A9
:10369000BE4208D37A1E3B4649460020C04730460A
:1036A00011B0BDE8F08F3246F5E700BFE924001005
:1036B0000EB400B584B0014605AA52F8043B03924B
:1036C00000924FF0FF320448FFF78AFC04B05DF827
:1036D00004EB03B0704700BFE124001000B583B0D5
:1036E000009313460A4601460248FFF779FC03B0EF
:1036F0005DF804FBE124001000B585B00290039151
:10370000009313464FF0FF3202A90348FFF768FC0D
:1037100005B05DF804FB00BFEB24001000BEFDE720
:103720000346094A126842B1074A10680344074A2F
:10373000934206D8044A13607047034A0449116053
:10374000F2E74FF0FF307047AC4F00200000082038
:10375000F4550020002070474FF0FF307047000004
:1037600008B538B908461146044BD3E9002300F0E8
:1037700035F908BD4FF0FF30FBE700BFA8D50410B6
:10378000431E012B09D810B5084614460123002218
:10379000214600F0DDF8204610BD4FF0FF307047A5
:1037A0004FF0FF3070474FF0FF3070474FF0FF3061
:1037B000704702288CBF00200120704708B5FFF732
:1037C000ADFF000000B583B08C4619465AB11446CF
:1037D000064B0194009363460246054800F0B0F999
:1037E0000120FFF79BFF034B1C46F2E7C4B7041010
:1037F000D4B70410C4BD041010B5EFF30583DBB2D9
:1038000003B100BEFEF76EFA044C02E054F8043B2C
:103810009847034B9C42F9D310BD00BF98AF0410EA
:10382000C4AF041008B5034608461B681146984704
:1038300008BD0000F8B507460D461646437D13B196
:10384000002420460CE003681146284698472EE0E5
:103850003B7D10E03B68022115489847601C01340D
:10386000B44214DA002CF3DD2B1913F8013C0D2BB4
:1038700014BF002301232A5D0A2AF0D1002BEED1C8
:10388000A042E7DA3B68211A28449847E2E7B042B1
:1038900003DA3B68311A28449847002E07DD354487
:1038A00015F8013C0D2B14BF002301233B75F8BD17
:1038B0007CD6041038B50368BBB105460B4B1C68B9
:1038C00006E0294651F8042B2046FFF7B3FF246990
:1038D0004CB12368002BFAD0054B1B68002BF0D0AD
:1038E000A342F4D1EDE700232B6038BD9C4F0020AC
:1038F000A84F002038B505460C460B68802B05D034
:1039000023685A1C22601C44257138BD0846FFF705
:10391000D1FFF5E708B5FDF7E9FF074A821841F145
:103920000003002B03DB054847F0F6FA08BD4FF013
:10393000FF326FF00043F6E740420F00442E0020B4
:1039400008B5024847F0D8FA08BD00BF442E002051
:103950002DE9F04383B006460D4690461C46FFF71E
:10396000D9FF8146B5F1FF3F04D044B1174F184B42
:103970001C6807E0304640F07DFE0546F5E7154F30
:10398000F5E72469BCB12368002BFAD0124B1B6801
:103990000BB1A342F5D12A4631462046B847B8F1CB
:1039A000000FEED00A238DF8073001220DF1070138
:1039B0002046B847E5E7B9F1000F03D1284603B028
:1039C000BDE8F083FFF7BCFFF8E700BF3538001013
:1039D0009C4F002025380010A84F00202DE9F84307
:1039E00007460E4691469846144B1C6807E0A368AC
:1039F00023B131463846984700281CDC246934B18D
:103A00000F4D2D68002DF2D0A542F7D1EFE70D4BF9
:103A10005B6A984508D80B4A926A4A4509D298458C
:103A200002D06FF0010006E001200021FDF766FFE3
:103A3000DAE76FF00100BDE8F88300BF9C4F00207B
:103A4000A84F002000000B40084A01E003F11002DB
:103A500013683BB18342F9D131B903691360002384
:103A60000361704701B11060704700BF9C4F002098
:103A700010B5054B1C6801E0984724691CB16368C8
:103A8000002BF9D1F9E710BD9C4F002008B500F0DC
:103A9000D1F908BD10B582B00446FDF727FF221802
:103AA00041F10003002B0ADB012101A8FFF796FF7B
:103AB000002802DB40B19DF8040002B010BD4FF0B9
:103AC000FF326FF00043EFE7034B044A40F203116B
:103AD0000348FFF777FE00BF04B8041060D6041057
:103AE00008B8041038B5054640F0C4FD044601236B
:103AF0001A4601462846FFF72BFFFFF7B9FF20467D
:103B000038BD000070B5A2B004460E46FFF702FFB4
:103B10000546002301933346224601A90748FFF7D3
:103B2000EBFD044601A8FFF7C5FEFFF7A1FF15B99D
:103B3000204622B070BDFFF703FFF9E7F53800100B
:103B40000FB400B583B004A951F8040B0191FFF73D
:103B5000D9FF03B05DF804EB04B070477047000074
:103B6000014B00221A707047ED5500204B79FF2B56
:103B70000BD18B795BB9CB79012B0AD1082A0AD9F1
:103B80008A78064B1A700920704700207047002081
:103B90007047002070470020704700BFED5500209F
:103BA00001207047012923D108B59188114B1B785A
:103BB000994201D0002008BD5378012B03D0022B7D
:103BC0000FD00020F7E7518811F4807F06D0480A13
:103BD000C1F3402201F07F01FEF733F84FF0FF30D0
:103BE000F6E7642200210846FDF7CCFF0120E2E75A
:103BF00001207047ED5500200048704748D7041059
:103C000001290FD108B594465378012B0CD1938824
:103C1000072B01D0002008E0A623044A614601F0EA
:103C2000FBFB02E001207047002008BDA0D6041075
:103C3000012303700048704780D6041008B50B6854
:103C4000B3F5966F00D008BD002211464FF0FF304B
:103C5000FDF7F7FF0368EFF3108272B6D3E8CFCF1A
:103C60000121BCF1000FF9D1C3E84C1FBCF1000FDA
:103C7000F4D1BFF35F8F426070470000024B1860C1
:103C8000024B1960704700BF3C4F0020404F00209E
:103C900008B5FDF72BFE0E4A821841F10003002BF8
:103CA00011DB0C4847F038F960B100214FF0FF30CC
:103CB00001F046FA002001F037FD0028F5D1054853
:103CC00047F01AF908BD4FF0FF326FF00043E8E704
:103CD00040420F00CC55002038B5124B1B68C3B1D1
:103CE000104C2046FFF7B6FF00230F4A13702168DF
:103CF0006268C1E88F3F82F31088002400250B4BD7
:103D00001878FCF7D7FE40B9002400252046294644
:103D100038BD4FF47A740025F1E7044B1878FCF7AE
:103D2000F3FEF3E7B4540020EF550020EE550020D9
:103D300008B5024B1878FCF7E7FE08BDEE550020E9
:103D400070B584B0064614461D46FDF7CFFD221817
:103D500045EB0103002B0BDB9DF82810029109991C
:103D60000191089900913046FDF7A4FB04B070BDA5
:103D70004FF0FF326FF00043EEE7F0B585B0054637
:103D80000C4616461F46FDF721FB9DF8283002938E
:103D9000019700962A462346FFF7D2FF05B0F0BDF3
:103DA00010B582B000211D4847F0D2F8B0B91C4BC5
:103DB0001B688BB11A4C2046FFF74CFF194A137849
:103DC00083F0010301211170206862680021C0E8BE
:103DD0008F1F82F31088BBB902B010BD00214FF0D5
:103DE000FF3001F0ADF9002001F078FC04460B48EB
:103DF00047F082F8002CEFD00B4B1B68002BEBD068
:103E00000A4A10689847E7E7012300930B46084ADF
:103E10004FF47A700021FFF7B0FFDDE7CC550020AA
:103E2000B4540020EF5500203C4F0020404F0020AC
:103E3000D93C001010B582B04FF050431C68FDF71C
:103E4000C5FAFDF7A7FBA0422DD1244B1B7800211A
:103E5000084602F013F9224B1B6853B30120FDF70B
:103E600039F8C0B21F4C20701F49FCF76DFE0121CC
:103E70002078FCF73FFE0E20FCF75AFE0446E0B126
:103E80000120FCF78DFD01461848FDF781F800225E
:103E900017490E20FCF788FE01211648FFF7D4FDD4
:103EA000204602B010BD144B144AC1211448FFF73C
:103EB00089FC0B48FDF72AF8D0E70C4A0023136071
:103EC0005360012200920F4A4FF47A700021FFF7ED
:103ED00054FFC443E40F002CE2D0DDE7C4C4051056
:103EE000CC550020EE550020A13D0010B454002018
:103EF000313D0010B01D00204CB8041078D70410DC
:103F000054B80410D93C001008B5002001F0CCFBD7
:103F100008BD000038B504460D46FFF7F5FF90B325
:103F2000002001F0DBFB88B3FDF7E0FC1A4A8218A1
:103F300041F10003002B16DB184846F0EDFF40B3BB
:103F4000FFF7E2FF18B1002001F0C8FB80B90021A3
:103F50004FF0FF3001F0F4F86FF002040F4846F024
:103F6000CBFF204638BD4FF0FF326FF00043E3E750
:103F70002A462146002001F0BDFB04460028EDD171
:103F80006FF00204EAE76FF00204EAE76FF0020460
:103F9000E7E76FF00204E4E740420F00CC55002051
:103FA000F8B507460D46FDF7A1FC2E4A821841F1EF
:103FB0000003002B04DB2C4846F0AEFF28B9F8BD07
:103FC0004FF0FF326FF00043F5E7FFF79DFF002849
:103FD00045D1264B00200021C3E90001224846F0CC
:103FE0008BFFECE700214FF0FF3001F0A9F8002033
:103FF00001F09AFBFFF788FF0028EFD0002001F0C6
:1040000017FCF8B1AC42E9DA2E1B002001F010FCDD
:10401000864200DC30460028E4D0024639190020F0
:1040200001F0E4FB064600214FF0FF3001F088F874
:10403000002001F079FB3444FDF758FC0B4BC3E939
:104040000001DFE7FDF752FC084A13685268084E8A
:104050009B1942F1000283428A41D3D2BEE7002479
:10406000D0E700BF40420F00CC550020A031002017
:1040700020A1070000487047F4D70410004870479B
:10408000A0D7041010B50446144B1B786BB18CB943
:10409000134B40F209425A80012301335B009BB26B
:1040A0000F4843F44073038010BD11210B4800F00A
:1040B00047F8ECE7052C0ED80A4B53F824000023F0
:1040C000122BEAD8C25C002AE7D00133044921F858
:1040D0001320DBB2F4E70020E6E700BFD455002050
:1040E000744F002088D7041000B58BB045F24730DC
:1040F000FDF798FD03460122092101A898470428ED
:1041000001D100230EE00A4B0A4A29210A48FFF791
:1041100059FBC3F10F0228326A4412F8241C074AE3
:10412000D1540133072BF4DD0BB05DF804FB00BF65
:10413000E0B8041028D80410E8B80410E0540020B7
:1041400008B511B18C4600220AE0114B114A352105
:104150001148FFF737FB00210FE03733835401325A
:104160000CF1FF3393420FD90F2A0DD853080B4996
:10417000CB5C12F0010FEED104210B4103F00F03D1
:10418000092BEADC3033E9E70023835408BD00BF84
:1041900034B9041008D80410E8B80410E054002022
:1041A00010B400F07F044FEA440C0CEBD01C284BF9
:1041B00003EB4C139870C0090CBF4FF0010C4FF08B
:1041C000000C83F801C04FF0000C83F803C0198382
:1041D000DA76E0B9E3001F4A1A4400EB44011C4BB5
:1041E00003EB41139A6000EB4402194B03EB4213BB
:1041F0009B6800221A60A4B900EB4400144B03EB47
:1042000040104260144BC3605DF8044B7047134A82
:1042100002EBC40200EB44010D4B03EB41139A6027
:10422000E1E750B9631EDB000D4A1A4400EB44007D
:10423000074B03EB40135A60E6E7631E094A02EBA3
:10424000C30200EB4400024B03EB40104260DBE78B
:10425000B04F00208400105000011050800010501A
:104260000C0010500800105008B5038B3F3323F0AA
:104270003F03C27E022A08D008490A68C26013447C
:104280000B60074A934202D808BD5B00F4E7054B78
:10429000054A52210548FFF795FA00BF98540020BF
:1042A000FF0F10503CB9041074D8041080B90410EA
:1042B00070B500F07F054FEA450C0CEBD0130C4CA9
:1042C00004EB4314FFF76CFF05B970BD218B20464A
:1042D000FFF7CAFFE27EE36883F0A04383F4801314
:1042E00043EA826343F0004362681360EDE700BF76
:1042F000B04F002008B500F07F035B0003EBD01047
:10430000024B03EB401000F01BF908BDB04F00203A
:1043100008B520B901210E20FCF7ECFB08BD034BCA
:10432000034A40F297110348FFF74CFAF0B9041022
:1043300064D8041080B9041008B528B900221146C9
:104340008020FFF7D7FF08BD034B044A40F2A111BC
:104350000348FFF737FA00BFF0B9041054D804102F
:1043600080B90410024B4FF48032DA64704700BF0A
:104370000020115070B548BB064600F0C1F8174C3C
:104380000C23A367FF2216490E20FCF70DFC4025E5
:104390002A46002113483CF015F900222946104610
:1043A000FFF786FF002229468020FFF781FF46F0B5
:1043B000C3FD012525644FF00053E3640A4BC4F8A4
:1043C00090303046FFF7CEFF284670BD074B084AB5
:1043D00040F263110748FFF7F5F900BF00001150E4
:1043E00099030020B04F002010D00100F0B9041054
:1043F00088D8041080B90410044B197021B1044B03
:104400004FF40032C3F89020704700BFEA550020F7
:10441000002011500B7813F07F0F02D14B78052B41
:1044200000D070474B88DBB2014A1360F9E700BF48
:1044300000001150CA7802F00302012A09D008B521
:104440000B468988C1F30A019878FFF731FF0120F4
:1044500008BD0020704708B546F06EFD08BD00009D
:1044600010B530B9084611461A46FFF743FF012040
:1044700010BD034B034A4FF401710348FFF7A2F943
:10448000F0B9041044D8041080B9041008B511F034
:104490007F0304D1CA090ED10220084A90665B004E
:1044A00003EBD1134FF400620021054800EB4310E9
:1044B00046F02EFD08BD0120EFE700BF002011509F
:1044C000B04F002008B511F07F0300D108BD5B009C
:1044D00003EBD113044800EB43100022C2706FF4C9
:1044E000006146F015FDF1E7B04F002004E011F83F
:1044F000012B00F8012B1A46531E002AF7D17047F2
:1045000008B54FF080530A4A136002F580521360D9
:10451000084B9B6813F0805FFAD04FF48052002163
:1045200005483CF04FF8054B09225A6708BD00BF0B
:104530000020024000000240000010500000115016
:1045400070B504460D461646837EABB9A68200239D
:10455000E3820123A3762561204646F0F1FC20B1D9
:104560000B4B4FF40032C3F89020204646F0ECFC91
:1045700050B10123237770BD81780648FFF7E0FA38
:10458000204646F08DFCE1E7204646F0A1FCF2E72C
:1045900000201150E0BA04100368EFF3108272B6E5
:1045A000D3E8CFCF0121BCF1000FF9D1C3E84C1FF4
:1045B000BCF1000FF4D1BFF35F8F42607047000081
:1045C00038B50546002408E0D21A1B4B03EB421312
:1045D000DB68284698470134E4B2184B1B78224622
:1045E000591CA14215DBA342EED9154B1B6813EBF6
:1045F0004413EDD140F2252212491348FFF7A0FAE7
:104600004FF0E023D3F8F03D13F0010F13D000BEBC
:1046100011E00E4C5422002120463BF0D3FF4FF016
:10462000FF336360A360E36023612022FF2104F174
:1046300014003BF0C7FF38BD5CD90410E9550020D9
:104640007C49002028D9041018BB0410544B0020CA
:1046500008B5FFF7B5FF00F035FF08BD70B505469A
:104660000C461646486900F037FF6369324601215F
:104670002846984770BD00002DE9F04F83B0824670
:10468000481EC0B2FFF7FAFC20B18346437801937D
:10469000022B11D040F2D63262496348FFF750FA3C
:1046A0004FF0E023D3F8F03D13F0010F00D000BE2F
:1046B000002003B0BDE8F08FC279C2F340105B4B1D
:1046C000197860F304111970C2F38012C9B262F351
:1046D000451119700BF10908BBF802309B447BE0CF
:1046E00098F8033098F8002090447DE040F2F132D1
:1046F0004C494D48FFF724FA4FF0E023D3F8F03D42
:1047000013F0010F00D000BE0020D2E7F31A484A90
:1047100002EB4319D9F810302A46414650469847D3
:10472000082801D985421ED20134E4B2414B1B78DE
:1047300026465A1CA2424ADBA342E7D93E4B1B68DD
:1047400013EB4419E6D140F2FA3236493648FFF706
:10475000F7F94FF0E023D3F8F03D13F0010F00D04C
:1047600000BE0020A5E73B464F468146012B11D0F5
:1047700000218B4224D998F802200A44D2B22B4857
:1047800010440079FF280BD12848024414710131EC
:10479000C9B2EEE73969294A9142E9D1019BE7E7BD
:1047A00040F219421F492048FFF7CAF94FF0E023B1
:1047B000D3F8F03D13F0010F00D000BE002078E7E1
:1047C00023464A4641461E4801F064FDC844194B41
:1047D0001B7801339E4212DCD84520D298F8013074
:1047E0000B2B3FF47DAF012398F80120042A7FF4BE
:1047F0007DAFABEB0805ADB200241F4696E74FF442
:10480000856208490848FFF79BF94FF0E023D3F889
:10481000F03D13F0010F00D000BE002049E7012059
:1048200047E700BFFCD8041018BB0410544B00200D
:104830005CD90410E95500207C490020A9590010DA
:10484000684B002070477047002070470020704779
:1048500038B505460C464B881A0AD8B2531E0E2BA3
:1048600064D8DFE803F0082D4E6363592D6363635A
:10487000636363632200FFF7FDFB024628B1122346
:104880002146284600F0C8FD51E040F23A422C494A
:104890002C48FFF755F94FF0E023D3F8F03D13F023
:1048A000010F00D000BE002041E0FFF7A5F902464D
:1048B00000283DD043882146284600F0ADFD36E073
:1048C000022A09D0FFF7C2FF024698B35388214657
:1048D000284600F0A1FD2AE0FFF7D0FB02460028A1
:1048E000F4D140F2614216491648FFF729F94FF01A
:1048F000E023D3F8F03D13F0010F00D000BE0020FC
:1049000015E0A188FFF7BEFB0246A8B10378214657
:10491000284600F081FD0AE0FFF796FF024668B1E5
:1049200003782146284600F077FD00E0002038BDDE
:104930000020FCE70020FAE70020F8E70020F6E777
:10494000E4D8041018BB04107047704770477047D4
:10495000024B5878003818BF01207047544B002094
:10496000024B1878C0F38000704700BF544B002002
:10497000024B1878FF3818BF01207047E41D002053
:10498000F8B506460D46FFF7F3FF0746002854D159
:1049900005B35422002137483BF014FE364B002269
:1049A0001A70364C2046FCF7B1FA354B1C60354C7A
:1049B0002046FCF7F5FA143C204602F01EF8324B74
:1049C0001C60324B23B13248FFF732F9314B18608B
:1049D000002417E04FF4E9722F493048FFF7B0F890
:1049E0004FF0E023D3F8F03D13F0010F25D000BEC7
:1049F00023E0D21A2A4B03EB42135B687BB1984742
:104A00000134E4B2224B1B782246591CA14216DB2A
:104A1000A342EED91F4B1B6813EB4413EDD14FF4A7
:104A2000F8721D491D48FFF78BF84FF0E023D3F8CB
:104A3000F03D13F0010F00D000BE3846F8BD194B11
:104A40001E7029463046FFF795FC074618B13046E0
:104A5000FFF75EFCF1E74FF4FC720F490F48FFF7D8
:104A60006FF84FF0E023D3F8F03D13F0010FE4D0DE
:104A700000BEE2E7544B0020EB5500204C4B0020D9
:104A8000A84B0020DC1D0020AC4B0020313C001066
:104A9000E95500207C4900204CD9041018BB0410B3
:104AA0005CD90410E41D002070B51A4B1E788B7879
:104AB00013F0700F0ED10C46174B9978204601F079
:104AC00079FB0546B0B121463046FFF7B3FC0546F9
:104AD000284670BD40F20B5210491148FFF730F8DC
:104AE0004FF0E023D3F8F03D13F0010F00D000BEEB
:104AF0000025EDE740F20C5208490948FFF720F87D
:104B00004FF0E023D3F8F03D13F0010FE0D000BEEA
:104B1000DEE700BFE41D0020544B0020B4D8041091
:104B200018BB04102DE9F84F80460C4616461F4668
:104B3000DDF82890DDF82CA0002526E040F2E742C1
:104B40001F492048FEF7FCFF4FF0E023D3F8F03D6B
:104B500013F0010F00D000BE4FF0000B5846BDE827
:104B6000F88F4FF49D6216491648FEF7E9FF4FF0A3
:104B7000E023D3F8F03D13F0010FEFD000BEEDE7D6
:104B80008AF8003023781C440135AE4214DD637886
:104B9000052BD3D1E17801F00301B942CED12146F2
:104BA0004046FFF781FF83460028DAD0A378DA0970
:104BB000E6D189F80030E5E74FF0010BCEE700BF02
:104BC000C4D8041018BB041008B501F07F004000E1
:104BD00000EBD1103030044B1844044B19680430FA
:104BE00001F0A2FA08BD00BF544B0020A84B0020E2
:104BF00008B501F07F00400000EBD1103030044BCD
:104C00001844044B1968043001F0B6FA08BD00BF1F
:104C1000544B0020A84B002070B51F48007801F0CD
:104C20007F051E4C04EB450C0CEBD11C9CF834406A
:104C300014F0010F1FD1CE09184C04EB4504344485
:104C400094F834C04CF0010C84F834C03034FFF7D1
:104C500007FCF8B9227922F001022271227922F0B0
:104C6000040222714FF0E023D3F8F03D13F0010F5E
:104C700010D000BE0EE040F2395209490948FEF753
:104C80005FFF4FF0E023D3F8F03D13F0010F00D0A9
:104C900000BE002070BD00BFE41D0020544B00206A
:104CA000A4D8041018BB041038B501F07F05CC0956
:104CB0000A4B1878FFF7EAFB094B03EB4503234443
:104CC00093F8342042F0020283F8342093F8342021
:104CD00042F0010283F8342038BD00BFE41D0020FB
:104CE000544B002038B501F07F05CC090A4B1878E9
:104CF000FFF7E8FB094B03EB4503234493F834200B
:104D000022F0020283F8342093F8342022F00102CA
:104D100083F8342038BD00BFE41D0020544B002030
:104D200001F07F02044B03EB420303EBD11191F836
:104D30003400C0F340007047544B00202DE9F0418F
:104D400082B006460C46002000F0C6FB237803F034
:104D50006003602B21D0402B32D0227802F01F025A
:104D6000012A00F00281022A00F04381002A40F06B
:104D7000C981202B2ED0002B4DD16378092B00F256
:104D8000E980DFE813F0D400C400E700B400E700D6
:104D90005200AE00E70061006E004FF43572B24978
:104DA000B248FEF7CDFE4FF0E023D3F8F03D13F00C
:104DB000010F00D000BE0025284602B0BDE8F081FA
:104DC000AB4800F089FB224601213046FEF718FF70
:104DD0000546F1E7A388DBB20F2B00F29D81A54ABF
:104DE00013441B79A44A1278934206D2A34A11684D
:104DF00011EB431109D10025DEE7511C9942C0F2A5
:104E00008D819B1A9E4901EB431122463046FFF7E4
:104E100025FC0546D0E74FF0E023D3F8F03D13F032
:104E2000010F00D000BE0025C6E7204600F05AFB67
:104E30006188C9B23046FFF77FFA8E4A137843F093
:104E4000020313700125B7E78A4B5B788DF80630B3
:104E500001230DF106022146304600F0DDFA01255E
:104E6000AAE76588EDB2834B5B78DBB2AB4232D008
:104E7000804B5B785BB97F4B5D7055B329463046FC
:104E8000FFF7FAFB054690B1FFF75EFD23E0002136
:104E90003046FFF7B1FA3046FFF7DDFA754F97F865
:104EA00002803046FFF78CFB87F80280E3E74FF47F
:104EB00049726D496D48FEF743FE4FF0E023D3F889
:104EC000F03D13F0010F00D000BE6A4B00225A7073
:104ED00072E7FFF73AFD2146304600F089FA0125D6
:104EE0006AE721463046FFF7B3FC054664E763886E
:104EF000012B01D000255FE75E4A137843F00803D9
:104F000013702146304600F073FA012554E7638898
:104F1000012B01D000254FE7564A137823F00803F0
:104F200013702146304600F063FA012544E7514BE7
:104F30001B789A08C3F3401302F002021343ADF842
:104F4000063002230DF106022146304600F064FAD5
:104F5000012531E74FF0E023D3F8F03D13F0010FC6
:104F600000F0DE8000BE002526E7A388DBB20F2B11
:104F700000F2D8803F4A13441B793F4A127893428B
:104F800022D23E4A116811EB431100F0CD80224637
:104F90003046FFF763FB054600287FF40DAF23780A
:104FA00013F0600F7FF408AF63780A3B012B3FF6E4
:104FB00003AF00F091FA63780A2B0ED021463046F9
:104FC00000F016FA0125F7E6511C9942C0F2AE80B6
:104FD0009B1A2B4901EB4311D9E700238DF80630CA
:104FE00001230DF106022146304600F015FA012595
:104FF000E2E6A288D1B202F07F05C2F3C01012F03F
:10500000700F17D11B4A02EB45020244127D1A4869
:10501000007882421ED21948056805EB42158BB311
:10502000002D00F08580224629463046FFF716FB0A
:105030000546C1E640F295320B490C48FEF780FD6B
:105040004FF0E023D3F8F03D13F0010F00D000BE85
:105050000025B1E6451C954204DB121A084D05EB0C
:105060004215DCE70025DAE710D9041018BB04105C
:10507000013C0010544B0020E95500207C490020E1
:105080005CD904106378012B10D0032B0ED07BBBAE
:105090003046FFF745FEADF8060002230DF106028B
:1050A0002146304600F0B8F9012585E6628822B92C
:1050B000012B19D03046FFF7F7FD002D3AD02246DC
:1050C00029463046FFF7CAFA002000F005FA1B4BCC
:1050D00093F8355015F001057FF46EAE2146304649
:1050E00000F086F9012567E63046FFF7FBFDE4E7AF
:1050F0004FF0E023D3F8F03D13F0010F00D000BED5
:10510000002559E64FF0E023D3F8F03D13F0010FEE
:1051100012D000BE00254FE600254DE600254BE6E7
:10512000002549E6002547E6002545E6002543E63B
:10513000002541E601253FE600253DE6544B0020D1
:1051400010B584B0FFF714FC48B904B010BD9DF849
:105150000400FFF77DFA9DF808207F4B9A707F4B83
:105160001C6804F11400FFF717FA01A9204601F0AA
:10517000ECFB6169A3690022C1E88F2F83F31088DB
:105180000028E2D09DF80530013B072B00F2DA80C1
:1051900001A252F823F000BF4F510010B951001086
:1051A00031530010F752001011530010C751001076
:1051B0005D520010235300109DF80400FFF748FAD9
:1051C000FFF7C3FBCBE7664B1B78002B36D0644A56
:1051D0001378013BDBB213701378002BBFD15E4B09
:1051E0001A7842F001021A7093F8342022F001027A
:1051F00083F8342093F8342022F0040283F834201A
:1052000093F8352022F0010283F8352093F83520F9
:1052100022F0040283F8352002A99DF80400FFF76C
:105220008DFD00289BD100219DF80400FFF72EF989
:1052300080219DF80400FFF729F990E740F26522EC
:1052400048494948FEF77CFC4FF0E023D3F8F03D95
:1052500013F0010F3FF479AF00BE76E79DF8081018
:1052600001F07F00CC093C4B03EB400303EBD1136F
:1052700093F8342022F0010283F8342093F834208C
:1052800022F0040283F83420A8B1334B03EB40032F
:1052900023441B7D354A1278934214D2344A126853
:1052A00012EB431317D09C69039B9DF809209DF8CE
:1052B0000400A04753E7039B9DF809209DF80400D4
:1052C00000F01EF94BE7501C984204DB9B1A294A58
:1052D00002EB4313E7E74FF4247222492248FEF71A
:1052E0002FFC4FF0E023D3F8F03D13F0010F3FF413
:1052F0002CAF00BE29E7184B1B7813F0010F3FF4C9
:105300002EAF154B1878C0F3C000FFF71FFB26E740
:10531000114B1B7813F0010F3FF421AFFFF717FB80
:105320001DE7029B002B3FF41AAF0398984716E73E
:10533000094BDB7813F0010F3FF411AF0298FFF730
:1053400082FA0CE74FF0E023D3F8F03D13F0010FA1
:105350003FF405AF00BE02E7544B0020AC4B0020E9
:10536000EB5500203CD9041018BB0410E95500206F
:105370007C4900205CD9041008B591F90030002B5D
:1053800005DB802100231A46FFF746FC08BD0021FB
:10539000F8E70000F8B50746134B9E89DD89741BBA
:1053A000A4B2402C28BF402493F90030002B08DB26
:1053B0000021AE4213D00D4A23463846FFF72CFC9D
:1053C000F8BDAE4209D0084B9968402C09D8224656
:1053D00006483FF0D9F88021EBE78021E9E7002279
:1053E000EAE70020ECE700BF0C4B0020CC4A00208D
:1053F00008B586460B46074A944608684968ACE8F3
:10540000030000219160D181918119467046FFF718
:10541000B3FF08BD0C4B002038B505468C46264C22
:10542000A64608684968AEE80300A2600021E18151
:10543000BCF806108B4228BF0B46A381BCF80610AF
:1054400029B303B132B12846FFF7A4FF044680B167
:10545000204638BD722219491948FEF771FB4FF0FA
:10546000E023D3F8F03D13F0010F00D000BE00247C
:10547000EEE7742211491248FEF762FB4FF0E02379
:10548000D3F8F03D13F0010FE2D000BEE0E7614633
:105490002846FFF771FF04460028D9D17622074934
:1054A0000748FEF74DFB4FF0E023D3F8F03D13F033
:1054B000010FCDD000BECBE70C4B0020B4D90410B7
:1054C00018BB0410034B00221A605A609A60DA601D
:1054D0001A6170470C4B0020014B1861704700BFE8
:1054E0000C4B00200146054B1A460068496803C270
:1054F00000229A60DA819A81704700BF0C4B00202D
:1055000038B505461C463D4B1B78DB09B3EBD11F74
:105510001CD07CB19D223A493A48FEF711FB4FF06E
:10552000E023D3F8F03D13F0010F00D000BE0024BB
:10553000204638BD314C2146FEF76CFF23691BB174
:1055400022460321284698470124F1E72B4B93F983
:105550000030002B07DB294B986800284CD02246EE
:1055600029493FF011F8254AD38913FA84F39BB2F5
:10557000D381916821449160D288934201D03F2C1D
:1055800026D81E4B1B6923B11C4A02212846984786
:10559000A0B11A492846FFF7EFFE04460028C7D1FC
:1055A000C52217491748FEF7CBFA4FF0E023D3F88E
:1055B000F03D13F0010FBBD000BEB9E70021284633
:1055C000FEF764FF80212846FEF760FF0124AFE765
:1055D0002846FFF7DFFE04460028A9D1CD2208495E
:1055E0000848FEF7ADFA4FF0E023D3F8F03D13F092
:1055F000010F9DD000BE9BE7002499E70C4B0020D3
:105600009CD9041018BB0410CC4A002038B50446BD
:10561000FFF79EF950B90023184633B1204BC8223A
:1056200002FB0433DB7843B9002038BDFFF798F95B
:1056300008B90123F0E70023EEE7154604FB05F562
:105640001035174B1D44284601F069F93F2801D851
:105650000020EAE7124BC82202FB0433D97800206D
:10566000FFF7B2FA0028E0D0284601F058F93F28A9
:105670000CD90B49C82303FB04114023094A02EB50
:10568000C412C9780020FFF7C7FACEE7044BC8223E
:1056900002FB0433D9780020FFF7AAFA0020C4E700
:1056A000044A00208049002010B50446FFF750F955
:1056B00008B9002010BDFFF753F948B9064BC822BE
:1056C00002FB04331B7913F0010F03D00120F1E733
:1056D0000020EFE70020EDE7044A002008B5C823CA
:1056E00003FB00F01030024B184401F0E7F808BD4E
:1056F000044A002038B50446C82300FB03F31033E6
:10570000084818444FF6FE739A4208D892B201F046
:105710003BF905462046FFF779FF284638BD4FF68E
:10572000FF72F4E7044A002070B50546FFF710F950
:1057300018B9002343B9002070BDFFF711F908B96B
:105740000123F7E70023F5E7C82405FB04F4203420
:10575000224B1C440434204601F0B0F808B9002064
:10576000EAE71E4BC82202FB053399780020FFF7B9
:105770002BFA08B90020DFE7EE014036184B1E4433
:1057800040223146204601F0FFF80446D8B11349C3
:10579000C82303FB05110346324689780020FFF732
:1057A0003BFA08B12046C7E7D5220E490E48FEF75E
:1057B000C7F94FF0E023D3F8F03D13F0010F00D00C
:1057C00000BE0020B8E7054BC82202FB05339978DC
:1057D0000020FFF70DFA0020AEE700BF044A0020CA
:1057E00080490020E4D9041018BB041070B50546A8
:1057F000C82400FB04F420340C4B1C4404344FF642
:10580000FE739A420BD892B2204601F0F1F8064698
:10581000204601F053F83F2804D8304670BD4FF6BB
:10582000FF72F1E72846FFF77FFFF6E7044A002002
:1058300008B5C82303FB00F02030034B18440430A4
:1058400001F06DF808BD00BF044A00202DE9F043C7
:1058500083B0C822002124483AF0B4FE0025234B2F
:105860001D7015B103B0BDE8F0831F4FC82405FBC0
:1058700004F43E19FF2373714FF4E133B3604FF02A
:10588000000886F80C8086F80D800823B37304F1B5
:10589000380104F11000CDF8008001234022394482
:1058A000384400F0DAFF04F1780104F120003844B4
:1058B0000123009340223944043000F0CEFF04F16C
:1058C000B809B9444846FBF721FBC0343C442046A4
:1058D000FBF71CFBC6F81C80C6F820903463C6F8A2
:1058E00034800135EDB2BCE7044A0020004A0020B4
:1058F00000230BB1012070479C460C4AC82101FBD4
:105900000322116A106B31B1084AC82101FB03223E
:105910000021D161116230B1044AC82101FB0C227F
:105920000021116351630133DBB2E2E7044A002036
:1059300038B5002404B138BD2546C82304FB03F361
:10594000174958180022CA500271164B1B7813F0E1
:10595000010F11D0134B1B7813F0020F15D0C82381
:1059600003FB05F020300E4B18440121043001F0F8
:105970005FF80134E4B2DDE7C82304FB03F310331E
:105980000846184401F039F8E4E7C82005FB00F0A8
:105990002030034B1844043001F02FF8DFE700BF3C
:1059A000044A0020004A00202DE9F04182B04B79E2
:1059B000022B7DD106468B79022B7ED100273FB189
:1059C0008FB98B7888F800300B78CC1809251EE049
:1059D000C8203B4B00FB073898F80230002BEFD073
:1059E0000137FFB2EBE740F2411236493648FEF785
:1059F000A7F84FF0E023D3F8F03D13F0010F00D0EB
:105A000000BE002555E023781D44ADB21C446378E8
:105A1000242B01D19542F6D9052B09D06378042BAC
:105A200002D163790A2B20D03846FFF7EFFD40E022
:105A300021463046FFF738F838B1A37888F80130AE
:105A400023781D44ADB21C44E8E740F253121D49CF
:105A50001D48FEF775F84FF0E023D3F8F03D13F042
:105A6000010F00D000BE002523E021780D44ADB227
:105A700008F10203019308F10303009302231A467D
:105A800021443046FFF74EF810B10E35ADB2CBE7EA
:105A90004FF4B1720B490C48FEF752F84FF0E02377
:105AA000D3F8F03D13F0010F00D000BE002500E058
:105AB0000025284602B0BDE8F0810025F9E700BFC7
:105AC000044A0020D8D9041018BB0410137803F03E
:105AD0006003202B78D170B59446002454B1002C7B
